:020000040800F2
:100000004845002081020008EB1D0008091B00087C
:10001000E91D0008B10300082D24000800000000BD
:10002000000000000000000000000000C101000806
:10003000CD030008000000001D020008F11D0008AB
:100040009B0200089B0200089B0200089B0200081C
:100050009B0200089B0200089B0200089B0200080C
:100060009B0200089B0200089B0200089B020008FC
:100070009B0200089B0200089B0200089B020008EC
:100080009B0200089B0200089B020008C1030008B5
:10009000B50300089B0200089B0200089B020008B1
:1000A0009B020008BD1E00089B0200089B0200087E
:1000B0009B0200089B0200089B0200089B020008AC
:1000C0009B0200089B0200089B0200089B0200089C
:1000D0009B0200089B020008212400089B020008E4
:1000E0009B0200089B0200089B0200089B0200087C
:1000F0009B0200089B0200089B0200089B0200086C
:100100009B0200089B0200089B0200089B0200085B
:100110009B0200089B0200089B0200089B0200084B
:100120009B0200089B0200089B0200089B0200083B
:100130009B0200089B0200089B0200089B0200082B
:100140009B0200089B0200089B0200089B0200081B
:100150009B0200089B0200089B0200089B0200080B
:100160009B0200089B0200089B0200089B020008FB
:100170009B0200089B0200089B0200080000000090
:100180009B0200089B0200089B0200089B020008DB
:100190009B0200089B0200089B0200089B020008CB
:1001A00000000000000000009B020008DFF80CD0F7
:1001B00000F0ECF800480047B12400084845002052
:1001C0002C4B19680868B0E8F04F80F30988BFF33A
:1001D0006F8F4FF0000080F311887047000000001F
:1001E00008480068006880F308884FF0000080F33A
:1001F000148862B661B6BFF34F8FBFF36F8F00DF15
:1002000000BF00BF08ED00E0DFF80C00016841F41A
:1002100070010160704700BF88ED00E0EFF30980D6
:10022000BFF36F8F134B1A681EF0100F08BF20ED3D
:10023000108A20E9F04F106009B44FF0500080F3AD
:100240001188BFF34F8FBFF36F8F02F09DFD4FF00A
:10025000000080F3118809BC19680868B0E8F04F05
:100260001EF0100F08BFB0EC108A80F30988BFF3AE
:100270006F8F704720000020EFF30580704700006B
:100280000648804706480047FEE7FEE7FEE7FEE730
:10029000FEE7FEE7FEE7FEE7FEE7FEE7A11E000839
:1002A000AD0100082DE9F05F0546002092469B460F
:1002B00088460646814640241BE02846414647467C
:1002C000224600F053F853465A46C01A914110D3C3
:1002D00011461846224600F03AF82D1A67EB01083D
:1002E0004F4622460120002100F031F817EB0009AB
:1002F0004E41201EA4F10104DFDC484631462A4667
:100300004346BDE8F09F40EA01039B0703D009E0A4
:1003100008C9121F08C0042AFAD203E011F8013BF1
:1003200000F8013B521EF9D27047D2B201E000F84A
:10033000012B491EFBD270470022F6E710B5134689
:100340000A4604461946FFF7F0FF204610BD202A52
:1003500004DB203A00FA02F1002070479140C2F11C
:10036000200320FA03F3194390407047202A04DB4E
:10037000203A21FA02F00021704721FA02F3D0401E
:10038000C2F120029140084319467047064C074DC0
:1003900006E0E06840F0010394E807009847103455
:1003A000AC42F6D3FFF706FFE43500080436000838
:1003B000FEE70000014800F018B9000084000020AA
:1003C000014800F012B90000840000207047704717
:1003D00090F82020012A07D0022A05D0416A41F472
:1003E0008021416201207047006842690A434261EE
:1003F0000020704710B590F82020012A07D0022A6B
:1004000005D0416A41F480214162012010BD3B4882
:10041000D0F8002242F00102C0F80022D0F80022F9
:1004200022F47C52C0F80022D0F800224B6A42EA43
:100430000322C0F800220A7D02F01F0301229A4025
:10044000D0F81C329343C0F81C32CB69B3B9D0F852
:100450000C329343C0F80C328C894B6864F31F4311
:100460004C6900EBC404C4F840320C890B6864F397
:100470001F434C6900EBC404C4F84432CB69012B20
:1004800016D1D0F80C321343C0F80C320C884B68EC
:1004900064F31F434C6900EBC404C4F840320C8978
:1004A000CB6864F31F434C6900EBC404C4F84432C6
:1004B0008B69002BD0F804320ED01343C0F80432FD
:1004C0000B69002BD0F8143208D01343C0F8143253
:1004D000096A012904D008E09343EFE79343F5E765
:1004E000D0F81C121143C0F81C12D0F8001221F0F1
:1004F0000101C0F80012002010BD0000006400409F
:10050000704730B590F82040012C05D0022C03D064
:10051000416A41F480215DE00468002955D02469D6
:10052000A40754D04FF4D874056804EB01142D5976
:1005300015F00405956005682D594ED0ED085560FD
:1005400005682C5904F00204D4604FF4DA7405688D
:1005500004EB01142D5905F00F05156105682D599F
:10056000C5F30725956105682C59240C54614FF497
:10057000DC72046802EB0112A4581C700468A458D1
:10058000240A5C700468A458240C9C700468A25867
:10059000120EDA704FF4DE72046802EB0112A458F6
:1005A0001C710468A458240A5C710468A458240CC3
:1005B0009C710468A258120EDA71006881B1016959
:1005C00041F020010161002030BDE468A8E7416AE4
:1005D00041F400114162012030BD6D0D1560AFE79F
:1005E000C16841F02001C160EDE72DE9F05F0546EB
:1005F000006800244669D0F804908768D0F80CB0F1
:10060000D0F810A0D0F81880F10748D0F90714D01E
:1006100001218160B80703D5284600F020FA0CE0DC
:10062000780702D54FF4006407E0380702D54FF48D
:10063000805402E0284600F011FAF80516D5296822
:100640004FF480708860B80503D5284600F009FA99
:100650000CE0780502D544F4005407E0380502D5D3
:1006600044F4804402E0284600F0FAF9F80316D575
:1006700029684FF480308860B80303D5284600F01D
:10068000F2F90CE0780302D544F4004407E03803A3
:1006900002D544F4803402E0284600F0E3F9300744
:1006A00007D55FEACB6004D52968102044F40074B4
:1006B000C86070074FF0080707D55FEA0B7004D5D4
:1006C0002868C760284600F05FF9B00706D528689B
:1006D000C068800702D0284600F058F9700607D598
:1006E0005FEACA6004D52968102044F48064086178
:1006F000B00607D55FEA0A7004D528680761284666
:1007000000F07CF9F00606D528680069800702D061
:10071000284600F074F9B00308D55FEAC96005D532
:10072000296810204860284600F06AF9F00307D5D0
:100730005FEA097004D528684760284600F094F9FC
:10074000300446D55FEA497040D5F00504D55FEA2C
:10075000C87001D044F00104B00504D55FEA887088
:1007600001D544F00204700504D55FEA487001D554
:1007700044F00404300529D518F0700F26D008F095
:100780007000402815D006DC102809D020280AD097
:10079000302816D10AE050280ED0602811D10EE082
:1007A00044F008040DE044F010040AE044F0200492
:1007B00007E044F0400404E044F0800401E044F425
:1007C00080742868816921F07001816129680420A2
:1007D0004860002C05D0686A204368622846FFF70D
:1007E0008FFEBDE8F09F70B5040003D094F82000A0
:1007F00010B104E0012070BD204600F081F82068AF
:10080000016821F00201016000F032FA0546052678
:1008100004E000F02DFA401B0A2811D82068406837
:100820008007F6D42068016841F00101016000F002
:100830001FFA05460BE000F01BFA401B0A2806D9F8
:10084000606A40F40030606284F82060D2E720687B
:100850004068C007EFD0207E0128206801683DD0A5
:1008600021F080010160607E01282068016838D095
:1008700021F040010160A07E01282068016833D08A
:1008800021F020010160E07E0128206801682ED05F
:1008900041F010010160207F01282068016829D003
:1008A00021F008010160607F01282068016824D0E0
:1008B00021F004010160D4E902010843D4E90412E3
:1008C000114308436168491E08432168C86100203C
:1008D0006062012084F82000002070BD41F080019A
:1008E000C0E741F04001C5E741F02001CAE721F02F
:1008F0001001CFE741F00801D4E741F00401D9E746
:1009000010B586B0044614216846FFF715FD1B4953
:10091000206888422FD11A480021026842F00072F4
:100920000260006800F000700590154810380268F9
:1009300042F0080202600068022200F00800059000
:100940000320CDE90210CDE9000209200490694698
:100950000C4800F09DF800220521132000F014FA45
:10096000132000F003FA00220521142000F00CFAF5
:10097000142000F0FBF906B010BD00000064004038
:1009800040380240000C02407047000000B5184A91
:10099000016889B0914204D107AB6A460021FFF794
:1009A000B0FD00991348A1F20521072917D202884A
:1009B000C9B2521C01EB410302800F49BDF81C2053
:1009C00001EB830152BA8A80BDF81E2052BACA8058
:1009D000BDF8202052BA0A819DF822208A7201882F
:1009E000B1F5FA7F01D10021018009B000BD0000FE
:1009F0000064004080000020F040002070477047F5
:100A00007047000070B5044690F82000012804D01B
:100A1000606A40F40020606218E0022084F8200040
:100A20002068016821F00101016000F021F905460C
:100A30000EE000BF00F01CF9401B0A2808D9606ACC
:100A400040F400306062052084F82000012070BD71
:100A500020684068C007EDD1606270BD7047704784
:100A60007047704770477047704790F835100229FB
:100A700003D08021416501207047052180F83510A1
:100A80000068016821F0010101600020704700004A
:100A90002DE9F84F00224FF0010803254FF00F0E0B
:100AA0000B6808FA02F42340A3426ED14E68012E6F
:100AB00005D0022E03D0112E01D0122E12D186683D
:100AC0004FEA420C05FA0CF7BE43CF6807FA0CF761
:100AD000374387604668A6430C79C4F300149440FA
:100AE00034434460C668570005FA07FC8C6826EA60
:100AF0000C06BC403443C4604C68022C01D0122C5C
:100B000013D1D40800EB8404A346D4F820905407F2
:100B10004FEAD46A0EFA0AF629EA06090E6906FABD
:100B20000AF646EA0906CBF8206004680E7924EA42
:100B30000C0406F00306BE40264306604C68E40041
:100B40006FD53B4C266846F480462660246822F028
:100B5000030604F480440094364C3444A446D4F88C
:100B600008489607360F0EFA06F7BC43324FB842D4
:100B700001D100272EE0314FB84201D1012729E0F1
:100B80002F4FB84202D1022724E04AE02D4FB8424D
:100B900001D103271EE02C4FB84201D1042719E0F0
:100BA0002A4FB84201D1052714E0294FB84201D19C
:100BB00006270FE0274FB84201D107270AE0264F4A
:100BC000B84201D1082705E0244FB84201D10927D6
:100BD00000E00A27B7402743CCF80878204E346855
:100BE0004F689C43FF0300D51C4334601C4E361DE8
:100BF00034684F689C43BF0300D51C433460184ED3
:100C0000083634684F689C43FF0200D51C433460AB
:100C1000134E0C3634684F689C43BF0200D51C430A
:100C20003460521C102AFFF43BAFBDE8F88F00007F
:100C300044380240003001400000024000040240FD
:100C400000080240000C0240001002400014024064
:100C500000180240001C0240002002400024024014
:100C6000003C01400AB1816170470904FBE70000C4
:100C70000148806870470000100000200248816829
:100C80000278114481607047100000200B4810B5B5
:100C9000016841F400710160016841F48061016004
:100CA000016841F480710160032000F08DF800209C
:100CB00000F006F800F03EF8002010BD003C0240B5
:100CC00010B5014688B00022192000F05DF8192007
:100CD00000F04CF813480024016841F00101016064
:100CE000006805A900F001000690684600F018F9B8
:100CF00000F046F90C494000B0FBF1F10C480B4AFA
:100D0000491E026040F2E732C0E90324C0E9011441
:100D100000F09AFB10B1012008B010BD044800F0AB
:100D2000C1FBF9E74438024040420F000000014097
:100D3000C00300200C4882B0016841F4804101608A
:100D4000006800F4804000900748001F016841F0EF
:100D5000805101600068002200F0805000900F2157
:100D6000901E02B000F010B844380240002809DBA1
:100D700000F01F02012191404009800000F1E020B5
:100D8000C0F8001170470000F0B40E4B1B680C4611
:100D9000C3F30223C3F10705042D00D90425191D4F
:100DA000072901D2002300E0DB1E012606FA05F127
:100DB000491E214099409E40761E16403143F0BCAA
:100DC00001F035BB0CED00E0064900F007020868B1
:100DD0004FF6FF03184040EA0220034A1043086020
:100DE000704700000CED00E00000FA052DE9F04727
:100DF0000E46050065D0DFF81481D8F80000F7B280
:100E000000F00F00B04207D288F80070D8F8000058
:100E100000F00F00B04254D128683D4C810712D534
:100E2000400703D5206840F4E05020602878000790
:100E300003D5206840F4604020602068A96820F055
:100E4000F000084320602878C0072DD0304968683A
:100E50000839012812D0022813D0032811D00968BC
:100E6000890700292DDA216821F00301014321605F
:100E7000FFF7FEFE814641F2883A0EE009688903D9
:100E8000EFE709688901ECE7FFF7F2FEA0EB090143
:100E9000514502D90320BDE8F0872068696800F059
:100EA0000C00B0EB810FEFD1D8F80010404601F0F4
:100EB0000F01B14207D90770006800F00F00B0427F
:100EC00001D00120E7E72878400705D52068E968C8
:100ED00020F4E050084320602878000706D52068F9
:100EE000296920F4604040EAC100206000F058F811
:100EF0002168084AC1F30311515CC84006490860E3
:100F000006480068FFF7DCFE0020C4E7003C024012
:100F100008380240AC3500081C00002014000020F6
:100F20000F2202600C4A136803F003034360136846
:100F300003F0F0038360136803F4E053C3601268A6
:100F40004FF4E05303EAD20202610448006800F063
:100F50000F0008607047000008380240003C024063
:100F60000448054900680968044AC1F38221515CBC
:100F7000C84070471C00002008380240BC350008FB
:100F80000448054900680968044AC1F34231515CCC
:100F9000C84070471C00002008380240BC350008DB
:100FA000154810B5006810F00C02144813D014490D
:100FB000042A0FD0082A0ED10F4C241F2268236860
:100FC00002F03F025B0207D52068C0F38810A0FB47
:100FD000010106E0084610BD2168C1F38811A1FB9C
:100FE00000010023FFF75EF92168C1F30141491CAC
:100FF0004900B0FBF1F010BD083802400024F400B5
:10100000001BB7002DE9F84F040076D02078DFF8F8
:1010100038A3CE4DC00749D0DAF800105046C1F3CE
:101020008101012908D00068C0F3810002280AD19B
:10103000281D0068400206D52868800336D5606800
:101040000028E2D032E06068B0F5803F10D0B0F503
:10105000A02F286810D020F480302860286820F461
:10106000802028606068A0B1FFF702FE06460CE011
:10107000286840F48030F4E740F480202860F7E7E7
:10108000FFF7F6FD801B642873D828688003F7D526
:101090000CE0FFF7EDFD064605E000BFFFF7E8FDB9
:1010A000801B6428F0D828688003F7D42078DFF804
:1010B000A08280074FF000093ED5DAF800105046B4
:1010C00011F00C0F09D00068C0F3810002280BD189
:1010D0009D48001F0068400206D42868800715D587
:1010E000E068012809D111E0E068B8B10120C8F832
:1010F0000000FFF7BDFD064605E020E1FFF7B8FD63
:10110000801B0228C0D828688007F7D52868216985
:1011100020F0F80040EAC10028600DE0C8F8009017
:10112000FFF7A6FD064604E0FFF7A2FD801B02289C
:101130001FD828688007F7D42078000722D5824E70
:10114000844861696C3671B101210160FFF790FD3F
:10115000074604E0FFF78CFDC01B022809D8306861
:101160008007F7D50EE0C0F80090FFF781FD074635
:1011700005E082E0FFF77CFDC01B02287DD83068C7
:101180008007F7D42078400768D5DFF8BCB1002786
:101190000BF1380BDBF80000C0000BD4DBF80010BB
:1011A00041F08051CBF80010DBF80000012700F07F
:1011B00080500090684E3068C00510D4306840F40C
:1011C00080703060FFF754FD009005E0FFF750FDA0
:1011D0000099401A022850D83068C005F6D55A4EFA
:1011E000A068683601280FD00528306810D020F09C
:1011F00001003060306820F004003060A068B8B1B1
:10120000FFF736FD00900FE0306840F00100F4E792
:1012100040F004003060F7E7FFF72AFD0099411A1B
:1012200041F28830814266D830688007F4D50EE0FC
:10123000FFF71EFD009007E0FFF71AFD0099411A25
:1012400041F28830814256D830688007F4D42FB1FB
:10125000DBF8001021F08051CBF80010A069D0B36A
:10126000DAF800205146C2F38102022A4AD002284D
:10127000484607D0C8F8600000E03CE0FFF7F8FC03
:1012800004463BE04746C8F86000FFF7F1FC06461D
:1012900005E000BFFFF7ECFC801B02282BD8286874
:1012A0008001F7D4D4E907010843A16A2B4A490811
:1012B00002EB0141626A41EA8211084394F82C1062
:1012C00040EA01612048001F016001203866FFF7F5
:1012D000CFFC044605E034E0FFF7CAFC001B0228FF
:1012E00009D828688001F7D52BE000BFFFF7C0FCC4
:1012F000001B022802D90320BDE8F88F286880016E
:10130000F4D41EE00128F7D00868E26900F48001F7
:10131000914214D1226A00F03F0191420FD147F669
:10132000C071626A0140914209D1A26A00F4403161
:10133000914204D1E16A00F07060884201D001203E
:10134000DAE70020D8E70000083802400038024001
:1013500000004742800E4742007000400000FFFF3F
:101360007047704710B590F83C20012A22D0012226
:1013700080F83C20CA688C6822F4407222434C6892
:1013800022F4806222430C6822F4006222430C693A
:1013900022F4805222434C6922F400522243C9694C
:1013A000002322F480420A4301684A6480F83C30FA
:1013B000002010BD022010BD70B590F83C20012A1D
:1013C00032D0012480F83C40022280F83D2003689E
:1013D0005A689D6822F070060A6832435A60134BBF
:1013E00002689A4214D0B2F1804F11D0104B9A4249
:1013F0000ED0104B9A420BD00F4B9A4208D00F4B95
:101400009A4205D00E4B9A4202D00E4B9A4204D11A
:10141000496825F080031943916080F83D40002120
:1014200080F83C10084670BD022070BD00000140ED
:101430000004004000080040000C0040000401408F
:10144000004001400018004010B5040003D094F89B
:101450003D0010B107E0012010BD002084F83C00E1
:10146000204600F00DF8022084F83D00211D206880
:1014700000F02AFD012084F83D00002010BD00008E
:1014800008B50068B0F1804F08D10548016841F007
:1014900001010160006800F00100009008BD00003B
:1014A000403802400168CA6842F00102CA60006820
:1014B000816801F00701062903D0016841F00101AC
:1014C00001600020704770B5044690F83C00012888
:1014D00017D0012584F83C50022084F83D00206894
:1014E000826822F0770222F47F42826008685028E6
:1014F00030D00DDC20284DD005DC98B310283BD12E
:1015000048E0022070BD302844D0402834D139E072
:10151000602828D0702806D0B0F5805F2CD0B0F5B8
:10152000005F29D10AE0CB68D1E90121206800F0F1
:101530003CFD2068816841F0770109E0CB68D1E982
:101540000121206800F031FD2068816841F480416C
:10155000816011E0CA684968206800F0FBFD5021F5
:10156000206807E016E0CA684968206800F003FEBA
:101570006021206800F023FD84F83D50002084F8AD
:101580003C0070BDCA684968206800F0E3FD402156
:101590002068EFE7226801461046EBE7704770B518
:1015A0000446006801694FF00005C943890715D456
:1015B000C168C943890711D4E91E01610120207760
:1015C000206880698007204602D0FFF7E7FF04E02B
:1015D00000F0D8F8204600F06DF925772068016901
:1015E000C943490717D4C168C943490713D46FF0E9
:1015F00004010161022020772068806910F4407F97
:10160000204602D0FFF7CAFF04E000F0BBF82046F6
:1016100000F050F9257720680169C943090716D4FD
:10162000C168C943090712D46FF0080101610420A1
:1016300020772068C0698007204602D0FFF7AEFF00
:1016400004E000F09FF8204600F034F92577206888
:101650000169C943C90617D4C168C943C90613D46F
:101660006FF010010161082020772068C06910F434
:10167000407F204602D0FFF791FF04E000F082F89F
:10168000204600F017F9257720680169C943C9078A
:1016900008D1C168C943C90704D1891E0161204628
:1016A00000F02CF920680169C943090609D4C16812
:1016B000C943090605D46FF0800101612046FFF798
:1016C0004FFE20680169C943490609D4C168C9436E
:1016D000490605D46FF040010161204600F018F979
:1016E00020680169C94389060BD4C168C9438906CA
:1016F00007D46FF0200101612046BDE87040FFF77C
:1017000030BE70BD10B586B0044614216846FEF7A1
:1017100013FE2368002117480222B3F1804F17D02F
:10172000154CA34212D1036843F480730360006830
:1017300000F48070059020200090CDE90121032065
:10174000CDE9031069460D48FFF7A2F906B010BDB8
:10175000036843F001030360006800F00100059096
:101760000F200090CDE901210120CDE90310694649
:101770000348E9E7303802400004014000200240FD
:1017800000000240704770B5044690F83C000D46DA
:1017900001280DD0012684F83C60022084F83D0029
:1017A00042B1042A18D0082A2AD00C2A4DD139E097
:1017B000022070BD206800F00BFC2068816941F0B8
:1017C000080181612068816921F00401816120683C
:1017D00081692A69114311E0206800F029FC206822
:1017E000816941F4006181612068816921F480612F
:1017F0008161206881692A6941EA0221816124E0CE
:10180000206800F04BFC2068C16941F00801C1610B
:101810002068C16921F00401C1612068C1692A6999
:10182000114311E0206800F06DFC2068C16941F4AB
:101830000061C1612068C16921F48061C1612068D3
:10184000C1692A6941EA0221C16184F83D60002032
:1018500084F83C0070BD10B5040003D094F83D003E
:1018600010B107E0012010BD002084F83C002046A4
:1018700000F00CF8022084F83D00211D206800F0E3
:1018800023FB012084F83D00002010BD08B500684E
:101890000649884208D10648016841F0020101600A
:1018A000006800F00200009008BD00000004014044
:1018B000443802407047000010B504460068012219
:1018C00000F066FB0B492068884202D00A49884232
:1018D00003D1416C41F4004141642068816801F00A
:1018E0000701062903D0016841F0010101600020D1
:1018F00010BD0000000001400004014000680349E1
:10190000884201D1FFF7BAB97047000000000140DA
:101910007047704770B5026804461068D168536913
:1019200010F00F0F53D003F0010501F490762E4311
:101930005FD0C20705D0CA0503D5E26B42F00102B1
:10194000E263420705D5DA0703D0E26B42F00202F8
:10195000E263820705D5DA0703D0E26B42F00402A6
:10196000E263020707D501F020022A4303D0E26BAD
:1019700042F00802E263E26B002A34D0800604D50C
:10198000880602D5204600F039FC20684069E16BEA
:10199000C0F3801001F008010143204624D000F07C
:1019A0001FFC2068416949061AD5416921F04001B0
:1019B0004161606BA0B11B490165606BFFF755F891
:1019C000002810D0606B016DBDE8704008478306A9
:1019D0000FD58B060DD52046BDE8704000F00EBC3B
:1019E0002046FFF796FF70BDFFF793FF0020E063EE
:1019F00070BD030606D50B0604D52046BDE8704031
:101A000000F0DCBC4006F3D54806F1D5D16820468D
:101A100021F04001D160202184F8391000F073F8E2
:101A200070BD0000D121000870B5040004D094F806
:101A30003900002510B106E0012070BD84F838504F
:101A4000204600F023F8242084F839002068C1687B
:101A500021F40051C160204600F01CFC206801699F
:101A600021F4904101612068416921F02A0141611E
:101A70002068C16841F40051C160E563202084F80A
:101A8000390084F83A00002070BD000010B586B01F
:101A9000044614216846FEF74FFC17492068884227
:101AA00028D11648016841F400310160006800F453
:101AB0000030059011481038016841F008010160BC
:101AC0000068694600F00800059060200090022040
:101AD0000190012002900320039007200490084801
:101AE000FEF7D6FF002205212620FFF74DF926201C
:101AF000FFF73CF906B010BD0044004040380240FA
:101B0000000C024070477047FEE700000F4810B518
:101B10000D4901600921416000214FF4803281604C
:101B2000C0E9031241610176012242768176C176D5
:101B300001774177FEF757FE002803D0BDE810403B
:101B4000FEF745BC10BD000000640040840000208A
:101B500010B5174B9AB015AC0FCB84E80F000021DD
:101B600015A800F0EBFC134C11491C22E060103169
:101B70006846FEF7C8FB0021684600F0F2FC0C49FD
:101B800020601C222C3107A8FEF7BDFB002107A80E
:101B900000F0E7FC064960601C2248310EA8FEF701
:101BA000B2FB00210EA800F0DCFCA0601AB010BD52
:101BB000483500080000002030B587B01421684681
:101BC000FEF7BAFB1D480024016841F001010160E5
:101BD000016801F001010591016841F0080101600F
:101BE000016801F008010591016841F4807101600C
:101BF000016801F480710591016841F08001016084
:101C0000016801F080010591016841F04001016027
:101C100000680B4D00F0400005900022022128468C
:101C2000FFF720F8022000900120CDE90104694669
:101C300028460394FEF72CFF07B030BD3038024031
:101C40000018024010B58EB000240794089409943F
:101C50000A940B941C2168460C94FEF76DFB2A48ED
:101C60004FF080410160C721C0E9011440F60F61C7
:101C7000C0E9031480218161FFF7E6FB08B1FEF79C
:101C8000A6FB4FF48050079007A91F48FFF71BFCE5
:101C900008B1FEF79CFB1C48FFF7DDFD08B1FEF71D
:101CA00096FB0B940BA918480C94FFF785FB08B121
:101CB000FEF78DFB6020CDE9000402940022694606
:101CC00011480494FFF75FFD08B1FEF780FB042282
:101CD00069460D48FFF757FD08B1FEF778FB08226B
:101CE00069460948FFF74FFD08B1FEF770FB0C226B
:101CF00069460548FFF747FD08B1FEF768FB024853
:101D0000FFF700FD0EB010BD0003002010B592B02B
:101D100000240F941C2108A81094FEF70DFB20212D
:101D20006846FEF709FB21481F490160C721C0E949
:101D3000011440F60F61C0E903148021C0E9054198
:101D4000FFF789FD08B1FEF742FB0F940FA9174872
:101D50001094FFF731FB08B1FEF739FB6020CDE9A5
:101D600008040A940B940C940D94002208A90F48BF
:101D70000E94FFF708FD08B1FEF729FB00944FF41D
:101D80000050CDE904400294019403946946074849
:101D90000794FFF7E7FA08B1FEF719FB0348FFF7CE
:101DA000B1FC12B010BD000000040140400300204F
:101DB0000C4810B50A4901604FF4E131416000213F
:101DC00081600C22C160C0E904128161C161FFF72A
:101DD0002BFE002803D0BDE81040FEF7F8BA10BD76
:101DE0000044004080030020FEE77047FEE700004B
:101DF00010B5502080F31188BFF34F8FBFF36F8F62
:101E000001F056FA18B104494FF0805008600020E4
:101E100080F3118810BD000004ED00E030B593B0F0
:101E200030216846FEF788FA14210CA8FEF784FAE0
:101E300019480025016841F080510160006800F0F8
:101E4000805011901548016821F4404141F48041CF
:101E500001600068022400F44040119001200090CD
:101E6000000401908001CDE90640192008909020DF
:101E7000CDE9090404200B906846FFF7C3F80CA9CC
:101E80000F2081E83100E0020F90109002210CA891
:101E9000FEF7ACFF13B030BD403802400070004088
:101EA0000548016841F47001016003494FF000608A
:101EB000803908607047000088ED00E00148FFF7B6
:101EC0006EBB0000C0030020F0B50268254C264D13
:101ED000264E274F274B4FF0804CA04209D060453B
:101EE00007D0A84205D0B04203D0B84201D09842F2
:101EF00004D122F0700E4A6842EA0E02A0421BD0C2
:101F0000604519D0A84217D0B04215D0B84213D0BE
:101F1000984211D0184DA8420ED0184DA8420BD0AF
:101F2000174DA84208D0174DA84205D0164DA8421B
:101F300002D0164DA84203D122F44075CA682A4344
:101F40004D6922F080022A4302608A68C2620A68F0
:101F50008262A04201D0984201D109690163012146
:101F60004161F0BD00000140000400400008004055
:101F7000000C0040000401400040014000440140CA
:101F80000048014000180040001C004000200040B4
:101F900010B501F01F030121046A99408C430462CB
:101FA000016A9A401143016210BD10B5846842EA8B
:101FB000032224F47F440A432243826010BD8268D6
:101FC00022F070020A4342F007018160704700006E
:101FD000F0B5026A22F001020262036A4268846973
:101FE000124E24F073050C682C4323F002058B6815
:101FF0002B430D4DA84201D0B04205D123F0080774
:10200000CB683B4323F00403A84201D0B04205D182
:102010004D6922F4407215438A692A434260846103
:10202000496841630362F0BD0000014000040140C3
:10203000F0B5026A22F010020262026A4368846903
:102040000D6824F4E64444EA05248D6822F0200259
:1020500042EA05120F4D104EA84201D0B04206D1FF
:10206000CF6822F0800242EA071222F04002A84222
:1020700001D0B04207D14D6923F4406343EA8503A0
:102080008D6943EA85034360846149688163026224
:10209000F0BD00000000014000040140F0B5026AFC
:1020A00022F480720262026A4368C46922F40072F8
:1020B00024F073050C68124E2C438D6842EA052209
:1020C0000E4DA84201D0B04206D1CF6822F4006282
:1020D00042EA072222F48062A84201D0B04207D12E
:1020E0004D6923F4405343EA05138D6943EA051310
:1020F0004360C4614968C1630262F0BD00000140F1
:102100000004014030B5026A22F480520262046A7F
:102110004268C3690D6823F4E64343EA05238D68EA
:1021200024F4005444EA0534084DA84202D0084D76
:10213000A84204D14D6922F4804242EA85124260ED
:10214000C36149680164046230BD000000000140C1
:102150000004014010B5036A046A24F0010404621B
:10216000846924F0F00444EA021423F00A020A43CA
:102170008461026210BD10B5036A23F0100303628C
:102180008369046A23F4704343EA023224F0A00313
:1021900043EA01118261016210BD00000EB59FED9E
:1021A000090A0A4C8DED000A9FED070A8DED010A20
:1021B00000231A466946E06800F02AFF642000F018
:1021C000B1F9F5E7295C0F3E5C8FC23D00000020AD
:1021D00010B5806B0021C185C184FFF79AFB10BD4B
:1021E0000168CA6822F49072CA6001684A6922F0E4
:1021F00001024A61202180F83A10704710B590F82A
:102200003A10222901D0022010BD8168B1F5805F0B
:1022100011D00169002901681FD0496801F07F03CE
:10222000816A4A1C82620B70C18D491E0904090C27
:10223000C18518D02BE00269816A002A02685268C1
:1022400005D0D2B20A80816A491C8162ECE7C2F3F0
:1022500008020A80816A891CF7E74A68816A4B1C78
:1022600083620A70E0E70168CA6822F02002CA604F
:102270000168CA6822F48072CA6001684A6922F063
:1022800001024A61202180F83A10FFF73BFC002050
:1022900010BD00002DE9F041044600680169E268C4
:1022A00021F44051114301612169A068E2690843AA
:1022B0006169114308432168CA6849F20C639A4373
:1022C0000243CA6020684169A26921F44071114348
:1022D0004161E069192764253226B0F5004F354A7F
:1022E000354920684FF0000806D0884201D090425E
:1022F00036D1FEF745FE35E0884201D0904202D14A
:10230000FEF73EFE01E0FEF72BFE61684A18A0FBD7
:10231000070148EB0803FDF7C5FF0146B0FBF5F0E8
:102320000201B1FBF5F06FF01803584301EB800098
:1023300006EBC000B0FBF5F000F0F80002EB400245
:10234000B1FBF5F0584301EB800006EBC000B0FB99
:10235000F5F000F00700216810448860BDE8F081C6
:10236000FEF7FEFD61688B0F8A00A0FB0701FDF7F9
:1023700099FF0146B0FBF5F06FF01802504301EBF6
:10238000800006EB0010B0FBF5F000F0F002B1FBAE
:10239000F5F002EB0012B1FBF5F06FF018035843B3
:1023A00001EB800006EB0010B0FBF5F000F00F0031
:1023B000D1E70000001401400010014090F83910EE
:1023C000212901D0022070478168B1F5805F016A40
:1023D0000BD04A1C0262026809785160C18C491E08
:1023E0000904090CC1840ED017E009880268C1F302
:1023F0000801516001690029016A02D0491C01628B
:10240000ECE7891CFBE70168CA6822F08002CA6019
:102410000068C16841F04001C160002070470000C1
:102420000148FFF777BA000080030020FEE70907A4
:10243000090E002804DB00F1E02080F8001470474A
:1024400000F00F0000F1E02080F8141D704702E05A
:1024500008C8121F08C1002AFAD17047704700202F
:1024600001E001C1121F002AFBD17047012000F0DA
:1024700059F8FBE700B58BB000210122CDE9061227
:102480000591009101910291039104910E21CDE9F2
:1024900008216946FDF7AEFF0448FEF7B3FA0221B2
:1024A0000248FDF795FF0BB000BD0000840000203E
:1024B000012202211548FEF7D5FBFEF7E7FBFFF7E7
:1024C000D9FFFFF7ABFCFFF777FBFFF7BBFBFFF78D
:1024D0006FFCFFF71BFCFFF719FB00210C48FFF70F
:1024E000EBF904210A48FFF7E7F908210848FFF74C
:1024F000E3F90C210648FFF7DFF900210548FFF753
:10250000DBF9FFF725FB00F014F8FEE700180240A6
:10251000000300204003002001460020842900D051
:10252000C81C704710B500B9012000F0A3FB0020C3
:1025300010BD10B500F0EAFB002010BD38B5D0E9A1
:10254000011204683AB1C3682BB100200090204604
:1025500000F0E6FC38BD2046BDE83840002200F01F
:10256000BBBC7FB50D4604464169B0F9080081B196
:10257000A16971B1FFF7D0FFD4E905128DE807001A
:10258000D4E900102B46226900F059FE039004B0F4
:1025900070BDFFF7C1FF03A9CDE90001208A2B46DA
:1025A00082B2D4E9001000F01DFE012801D0002005
:1025B000EDE70398EBE700002DE9F041184C0F46DA
:1025C000054666692068001D00F090FA38B9206859
:1025D00090F82C1001208840A1698143A161681CFA
:1025E00007D137B12168BDE8F0410E48091D00F060
:1025F000C1BA20683544B5424560216805D2A0685B
:10260000BDE8F041091D00F09DBA6068091D00F0A9
:1026100099FA206B854200D22563BDE8F081000065
:1026200020000020DC0400202DE9F041054600F0E8
:10263000ADFA2E4C2069401C206120682C4F10B14F
:10264000E06940B32DE025602069012829D10026EA
:1026500006EB860007EB800000F066FA761C072E7A
:10266000F6D323488C3000F05FFA2148A03000F008
:102670005BFA1F48B43000F057FA1D48C83000F02C
:1026800053FA1B48DC3000F04FFA19488C30606078
:102690001430A06005E02068E96AC06A884200D86A
:1026A0002560E06A401CE062E96A0120A269884076
:1026B0001043A06101EB810007EB8000291D00F0B1
:1026C00059FA00F083FAE06900280CD02068E96A22
:1026D000C06A884207D207494FF080500860BFF3B4
:1026E0004F8FBFF36F8FBDE8F08100002000002006
:1026F0000004002004ED00E02DE9F041856B174651
:1027000004460026026C82B1C7B1E068FDF7FBFD0C
:10271000E168206C091AE1602268914202D2616886
:10272000081AE060022F16D017E02068A8B9606888
:1027300000F022FE0646002060600EE0A068FDF773
:10274000E2FD216CA0680844A0606168884204D35F
:102750002068A06001E005B16D1E6D1CA5633046C8
:10276000BDE8F08110B5044690F8510058B1012839
:102770000CD002280FD0502080F31188BFF34F8F68
:10278000BFF36F8FFEE7206B00F034FA2046BDE800
:10279000104000F02FBA10BD10484FF4705142079E
:1027A00006D0C01D0D4920F00700411AC1F5705137
:1027B0000B4A00230144C2E900030839103A21F012
:1027C000070111604B600B600B1AC0E900139360A6
:1027D0004FF000405360D06070470000F0040020CC
:1027E0006C000020144E154CA6F1C8074FF080581D
:1027F000DFF84C9012E000BF00F0C8F9F068C5683F
:10280000281D00F073F92069401E2061E068401E19
:10281000E06000F0DBF92846FFF7A4FFE06800283D
:10282000EAD138680128F9D9C9F80080BFF34F8F81
:10283000BFF36F8FF2E70000C804002020000020E3
:1028400004ED00E00346009829B10260C0E90F31B1
:10285000012100F099BB0060F8E72DE9F0479A46A6
:10286000DDE9098481466FF00303206B03EB8202EC
:102870001044089D20F00706700707D0502080F311
:102880001188BFF34F8FBFF36F8FFEE723180A5CE9
:1028900083F834200A5C12B1401C1028F6D30027BC
:1028A00084F84370072D00D30625E562C4E911576B
:1028B000201D00F044F904F1180000F040F92461F3
:1028C000C5F107006462A061E76484F85070524665
:1028D0004946304600F0F4F82060B8F1000F01D00E
:1028E000C8F80040BDE8F08730B5114900E0114656
:1028F0000A688242FBD34B685C18844203D140686B
:1029000018444860084643681C18944209D1084C92
:10291000103C2468A24209D052681A4442600A68F6
:1029200012680260814200D0086030BD0460F9E79F
:102930006C00002006484168096829B14168C968EF
:10294000C9684968016370474FF0FF31FAE700003A
:102950002000002008484068401C4FF0500080F3E1
:10296000118804D0BFF34F8FBFF36F8FFEE7BFF323
:102970004F8FBFF36F8FFEE7740000202DE9F04109
:10298000044600F003F994F9455004F1240609E0E7
:10299000606A48B1304600F03BFD08B100F098F99C
:1029A0006D1E6DB2002DF3DC4FF0FF3684F84560EC
:1029B00000F00CF900F0EAF894F9445004F1100723
:1029C00009E0206948B1384600F022FD08B100F066
:1029D0007FF96D1E6DB2002DF3DC84F84460BDE814
:1029E000F04100F0F3B800002DE9F0410546002762
:1029F00000F0C2F9314E306808B9FFF7CDFEF0683B
:102A000005424BD1C5B3083568070ED005F0070065
:102A1000C0F108000544680707D0502080F31188F2
:102A2000BFF34F8FBFF36F8FFEE72DB37068854202
:102A300034D82248103001460C6801E020460C468C
:102A40006168A94202D221680029F7D131688C421D
:102A500024D007682168016060680837411B10298D
:102A60000FD96019420708D0502080F31188BFF3B6
:102A70004F8FBFF36F8FFEE710E041606560FFF797
:102A800033FF61687068401A7060B268904200D28B
:102A9000B060F06801430020C4E9000100F0F2FCDE
:102AA000780707D0502080F31188BFF34F8FBFF312
:102AB0006F8FFEE73846BDE8F08100005C00002023
:102AC00010B5031F4FF080741C601B1F21F0010123
:102AD0001960191F044B0B6014390A60091F6FF04D
:102AE000020244380A6010BD55290008D0E90132BD
:102AF00001699A60D0E901235A604A68824201D193
:102B000082684A60002202610868401E0860086806
:102B100070470000034B036003F1540008608020FD
:102B200010607047AC00002000F108014FF0FF3248
:102B3000C0E90112C16001610021016070470021FC
:102B40000161704730B50B685A1C02D000F10802D1
:102B500002E0026904E02246546825689D42FAD9E1
:102B600053684B6099608A60516008610168491C34
:102B7000016030BD42684A6093688B609368596019
:102B8000916008610168491C01607047502080F322
:102B90001188BFF34F8FBFF36F8F0A494868401CFD
:102BA000486001280CD10848006810F0FF0F07D0DA
:102BB000502080F31188BFF34F8FBFF36F8FFEE774
:102BC000704700007400002004ED00E008494868E8
:102BD00028B1401E486001D180F311887047502011
:102BE00080F31188BFF34F8FBFF36F8FFEE70000B4
:102BF0007400002070B5002827D0144DA0F10804FF
:102C00006168E868014207D1502080F31188BFF362
:102C10004F8FBFF36F8FFEE722683AB1502080F3E9
:102C20001188BFF34F8FBFF36F8FFEE78143616061
:102C300000F0A2F860686968084468602046FFF701
:102C400053FEBDE8704000F01DBC70BD5C0000206C
:102C50004FF0E02000210161816105494FF47A7253
:102C60000968B1FBF2F1491E41610721016170471A
:102C70001C00002010B5020014D00F48806B38B142
:102C8000502080F31188BFF34F8FBFF36F8FFEE7A3
:102C900000F072F800211046FFF78EFC00F0F2FB06
:102CA000002807D105494FF080500860BFF34F8FCF
:102CB000BFF36F8F10BD00002000002004ED00E086
:102CC00002498A6A02604969416070472000002019
:102CD00001490120486270472000002010B50C46D1
:102CE00050B1094909681831FFF72CFF2046BDE8AB
:102CF00010400121FFF760BC502080F31188BFF322
:102D00004F8FBFF36F8FFEE72000002010B586B015
:102D10000024039405AA04A903A80494FFF7FAFE6B
:102D2000DDE903010094CDE9011000230EA1104854
:102D3000059A00F084FA0F490028486311D050200A
:102D400080F31188BFF34F8FBFF36F8F4FF0FF30C9
:102D500008630120C8614C6106B0BDE8104000F076
:102D600041B806B010BD000049444C4500000000C9
:102D7000E5270008200000200248816B491C816380
:102D800070470000200000201448816B11B1012120
:102D900041627047002141628169B1FA81F1C1F15C
:102DA0001F0101EB81020E4951F822306BB101EB9A
:102DB000820101F108034A6852684A609A4201D1CF
:102DC00052684A60D16801607047502080F31188D2
:102DD000BFF34F8FBFF36F8FFEE70000200000208E
:102DE000000400201CB537480168374A914207D1DA
:102DF000502080F31188BFF34F8FBFF36F8FFEE732
:102E000000683149491E884207D1502080F311885B
:102E1000BFF34F8FBFF36F8FFEE72C490878019007
:102E2000FF20087008788DF800009DF800009DF8DC
:102E3000002000F0F000904207D0502080F311886D
:102E4000BFF34F8FBFF36F8FFEE79DF80000204B5D
:102E500000F0500018700720986005E09DF80020F1
:102E600052008DF80020401E9DF800201206F5D477
:102E70009860032807D0502080F31188BFF34F8F4C
:102E8000BFF36F8FFEE74FF44070986001980870B1
:102E90000C482030016841F470010160016841F084
:102EA00070410160FFF7D4FE00205860FDF7ACF9D7
:102EB0000848016841F040410160FDF791F90020A8
:102EC0001CBD000000ED00E071C20F4100E400E015
:102ED0007400002034EF00E0F8B517460E460500F8
:102EE00014D0DEB105FB06F04830FFF77DFD04008D
:102EF0000AD0002084F8460004F148023B463146DF
:102F000028460094FFF79EFC2046F8BD502080F331
:102F10001188BFF34F8FBFF36F8FFEE70020E3E709
:102F200038B5049D18B153B1CAB181B120E0502029
:102F300080F31188BFF34F8FBFF36F8FFEE75020F0
:102F400080F31188BFF34F8FBFF36F8FFEE75020E0
:102F500080F31188BFF34F8FBFF36F8FFEE739B156
:102F6000502080F31188BFF34F8FBFF36F8FFEE7C0
:102F700048241C46012384F846302B460094FFF772
:102F800061FC204638BD000070B50D46040025D018
:102F9000FFF7FCFDD4E90F20216802FB00116160FE
:102FA0000021A1632168A1600A46D4E90F01401EF7
:102FB00000FB0121E16021464FF0FF3001F8440F92
:102FC000487004F110008DB1FFF7AEFD04F124004C
:102FD000FFF7AAFDFFF7FAFD012070BD502080F336
:102FE0001188BFF34F8FBFF36F8FFEE72169002970
:102FF000F0D000F00DFA0028ECD004494FF08050DA
:103000000860BFF34F8FBFF36F8FE3E704ED00E07D
:103010002DE9FF4782B01D468A464FF000080400A4
:1030200003D0BAF1000F08D011E0502080F31188CE
:10303000BFF34F8FBFF36F8FFEE7206C38B1502086
:1030400080F31188BFF34F8FBFF36F8FFEE7022D20
:103050000AD1E06B012807D0502080F31188BFF31C
:103060004F8FBFF36F8FFEE700F014F93F4F4FF023
:1030700000094FF0805648B9049838B1502080F3C9
:103080001188BFF34F8FBFF36F8FFEE7FFF77EFD11
:10309000A06BE16B884207D3022D05D00498D0B114
:1030A000B8F1000F1AD01EE02A4651462046FFF71D
:1030B00023FB616A19B104F1240000F0A9F920B1E1
:1030C0003E60BFF34F8FBFF36F8FFFF77FFD01208F
:1030D00006B0BDE8F087FFF779FD22E06846FFF70C
:1030E000EFFD4FF00108FFF771FDFFF745FEFFF719
:1030F0004DFD94F94400401C01D184F8449094F9AA
:103100004500401C01D184F84590FFF75FFD04A9FC
:10311000684600F02DF830B12046FFF72FFC00F094
:10312000B1F90020D4E7FFF731FDA06BE16B8842D5
:1031300013D1FFF74BFD04F110000499FFF7CEFD0A
:103140002046FFF71BFC00F09DF900289ED13E6051
:10315000BFF34F8FBFF36F8F98E7FFF737FD204620
:10316000FFF70CFC00F08EF990E7000004ED00E0A2
:103170002DE9F0410C46050011D0C4B1FFF706FD62
:10318000174B5A696E682068911B471C17D02F682F
:103190009B6A9F4219D0964217D8012410E0502014
:1031A00080F31188BFF34F8FBFF36F8FFEE750207E
:1031B00080F31188BFF34F8FBFF36F8FFEE70024BA
:1031C000FFF704FD2046BDE8F081884205D9401A8A
:1031D00020602846FFF774FDF1E700202060DCE75F
:1031E000200000202DE9FF5F8346DDE90E87994628
:1031F00016468A469000FFF7F7FB05001CD05420C6
:10320000FFF7F2FB040014D00020256384F851007E
:10321000CDE90240CDE900874B463246514658463B
:10322000FFF71BFB2046FFF7FFF9012004B0BDE8C4
:10323000F09F2846FFF7DEFC4FF0FF30F6E7F0B5D1
:1032400085B0DDE90B640A9DA6B1DCB15427009777
:103250002663022684F85160002604AFCDE90246B9
:10326000CDE90057FFF7F9FA2046FFF7DDF904989A
:1032700005B0F0BD502080F31188BFF34F8FBFF32E
:103280006F8FFEE7502080F31188BFF34F8FBFF39D
:103290006F8FFEE70548C16919B1806B18B1002036
:1032A0007047012070470220704700002000002076
:1032B0002DE9F0412E4C0027A06B40B1206A401C44
:1032C0002062606A00B101273846BDE8F081666976
:1032D000761C666113D16068006838B1502080F3B5
:1032E0001188BFF34F8FBFF36F8FFEE76068A1684F
:1032F0006160A060A06A401CA062FFF71BFB206B0E
:10330000DFF87080864209D36068006880B1606829
:10331000C068C568686886420DD220632068C06AAC
:1033200000EB800158F821000128CAD90127C8E71D
:103330004FF0FF30F1E7281DFFF7D8FBA86A18B15E
:1033400005F11800FFF7D2FBE86A0121A26981406C
:103350001143A16100EB800108EB8100291DFFF7FB
:1033600009FCE86A2168C96A8842CDD30127CBE706
:10337000200000200004002070B504004FF0000180
:1033800040D0214D2868844207D0502080F3118816
:10339000BFF34F8FBFF36F8FFEE7A06C38B1401EB5
:1033A000A064636CE26A9A422CD040B12AE05020BB
:1033B00080F31188BFF34F8FBFF36F8FFEE7201D9F
:1033C000FFF794FB114A012150B9E06A00EB80033A
:1033D00052F8233023B9AB6901FA00F08343AB61A3
:1033E000606CE062C0F10700A061E06AAB698140F7
:1033F0001943A96100EB800002EB8000211DFFF75B
:10340000B9FB0121084670BD200000200004002007
:103410002DE9F041C068C468ACB104F1180007465A
:10342000FFF764FB154DA86B0126A0B1394614487F
:10343000FFF7A0FBE06A2968C96A88421CD901200D
:103440006E62BDE8F081502080F31188BFF34F8F8A
:10345000BFF36F8FFEE7201DFFF748FBE16AAA6903
:1034600006FA01F01043A86101EB81000449B43968
:1034700001EB8000211DDBE70020E2E720000020B7
:10348000B40400202DE9F0472C4D00242746A86BFA
:1034900038B1FFF77BFBA86B401EA863A86B40B157
:1034A00046E0502080F31188BFF34F8FBFF36F8F3A
:1034B000FEE72969224E0120D1B3A6F1B409804666
:1034C0003068E8B1F068C46804F11800FFF70EFB3B
:1034D000201DFFF70BFBE06AAA6908FA00F111430F
:1034E000A96100EB800109EB8100211DFFF742FB80
:1034F000E06A2968C96A8842E2D3C5F82480DFE718
:103500000CB1FFF717FA2C6A44B14646FFF7D0FE1C
:1035100000B16E62641EF9D100202862686A38B179
:103520000849012738070860BFF34F8FBFF36F8F3B
:10353000FFF74CFB3846BDE8F08700002000002074
:10354000B404002004ED00E01000000001000000C1
:103550000000000000000000C4350008ED1D000858
:1035600001000000000000008000000000000000DA
:1035700000000000D03500089D2100080000000078
:1035800000000000800000000000000000000000BB
:10359000D83500086D240008FDFF00000000000081
:1035A000800000000000000000000000000000009B
:1035B00000000000010203040607080900000000E3
:1035C00001020304536572766F5461736B0000004F
:1035D000546F705461736B00636143636F6D6D75FD
:1035E00000000000043600080000002084000000F5
:1035F0004E2400088836000884000020C4440000DF
:103600005E24000800000000000000000000000030
:103610000000000001000000100000000000000099
:103620000024F40000000000000000000000000082
:10363000000000000000000000000000000000008A
:10364000000000000000000000000000000000007A
:10365000000000000000000000000000000000006A
:10366000000000000000000000000000000000005A
:10367000000000000000000000000000AAAAAAAAA2
:08368000000000000000000042
:04000005080001AD41
:00000001FF
