:020000040800F2
:10000000D846002081020008F3240008FF210008E0
:10001000F1240008C9090008912C00080000000024
:10002000000000000000000000000000C101000806
:10003000E5090008000000001D020008F92500087D
:100040009B0200089B0200089B0200089B0200081C
:100050009B0200089B0200089B0200089B0200080C
:100060009B0200089B0200089B0200089B020008FC
:100070009B0200089B0200089B0200089B020008EC
:100080009B0200089B0200089B020008D909000897
:10009000CD0900089B0200089B0200089B02000893
:1000A0009B020008C52600089B0200089B0200086E
:1000B0009B0200089B0200089B0200089B020008AC
:1000C0009B0200089B0200089B0200089B0200089C
:1000D0009B0200089B020008852C00089B02000878
:1000E0009B0200089B0200089B0200089B0200087C
:1000F0009B0200089B0200089B0200089B0200086C
:100100009B0200089B0200089B0200089B0200085B
:100110009B0200089B0200089B0200089B0200084B
:100120009B0200089B0200089B0200089B0200083B
:100130009B0200089B0200089B0200089B0200082B
:100140009B0200089B0200089B0200089B0200081B
:100150009B0200089B0200089B0200089B0200080B
:100160009B0200089B0200089B0200089B020008FB
:100170009B0200089B0200089B0200080000000090
:100180009B0200089B0200089B0200089B020008DB
:100190009B0200089B0200089B0200089B020008CB
:1001A00000000000000000009B020008DFF80CD0F7
:1001B00000F0F8FB0048004745430008D8460020FF
:1001C0002C4B19680868B0E8F04F80F30988BFF33A
:1001D0006F8F4FF0000080F311887047000000001F
:1001E00008480068006880F308884FF0000080F33A
:1001F000148862B661B6BFF34F8FBFF36F8F00DF15
:1002000000BF00BF08ED00E0DFF80C00016841F41A
:1002100070010160704700BF88ED00E0EFF30980D6
:10022000BFF36F8F134B1A681EF0100F08BF20ED3D
:10023000108A20E9F04F106009B44FF0500080F3AD
:100240001188BFF34F8FBFF36F8F04F0B1FD4FF0F4
:10025000000080F3118809BC19680868B0E8F04F05
:100260001EF0100F08BFB0EC108A80F30988BFF3AE
:100270006F8F704730000020EFF30580704700005B
:100280000648804706480047FEE7FEE7FEE7FEE730
:10029000FEE7FEE7FEE7FEE7FEE7FEE7A926000829
:1002A000AD0100082DE9F05F0546002092469B460F
:1002B00088460646814640241BE02846414647467C
:1002C000224600F050FA53465A46C01A914110D3C4
:1002D00011461846224600F037FA2D1A67EB01083E
:1002E0004F4622460120002100F02EFA17EB0009AC
:1002F0004E41201EA4F10104DFDC484631462A4667
:100300004346BDE8F09F40EA01039B0703D009E0A4
:1003100008C9121F08C0042AFAD203E011F8013BF1
:1003200000F8013B521EF9D27047D2B201E000F84A
:10033000012B491EFBD270470022F6E710B5134689
:100340000A4604461946FFF7F0FF204610BD2DE986
:10035000FE4F804681EA0300C00F0C46009021F05A
:10036000004123F00045B8EB0200A94105D2404608
:10037000214690461C460B46024623F0004010439F
:1003800047D0270DC7F30A00C3F30A510290401A61
:10039000019040286BDAC3F3130040F4801B0098EF
:1003A000924620B10023D2EB030A63EB0B0B0198BA
:1003B0005946C0F14002504600F0C6F906460D46C7
:1003C00050465946019A00F0DEF910EB08006141F1
:1003D000002487EA115284EAE7731A4340D0009A56
:1003E00062B3019A012A4FEA075215DC001B61EB48
:1003F00002014FF0004202EA0752CDE90042001C20
:1004000041F5801132462B4600F015FA03B0BDE8E5
:10041000F08F40462146F9E7001B61EB0201001C0A
:1004200041F5801300185B412018A2F5001747EB37
:10043000030140EAD570B6196D4111E06D084FEA2D
:10044000360645EAC0754FEA0752001B61EB020110
:10045000001C41F5801149084FEA30000019514154
:1004600032462B4603B0BDE8F04F00F0D5B90098F6
:10047000012240000023D0EB020263EBE0730098FE
:1004800021464FEAE074B8EB000061EB0401E9E7B4
:1004900083F000435BE781F0004158E72DE9FE4F10
:1004A00081EA030404F0004421F0004100944FF07D
:1004B000000B23F0004350EA01045ED052EA03042B
:1004C0005BD0C3F30A54C1F30A552C44A4F2F334AD
:1004D0000194A0FB0254C1F3130141F48011C3F352
:1004E000130343F4801301FB024400FB034E840A10
:1004F000970A44EA815447EA8357A4FB07680295A8
:100500008D0A05FB07854FEA932C04FB0C54270545
:10051000029D4FEA065847EA1637B5EB08056EEB21
:10052000070C870E920E47EA811742EA8312A7FB57
:100530000201B6EB0B0164EB00042B0D43EA0C3314
:100540005E1844EB1C50DA465146E7FB0201C5F346
:1005500013044FEA0B3343EA14534FEA0432019C6D
:1005600043EA0603A4F10C040294009CCDE900B414
:1005700000F061F903B0BDE8F08F00200146F9E713
:100580002DE9F04D81EA030404F0004B21F0004511
:1005900014464FF0000A23F0004150EA050220D033
:1005A00054EA01021DD0C5F30A570246C5F31303EE
:1005B000C1F31300C1F30A5640F4801543F48013CD
:1005C000A7EB0608101BD64608F2FD3873EB0500B2
:1005D00002D308F1010801E092185B41B8F1000F65
:1005E00003DA00200146BDE8F08D00204FF48011B1
:1005F000064684460EE0171B73EB050705D3121B56
:1006000063EB050306434CEA010C49084FEA30004E
:1006100092185B4150EA0107EDD152EA030012D073
:1006200082EA040083EA0501084305D0101BAB41B0
:1006300006D20122002306E000224FF0004302E030
:100640006FF0010253101AEB06004CEB085110EB4F
:100650000A0041EB0B01BDE8F04D00F0DDB800F001
:10066000004230F000400AD0C10D01F56071C0F3C6
:10067000160042EA0151C2084007114370470020AA
:100680000146704730B5041E71F1000404DB4FF0E1
:100690000044404264EB0101141E73F1000405DBC9
:1006A0001C464FF00043524263EB04038B4208BFE9
:1006B000824230BD30B5041E71F1000404DB4FF0FE
:1006C0000044404264EB0101141E73F1000405DB99
:1006D0001C464FF00043524263EB0403994208BFAB
:1006E000904230BD01F0004330B421F0004150EAA7
:1006F000010206D00A0DA2F56072C1F31301002AAF
:1007000002DC30BC00207047440F44EAC104C10041
:10071000E01830BC00EBC25000F047B830B50B46D3
:10072000014600202022012409E021FA02F59D4221
:1007300005D303FA02F5491B04FA02F52844151EF5
:10074000A2F10102F1DC30BD202A04DB203A00FADC
:1007500002F1002070479140C2F1200320FA03F318
:10076000194390407047202A04DB203A21FA02F016
:100770000021704721FA02F3D040C2F120029140DB
:10078000084319467047202A06DBCB17203A41FA66
:1007900002F043EAE07306E041FA02F3D040C2F10E
:1007A000200291400843194670470029A8BF7047AE
:1007B000401C490008BF20F00100704710B4B0FA97
:1007C00080FC00FA0CF050EA010404BF10BC704732
:1007D00049B1CCF1200421FA04F411FA0CF118BF4C
:1007E000012121430843A3EB0C01CB1D4FEA00611B
:1007F0004FEA102042BF002010BC704700EBC350EE
:1008000010440029A4BF10BC7047401C490008BF19
:1008100020F0010010BC704710B5141E73F10004E5
:1008200008DA401C41F1000192185B411A4301D1E2
:1008300020F0010010BD2DE9F04D92469B4611B10C
:10084000B1FA81F202E0B0FA80F220329046FFF76E
:100850007BFF04460F4640EA0A0041EA0B0153467B
:100860005A46084313D0114653EA010019D0C8F183
:1008700040025046FFF777FF05460E465046594660
:100880004246FFF761FF084305D0012004E02046FF
:100890003946BDE8F08D0020054346EAE0762C435A
:1008A00037430A986305E40AA0EB08000022FD0A1A
:1008B00044EA47540A3002D500200146E9E7010521
:1008C00010196941DDE9084500196941BDE8F04D9D
:1008D000A2E72DE9F04D00231A461B1A8A4103DBDB
:1008E00000200146BDE8F08DC1F30A52C1F31301A7
:1008F00041F480154FF0000BD10702D100186D4173
:10090000521E0027044640F2FF11384601EB620AEE
:100910003E468046024600204FF48011FFF723FF39
:10092000C2197141BB1846EB0100B4EB030C75EB27
:10093000000C04D3E41A65EB000517460E46241993
:1009400008F101006D4180463428E3DDF91946EBDA
:100950000600091BA84103D24FF0FF32134601E005
:10096000002213461BEB070046EB0A51BDE8F04D91
:10097000FFF752BFC1F30A52C1F3130140F2FF3334
:1009800041F480119A4202DA00200146704740F299
:1009900033439A42A2F2334202DC5242FFF7E3BEF3
:1009A000FFF7D2BE064C074D06E0E06840F00103B9
:1009B00094E8070098471034AC42F6D3FFF7FAFBEF
:1009C000C0570008E0570008FEE70000014800F0AB
:1009D00018B900009C000020014800F012B9000086
:1009E0009C0000207047704790F82020012A07D013
:1009F000022A05D0416A41F48021416201207047FA
:100A0000006842690A4342610020704710B590F8BF
:100A10002020012A07D0022A05D0416A41F4802112
:100A20004162012010BD3B48D0F8002242F0010293
:100A3000C0F80022D0F8002222F47C52C0F8002234
:100A4000D0F800224B6A42EA0322C0F800220A7D55
:100A500002F01F0301229A40D0F81C329343C0F8E1
:100A60001C32CB69B3B9D0F80C329343C0F80C32C6
:100A70008C894B6864F31F434C6900EBC404C4F8D1
:100A800040320C890B6864F31F434C6900EBC404CB
:100A9000C4F84432CB69012B16D1D0F80C32134381
:100AA000C0F80C320C884B6864F31F434C6900EBB0
:100AB000C404C4F840320C89CB6864F31F434C690A
:100AC00000EBC404C4F844328B69002BD0F8043224
:100AD0000ED01343C0F804320B69002BD0F8143247
:100AE00008D01343C0F81432096A012904D008E081
:100AF0009343EFE79343F5E7D0F81C121143C0F896
:100B00001C12D0F8001221F00101C0F800120020E0
:100B100010BD000000640040704730B590F82040E0
:100B2000012C05D0022C03D0416A41F480215DE004
:100B30000468002955D02469A40754D04FF4D87410
:100B4000056804EB01142D5915F00405956005683E
:100B50002D594ED0ED08556005682C5904F002045B
:100B6000D4604FF4DA74056804EB01142D5905F0D4
:100B70000F05156105682D59C5F3072595610568B1
:100B80002C59240C54614FF4DC72046802EB0112FE
:100B9000A4581C700468A458240A5C700468A45803
:100BA000240C9C700468A258120EDA704FF4DE72A6
:100BB000046802EB0112A4581C710468A458240AAA
:100BC0005C710468A458240C9C710468A258120E2D
:100BD000DA71006881B1016941F0200101610020F2
:100BE00030BDE468A8E7416A41F400114162012088
:100BF00030BD6D0D1560AFE7C16841F02001C160E7
:100C0000EDE72DE9F05F0546006800244669D0F85D
:100C100004908768D0F80CB0D0F810A0D0F81880F5
:100C2000F10748D0F90714D001218160B80703D536
:100C3000284600F020FA0CE0780702D54FF4006453
:100C400007E0380702D54FF4805402E0284600F050
:100C500011FAF80516D529684FF480708860B80538
:100C600003D5284600F009FA0CE0780502D544F4D3
:100C7000005407E0380502D544F4804402E02846D9
:100C800000F0FAF9F80316D529684FF4803088602F
:100C9000B80303D5284600F0F2F90CE0780302D53A
:100CA00044F4004407E0380302D544F4803402E001
:100CB000284600F0E3F9300707D55FEACB6004D59A
:100CC0002968102044F40074C86070074FF00807CA
:100CD00007D55FEA0B7004D52868C760284600F086
:100CE0005FF9B00706D52868C068800702D028469B
:100CF00000F058F9700607D55FEACA6004D5296884
:100D0000102044F480640861B00607D55FEA0A70D9
:100D100004D528680761284600F07CF9F00606D55E
:100D200028680069800702D0284600F074F9B003F3
:100D300008D55FEAC96005D52968102048602846B3
:100D400000F06AF9F00307D55FEA097004D5286856
:100D50004760284600F094F9300446D55FEA4970B0
:100D600040D5F00504D55FEAC87001D044F0010415
:100D7000B00504D55FEA887001D544F0020470051F
:100D800004D55FEA487001D544F00404300529D544
:100D900018F0700F26D008F07000402815D006DC3F
:100DA000102809D020280AD0302816D10AE050286F
:100DB0000ED0602811D10EE044F008040DE044F09C
:100DC00010040AE044F0200407E044F0400404E08A
:100DD00044F0800401E044F480742868816921F0C3
:100DE00070018161296804204860002C05D0686A80
:100DF000204368622846FFF78FFEBDE8F09F70B57C
:100E0000040003D094F8200010B104E0012070BD6C
:100E1000204600F081F82068016821F0020101609D
:100E200000F044FA0546052604E000F03FFA401BB6
:100E30000A2811D8206840688007F6D42068016825
:100E400041F00101016000F031FA05460BE000F0CD
:100E50002DFA401B0A2806D9606A40F4003060620F
:100E600084F82060D2E720684068C007EFD0207E79
:100E70000128206801683DD021F080010160607E7A
:100E800001282068016838D021F040010160A07E6F
:100E900001282068016833D021F020010160E07E44
:100EA0000128206801682ED041F010010160207FE8
:100EB00001282068016829D021F008010160607FC5
:100EC00001282068016824D021F004010160D4E9E0
:100ED00002010843D4E90412114308436168491E22
:100EE00008432168C86100206062012084F8200066
:100EF000002070BD41F08001C0E741F04001C5E72E
:100F000041F02001CAE721F01001CFE741F00801CC
:100F1000D4E741F00401D9E710B586B004461421A6
:100F20006846FFF709FA1B49206888422FD11A4802
:100F3000016841F000710160006800F000700590E8
:100F400015481038016841F008010160006802216D
:100F500000F0080005900320CDE900010121CDE952
:100F600002100920049069460C4800F0AFF80022F6
:100F70000521132000F026FA132000F015FA0022B4
:100F80000521142000F01EFA142000F00DFA06B01E
:100F900010BD00000064004040380240000C0240D8
:100FA0007047000000B5184A016889B0914204D129
:100FB00007AB6A460021FFF7B0FD00991348A1F284
:100FC0000521072917D20288C9B2521C01EB41033F
:100FD00002800F49BDF81C2001EB830152BA8A80C0
:100FE000BDF81E2052BACA80BDF8202052BA0A812C
:100FF0009DF822208A720188B1F5FA7F01D1002183
:10100000018009B000BD0000006400409000002095
:1010100014410020704770477047000070B50446C7
:1010200090F82000012804D0606A40F4002060623B
:1010300018E0022084F820002068016821F00101F6
:10104000016000F033F905460EE000BF00F02EF914
:10105000401B0A2808D9606A40F40030606205200D
:1010600084F82000012070BD20684068C007EDD1E1
:10107000606270BD70477047704770477047704737
:10108000704790F83510022903D080214165012076
:101090007047052180F835100068016821F00101D2
:1010A000016000207047000070B5044600F0FEF8B3
:1010B0000546601C02D004480078044400F0F6F8AD
:1010C000401BA042FAD370BD200000202DE9F84F4C
:1010D00000224FF0010803254FF00F0E0B6808FAAD
:1010E00002F42340A3426ED14E68012E05D0022E99
:1010F00003D0112E01D0122E12D186684FEA420C75
:1011000005FA0CF7BE43CF6807FA0CF73743876040
:101110004668A6430C79C4F30014944034434460F9
:10112000C668570005FA07FC8C6826EA0C06BC4026
:101130003443C4604C68022C01D0122C13D1D40863
:1011400000EB8404A346D4F8209054074FEAD46AF5
:101150000EFA0AF629EA06090E6906FA0AF646EABE
:101160000906CBF8206004680E7924EA0C0406F026
:101170000306BE40264306604C68E4006FD53B4C36
:10118000266846F480462660246822F0030604F4AC
:1011900080440094364C3444A446D4F8084896075A
:1011A000360F0EFA06F7BC43324FB84201D1002782
:1011B0002EE0314FB84201D1012729E02F4FB8422C
:1011C00002D1022724E04AE02D4FB84201D1032783
:1011D0001EE02C4FB84201D1042719E02A4FB84233
:1011E00001D1052714E0294FB84201D106270FE0AD
:1011F000274FB84201D107270AE0264FB84201D154
:10120000082705E0244FB84201D1092700E00A274A
:10121000B7402743CCF80878204E34684F689C4389
:10122000FF0300D51C4334601C4E361D34684F68E4
:101230009C43BF0300D51C433460184E0836346805
:101240004F689C43FF0200D51C433460134E0C369C
:1012500034684F689C43BF0200D51C433460521C65
:10126000102AFFF43BAFBDE8F88F0000443802407D
:10127000003001400000024000040240000802402B
:10128000000C02400010024000140240001802400E
:10129000001C02400020024000240240003C0140AB
:1012A0000AB1816170470904FBE7000001488068CA
:1012B0007047000020000020024881680278114435
:1012C00081607047200000200B4810B5016841F490
:1012D00000710160016841F480610160016841F4BE
:1012E00080710160032000F08DF8002000F006F806
:1012F00000F03EF8002010BD003C024010B5014651
:1013000088B00022192000F05DF8192000F04CF898
:1013100013480024016841F001010160006805A93B
:1013200000F001000690684600F018F900F046F958
:101330000C494000B0FBF1F10C480B4A491E026019
:1013400040F2E732C0E90324C0E9011400F09AFB3F
:1013500010B1012008B010BD044800F0C1FBF9E74E
:101360004438024040420F0000000140E4030020E6
:101370000C4882B0016841F480410160006800F4CB
:10138000804000900748001F016841F080510160D3
:101390000068002200F0805000900F21901E02B0E3
:1013A00000F010B844380240002809DB00F01F02AA
:1013B000012191404009800000F1E020C0F80011B7
:1013C00070470000F0B40E4B1B680C46C3F30223B9
:1013D000C3F10705042D00D90425191D072901D2E1
:1013E000002300E0DB1E012606FA05F1491E21401C
:1013F00099409E40761E16403143F0BC01F072BC0D
:101400000CED00E0064900F0070208684FF6FF0304
:10141000184040EA0220034A104308607047000069
:101420000CED00E00000FA052DE9F0470E4605003E
:1014300065D0DFF81481D8F80000F7B200F00F0093
:10144000B04207D288F80070D8F8000000F00F0012
:10145000B04254D128683D4C810712D5400703D5CE
:10146000206840F4E05020602878000703D5206809
:1014700040F4604020602068A96820F0F000084334
:1014800020602878C0072DD03049686808390128C5
:1014900012D0022813D0032811D009688907002927
:1014A0002DDA216821F0030101432160FFF7FEFEE0
:1014B000814641F2883A0EE009688903EFE709683E
:1014C0008901ECE7FFF7F2FEA0EB0901514502D9D3
:1014D0000320BDE8F0872068696800F00C00B0EBDD
:1014E000810FEFD1D8F80010404601F00F01B14252
:1014F00007D90770006800F00F00B04201D001204A
:10150000E7E72878400705D52068E96820F4E0502F
:10151000084320602878000706D52068296920F450
:10152000604040EAC100206000F058F82168084A95
:10153000C1F30311515CC8400649086006480068C1
:10154000FFF7DCFE0020C4E7003C02400838024000
:10155000945600082C000020240000200F22026076
:101560000C4A136803F003034360136803F0F003AD
:101570008360136803F4E053C36012684FF4E053D0
:1015800003EAD20202610448006800F00F0008601C
:101590007047000008380240003C024004480549FA
:1015A00000680968044AC1F38221515CC840704751
:1015B0002C00002008380240A456000804480549C1
:1015C00000680968044AC1F34231515CC840704761
:1015D0002C00002008380240A4560008154810B519
:1015E000006810F00C02144813D01449042A0FD0DC
:1015F000082A0ED10F4C241F2268236802F03F02F4
:101600005B0207D52068C0F38810A0FB010106E04B
:10161000084610BD2168C1F38811A1FB0001002319
:10162000FEF740FE2168C1F30141491C4900B0FBAF
:10163000F1F010BD083802400024F400001BB70090
:101640002DE9F84F040076D02078DFF838A3CE4D8E
:10165000C00749D0DAF800105046C1F381010129D2
:1016600008D00068C0F3810002280AD1281D006854
:10167000400206D52868800336D560680028E2D08D
:1016800032E06068B0F5803F10D0B0F5A02F286838
:1016900010D020F480302860286820F48020286052
:1016A0006068A0B1FFF702FE06460CE0286840F42F
:1016B0008030F4E740F480202860F7E7FFF7F6FD7C
:1016C000801B642873D828688003F7D50CE0FFF7E7
:1016D000EDFD064605E000BFFFF7E8FD801B64282E
:1016E000F0D828688003F7D42078DFF8A08280073C
:1016F0004FF000093ED5DAF80010504611F00C0FFB
:1017000009D00068C0F3810002280BD19D48001F5A
:101710000068400206D42868800715D5E0680128D3
:1017200009D111E0E068B8B10120C8F80000FFF766
:10173000BDFD064605E020E1FFF7B8FD801B02284D
:10174000C0D828688007F7D52868216920F0F800FC
:1017500040EAC10028600DE0C8F80090FFF7A6FD40
:10176000064604E0FFF7A2FD801B02281FD8286868
:101770008007F7D42078000722D5824E844861691B
:101780006C3671B101210160FFF790FD074604E05E
:10179000FFF78CFDC01B022809D830688007F7D5F9
:1017A0000EE0C0F80090FFF781FD074605E082E0FB
:1017B000FFF77CFDC01B02287DD830688007F7D476
:1017C0002078400768D5DFF8BCB100270BF1380B53
:1017D000DBF80000C0000BD4DBF8001041F08051B2
:1017E000CBF80010DBF80000012700F080500090DB
:1017F000684E3068C00510D4306840F480703060A6
:10180000FFF754FD009005E0FFF750FD0099401AE6
:10181000022850D83068C005F6D55A4EA068683600
:1018200001280FD00528306810D020F0010030606A
:10183000306820F004003060A068B8B1FFF736FDD2
:1018400000900FE0306840F00100F4E740F0040041
:101850003060F7E7FFF72AFD0099411A41F288301E
:10186000814266D830688007F4D50EE0FFF71EFD90
:10187000009007E0FFF71AFD0099411A41F2883005
:10188000814256D830688007F4D42FB1DBF80010BD
:1018900021F08051CBF80010A069D0B3DAF8002015
:1018A0005146C2F38102022A4AD00228484607D094
:1018B000C8F8600000E03CE0FFF7F8FC04463BE0BD
:1018C0004746C8F86000FFF7F1FC064605E000BF98
:1018D000FFF7ECFC801B02282BD828688001F7D486
:1018E000D4E907010843A16A2B4A490802EB0141E8
:1018F000626A41EA8211084394F82C1040EA0161BF
:101900002048001F016001203866FFF7CFFC044625
:1019100005E034E0FFF7CAFC001B022809D828685C
:101920008001F7D52BE000BFFFF7C0FC001B0228A9
:1019300002D90320BDE8F88F28688001F4D41EE0A6
:101940000128F7D00868E26900F48001914214D1BF
:10195000226A00F03F0191420FD147F6C071626ADE
:101960000140914209D1A26A00F44031914204D170
:10197000E16A00F07060884201D00120DAE70020BF
:10198000D8E7000008380240003802400000474213
:10199000800E4742007000400000FFFF7047704714
:1019A00010B590F83C20012A22D0012280F83C207A
:1019B000CA688C6822F4407222434C6822F4806228
:1019C00022430C6822F4006222430C6922F4805204
:1019D00022434C6922F400522243C969002322F4B5
:1019E00080420A4301684A6480F83C30002010BD00
:1019F000022010BD70B590F83C20012A32D001249D
:101A000080F83C40022280F83D2003685A689D68B7
:101A100022F070060A6832435A60134B02689A42F9
:101A200014D0B2F1804F11D0104B9A420ED0104B0F
:101A30009A420BD00F4B9A4208D00F4B9A4205D0D6
:101A40000E4B9A4202D00E4B9A4204D1496825F0BF
:101A500080031943916080F83D40002180F83C10DC
:101A6000084670BD022070BD000001400004004027
:101A700000080040000C004000040140004001400C
:101A80000018004010B5040003D094F83D0010B1D8
:101A900007E0012010BD002084F83C00204600F043
:101AA0000DF8022084F83D00211D206800F010FE92
:101AB000012084F83D00002010BD000008B500683A
:101AC000B0F1804F08D10548016841F00101016083
:101AD000006800F00100009008BD0000403802409E
:101AE0000168CA6842F00102CA600068816801F0BA
:101AF0000701062903D0016841F0010101600020BF
:101B0000704770B5044690F83C00012817D00125B5
:101B100084F83C50022084F83D002068826822F05E
:101B2000770222F47F4282600868502830D00DDCB2
:101B300020284DD005DC98B310283BD148E0022086
:101B400070BD302844D0402834D139E0602828D0F6
:101B5000702806D0B0F5805F2CD0B0F5005F29D199
:101B60000AE0CB68D1E90121206800F022FE20685C
:101B7000816841F0770109E0CB68D1E90121206853
:101B800000F017FE2068816841F48041816011E017
:101B9000CA684968206800F0E1FE5021206807E02B
:101BA00016E0CA684968206800F0E9FE60212068F4
:101BB00000F009FE84F83D50002084F83C0070BD20
:101BC000CA684968206800F0C9FE40212068EFE734
:101BD000226801461046EBE7704770B5044600687E
:101BE00001694FF00005C943890715D4C168C9438D
:101BF000890711D4E91E01610120207720688069DE
:101C00008007204602D0FFF7E7FF04E000F0D8F895
:101C1000204600F06DF9257720680169C94349071E
:101C200017D4C168C943490713D46FF00401016197
:101C3000022020772068806910F4407F204602D07F
:101C4000FFF7CAFF04E000F0BBF8204600F050F9AF
:101C5000257720680169C943090716D4C168C943BB
:101C6000090712D46FF00801016104202077206871
:101C7000C0698007204602D0FFF7AEFF04E000F005
:101C80009FF8204600F034F9257720680169C943A0
:101C9000C90617D4C168C943C90613D46FF010012F
:101CA0000161082020772068C06910F4407F204639
:101CB00002D0FFF791FF04E000F082F8204600F028
:101CC00017F9257720680169C943C90708D1C16898
:101CD000C943C90704D1891E0161204600F02CF9CF
:101CE00020680169C943090609D4C168C9430906C6
:101CF00005D46FF0800101612046FFF74FFE206898
:101D00000169C943490609D4C168C943490605D4D4
:101D10006FF040010161204600F018F92068016968
:101D2000C94389060BD4C168C943890607D46FF03B
:101D3000200101612046BDE87040FFF730BE70BD54
:101D400010B586B0044614216846FEF7F5FA2368FC
:101D5000002117480222B3F1804F17D0154CA3423F
:101D600012D1036843F480730360006800F480704C
:101D7000059020200090CDE901210320CDE903103A
:101D800069460D48FFF7A2F906B010BD036843F09D
:101D900001030360006800F0010005900F2000902F
:101DA000CDE901210120CDE9031069460348E9E7A7
:101DB0003038024000040140002002400000024090
:101DC000704770B5044690F83C000D4601280DD0D0
:101DD000012684F83C60022084F83D0042B1042AC8
:101DE00018D0082A2AD00C2A4DD139E0022070BD23
:101DF000206800F0F1FC2068816941F008018161F0
:101E00002068816921F004018161206881692A6963
:101E1000114311E0206800F00FFD2068816941F452
:101E2000006181612068816921F48061816120689D
:101E300081692A6941EA0221816124E0206800F079
:101E400031FD2068C16941F00801C1612068C169A4
:101E500021F00401C1612068C1692A69114311E0C0
:101E6000206800F053FD2068C16941F40061C16140
:101E70002068C16921F48061C1612068C1692A6953
:101E800041EA0221C16184F83D60002084F83C00F1
:101E900070BD10B5040003D094F83D0010B107E008
:101EA000012010BD002084F83C00204600F00CF812
:101EB000022084F83D00211D206800F009FC01206B
:101EC00084F83D00002010BD08B50068064988422E
:101ED00008D10648016841F002010160006800F085
:101EE0000200009008BD0000000401404438024098
:101EF0007047000010B504460068012200F04CFC59
:101F00000B492068884202D00A49884203D1416CBB
:101F100041F4004141642068816801F0070106290D
:101F200003D0016841F001010160002010BD0000F4
:101F3000000001400004014000680349884201D1CB
:101F4000FFF7BAB9704700000000014070477047C2
:101F500070B5026804461068D168536910F00F0F1D
:101F600053D003F0010501F490762E435FD0C207F1
:101F700005D0CA0503D5E26B42F00102E2634207D5
:101F800005D5DA0703D0E26B42F00202E263820772
:101F900005D5DA0703D0E26B42F00402E2630207E0
:101FA00007D501F020022A4303D0E26B42F0080279
:101FB000E263E26B002A34D0800604D5880602D59D
:101FC000204600F01BFD20684069E16BC0F38010E3
:101FD00001F008010143204624D000F001FD2068F3
:101FE000416949061AD5416921F040014161606BA0
:101FF000A0B11B490165606BFFF743F8002810D0C2
:10200000606B016DBDE87040084783060FD58B06F5
:102010000DD52046BDE8704000F0F0BC2046FFF72B
:1020200096FF70BDFFF793FF0020E06370BD0306CD
:1020300006D50B0604D52046BDE8704000F0BEBDB5
:102040004006F3D54806F1D5D168204621F040017D
:10205000D160202184F8391000F0D0F870BD000064
:10206000D129000870B5040004D094F83900002587
:1020700010B106E0012070BD84F83850204600F011
:1020800023F8242084F839002068C16821F4005125
:10209000C160204600F0FEFC2068016921F49041F7
:1020A00001612068416921F02A0141612068C1680D
:1020B00041F40051C160E563202084F8390084F8C0
:1020C0003A00002070BD000010B586B0044614210F
:1020D0006846FEF731F917492068884228D116482A
:1020E000016841F400310160006800F4003005909F
:1020F00011481038016841F0080101600068694624
:1021000000F008000590602000900220019001205E
:10211000029003200390072004900848FEF7D6FFA2
:10212000002205212620FFF74DF92620FFF73CF974
:1021300006B010BD0044004040380240000C024090
:1021400070472DE9F843044690F839001F461646BB
:102150000D46202850D1B5B1AEB194F83800012811
:102160004AD0012084F838004FF00008C4F83C80C1
:10217000212084F83900FFF799F8A6848146E68487
:1021800084F8388026E00120BDE8F883E08C401E0A
:10219000E084A0684B46B0F5805F4FF000024FF03E
:1021A00080012046009703D000F039FDE8B90DE02A
:1021B00000F035FDC8B928882168C0F308004860E0
:1021C000206908B16D1C05E0AD1C03E0216815F81D
:1021D000010B4860E08C0028D8D14B4600224021FA
:1021E0002046009700F01BFD08B10320CCE720201B
:1021F00084F839000020C7E70220C5E77047FEE7F2
:102200000F4810B50D4901600921416000214FF4CC
:1022100080328160C0E90312416101760122427679
:102220008176C17601774177FEF7E9FD002803D07A
:10223000BDE81040FEF7D7BB10BD000000640040B1
:102240009C00002010B596B000220C210A2002F05C
:1022500057FE164C9FED160A1C22206015481649A1
:1022600080ED000A80ED010A80ED020A6846FEF763
:102270004AF80021684602F0AFF80F4960601C225E
:102280001C3107A8FEF73FF8002107A802F0A4F8C8
:102290000949A0601C2238310EA8FEF734F800214D
:1022A0000EA802F099F8E06016B010BD0000002002
:1022B0003D0A573EC40000204056000830B587B0A4
:1022C00014216846FEF738F81D480024016841F0E3
:1022D00001010160016801F001010591016841F00F
:1022E00008010160016801F008010591016841F4ED
:1022F00080710160016801F480710591016841F00D
:1023000080010160016801F080010591016841F0E0
:102310004001016000680B4D00F040000590002274
:1023200002212846FEF7BCFF022000900120CDE9E3
:102330000104694628460394FEF7C8FE07B030BD85
:10234000303802400018024010B58EB000240794C7
:10235000089409940A940B941C2168460C94FDF788
:10236000EBFF2B484FF08041016040F28F11C0E934
:10237000011441F26701C0E9031480218161FFF774
:1023800081FB08B1FEF72FFB4FF48050079007A99F
:102390001F48FFF7B6FB08B1FEF725FB1C48FFF707
:1023A00078FD08B1FEF71FFB0B940BA918480C949D
:1023B000FFF720FB08B1FEF716FB6020CDE9000413
:1023C00002940022694612480494FFF7FAFC08B10F
:1023D000FEF709FB042269460D48FFF7F2FC08B13D
:1023E000FEF701FB082269460948FFF7EAFC08B13D
:1023F000FEF7F9FA0C2269460548FFF7E2FC08B13E
:10240000FEF7F1FA0248FFF79BFC0EB010BD00008A
:102410002403002010B592B000240F941C2108A8BA
:102420001094FDF789FF20216846FDF785FF2148BC
:102430001F490160C721C0E9011441F26701C0E9E9
:1024400003148021C0E90541FFF723FD08B1FEF721
:10245000CAFA0F940FA917481094FFF7CBFA08B1E6
:10246000FEF7C1FA6020CDE908040A940B940C949D
:102470000D94002208A90F480E94FFF7A2FC08B1A2
:10248000FEF7B1FA00944FF40050CDE904400294F5
:1024900001940394694607480794FFF781FA08B14D
:1024A000FEF7A1FA0348FFF74BFC12B010BD000085
:1024B00000040140640300200C4810B50A49016083
:1024C0004FF4E1314160002181600C22C160C0E91C
:1024D00004128161C161FFF7C5FD002803D0BDE88A
:1024E0001040FEF780BA10BD00440040A403002055
:1024F000FEE770472DED048B344DDFED358A9FEDFF
:10250000358A9FED359A84B0002400BF04EB840027
:10251000F0EE681A00EBC40005EB8000B0EE612A13
:10252000B0EE481AF0EE080AB0EE490A01F07EFF5C
:10253000641CE4B2072CE9D3284D4FF4FA763246F6
:102540006946286802F0F4FD32466946286802F0C0
:10255000EFFD0028F3D021489DEC030A103001F074
:102560003BFD1E489DEC030A103001F035FD0128AB
:10257000E5D0052002F092FB9FED190A02F016FA51
:10258000052002F08BFB9FED170A02F039FA0520B7
:1025900002F084FBBAEE040A02F05CFA052002F0B5
:1025A0007DFB0E4F0024103757F82400FEF757F834
:1025B00041EC100B0CA053EC102B00F06BFB322005
:1025C00001F0FEFE641C032CEEDBB8E7684100203E
:1025D0000060EA46000000000000204200000020E9
:1025E000000000420000E0C220616E676C65203D83
:1025F000202566200A20000010B5502080F31188A5
:10260000BFF34F8FBFF36F8F02F0CEFE18B10449B6
:102610004FF080500860002080F3118810BD00004A
:1026200004ED00E030B593B030216846FDF784FE3C
:1026300014210CA8FDF780FE19480025016841F01F
:1026400080510160006800F08050119015480168C9
:1026500041F4404101600068022400F440401190C0
:1026600001200090000401908001CDE90640062081
:102670000890A820CDE9090404200B906846FEF7D5
:10268000DFFF0CA90F2081E831004FF4A0500F901C
:10269000E002109005210CA8FEF7C6FE13B030BD75
:1026A00040380240007000400548016841F4700164
:1026B000016003494FF000608039086070470000F6
:1026C00088ED00E00148FFF788BA0000E40300202D
:1026D000F0B50268254C264D264E274F274B4FF06C
:1026E000804CA04209D0604507D0A84205D0B04236
:1026F00003D0B84201D0984204D122F0700E4A684B
:1027000042EA0E02A0421BD0604519D0A84217D061
:10271000B04215D0B84213D0984211D0184DA842FB
:102720000ED0184DA8420BD0174DA84208D0174D17
:10273000A84205D0164DA84202D0164DA84203D19A
:1027400022F44075CA682A434D6922F080022A4368
:1027500002608A68C2620A688262A04201D098421E
:1027600001D10969016301214161F0BD000001400F
:102770000004004000080040000C0040000401403C
:102780000040014000440140004801400018004062
:10279000001C00400020004010B501F01F03012183
:1027A000046A99408C430462016A9A4011430162B1
:1027B00010BD10B5846842EA032224F47F440A4322
:1027C0002243826010BD826822F070020A4342F008
:1027D0000701816070470000F0B5026A22F0010233
:1027E0000262036A42688469124E24F073050C6821
:1027F0002C4323F002058B682B430D4DA84201D0DA
:10280000B04205D123F00807CB683B4323F0040313
:10281000A84201D0B04205D14D6922F4407215435F
:102820008A692A4342608461496841630362F0BD5A
:102830000000014000040140F0B5026A22F01002DD
:102840000262026A436884690D6824F4E64444EA3B
:1028500005248D6822F0200242EA05120F4D104E29
:10286000A84201D0B04206D1CF6822F0800242EAED
:10287000071222F04002A84201D0B04207D14D69B0
:1028800023F4406343EA85038D6943EA850343608B
:102890008461496881630262F0BD0000000001406C
:1028A00000040140F0B5026A22F480720262026AFA
:1028B0004368C46922F4007224F073050C68124E58
:1028C0002C438D6842EA05220E4DA84201D0B04249
:1028D00006D1CF6822F4006242EA072222F4806225
:1028E000A84201D0B04207D14D6923F4405343EAD6
:1028F00005138D6943EA05134360C4614968C163E8
:102900000262F0BD000001400004014030B5026ADF
:1029100022F480520262046A4268C3690D6823F49B
:10292000E64343EA05238D6824F4005444EA053461
:10293000084DA84202D0084DA84204D14D6922F4A6
:10294000804242EA85124260C361496801640462C0
:1029500030BD0000000001400004014010B5036AD2
:10296000046A24F001040462846924F0F00444EA57
:10297000021423F00A020A438461026210BD10B5FA
:10298000036A23F0100303628369046A23F470432B
:1029900043EA023224F0A00343EA0111826101629A
:1029A00010BD0000084C00231A460849206802F0B8
:1029B0000FFB00231A460549206802F009FB64203A
:1029C00001F0FEFCEFE7000000000020C400002042
:1029D00010B5806B0021C185C184FFF7B8FA10BD26
:1029E0000168CA6822F49072CA6001684A6922F0DC
:1029F00001024A61202180F83A10704710B590F822
:102A00003A10222901D0022010BD8168B1F5805F03
:102A100011D00169002901681FD0496801F07F03C6
:102A2000816A4A1C82620B70C18D491E0904090C1F
:102A3000C18518D02BE00269816A002A02685268B9
:102A400005D0D2B20A80816A491C8162ECE7C2F3E8
:102A500008020A80816A891CF7E74A68816A4B1C70
:102A600083620A70E0E70168CA6822F02002CA6047
:102A70000168CA6822F48072CA6001684A6922F05B
:102A800001024A61202180F83A10FFF759FB00202B
:102A900010BD00002DE9F041044600680169E268BC
:102AA00021F44051114301612169A068E2690843A2
:102AB0006169114308432168CA6849F20C639A436B
:102AC0000243CA6020684169A26921F44071114340
:102AD0004161E069192764253226B0F5004F354A77
:102AE000354920684FF0000806D0884201D0904256
:102AF00036D1FEF763FD35E0884201D0904202D125
:102B0000FEF75CFD01E0FEF749FD61684A18A0FB95
:102B1000070148EB0803FDF7C5FB0146B0FBF5F0E4
:102B20000201B1FBF5F06FF01803584301EB800090
:102B300006EBC000B0FBF5F000F0F80002EB40023D
:102B4000B1FBF5F0584301EB800006EBC000B0FB91
:102B5000F5F000F00700216810448860BDE8F081BE
:102B6000FEF71CFD61688B0F8A00A0FB0701FDF7D3
:102B700099FB0146B0FBF5F06FF01802504301EBF2
:102B8000800006EB0010B0FBF5F000F0F002B1FBA6
:102B9000F5F002EB0012B1FBF5F06FF018035843AB
:102BA00001EB800006EB0010B0FBF5F000F00F0029
:102BB000D1E70000001401400010014090F83910E6
:102BC000212901D0022070478168B1F5805F016A38
:102BD0000BD04A1C0262026809785160C18C491E00
:102BE0000904090CC1840ED017E009880268C1F3FA
:102BF0000801516001690029016A02D0491C016283
:102C0000ECE7891CFBE70168CA6822F08002CA6011
:102C10000068C16841F04001C160002070472DE9A3
:102C2000F041984617460E460446069D1DE0681C76
:102C30001BD02DB1FEF73AFBA0EB0800A84214D937
:102C40002068C16821F4D071C1602068416921F019
:102C500001014161202084F8390084F83A00002005
:102C600084F838000320BDE8F0812068006836EA67
:102C7000000004D00020B842D9D00020F3E70120A2
:102C8000F9E700000148FFF763B90000A403002042
:102C9000FEE700000FB4054B10B503A9044A0298E3
:102CA00000F0FAFD10BC5DF814FB00002D43000895
:102CB0009400002003B401984100009850EAC1201C
:102CC00018BF04204A0D18BF40F0010040F2FF7207
:102CD000B2EB515F08BF40F00200012808BF052099
:102CE00002B070470907090E002804DB00F1E0205C
:102CF00080F80014704700F00F0000F1E02080F829
:102D0000141D70470000000010B5B94A2DED020BEC
:102D10002DED0C8B82B00F9921F000409FEDB6CBCA
:102D200090422CDBA0F140530E9AA3F17F631A432B
:102D30000FD0B349884202DC16D10E98A0B19DEDA8
:102D40000E0B02B0BDEC0C8B02B0BDE8104000F0E1
:102D5000A4BC0029C1BF9FEDAC0B02B0BDEC0C8B35
:102D600002B0C8BF10BD16E0012000F0DDFC02B0CB
:102D7000BDEC0C8B02B0BDE8104000F0A5BCA44A2D
:102D80009FEDA59B9FEDA6AB90425EDAA6499FED15
:102D9000A8CB814208DBB0EE4C0AF0EE6C0A02B020
:102DA000BDEC0C8B02B010BD9DED0E0B53EC102B47
:102DB00051EC100BFDF772FB41EC180B9E480621FD
:102DC000B0EE480AF0EE680A784400F0EAFB53ECF3
:102DD000182B51EC100BFDF761FB41EC1B0B9748D6
:102DE000B0EE480AF0EE680A0421784400F0D9FBFE
:102DF00053EC182B51EC100BFDF750FB53EC192B37
:102E0000FDF7A5FA41EC100B51EC1B0B53EC102B0A
:102E1000FDF7B6FB41EC100B53EC102B9DED0E0BA8
:102E200051EC100BFDF73AFB53EC1A2BFDF733FB7B
:102E30009DED0E1B53EC112BFDF72DFB53EC1C2BC2
:102E4000FDF729FB41EC100BA9E79FED7D8B9FED72
:102E50007EBB9DED0E0B002953EC192B51EC100B92
:102E600052DAFDF774FA53EC182BFDF717FB41EC1F
:102E7000180B77480621B0EE480AF0EE680A78444D
:102E800000F08FFB53EC182B51EC100BFDF706FBF9
:102E900041EC1D0B6F48B0EE480AF0EE680A0421C1
:102EA000784400F07EFB53EC182B51EC100BFDF72F
:102EB000F5FA53EC192BFDF74AFA41EC190B51ECDA
:102EC000180B01F0F1FD41EC180B53EC192B51ECF0
:102ED0001D0BFDF755FB53EC182BFDF7DFFA53ECF8
:102EE0001A2BFDF7D5FA41EC100B51EC180B53ECF3
:102EF000102BFDF72CFA53EC1B2BFDF7CFFA53ECFC
:102F00001C2BFDF7C8FA6DE0FDF7C5FA53EC182B42
:102F1000FDF7C4FA41EC180B01F0C6FD41EC1A0BA9
:102F200000208DED00AB00909DED000B51EC1A0BD5
:102F300053EC102BFDF70BFA9DED000B41EC1C0B35
:102F400053EC102B51EC100BFDF7A8FA53EC182B97
:102F5000FDF7A1FA53EC1C2BFDF712FB41EC1C0B07
:102F60003D48B0EE480AF0EE680A0621784400F0C9
:102F700018FB53EC182B51EC100BFDF78FFA41ECBA
:102F80001D0B3648B0EE480AF0EE680A042178447A
:102F900000F007FB53EC182B51EC100BFDF77EFAF9
:102FA00053EC192BFDF7D3F941EC100B51EC1D0B31
:102FB00053EC102BFDF7E4FA53EC1A2BFDF76EFAE5
:102FC00053EC1C2BFDF7C3F941EC100B53EC102B09
:102FD0009DED000B51EC100BFDF7B9F953EC1B2BD9
:102FE000FDF75CFA41EC100BD9E600000000000090
:102FF0000000F03F00000000182D4454FB21094060
:103000000000F07F00000000000000000000000051
:103010000000E03F00000000000000000000F03F62
:10302000075C143326A6913C0000603C00000000C1
:10303000182D4454FB21F93FE4280000F228000039
:10304000000000000000E03F000000000000004021
:103050002E2800003C280000402700004E270000DA
:1030600070B59B482DED020B2DED068B079D25F0CD
:103070000044A04218DC9748844202DC0AD106983A
:1030800040B19DED060BBDEC068B02B0BDE8704073
:1030900000F003BB002DCCBF9FED8F0B9FED900B7D
:1030A000BDEC068B02B070BD8F48A04215DD8F4885
:1030B000A042D8BF4FF0FF3458DD9DED060B51EC18
:1030C000100BFFF7F7FD042808BF00F00DFB9DED86
:1030D000060BBDEC068B02B070BD9DED060B51ECEE
:1030E000100B01F017F9CDE9060181489FED828BA5
:1030F000A0423CDD8248A0421FDD00249FED82AB50
:103100009DED060B53EC1A2B51EC100BFDF71FF93C
:103110009DED060B41EC190B53EC1A2B51EC100BE7
:10312000FDF7BCF953EC182BFDF7B2F953EC192B52
:10313000FDF726FACDE9060149E09DED060B0124D5
:1031400053EC182B51EC100BFDF701F99DED060B1C
:1031500041EC190B53EC182B51EC100BFDF798F9BF
:1031600053EC192BFDF70CFACDE906012FE0684866
:10317000A0421FDD02249FED689B9DED060B53ECE2
:10318000192B51EC100BFDF789F953EC182BFDF7B7
:10319000DEF89DED060B41EC180B53EC192B51ECAE
:1031A000100BFDF775F953EC182BFDF7E9F9CDE994
:1031B00006010CE09DED060B032453EC102B9FED54
:1031C000580B51EC100BFDF7DBF9CDE906019DED35
:1031D000060B53EC102B51EC100BFDF75FF941EC93
:1031E000180B53EC182BFDF759F941EC190B4E480D
:1031F0000621B0EE490AF0EE690A784400F0D1F9F0
:1032000053EC182B51EC100BFDF748F941EC180B5F
:103210004648B0EE490AF0EE690A0521784400F00C
:10322000C0F953EC192B51EC100BFDF737F941ECB9
:10323000100B51EC180B53EC102B002C0EDAFDF791
:1032400086F89DED061B53EC112BFDF727F99DED3C
:10325000061B53EC112BFDF71EF935E0FDF777F84F
:103260009DED061B53EC112BFDF718F941EC100BEB
:103270002F48784400EBC40090ED001B51EC100B7C
:1032800053EC112BFDF704F99DED061B53EC112BAC
:10329000FDF7FEF841EC100B2648784400EBC40023
:1032A00090ED001B51EC100B53EC112BFDF7F3F8D4
:1032B00041EC100B002DA2BFBDEC068B02B070BD1F
:1032C00051EC100B81F0004141EC100B01E70000C4
:1032D000000010440000F07F182D4454FB21F93FFA
:1032E000182D4454FB21F9BF0000DC3F0000203EB4
:1032F0000000F33F00000000000000000000F03F6D
:103300000000E63F00000000000000000000004058
:103310000080034000000000000000000000F83FB3
:10332000000000000000F0BF6A250000202500001A
:10333000AA2400006224000070B56B4E2DED040B32
:103340002DED028B82B0DDF81CC0DDE905235C4267
:103350002CF000411C4341EAD474049D22F000404B
:10336000B44205D86C422C4340EAD474B4420BD921
:103370009DED061B9DED040B02B0BDEC028B04B06D
:10338000BDE8704000F093B9ACF14054A4F17F6403
:103390001C430BD0022404EAAC7444EAD274054303
:1033A0009FED538B9FED542B07D015E09DED040B43
:1033B00051EC100B00F007FE42E0002C11BF012C75
:1033C0009DED040B02B0BDEC028B04BF04B070BDD8
:1033D000022C38D0032C3BD00B439FED491B9FEDB3
:1033E0004A0B0AD0B14218D1B04209D121F0804134
:1033F00020F08040079105900FE0002A15DA10E0D8
:10340000434B7B44002C08BF93ED000B0DD0012CE7
:1034100010D0022C17D0032C1AD0B0421DD1002A94
:1034200003DAB0EE410AF0EE610A02B0BDEC028BA5
:1034300004B070BD93ED000B51EC100B81F0004116
:1034400041EC100BF1E7B0EE480AF0EE680AECE749
:10345000B0EE420AF0EE620AE7E7401A00153C2897
:10346000C8BF8DED000B19DCBCF1000FBEBF10F121
:103470003C0F9FED290B8DED000B0FDB9DED060B37
:1034800053EC102B9DED040B51EC100BFDF778F86D
:1034900000F040FF00F097FDCDE90001002C08BFCF
:1034A0009DED000BC1D0012C10D0022C9FED1C0B08
:1034B00053EC102B9DED000B51EC100B0DD0FCF7D5
:1034C000E7FF53EC182BFCF7E3FFB9E7019880F016
:1034D000004001909DED000BA7E7FCF7D9FF53ECEE
:1034E000182BFCF7D8FFABE70000F07F00000000CE
:1034F000182D4454FB210940182D4454FB2109C0C8
:10350000182D4454FB21F9BF182D4454FB21F93FD9
:1035100092230000000000000000000000000000F6
:10352000075C143326A6A13C00B52DED048BB0EE4C
:10353000409AF0EE609A83B051EC190BFDF7C9F98F
:1035400041EC180B18EE100A18EE901A8DED008B56
:10355000002818BF0120084320F00040C0F17F6020
:1035600000F1E040C00F14D019EE101A19EE900AC5
:103570008DED009B002918BF0121084320F0004079
:10358000C0F17F6000F1E040C00F04BF012000F0F7
:10359000CBF8B0EE480A03B0F0EE680ABDEC048B3D
:1035A00000BD70B504462DED028B4D1E00EBC5002D
:1035B000B0EE408AF0EE608A90ED000B35F0060028
:1035C00017D053EC182B51EC100BFCF767FF41ECB4
:1035D000100B6D1E04EBC50090ED001B51EC100BA1
:1035E00053EC112BFCF7B3FE41EC100B35F0060049
:1035F000E7D1022D36D0042D1CD0062D1CBFBDEC0A
:10360000028B70BD53EC182B51EC100BFCF746FFEE
:1036100094ED0A1B53EC112BFCF799FE53EC182B7D
:10362000FCF73CFF94ED081B53EC112BFCF78FFECD
:1036300041EC100B53EC182B51EC100BFCF72EFF48
:1036400094ED061B53EC112BFCF781FE53EC182B69
:10365000FCF724FF94ED040B53EC102BFCF777FEE2
:1036600041EC100B53EC182B51EC100BFCF716FF30
:1036700094ED021B53EC112BFCF769FE53EC182B55
:10368000FCF70CFF94ED001B53EC112BFCF75FFED5
:10369000BDEC028B41EC100B70BD10B553EC102B40
:1036A00051EC100BFCF753FE41EC100B10BD10B5A4
:1036B00053EC112B51EC100BFCF749FE41EC100BB5
:1036C00010BD0000000000009FED050B10B553EC8D
:1036D000102B51EC100BFCF753FF41EC100B10BDFD
:1036E00000000000000000009FED050B10B553EC3A
:1036F000102B51EC100BFCF7D1FE41EC100B10BD60
:10370000000000000000001002E008C8121F08C1FD
:10371000002AFAD170477047002001E001C1121F52
:10372000002AFBD170470000014908607047000083
:10373000980000202DE9FF5FDDE90220010DDDF892
:1037400038B0024318D044F61050A1F2FF31414383
:103750000D140F98012820D0A5EB0B00401C5FEA48
:10376000000A4FF00004474EDFF81C91A046504677
:1037700016D5CAF1000728E00F98012443A20128BA
:1037800008D0002100980F9BC0E90021C0E9024346
:10379000BDE8FF9F6FEA0B01F4E7CBF10000DEE725
:1037A000074612E0F80707D022463346404649460E
:1037B000FCF774FE80468946224633461046194679
:1037C000FCF76CFE04460E467F10002FEAD1DDE9BF
:1037D0000201BAF1000F42464B4602DAFCF75EFEE8
:1037E00001E0FCF7CDFE04460E460022284BFCF714
:1037F00061FF03D84FF0FF30014607E00022254B60
:1038000020463146FCF7A3FDFDF7B4F8102409E08B
:10381000002C0ADB0A220023FCF744FD019B303216
:103820001A55641E50EA0102F2D1641C019AC4F1D7
:10383000110314440F9A012A03D0012208430DD129
:103840000AE0084304D000204FF0110B0F9080E7EE
:10385000A3EB0B056D1E0DE05B4504DD4FF0000290
:1038600005F1010504E003DA4FF00002A5F10105BE
:10387000002AECD000980F99C0E90231C0E9004558
:1038800086E70000000024400000F03F3000000008
:103890000000F0430000E03F2DE9FF4F95B09B464C
:1038A0008946064600250FE2252877D100242746C1
:1038B000F84A0121059400E0044316F8013F203B3B
:1038C00001FA03F01042F7D130782A2811D06FF0B6
:1038D0002F033078A0F13002092A16D8059A44F057
:1038E000020402EB820203EB42021044761C0590B4
:1038F000EFE759F8042B0592002A03DA504244F40A
:103900000054059044F00204761C30782E2816D11D
:1039100016F8010F44F004042A280DD06FF02F028E
:103920003078A0F13003092B09D807EB870302EBAD
:103930004303C718761CF3E759F8047B761C3078EC
:103940006C280FD006DC4C2817D068280DD06A28C8
:1039500014D104E0742810D07A280FD10DE044F47B
:1039600000140AE044F4801401E044F44014727836
:10397000824202D104F58014761C761C30786628C9
:103980000BD013DC582877D009DC002875D04528E7
:10399000F6D04628F4D047281AD19DE118E06328D4
:1039A00035D0642879D0652812D195E1702873D07C
:1039B00008DC6728F1D069286FD06E280DD06F28F9
:1039C00006D1B5E073282CD0752875D0782874D02E
:1039D0005A46179990476D1C75E1C4F302500228AE
:1039E00009D003280DD0D9F8001004280DD00D609F
:1039F00009F1040967E1D9F80010EA17C1E900529A
:103A0000F6E7D9F800100D80F2E70D70F0E719F82D
:103A1000041B8DF8001000208DF80100EA460120FB
:103A200003E059F804AB4FF0FF3061074FF000019D
:103A300002D40DE008F101018846B9420FDA804551
:103A4000F8DB1AF808100029F4D108E008F10101A8
:103A500088468142FADB1AF808100029F6D1059849
:103A60005B46A0EB080721463846179A00F094FA07
:103A7000284400EB080507E04DE029E10DE01AF8C5
:103A8000010B5A4617999047B8F10108F7D25B46E7
:103A900021463846179A13E142E00A220092C4F305
:103AA00002524FF0000A022A08D059F804CB032A28
:103AB0004FEAEC710AD00DE029E02AE009F1070194
:103AC00021F00702F2E802C1914609E00FFA8CFCEE
:103AD0004FEAEC71042A03D14FFA8CFC4FEAEC71E7
:103AE000002907DA0A460021DCF1000C61EB020133
:103AF0002D2202E0220504D52B228DF8042001227C
:103B000003E0E20701D02022F7E7904659E00A21BE
:103B100002E010220DE010214FF0000A00910BE0AE
:103B200010224FF0000A44F004040827009203E03A
:103B300008224FF0000A0092C4F30252022A05D074
:103B400059F804CB0021032A08D009E009F1070144
:103B500021F00702F2E802C1914605E01FFA8CFC51
:103B6000042A01D10CF0FF0C4FF00008220728D5E1
:103B7000702806D0009B83F0100353EA0A0305D097
:103B80000EE040228DF80420012208E05CEA0102E8
:103B900006D030228DF804208DF8050002229046D0
:103BA000009B83F0080353EA0A030AD15CEA01028E
:103BB00001D1620705D530228DF804204FF00108AD
:103BC0007F1E582804D034A003900EA802900DE068
:103BD00036A0F9E753466046009AFCF763FB84463B
:103BE0000398825C0298401E029002705CEA010019
:103BF000F0D1029806A9081A00F1200A600702D540
:103C000024F4803400E00127574502DDA7EB0A00C9
:103C100000E0002000EB0A01009005984144401AA2
:103C20000590E00306D45B462146179A059800F0FC
:103C3000B3F90544002706E001A85A46C05D17996C
:103C400090476D1C7F1C4745F6DBE0030CD55B46B7
:103C50002146179A059800F09FF9054404E03020AA
:103C60005A46179990476D1C0099481E00900029EC
:103C7000F5DC08E0029802995A460078491C029146
:103C8000179990476D1CBAF10001AAF1010AF1DC05
:103C900065E1000009280100303132333435363710
:103CA0003839616263646566000000003031323388
:103CB0003435363738394142434445460000000028
:103CC00000F058F90544761C307800287FF4ECADFC
:103CD00019B02846BDE8F08F620700D4062709F125
:103CE000070222F0070CFCE80223E14603F000483B
:103CF0005FEA080C02D00FF2702C0DE05FEA045C62
:103D000002D50FF2682C07E05FEAC47C02D00FF204
:103D1000602C01E0AFF2700C4FF0FF3823F000434D
:103D2000CDF850C065280CD006DC452809D04628BF
:103D30001DD047283DD13DE0662818D067287ED1A8
:103D400038E00021112F01DB112000E0781CCDE9C3
:103D5000000106A90EA8FFF7EDFCDDE90F010E9AA0
:103D600003910021009207F1010A04914DE04FF008
:103D700000400097CDE9011006A90EA8FFF7DAFC74
:103D8000DDE90F0203920E9B11990022DDF80CA0D1
:103D90000093049211B9791C00EB010AB7EB0A00F9
:103DA00004D4C0F1FF3007F1010A0490AAEB070028
:103DB000019044E0012F00DA01270021112F01DDDD
:103DC000112000E03846CDE9000106A90EA8FFF752
:103DD000B1FCDDE90F010E9A0391002104910092DC
:103DE000BA4621070CD40399514500DA8A46BAF144
:103DF000010F05DD009AAAF10101515C302908D0BC
:103E0000B84202DA10F1040F06DA0121CDE90110FF
:103E100015E0AAF10101E9E7002805DC0499014455
:103E20000491AAEB000102E0411C514500DD8A46E5
:103E30000499401A401C01904FF000400290200766
:103E400004D40198504501DBCDF8048000208DF8A2
:103E50004F0002980DF14F07B0F1004F25D02B20F5
:103E60000E9002984FF0020800280CDA40420290AF
:103E70002D200E9007E00A210298FCF74FFC30310C
:103E8000029007F8011DB8F10001A8F10108F2DC69
:103E900002980028EFD1791E0E980870307800F053
:103EA000200040F0450007F8020D12A8C01B00F1E9
:103EB00007081498007800B1012000EB0A0101986E
:103EC00001EBE07105984144401A401E0590E00363
:103ED00006D45B462146179A059800F05DF8054424
:103EE0001498007818B15A46179990476D1CE00352
:103EF00024D55B462146179A059800F04DF80544F5
:103F00001CE00498002807DBDDE90301884203DD9B
:103F10000098405C179901E0179930205A46904765
:103F2000049805F10105401C04900198401E019081
:103F300004D12E205A46179990476D1CBAF1000102
:103F4000AAF1010ADDDC05E017F8010B5A461799C2
:103F500090476D1CB8F10001A8F10108F4DC5B4644
:103F60002146179A0598ABE62D0000002B000000B3
:103F7000200000002DE9F041044600251E461746AA
:103F8000880404D405E039462020B0476D1C641E27
:103F9000F9D52846BDE8F0812DE9F0410446002519
:103FA0001E469046C80301D5302700E0202788042C
:103FB00004D505E041463846B0476D1C641EF9D56E
:103FC0002846BDE8F08110B541EC100BFFF748F82A
:103FD00051EC100B10BD000070B52DED0A8B04469E
:103FE000F0EE409AB0EE609A9FED92CADFED92AA91
:103FF0009FED920AF0EE418A39EE40AA1AEE100ABD
:10400000FCF72DFB41EC100B8DA053EC102BFEF7B1
:1040100041FEB0EE681A11EE100AFCF720FB41ECED
:10402000100B8AA053EC102BFEF734FE2AEE0A8AFE
:1040300008EEA88A9FED88BB18EE100AFCF70FFB6C
:1040400041EC100BFFF770FA53EC1B2B51EC100BEB
:10405000FCF730FB10D99FED82BB18EE100AFCF77D
:10406000FEFA41EC100BFFF75FFA53EC1B2B51ECFF
:10407000100BFCF707FB03D80120BDEC0A8B70BDC9
:104080001AEE100AFCF7EBFA41EC1B0B18EE900A43
:10409000FCF7E5FA41EC100BB0EE4B1AF0EE6B1AA0
:1040A000FFF74AF951EC100BFCF71CFB064618EE23
:1040B000100AFCF7D4FA41EC100BFFF735FA9FED2C
:1040C0006A1B53EC102B51EC110BFCF7E7F9B0EE27
:1040D000481A41EC1B0B0CEE0C1A0AEEEA1A11EE10
:1040E000100AF0EE418AFCF7BAFA53EC1B2BFCF7EE
:1040F00047FA41EC100BFEF707FE51EC100BFCF7F2
:10410000F1FA0546FCF7ABFA41EC100B58A053EC62
:10411000102BFEF7BFFDB0EE681A11EE100AFCF787
:104120009EFA41EC100B55A053EC102BFEF7B2FD9C
:1041300018EE100AFCF793FA41EC100BFFF7F4F9B4
:1041400053EC102B53A0FEF7A5FD2846FCF787FA89
:1041500041EC1A0B3046FCF782FA9FED521B53ECF0
:10416000112BFCF798F953EC1A2BFCF791F99FED02
:104170004FAB53EC1A2BFCF791F99FED4E1B53EC10
:10418000112BFCF7FDF9FCF7ADFA9FED4C0A70EE30
:10419000480A9FED4B1A206080EE810A10EE100A4B
:1041A000FCF75DFA41EC100BFEF7AEFD9FED458B81
:1041B00051EC100B53EC182BFCF76AF953EC1A2B4B
:1041C000FCF76CF953EC182BFCF7DAF9FCF78AFAD8
:1041D00000EE100A19EE100A84ED010AD4ED000A6F
:1041E000F1EE600A30EEC00ADFED380A30EE600A08
:1041F00084ED020AFCF733FA41EC1B0B19EE900A2E
:10420000FCF72DFA41EC100BB0EE4B1AF0EE6B1AE6
:10421000FFF792F853EC1A2B51EC100BFCF73EF918
:1042200053EC182BFCF7ACF9FCF75CFAE0600020CB
:1042300023E70000CDCC4C3E8FC2F53DB81E053EB5
:1042400042793A202566200A00000000427A3A208E
:104250002566200A0000000000000040E17AD43FFB
:1042600000000060E17AB43F000000A09999D93FB6
:10427000626574613A202566200A00004C312A4CA0
:10428000312B6C702D4C322A4C323A202566200A94
:104290000000000073717274286C70293A20256642
:1042A000200A00006F1283C0CA21F93F00000000FD
:1042B000008066406F1283C0CA2109C08AD25E3D69
:1042C000A69B443D6F1283C0CA2109400000B4423E
:1042D000012000F075F8FBE700B58BB0002101224A
:1042E000CDE906120591009101910291039104918B
:1042F0000E21CDE908216946FCF788FB0448FCF74C
:104300008DFE02210248FCF76FFB0BB000BD0000E0
:104310009C00002082B0CDE9000121F00040019016
:104320009DED000B02B051EC100B704713B54FF62A
:10433000FF73012269460248FDF703FF00981CBD88
:10434000A4030020012202211648FCF7A9FFFCF774
:10435000BBFF1548FFF7C0FFFEF764F9FDF7AEFF9E
:10436000FDF7F2FFFEF7A8F8FEF754F8FDF748FF57
:1043700000210E48FDF7BEFD04210C48FDF7BAFDF3
:1043800008210A48FDF7B6FD0C210848FDF7B2FDEB
:1043900000210748FDF7AEFDFDF754FF00F017F8C8
:1043A000FEE70000001802409C00002024030020CB
:1043B0006403002001460020842900D0C81C7047F7
:1043C00010B500B9012000F069FC002010BD10B547
:1043D00000F0B0FC002010BD7FB50D4604464169D9
:1043E000B0F9080081B1A16971B1FFF7E3FFD4E929
:1043F00005128DE80700D4E900102B46226900F071
:104400009AFF039004B070BDFFF7D4FF03A9CDE974
:104410000001208A2B4682B2D4E9001000F05EFF32
:10442000012801D00020EDE70398EBE780EC050AB6
:10443000704700002DE9F041184C0F4605466669AB
:104440002068001D00F067FB38B9206890F82C1038
:1044500001208840A1698143A161681C07D137B15F
:104460002168BDE8F0410E48091D00F097BB2068A7
:104470003544B5424560216805D2A068BDE8F041E9
:10448000091D00F073BB6068091D00F06FFB206B15
:10449000854200D22563BDE8F08100003000002095
:1044A000000500202DE9F041054600F083FB2E4C6D
:1044B0002069401C206120682C4F10B1E06940B396
:1044C0002DE025602069012829D1002606EB860011
:1044D00007EB800000F03CFB761C072EF6D3234848
:1044E0008C3000F035FB2148A03000F031FB1F4834
:1044F000B43000F02DFB1D48C83000F029FB1B48EC
:10450000DC3000F025FB19488C3060601430A0606E
:1045100005E02068E96AC06A884200D82560E06A40
:10452000401CE062E96A0120A26988401043A06152
:1045300001EB810007EB8000291D00F02FFB00F04C
:1045400059FBE06900280CD02068E96AC06A8842FB
:1045500007D207494FF080500860BFF34F8FBFF379
:104560006F8FBDE8F081000030000020240400209F
:1045700004ED00E030B4026C0B46002A0BD0C16899
:104580001144C1604468A14201D30168C16030BCDC
:104590001846FBF7B8BE30BC70472DE9F041856B7B
:1045A000174604460026026C82B1C7B1E068FBF7EB
:1045B000AAFEE168206C091AE1602268914202D2E9
:1045C0006168081AE060022F16D017E02068A8B9C9
:1045D000606800F04DFF0646002060600EE0A068B5
:1045E000FBF791FE216CA0680844A06061688842D6
:1045F00004D32068A06001E005B16D1E6D1CA563A9
:104600003046BDE8F08110B5044690F8510058B12D
:1046100001280CD002280FD0502080F31188BFF35E
:104620004F8FBFF36F8FFEE7206B00F0F7FA204645
:10463000BDE8104000F0F2BA10BD000010484FF481
:104640007051420706D0C01D0D4920F00700411AE5
:10465000C1F570510B4A00230144C2E90003083937
:10466000103A21F0070111604B600B600B1AC0E992
:10467000001393604FF000405360D060704700001B
:10468000140500207C000020144E154CA6F1C8072C
:104690004FF08058DFF84C9012E000BF00F08AFA2B
:1046A000F068C568281D00F036FA2069401E2061B8
:1046B000E068401EE06000F09DFA2846FFF7A3FF87
:1046C000E0680028EAD138680128F9D9C9F80080E3
:1046D000BFF34F8FBFF36F8FF2E70000EC040020B1
:1046E0003000002004ED00E00346009829B102608C
:1046F000C0E90F31012100F027BC0060F8E72DE987
:10470000F0479A46DDE9098481466FF00303206B88
:1047100003EB82021044089D20F00706700707D0C3
:10472000502080F31188BFF34F8FBFF36F8FFEE7E8
:1047300023180A5C83F834200A5C12B1401C10284C
:10474000F6D3002784F84370072D00D30625E562D1
:10475000C4E91157201D00F006FA04F1180000F01A
:1047600002FA2461C5F107006462A061E76484F87D
:10477000507052464946304600F002F92060B8F1C8
:10478000000F01D0C8F80040BDE8F08730B51149EE
:1047900000E011460A688242FBD34B685C188442F1
:1047A00003D1406818444860084643681C18944286
:1047B00009D1084C103C2468A24209D052681A441E
:1047C00042600A6812680260814200D0086030BD11
:1047D0000460F9E77C00002010B5044600F0EAF917
:1047E000A06B28B15FF0000400F004FA204610BD71
:1047F0000124F9E706484168096829B14168C96898
:10480000C9684968016370474FF0FF31FAE700005B
:104810003000002008484068401C4FF0500080F3F2
:10482000118804D0BFF34F8FBFF36F8FFEE7BFF344
:104830004F8FBFF36F8FFEE7840000202DE9F0411A
:10484000044600F0B7F994F9455004F1240609E054
:10485000606A48B1304600F057FE08B100F04CFAEB
:104860006D1E6DB2002DF3DC4FF0FF3684F845600D
:1048700000F0C0F900F09EF994F9445004F11007DB
:1048800009E0206948B1384600F03EFE08B100F06A
:1048900033FA6D1E6DB2002DF3DC84F84460BDE880
:1048A000F04100F0A7B900002DE9F04105460027CE
:1048B00000F076FA314E306808B9FFF7BFFEF068B5
:1048C00005424BD1C5B3083568070ED005F0070087
:1048D000C0F108000544680707D0502080F3118814
:1048E000BFF34F8FBFF36F8FFEE72DB37068854224
:1048F00034D82248103001460C6801E020460C46AE
:104900006168A94202D221680029F7D131688C423E
:1049100024D007682168016060680837411B1029AE
:104920000FD96019420708D0502080F31188BFF3D7
:104930004F8FBFF36F8FFEE710E041606560FFF7B8
:1049400025FF61687068401A7060B268904200D2BA
:10495000B060F06801430020C4E9000100F00EFEE1
:10496000780707D0502080F31188BFF34F8FBFF333
:104970006F8FFEE73846BDE8F08100006C00002034
:1049800010B5031F4FF080741C601B1F21F0010144
:104990001960191F044B0B6014390A60091F6FF06E
:1049A000020244380A6010BD1548000810B510EE28
:1049B000100AFBF754FE9FED0E1B53EC112BFBF777
:1049C0006DFD9FED0D1B53EC112BFBF7C0FCFBF7AE
:1049D00089FE00EE100A4FF08041BCEEC00A10EED6
:1049E000100A4863BDE810406420FCF75DBB00007E
:1049F00066666666666602400000000000B07340AE
:104A000010B510EE100AFBF72AFE9FED0E1B53ECBB
:104A1000112BFBF743FD9FED0D1B53EC112BFBF707
:104A200096FCFBF75FFE00EE100A4FF08041BCEEF3
:104A3000C00A10EE100A8863BDE810406420FCF73D
:104A400033BB0000666666666666024000000000D2
:104A50000060804010B510EE100AFBF700FE9FEDDD
:104A60000E1B53EC112BFBF719FD9FED0D1B53ECA7
:104A7000112BFBF76CFCFBF735FE00EE100A4FF034
:104A80008041BCEEC00A10EE100AC863BDE81040B9
:104A90006420FCF709BB0000666666666666024035
:104AA0000000000000B0734000B52DED048B83B012
:104AB00041EC190BFBF70DFF41EC180B18EE100A37
:104AC00018EE901A8DED008B002818BF01200843C6
:104AD00020F00040C0F17F6000F1E040C00F14D032
:104AE00019EE101A19EE900A8DED009B002918BFDF
:104AF0000121084320F00040C0F17F6000F1E04058
:104B0000C00F04BF0120FEF70FFE51EC180B03B0DD
:104B1000BDEC048B00BDD0E9013201699A60D0E997
:104B200001235A604A68824201D182684A600022A9
:104B300002610868401E086008687047034B036004
:104B400003F154000860802010607047D0000020FE
:104B500000F108014FF0FF32C0E90112C1600161AC
:104B600000210160704700210161704730B50B687A
:104B70005A1C02D000F1080202E0026904E0224659
:104B8000546825689D42FAD953684B6099608A60E1
:104B9000516008610168491C016030BD42684A608B
:104BA00093688B6093685960916008610168491C43
:104BB00001607047502080F31188BFF34F8FBFF31F
:104BC0006F8F0A494868401C486001280CD108488A
:104BD000006810F0FF0F07D0502080F31188BFF35A
:104BE0004F8FBFF36F8FFEE77047000084000020F7
:104BF00004ED00E00849486828B1401E486001D132
:104C000080F311887047502080F31188BFF34F8FD5
:104C1000BFF36F8FFEE700008400002070B500280E
:104C200027D0144DA0F108046168E868014207D15B
:104C3000502080F31188BFF34F8FBFF36F8FFEE7D3
:104C400022683AB1502080F31188BFF34F8FBFF331
:104C50006F8FFEE78143616000F0A2F860686968C9
:104C6000084468602046FFF791FDBDE8704000F001
:104C700085BC70BD6C0000204FF0E0200021016178
:104C8000816105494FF47A720968B1FBF2F1491E5E
:104C900041610721016170472C00002010B502001E
:104CA00014D00F48806B38B1502080F31188BFF3C7
:104CB0004F8FBFF36F8FFEE700F072F800211046B0
:104CC000FFF7B8FB00F05AFC002807D105494FF068
:104CD00080500860BFF34F8FBFF36F8F10BD00008F
:104CE0003000002004ED00E002498A6A0260496950
:104CF0004160704730000020014901204862704740
:104D00003000002010B50C4650B10949096818312F
:104D1000FFF72CFF2046BDE810400121FFF78ABBBA
:104D2000502080F31188BFF34F8FBFF36F8FFEE7E2
:104D30003000002010B586B00024039405AA04A911
:104D400003A80494FFF7FAFEDDE903010094CDE91E
:104D5000011000230EA11048059A00F0ECFA0F494B
:104D60000028486311D0502080F31188BFF34F8F83
:104D7000BFF36F8F4FF0FF3008630120C8614C61B3
:104D800006B0BDE8104000F041B806B010BD00000C
:104D900049444C45000000008946000830000020CE
:104DA0000248816B491C816370470000300000207D
:104DB0001448816B11B101214162704700214162A9
:104DC0008169B1FA81F1C1F11F0101EB81020E4944
:104DD00051F822306BB101EB820101F108034A68FE
:104DE00052684A609A4201D152684A60D1680160B3
:104DF0007047502080F31188BFF34F8FBFF36F8F40
:104E0000FEE7000030000020240400201CB53748D5
:104E10000168374A914207D1502080F31188BFF3CF
:104E20004F8FBFF36F8FFEE700683149491E8842FC
:104E300007D1502080F31188BFF34F8FBFF36F8FDE
:104E4000FEE72C4908780190FF20087008788DF85B
:104E500000009DF800009DF8002000F0F000904256
:104E600007D0502080F31188BFF34F8FBFF36F8FAF
:104E7000FEE79DF80000204B00F05000187007205E
:104E8000986005E09DF8002052008DF80020401E3B
:104E90009DF800201206F5D49860032807D0502012
:104EA00080F31188BFF34F8FBFF36F8FFEE74FF48E
:104EB00040709860019808700C482030016841F4F7
:104EC00070010160016841F070410160FFF7D4FE9C
:104ED00000205860FBF798F90848016841F040410C
:104EE0000160FBF77DF900201CBD000000ED00E033
:104EF00071C20F4100E400E08400002034EF00E0C4
:104F0000F8B517460E46050014D0DEB105FB06F0D5
:104F10004830FFF7C9FC04000AD0002084F846009E
:104F200004F148023B46314628460094FFF7DCFB7B
:104F30002046F8BD502080F31188BFF34F8FBFF398
:104F40006F8FFEE70020E3E770B50D46040025D023
:104F5000FFF730FED4E90F20216802FB00116160E9
:104F60000021A1632168A1600A46D4E90F01401E17
:104F700000FB0121E16021464FF0FF3001F8440FB2
:104F8000487004F110008DB1FFF7E2FD04F1240038
:104F9000FFF7DEFDFFF72EFE012070BD502080F3ED
:104FA0001188BFF34F8FBFF36F8FFEE72169002990
:104FB000F0D000F0A9FA0028ECD004494FF080505E
:104FC0000860BFF34F8FBFF36F8FE3E704ED00E09E
:104FD0002DE9FF4782B01D468A464FF000080400C5
:104FE00003D0BAF1000F08D011E0502080F31188EF
:104FF000BFF34F8FBFF36F8FFEE7206C38B15020A7
:1050000080F31188BFF34F8FBFF36F8FFEE7022D40
:105010000AD1E06B012807D0502080F31188BFF33C
:105020004F8FBFF36F8FFEE700F0B0F93F4F4FF0A7
:1050300000094FF0805648B9049838B1502080F3E9
:105040001188BFF34F8FBFF36F8FFEE7FFF7B2FDFD
:10505000A06BE16B884207D3022D05D00498D0B134
:10506000B8F1000F1AD01EE02A4651462046FFF73D
:1050700094FA616A19B104F1240000F045FA20B1F4
:105080003E60BFF34F8FBFF36F8FFFF7B3FD01207B
:1050900006B0BDE8F087FFF7ADFD22E06846FFF7F8
:1050A00023FE4FF00108FFF7A5FDFFF779FEFFF79C
:1050B00081FD94F94400401C01D184F8449094F996
:1050C0004500401C01D184F84590FFF793FD04A9E9
:1050D000684600F0C9F830B12046FFF7AFFB00F09A
:1050E0004DFA0020D4E7FFF765FDA06BE16B884225
:1050F00013D1FFF77FFD04F110000499FFF702FEC2
:105100002046FFF79BFB00F039FA00289ED13E6055
:10511000BFF34F8FBFF36F8F98E7FFF76BFD20460C
:10512000FFF78CFB00F02AFA90E7000004ED00E0A6
:105130002DE9F747002683B08A46040003D0BAF170
:10514000000F08D011E0502080F31188BFF34F8F7B
:10515000BFF36F8FFEE7206C38B1502080F31188C9
:10516000BFF34F8FBFF36F8FFEE700F00FF9DFF84B
:10517000F4804FF000094FF0805748B9059838B1D6
:10518000502080F31188BFF34F8FBFF36F8FFEE77E
:10519000FFF710FDA56BC5B151462046FFF7EAF9B0
:1051A0006D1EA563206950B104F1100000F0ACF948
:1051B00028B1C8F80070BFF34F8FBFF36F8FFFF7B0
:1051C00019FD012006B0BDE8F087059808B11EB1B1
:1051D00006E0FFF70FFD27E06846FFF785FD012693
:1051E000FFF708FDFFF7DCFDFFF7E4FC94F944004E
:1051F000401C01D184F8449094F94500401C01D131
:1052000084F84590FFF7F6FC05A9684600F02CF8F5
:10521000002820460AD0FFF711FB00F0AFF9204626
:10522000FFF7DAFA0028B3D00020CBE7FFF7D4FA73
:1052300090B104F124000599FFF764FD2046FFF7C3
:10524000FDFA00F09BF90028A2D1C8F80070BFF366
:105250004F8FBFF36F8F9BE72046FFF7EFFA00F009
:105260008DF995E704ED00E02DE9F0410C460500CD
:1052700011D0C4B1FFF79EFC174B5A696E682068C5
:10528000911B471C17D02F689B6A9F4219D09642EA
:1052900017D8012410E0502080F31188BFF34F8FFE
:1052A000BFF36F8FFEE7502080F31188BFF34F8F5D
:1052B000BFF36F8FFEE70024FFF79CFC2046BDE89C
:1052C000F081884205D9401A20602846FFF70CFD7E
:1052D000F1E700202060DCE7300000202DE9FF5FCF
:1052E0008346DDE90E87994616468A469000FFF709
:1052F000DBFA05001CD05420FFF7D6FA040014D0C6
:105300000020256384F85100CDE90240CDE90087F3
:105310004B46324651465846FFF7F1F92046FFF713
:10532000C1F8012004B0BDE8F09F2846FFF776FCE5
:105330004FF0FF30F6E7F0B585B0DDE90B640A9D6C
:10534000A6B1DCB1542700972663022684F8516089
:10535000002604AFCDE90246CDE90057FFF7CFF9AB
:105360002046FFF79FF8049805B0F0BD502080F369
:105370001188BFF34F8FBFF36F8FFEE7502080F38C
:105380001188BFF34F8FBFF36F8FFEE70548C169E8
:1053900019B1806B18B100207047012070470220BE
:1053A00070470000300000202DE9F0412E4C00270E
:1053B000A06B40B1206A401C2062606A00B10127E6
:1053C0003846BDE8F0816669761C666113D1606875
:1053D000006838B1502080F31188BFF34F8FBFF3BE
:1053E0006F8FFEE76068A1686160A060A06A401CE2
:1053F000A062FFF7FFF9206BDFF87080864209D3C7
:105400006068006880B16068C068C5686868864286
:105410000DD220632068C06A00EB800158F821009B
:105420000128CAD90127C8E74FF0FF30F1E7281D4E
:10543000FFF771FBA86A18B105F11800FFF76BFBC5
:10544000E86A0121A26981401143A16100EB80015A
:1054500008EB8100291DFFF7A1FBE86A2168C96AF2
:105460008842CDD30127CBE7300000202404002060
:1054700070B504004FF0000140D0214D28688442EF
:1054800007D0502080F31188BFF34F8FBFF36F8F89
:10549000FEE7A06C38B1401EA064636CE26A9A42D9
:1054A0002CD040B12AE0502080F31188BFF34F8FF9
:1054B000BFF36F8FFEE7201DFFF72DFB114A01217F
:1054C00050B9E06A00EB800352F8233023B9AB698E
:1054D00001FA00F08343AB61606CE062C0F1070049
:1054E000A061E06AAB6981401943A96100EB8000CB
:1054F00002EB8000211DFFF751FB0121084670BD22
:1055000030000020240400202DE9F041C068C46868
:10551000ACB104F118000746FFF7FDFA154DA86B72
:105520000126A0B139461448FFF738FBE06A296824
:10553000C96A88421CD901206E62BDE8F081502002
:1055400080F31188BFF34F8FBFF36F8FFEE7201DED
:10555000FFF7E1FAE16AAA6906FA01F01043A861CF
:1055600001EB81000449B43901EB8000211DDBE728
:105570000020E2E730000020D80400202DE9F047A9
:105580002C4D00242746A86B38B1FFF713FBA86BFE
:10559000401EA863A86B40B146E0502080F31188FC
:1055A000BFF34F8FBFF36F8FFEE72969224E0120B3
:1055B000D1B3A6F1B40980463068E8B1F068C46898
:1055C00004F11800FFF7A7FA201DFFF7A4FAE06A1C
:1055D000AA6908FA00F11143A96100EB800109EB07
:1055E0008100211DFFF7DAFAE06A2968C96A88425A
:1055F000E2D3C5F82480DFE70CB1FFF7FBF82C6A93
:1056000044B14646FFF7D0FE00B16E62641EF9D188
:1056100000202862686A38B1084901273807086005
:10562000BFF34F8FBFF36F8FFFF7E4FA3846BDE843
:10563000F087000030000020D804002004ED00E0D6
:10564000A0570008F5240008010000000000000039
:10565000800000000000000000000000AC570008BF
:10566000A5290008000000000000000080000000E4
:105670000000000000000000B4570008D1420008FC
:10568000FDFF00000000000080000000000000009E
:105690000000000000000000000000000102030400
:1056A00006070809000000000102030400000000D2
:1056B000555555555555C53F7D6FEB0312D6D4BF93
:1056C0005544880E55C1C93F3B8F68B52882A4BF99
:1056D00088B20175E0EF493F09F7FD0DE13D023F5A
:1056E0004B2D8A1C273A03C0C88A599CE52A0040E2
:1056F00059018D1B6C06E6BF82922EB1C5B8B33F2F
:105700004FBB610567ACDD3F182D4454FB21E93FD9
:105710009BF681D20B73EF3F182D4454FB21F93FC8
:10572000E2652F227F2B7A3C075C143326A6813C4E
:10573000BDCBF07A8807703C075C143326A6913CF9
:10574000C4EB98999999C9BF711623FEC671BCBF65
:105750006D9A74AFF2B0B3BF9AFDDE522DDEADBFCD
:105760002F6C6A2C44B4A2BF0D5555555555D53FE5
:10577000FF8300922449C23F6E204CC5CD45B73F00
:10578000513DD0A0660DB13FEB0D76244B7BA93F78
:1057900011DA22E33AAD903F000000000000000063
:1057A000536572766F5461736B000000546F7054D0
:1057B00061736B00636143636F6D6D750000000082
:1057C000E0570008000000209C0000000837000897
:1057D0007C5800089C0000203C4600001837000858
:1057E00000000000000000000000000000000000B9
:1057F000000000420000E0C2000020C100000000E4
:105800000100000010000000000000000024F4006F
:105810000000000000000000000000000000000088
:105820000000000000000000000000000000000078
:105830000000000000000000000000000000000068
:105840000000000000000000000000000000000058
:105850000000000000000000000000000000000048
:105860000000000000000000AAAAAAAA0000000090
:0C5870000000000000000000000000002C
:04000005080001AD41
:00000001FF
