:020000040800F2
:10000000B044002081020008771C0008A31A0008F1
:10001000751C0008CD090008FD2300080000000041
:10002000000000000000000000000000C101000806
:10003000CF090008000000001D020008511D000843
:100040009B0200089B0200089B0200089B0200081C
:100050009B0200089B0200089B0200089B0200080C
:100060009B0200089B0200089B0200089B020008FC
:100070009B0200089B0200089B0200089B020008EC
:100080009B0200089B0200089B0200089B020008DC
:100090009B0200089B0200089B0200089B020008CC
:1000A0009B0200081D1E00089B0200089B0200081E
:1000B0009B0200089B0200089B0200089B020008AC
:1000C0009B0200089B0200089B0200089B0200089C
:1000D0009B0200089B020008F12300089B02000815
:1000E0009B0200089B0200089B0200089B0200087C
:1000F0009B0200089B0200089B0200089B0200086C
:100100009B0200089B0200089B0200089B0200085B
:100110009B0200089B0200089B0200089B0200084B
:100120009B0200089B0200089B0200089B0200083B
:100130009B0200089B0200089B0200089B0200082B
:100140009B0200089B0200089B0200089B0200081B
:100150009B0200089B0200089B0200089B0200080B
:100160009B0200089B0200089B0200089B020008FB
:100170009B0200089B0200089B0200080000000090
:100180009B0200089B0200089B0200089B020008DB
:100190009B0200089B0200089B0200089B020008CB
:1001A00000000000000000009B020008DFF80CD0F7
:1001B00000F0FAFB0048004799320008B0440020E4
:1001C0002C4B19680868B0E8F04F80F30988BFF33A
:1001D0006F8F4FF0000080F311887047000000001F
:1001E00008480068006880F308884FF0000080F33A
:1001F000148862B661B6BFF34F8FBFF36F8F00DF15
:1002000000BF00BF08ED00E0DFF80C00016841F41A
:1002100070010160704700BF88ED00E0EFF30980D6
:10022000BFF36F8F134B1A681EF0100F08BF20ED3D
:10023000108A20E9F04F106009B44FF0500080F3AD
:100240001188BFF34F8FBFF36F8F03F0F5FC4FF0B2
:10025000000080F3118809BC19680868B0E8F04F05
:100260001EF0100F08BFB0EC108A80F30988BFF3AE
:100270006F8F70471C000020EFF30580704700006F
:100280000648804706480047FEE7FEE7FEE7FEE730
:10029000FEE7FEE7FEE7FEE7FEE7FEE7011E0008D9
:1002A000AD0100082DE9F05F0546002092469B460F
:1002B00088460646814640241BE02846414647467C
:1002C000224600F0E2F953465A46C01A914110D333
:1002D00011461846224600F0C9F92D1A67EB0108AD
:1002E0004F4622460120002100F0C0F917EB00091B
:1002F0004E41201EA4F10104DFDC484631462A4667
:100300004346BDE8F09F40EA01039B0703D009E0A4
:1003100008C9121F08C0042AFAD203E011F8013BF1
:1003200000F8013B521EF9D27047D2B201E000F84A
:10033000012B491EFBD270470022F6E710B5134689
:100340000A4604461946FFF7F0FF204610BD2DE986
:10035000FE4F804681EA0300C00F0C46009021F05A
:10036000004123F00045B8EB0200A94105D2404608
:10037000214690461C460B46024623F0004010439F
:1003800047D0270DC7F30A00C3F30A510290401A61
:10039000019040286BDAC3F3130040F4801B0098EF
:1003A000924620B10023D2EB030A63EB0B0B0198BA
:1003B0005946C0F14002504600F058F906460D4635
:1003C00050465946019A00F070F910EB080061415F
:1003D000002487EA115284EAE7731A4340D0009A56
:1003E00062B3019A012A4FEA075215DC001B61EB48
:1003F00002014FF0004202EA0752CDE90042001C20
:1004000041F5801132462B4600F0A7F903B0BDE854
:10041000F08F40462146F9E7001B61EB0201001C0A
:1004200041F5801300185B412018A2F5001747EB37
:10043000030140EAD570B6196D4111E06D084FEA2D
:10044000360645EAC0754FEA0752001B61EB020110
:10045000001C41F5801149084FEA30000019514154
:1004600032462B4603B0BDE8F04F00F067B9009864
:10047000012240000023D0EB020263EBE0730098FE
:1004800021464FEAE074B8EB000061EB0401E9E7B4
:1004900083F000435BE781F0004158E72DE9FE4F10
:1004A00081EA030404F0004421F0004100944FF07D
:1004B000000B23F0004350EA01045ED052EA03042B
:1004C0005BD0C3F30A54C1F30A552C44A4F2F334AD
:1004D0000194A0FB0254C1F3130141F48011C3F352
:1004E000130343F4801301FB024400FB034E840A10
:1004F000970A44EA815447EA8357A4FB07680295A8
:100500008D0A05FB07854FEA932C04FB0C54270545
:10051000029D4FEA065847EA1637B5EB08056EEB21
:10052000070C870E920E47EA811742EA8312A7FB57
:100530000201B6EB0B0164EB00042B0D43EA0C3314
:100540005E1844EB1C50DA465146E7FB0201C5F346
:1005500013044FEA0B3343EA14534FEA0432019C6D
:1005600043EA0603A4F10C040294009CCDE900B414
:1005700000F0F3F803B0BDE8F08F00200146F9E782
:1005800000F0004230F000400AD0C10D01F560716A
:10059000C0F3160042EA0151C208400711437047F8
:1005A000002001467047000030B5041E71F10004C0
:1005B00004DB4FF00044404264EB0101141E73F170
:1005C000000405DB1C464FF00043524263EB04037A
:1005D0008B4208BF824230BD30B5041E71F1000469
:1005E00004DB4FF00044404264EB0101141E73F140
:1005F000000405DB1C464FF00043524263EB04034A
:10060000994208BF904230BD01F0004330B421F060
:10061000004150EA010206D00A0DA2F56072C1F352
:100620001301002A02DC30BC00207047440F44EA6A
:10063000C104C100E01830BC00EBC25000F047B864
:1006400030B50B46014600202022012409E021FAA2
:1006500002F59D4205D303FA02F5491B04FA02F59F
:100660002844151EA2F10102F1DC30BD202A04DB72
:10067000203A00FA02F1002070479140C2F12003B5
:1006800020FA03F3194390407047202A04DB203AF4
:1006900021FA02F00021704721FA02F3D040C2F1A2
:1006A00020029140084319467047202A06DBCB17E9
:1006B000203A41FA02F043EAE07306E041FA02F31D
:1006C000D040C2F1200291400843194670470029EA
:1006D000A8BF7047401C490008BF20F001007047C8
:1006E00010B4B0FA80FC00FA0CF050EA010404BF28
:1006F00010BC704749B1CCF1200421FA04F411FA7E
:100700000CF118BF012121430843A3EB0C01CB1DC1
:100710004FEA00614FEA102042BF002010BC704732
:1007200000EBC35010440029A4BF10BC7047401C0C
:10073000490008BF20F0010010BC704710B5141E1E
:1007400073F1000408DA401C41F1000192185B418A
:100750001A4301D120F0010010BD2DE9F04D924661
:100760009B4611B1B1FA81F202E0B0FA80F2203278
:100770009046FFF77BFF04460F4640EA0A0041EA35
:100780000B0153465A46084313D0114653EA010061
:1007900019D0C8F140025046FFF777FF05460E46D4
:1007A000504659464246FFF761FF084305D00120F5
:1007B00004E020463946BDE8F08D0020054346EAB6
:1007C000E0762C4337430A986305E40AA0EB08005F
:1007D0000022FD0A44EA47540A3002D500200146AF
:1007E000E9E7010510196941DDE90845001969418A
:1007F000BDE8F04DA2E72DE9F04D81EA030404F0D5
:10080000004B21F0004514464FF0000A23F0004150
:1008100050EA050220D054EA01021DD0C5F30A5760
:100820000246C5F31303C1F31300C1F30A5640F4A3
:10083000801543F48013A7EB0608101BD64608F278
:10084000FD3873EB050002D308F1010801E09218AE
:100850005B41B8F1000F03DA00200146BDE8F08DDE
:1008600000204FF48011064684460EE0171B73EB00
:10087000050705D3121B63EB050306434CEA010C85
:1008800049084FEA300092185B4150EA0107EDD168
:1008900052EA030012D082EA040083EA0501084309
:1008A00005D0101BAB4106D20122002306E0002236
:1008B0004FF0004302E06FF0010253101AEB060004
:1008C0004CEB085110EB0A0041EB0B01BDE8F04D79
:1008D000FFF734BF2DE9F04D00231A461B1A8A4159
:1008E00003DB00200146BDE8F08DC1F30A52C1F3DD
:1008F000130141F480154FF0000BD10702D100180D
:100900006D41521E0027044640F2FF11384601EBAC
:10091000620A3E468046024600204FF48011FFF7EF
:10092000B4FEC2197141BB1846EB0100B4EB030CD5
:1009300075EB000C04D3E41A65EB000517460E4670
:10094000241908F101006D4180463428E3DDF919CE
:1009500046EB0600091BA84103D24FF0FF321346B5
:1009600001E0002213461BEB070046EB0A51BDE8ED
:10097000F04DFFF7E3BEC1F30A52C1F3130140F299
:10098000FF3341F480119A4202DA00200146704799
:1009900040F233439A42A2F2334202DC5242FFF762
:1009A00074BEFFF763BE0000064C074D06E0E0682A
:1009B00040F0010394E8070098471034AC42F6D3A6
:1009C000FFF7F8FBB0450008D0450008FEE7704788
:1009D000704790F83510022903D08021416501202D
:1009E0007047052180F835100068016821F0010189
:1009F000016000207047000070B5044600F0FEF86A
:100A00000546601C02D004480078044400F0F6F863
:100A1000401BA042FAD370BD0C0000202DE9F84F16
:100A200000224FF0010803254FF00F0E0B6808FA63
:100A300002F42340A3426ED14E68012E05D0022E4F
:100A400003D0112E01D0122E12D186684FEA420C2B
:100A500005FA0CF7BE43CF6807FA0CF737438760F7
:100A60004668A6430C79C4F30014944034434460B0
:100A7000C668570005FA07FC8C6826EA0C06BC40DD
:100A80003443C4604C68022C01D0122C13D1D4081A
:100A900000EB8404A346D4F8209054074FEAD46AAC
:100AA0000EFA0AF629EA06090E6906FA0AF646EA75
:100AB0000906CBF8206004680E7924EA0C0406F0DD
:100AC0000306BE40264306604C68E4006FD53B4CED
:100AD000266846F480462660246822F0030604F463
:100AE00080440094364C3444A446D4F80848960711
:100AF000360F0EFA06F7BC43324FB84201D1002739
:100B00002EE0314FB84201D1012729E02F4FB842E2
:100B100002D1022724E04AE02D4FB84201D1032739
:100B20001EE02C4FB84201D1042719E02A4FB842E9
:100B300001D1052714E0294FB84201D106270FE063
:100B4000274FB84201D107270AE0264FB84201D10A
:100B5000082705E0244FB84201D1092700E00A2701
:100B6000B7402743CCF80878204E34684F689C4340
:100B7000FF0300D51C4334601C4E361D34684F689B
:100B80009C43BF0300D51C433460184E08363468BC
:100B90004F689C43FF0200D51C433460134E0C3653
:100BA00034684F689C43BF0200D51C433460521C1C
:100BB000102AFFF43BAFBDE8F88F00004438024034
:100BC00000300140000002400004024000080240E2
:100BD000000C0240001002400014024000180240C5
:100BE000001C02400020024000240240003C014062
:100BF0000AB1816170470904FBE700000148806881
:100C0000704700000C0000200248816802781144FF
:100C1000816070470C0000200B4810B5016841F45A
:100C200000710160016841F480610160016841F474
:100C300080710160032000F08DF8002000F006F8BC
:100C400000F03EF8002010BD003C024010B5014607
:100C500088B00022192000F05DF8192000F04CF84F
:100C600013480024016841F001010160006805A9F2
:100C700000F001000690684600F018F900F046F90F
:100C80000C494000B0FBF1F10C480B4A491E0260D0
:100C900040F2E732C0E90324C0E9011400F070FB20
:100CA00010B1012008B010BD044800F097FBF9E72F
:100CB0004438024040420F00000001408003002001
:100CC0000C4882B0016841F480410160006800F482
:100CD000804000900748001F016841F0805101608A
:100CE0000068002200F0805000900F21901E02B09A
:100CF00000F010B844380240002809DB00F01F0261
:100D0000012191404009800000F1E020C0F800116D
:100D100070470000F0B40E4B1B680C46C3F302236F
:100D2000C3F10705042D00D90425191D072901D297
:100D3000002300E0DB1E012606FA05F1491E2140D2
:100D400099409E40761E16403143F0BC01F07BBBBB
:100D50000CED00E0064900F0070208684FF6FF03BB
:100D6000184040EA0220034A104308607047000020
:100D70000CED00E00000FA052DE9F0470E460500F5
:100D800065D0DFF81481D8F80000F7B200F00F004A
:100D9000B04207D288F80070D8F8000000F00F00C9
:100DA000B04254D128683D4C810712D5400703D585
:100DB000206840F4E05020602878000703D52068C0
:100DC00040F4604020602068A96820F0F0000843EB
:100DD00020602878C0072DD030496868083901287C
:100DE00012D0022813D0032811D0096889070029DE
:100DF0002DDA216821F0030101432160FFF7FEFE97
:100E0000814641F2883A0EE009688903EFE70968F4
:100E10008901ECE7FFF7F2FEA0EB0901514502D989
:100E20000320BDE8F0872068696800F00C00B0EB93
:100E3000810FEFD1D8F80010404601F00F01B14208
:100E400007D90770006800F00F00B04201D0012000
:100E5000E7E72878400705D52068E96820F4E050E6
:100E6000084320602878000706D52068296920F407
:100E7000604040EAC100206000F058F82168084A4C
:100E8000C1F30311515CC840064908600648006878
:100E9000FFF7DCFE0020C4E7003C024008380240B7
:100EA0008445000818000020100000200F22026076
:100EB0000C4A136803F003034360136803F0F00364
:100EC0008360136803F4E053C36012684FF4E05387
:100ED00003EAD20202610448006800F00F000860D3
:100EE0007047000008380240003C024004480549B1
:100EF00000680968044AC1F38221515CC840704708
:100F000018000020083802409445000804480549AC
:100F100000680968044AC1F34231515CC840704717
:100F2000180000200838024094450008154810B504
:100F3000006810F00C02144813D01449042A0FD092
:100F4000082A0ED10F4C241F2268236802F03F02AA
:100F50005B0207D52068C0F38810A0FB010106E002
:100F6000084610BD2168C1F38811A1FB00010023D0
:100F7000FFF798F92168C1F30141491C4900B0FB12
:100F8000F1F010BD083802400024F400001BB70047
:100F90002DE9F84F040076D02078DFF838A3CE4D45
:100FA000C00749D0DAF800105046C1F38101012989
:100FB00008D00068C0F3810002280AD1281D00680B
:100FC000400206D52868800336D560680028E2D044
:100FD00032E06068B0F5803F10D0B0F5A02F2868EF
:100FE00010D020F480302860286820F48020286009
:100FF0006068A0B1FFF702FE06460CE0286840F4E6
:101000008030F4E740F480202860F7E7FFF7F6FD32
:10101000801B642873D828688003F7D50CE0FFF79D
:10102000EDFD064605E000BFFFF7E8FD801B6428E4
:10103000F0D828688003F7D42078DFF8A0828007F2
:101040004FF000093ED5DAF80010504611F00C0FB1
:1010500009D00068C0F3810002280BD19D48001F11
:101060000068400206D42868800715D5E06801288A
:1010700009D111E0E068B8B10120C8F80000FFF71D
:10108000BDFD064605E020E1FFF7B8FD801B022804
:10109000C0D828688007F7D52868216920F0F800B3
:1010A00040EAC10028600DE0C8F80090FFF7A6FDF7
:1010B000064604E0FFF7A2FD801B02281FD828681F
:1010C0008007F7D42078000722D5824E84486169D2
:1010D0006C3671B101210160FFF790FD074604E015
:1010E000FFF78CFDC01B022809D830688007F7D5B0
:1010F0000EE0C0F80090FFF781FD074605E082E0B2
:10110000FFF77CFDC01B02287DD830688007F7D42C
:101110002078400768D5DFF8BCB100270BF1380B09
:10112000DBF80000C0000BD4DBF8001041F0805168
:10113000CBF80010DBF80000012700F08050009091
:10114000684E3068C00510D4306840F4807030605C
:10115000FFF754FD009005E0FFF750FD0099401A9D
:10116000022850D83068C005F6D55A4EA0686836B7
:1011700001280FD00528306810D020F00100306021
:10118000306820F004003060A068B8B1FFF736FD89
:1011900000900FE0306840F00100F4E740F00400F8
:1011A0003060F7E7FFF72AFD0099411A41F28830D5
:1011B000814266D830688007F4D50EE0FFF71EFD47
:1011C000009007E0FFF71AFD0099411A41F28830BC
:1011D000814256D830688007F4D42FB1DBF8001074
:1011E00021F08051CBF80010A069D0B3DAF80020CC
:1011F0005146C2F38102022A4AD00228484607D04B
:10120000C8F8600000E03CE0FFF7F8FC04463BE073
:101210004746C8F86000FFF7F1FC064605E000BF4E
:10122000FFF7ECFC801B02282BD828688001F7D43C
:10123000D4E907010843A16A2B4A490802EB01419E
:10124000626A41EA8211084394F82C1040EA016175
:101250002048001F016001203866FFF7CFFC0446DC
:1012600005E034E0FFF7CAFC001B022809D8286813
:101270008001F7D52BE000BFFFF7C0FC001B022860
:1012800002D90320BDE8F88F28688001F4D41EE05D
:101290000128F7D00868E26900F48001914214D176
:1012A000226A00F03F0191420FD147F6C071626A95
:1012B0000140914209D1A26A00F44031914204D127
:1012C000E16A00F07060884201D00120DAE7002076
:1012D000D8E70000083802400038024000004742CA
:1012E000800E4742007000400000FFFF70477047CB
:1012F00070B590F83C20012A32D0012480F83C409F
:10130000022280F83D2003685A689D6822F070062A
:101310000A6832435A60134B02689A4214D0B2F101
:10132000804F11D0104B9A420ED0104B9A420BD0E6
:101330000F4B9A4208D00F4B9A4205D00E4B9A425F
:1013400002D00E4B9A4204D1496825F0800319431C
:10135000916080F83D40002180F83C10084670BD47
:10136000022070BD00000140000400400008004061
:10137000000C004000040140004001400018004003
:1013800010B5040003D094F83D0010B107E001202F
:1013900010BD002084F83C00204600F00DF802202B
:1013A00084F83D00211D206800F03EFD012084F8F6
:1013B0003D00002010BD000008B50068B0F1804F6E
:1013C00008D10548016841F001010160006800F0A2
:1013D0000100009008BD0000403802400168CA6862
:1013E00042F00102CA600068816801F00701062925
:1013F00003D0016841F0010101600020704770B521
:10140000044690F83C00012817D0012584F83C5090
:10141000022084F83D002068826822F0770222F4DE
:101420007F4282600868502830D00DDC20284DD0E3
:1014300005DC98B310283BD148E0022070BD30286D
:1014400044D0402834D139E0602828D0702806D014
:10145000B0F5805F2CD0B0F5005F29D10AE0CB68F1
:10146000D1E90121206800F050FD2068816841F039
:10147000770109E0CB68D1E90121206800F045FD42
:101480002068816841F48041816011E0CA68496840
:10149000206800F00FFE5021206807E016E0CA68BF
:1014A0004968206800F017FE6021206800F037FDD1
:1014B00084F83D50002084F83C0070BDCA6849683B
:1014C000206800F0F7FD40212068EFE72268014620
:1014D0001046EBE7704770B50446006801694FF0AD
:1014E0000005C943890715D4C168C943890711D4C8
:1014F000E91E01610120207720688069800720466D
:1015000002D0FFF7E7FF04E000F0C0F8204600F04B
:1015100042F9257720680169C943490717D4C16892
:10152000C943490713D46FF00401016102202077F9
:101530002068806910F4407F204602D0FFF7CAFF80
:1015400004E000F0A3F8204600F025F92577206894
:101550000169C943090716D4C168C943090712D4F0
:101560006FF008010161042020772068C0698007BE
:10157000204602D0FFF7AEFF04E000F087F82046D7
:1015800000F009F9257720680169C943C90617D415
:10159000C168C943C90613D46FF010010161082066
:1015A00020772068C06910F4407F204602D0FFF702
:1015B00091FF04E000F06AF8204600F0ECF825778F
:1015C00020680169C943C90708D1C168C943C9076F
:1015D00004D1891E0161204600F000F920680169EC
:1015E000C943090609D4C168C943090605D46FF087
:1015F000800101612046FFF779FE20680169C94337
:10160000490609D4C168C943490605D46FF04001B1
:101610000161204600F0ECF820680169C9438906A1
:101620000BD4C168C943890607D46FF0200101615A
:101630002046BDE87040FFF75ABE70BD10B586B0B9
:10164000044614216846FEF777FE2068B0F1804F0B
:1016500015D10C480021026842F0010202600068C6
:1016600000F0010005900F2000900220CDE901015B
:101670000120CDE9031069460348FFF7CFF906B012
:1016800010BD00003038024000000240704770B5C5
:10169000044690F83C000D4601280DD0012684F840
:1016A0003C60022084F83D0042B1042A18D0082A88
:1016B0002AD00C2A4DD139E0022070BD206800F0FC
:1016C00037FC2068816941F00801816120688169E7
:1016D00021F004018161206881692A69114311E0C8
:1016E000206800F055FC2068816941F40061816147
:1016F0002068816921F480618161206881692A699B
:1017000041EA0221816124E0206800F077FC206832
:10171000C16941F00801C1612068C16921F004017B
:10172000C1612068C1692A69114311E0206800F095
:1017300099FC2068C16941F40061C1612068C169F8
:1017400021F48061C1612068C1692A6941EA0221EE
:10175000C16184F83D60002084F83C0070BD10B584
:10176000040003D094F83D0010B107E0012010BD43
:10177000002084F83C00204600F00CF8022084F899
:101780003D00211D206800F04FFB012084F83D0042
:10179000002010BD7047704710B504460068012254
:1017A00000F0A6FB0B492068884202D00A49884213
:1017B00003D1416C41F4004141642068816801F02B
:1017C0000701062903D0016841F0010101600020F2
:1017D00010BD000000000140000401400068034902
:1017E000884201D1FFF710BA7047000000000140A5
:1017F0007047704770B5026804461068D168536935
:1018000010F00F0F53D003F0010501F490762E4332
:101810005FD0C20705D0CA0503D5E26B42F00102D2
:10182000E263420705D5DA0703D0E26B42F0020219
:10183000E263820705D5DA0703D0E26B42F00402C7
:10184000E263020707D501F020022A4303D0E26BCE
:1018500042F00802E263E26B002A34D0800604D52D
:10186000880602D5204600F07FFC20684069E16BC5
:10187000C0F3801001F008010143204624D000F09D
:1018800065FC2068416949061AD5416921F040018B
:101890004161606BA0B11B490165606BFFF799F86E
:1018A000002810D0606B016DBDE8704008478306CA
:1018B0000FD58B060DD52046BDE8704000F054BC16
:1018C0002046FFF796FF70BDFFF793FF0020E0630F
:1018D00070BD030606D50B0604D52046BDE8704052
:1018E00000F022BD4006F3D54806F1D5D168204668
:1018F00021F04001D160202184F8391000F0D0F8A7
:1019000070BD00003D21000870B5040004D094F8BB
:101910003900002510B106E0012070BD84F8385070
:10192000204600F023F8242084F839002068C1689C
:1019300021F40051C160204600F062FC206801697A
:1019400021F4904101612068416921F02A0141613F
:101950002068C16841F40051C160E563202084F82B
:10196000390084F83A00002070BD000010B586B040
:10197000044614216846FEF7DFFC174920688842B8
:1019800028D11648016841F400310160006800F474
:101990000030059011481038016841F008010160DD
:1019A0000068694600F00800059060200090022061
:1019B0000190012002900320039007200490084822
:1019C000FFF72CF8002205212620FFF7A3F9262097
:1019D000FFF792F906B010BD0044004040380240C5
:1019E000000C024070472DE9F843044690F8390096
:1019F0001F4616460D46202850D1B5B1AEB194F819
:101A0000380001284AD0012084F838004FF000083F
:101A1000C4F83C80212084F83900FFF7EFF8A68451
:101A20008146E68484F8388026E00120BDE8F8830A
:101A3000E08C401EE084A0684B46B0F5805F4FF01C
:101A400000024FF080012046009703D000F09DFC7B
:101A5000E8B90DE000F099FCC8B928882168C0F306
:101A600008004860206908B16D1C05E0AD1C03E06A
:101A7000216815F8010B4860E08C0028D8D14B464E
:101A8000002240212046009700F07FFC08B103208F
:101A9000CCE7202084F839000020C7E70220C5E702
:101AA0007047FEE710B5124B92B00EAC0FCB84E836
:101AB0000F0000210EA801F029FC0E4C0C491C223D
:101AC000A06010316846FEF71EFC0021684601F058
:101AD00030FC074920601C222C3107A8FEF713FCBC
:101AE000002107A801F025FC606012B010BD0000C5
:101AF000304500080000002030B587B0142168464A
:101B0000FEF71AFC19480024016841F00101016048
:101B1000016801F001010591016841F008010160CF
:101B2000016801F008010591016841F08001016040
:101B3000016801F080010591016841F040010160F8
:101B400000680B4D00F0400005900022022128465D
:101B5000FFF74EF8022000900120CDE9010469460C
:101B600028460394FEF75AFF07B030BD30380240D4
:101B70000018024010B58EB0002407940894099410
:101B80000A940B941C2168460C94FEF7D5FB2A4856
:101B90004FF080410160C721C0E9011440F60F6198
:101BA000C0E9031480218161FFF7EAFB08B1FEF769
:101BB0000FFF4FF48050079007A91F48FFF71FFC45
:101BC00008B1FEF705FF1C48FFF7C9FD08B1FEF795
:101BD000FFFE0B940BA918480C94FFF789FB08B182
:101BE000FEF7F6FE6020CDE900040294002269466B
:101BF00011480494FFF74BFD08B1FEF7E9FE0422FB
:101C000069460D48FFF743FD08B1FEF7E1FE0822E3
:101C100069460948FFF73BFD08B1FEF7D9FE0C22E3
:101C200069460548FFF733FD08B1FEF7D1FE0248CB
:101C3000FFF704FD0EB010BD000300200C4810B5E6
:101C40000A4901604FF4E1314160002181600C22BA
:101C5000C160C0E904128161C161FFF755FE00282F
:101C600003D0BDE81040FEF7B3BE10BD00440040F5
:101C700040030020FEE7704786B0294802AD294F97
:101C800007C885E807004FF47A7632462649B868D7
:101C900002F0C6F900283ED023480068FEF770FC29
:101CA00041EC100B21A053EC102B00F0A9FB1E48B7
:101CB00001951438416A143000910FC801F0CAF937
:101CC00048B3052001F02EFF9DED020A01F018FE39
:101CD000052001F027FF9DED030A01F021FE0520FC
:101CE00001F020FF9DED040A01F02AFE052001F01D
:101CF00019FF002455F82400FEF742FC41EC100BBC
:101D000011A053EC102B00F07BFB322001F0F2FA13
:101D1000641C032CEEDB304601F0ECFAB5E7000062
:101D20007845000800000020980000207375636368
:101D300065737366756C6C79207265636569766529
:101D4000203A2025660000002025662000000000C3
:101D500010B5502080F31188BFF34F8FBFF36F8F02
:101D600002F09AFA18B104494FF080500860002040
:101D700080F3118810BD000004ED00E030B593B091
:101D800030216846FEF7D8FA14210CA8FEF7D4FAE1
:101D900019480025016841F080510160006800F099
:101DA000805011901548016821F4404141F4804170
:101DB00001600068022400F440401190012000906E
:101DC000000401908001CDE9064019200890902080
:101DD000CDE9090404200B906846FFF7D9F80CA957
:101DE0000F2081E83100E0020F90109002210CA832
:101DF000FEF7C2FF13B030BD403802400070004013
:101E00000548016841F47001016003494FF000602A
:101E1000803908607047000088ED00E00148FFF756
:101E20005ABB000080030020F0B50268254C264D07
:101E3000264E274F274B4FF0804CA04209D06045DB
:101E400007D0A84205D0B04203D0B84201D0984292
:101E500004D122F0700E4A6842EA0E02A0421BD062
:101E6000604519D0A84217D0B04215D0B84213D05F
:101E7000984211D0184DA8420ED0184DA8420BD050
:101E8000174DA84208D0174DA84205D0164DA842BC
:101E900002D0164DA84203D122F44075CA682A43E5
:101EA0004D6922F080022A4302608A68C2620A6891
:101EB0008262A04201D0984201D1096901630121E7
:101EC0004161F0BD000001400004004000080040F6
:101ED000000C00400004014000400140004401406B
:101EE0000048014000180040001C00400020004055
:101EF00010B501F01F030121046A99408C4304626C
:101F0000016A9A401143016210BD10B5846842EA2B
:101F1000032224F47F440A432243826010BD826876
:101F200022F070020A4342F007018160704700000E
:101F3000F0B5026A22F001020262036A4268846913
:101F4000124E24F073050C682C4323F002058B68B5
:101F50002B430D4DA84201D0B04205D123F0080714
:101F6000CB683B4323F00403A84201D0B04205D123
:101F70004D6922F4407215438A692A4342608461A4
:101F8000496841630362F0BD000001400004014064
:101F9000F0B5026A22F010020262026A43688469A4
:101FA0000D6824F4E64444EA05248D6822F02002FA
:101FB00042EA05120F4D104EA84201D0B04206D1A0
:101FC000CF6822F0800242EA071222F04002A842C3
:101FD00001D0B04207D14D6923F4406343EA850341
:101FE0008D6943EA850343608461496881630262C5
:101FF000F0BD00000000014000040140F0B5026A9D
:1020000022F480720262026A4368C46922F4007298
:1020100024F073050C68124E2C438D6842EA0522A9
:102020000E4DA84201D0B04206D1CF6822F4006222
:1020300042EA072222F48062A84201D0B04207D1CE
:102040004D6923F4405343EA05138D6943EA0513B0
:102050004360C4614968C1630262F0BD0000014091
:102060000004014030B5026A22F480520262046A20
:102070004268C3690D6823F4E64343EA05238D688B
:1020800024F4005444EA0534084DA84202D0084D17
:10209000A84204D14D6922F4804242EA851242608E
:1020A000C36149680164046230BD00000000014062
:1020B0000004014010B5036A046A24F001040462BC
:1020C000846924F0F00444EA021423F00A020A436B
:1020D0008461026210BD10B5036A23F0100303622D
:1020E0008369046A23F4704343EA023224F0A003B4
:1020F00043EA01118261016210BD00000D489FEDAD
:102100000C0A012180ED000A80ED010AB1EE040AFB
:1021100080ED020A0173084C80ED040A00231A4680
:102120000449A06801F0CCFE012001F0E3F8F5E7D6
:102130000AD7233C840000200000002010B5806BEB
:102140000021C185C184FFF754FB10BD0168CA6836
:1021500022F49072CA6001684A6922F001024A6161
:10216000202180F83A10704710B590F83A102229D3
:1021700001D0022010BD8168B1F5805F11D00169E6
:10218000002901681FD0496801F07F03816A4A1C59
:1021900082620B70C18D491E0904090CC18518D0DB
:1021A0002BE00269816A002A0268526805D0D2B227
:1021B0000A80816A491C8162ECE7C2F308020A8046
:1021C000816A891CF7E74A68816A4B1C83620A703E
:1021D000E0E70168CA6822F02002CA600168CA68A4
:1021E00022F48072CA6001684A6922F001024A61E1
:1021F000202180F83A10FFF7F5FB002010BD000009
:102200002DE9F041044600680169E26821F440517B
:10221000114301612169A068E269084361691143C2
:1022200008432168CA6849F20C639A430243CA60B2
:1022300020684169A26921F4407111434161E0695C
:10224000192764253226B0F5004F354A35492068F4
:102250004FF0000806D0884201D0904236D1FEF7F8
:1022600055FE35E0884201D0904202D1FEF74EFE85
:1022700001E0FEF73BFE61684A18A0FB070148EB4E
:102280000803FEF70FF80146B0FBF5F00201B1FBC1
:10229000F5F06FF01803584301EB800006EBC00027
:1022A000B0FBF5F000F0F80002EB4002B1FBF5F0F6
:1022B000584301EB800006EBC000B0FBF5F000F0E6
:1022C0000700216810448860BDE8F081FEF70EFE2B
:1022D00061688B0F8A00A0FB0701FDF7E3FF014651
:1022E000B0FBF5F06FF01802504301EB800006EBF5
:1022F0000010B0FBF5F000F0F002B1FBF5F002EBDE
:102300000012B1FBF5F06FF01803584301EB8000A9
:1023100006EB0010B0FBF5F000F00F00D1E7000075
:10232000001401400010014090F83910212901D01B
:10233000022070478168B1F5805F016A0BD04A1CAA
:102340000262026809785160C18C491E0904090CB7
:10235000C1840ED017E009880268C1F308015160FA
:1023600001690029016A02D0491C0162ECE7891C5D
:10237000FBE70168CA6822F08002CA600068C16891
:1023800041F04001C160002070472DE9F0419846BE
:1023900017460E460446069D1DE0681C1BD02DB155
:1023A000FEF72CFCA0EB0800A84214D92068C168F5
:1023B00021F4D071C1602068416921F001014161BF
:1023C000202084F8390084F83A00002084F838008E
:1023D0000320BDE8F0812068006836EA000004D0E0
:1023E0000020B842D9D00020F3E70120F9E700002F
:1023F0000148FFF7FFB9000040030020FEE700009E
:102400000FB4054B10B503A9044A029800F08AFAEC
:1024100010BC5DF814FB0000813200087C00002035
:102420004100080218BF04200A0E18BF40F0010046
:102430004FF07F4232EA010108BF40F0020001285C
:1024400008BF052070470907090E002804DB00F1CA
:10245000E02080F80014704700F00F0000F1E02049
:1024600080F8141D7047000010B510EE104A4FF0B0
:102470001A402DED028B00EB4400B0F1C85F4AD842
:102480004FF0FC40B0EB440F22D2B0EEC00AF7EEA2
:10249000000A30EEC00AF6EE000A20EE208A18EE9E
:1024A000100A01F05DFA00EE100A14F0004F1DBF93
:1024B0009FED281ADFED280AB1EE400A9FED271A9A
:1024C00008BFF0EE410AF8EE001A20EE210A05E0FE
:1024D00020EE008A9FED221ADFED220ADFED221A9C
:1024E0009FED222A70EEC00A20EE080A08EE212A8B
:1024F000DFED1F1A48EE021A9FED1E2A08EE212A70
:10250000DFED1D1A48EE021ABDEC028B40EE610AA7
:1025100030EE810A10BD4FF0CC40B0EB440F82BFCB
:102520009FED160ABDEC028B10BD4FF07F40B0EB63
:10253000440F05D2BDEC028BBDE8104000F017B986
:10254000012000F037F9BDEC028BBDE8104000F02F
:1025500011B900000000494022AA7D3A00000000A5
:102560000000C93F22AAFD3924FE1C3DC78AD83C81
:102570001E67383D1B93993DAFAA2A3EDB0FC93F2A
:1025800010B54FF00E412DED028BB0EE408A18EEE3
:10259000100A01EB4001B1F1145F5CD24FF0FE4133
:1025A000B1EB400F24BF9FED400AF0EE400A12D27B
:1025B00010F0004F19BFDFED3D0A9FED3D0ADFED42
:1025C0003D0A9FED3D0AFFEE001A81EE881AB0EE3B
:1025D000418A18EE100A4FF0FC41B1EB400F1BD2BC
:1025E00010F0004FDFED351A9FED352A1DBFBEEE0E
:1025F000001A70EEE10A30EE420AB6EE001A04BF8D
:1026000070EEA10A30EE020A38EE412AF7EE001A07
:1026100048EE011A82EE218ADFED2A1A9FED2A2A5E
:1026200028EE081A01EE212ADFED281A41EE021ADF
:102630009FED272A01EE212ADFED261A41EE021A2C
:1026400028EE011A01EE210A30EE080ABDEC028BD9
:1026500030EE200A10BD4FF0E441B1EB400F0CD931
:1026600018EE100AFFF7DCFE042808BF00F08AF815
:10267000B0EE480ABDEC028B10BD4FF07F41B1EBCC
:10268000400F07D2B0EE480ABDEC028BBDE8104007
:1026900000F06DB810F0004F14BF9FED0F0A9FEDD2
:1026A0000F0ABDEC028B10BD000000000000C9BF86
:1026B00022AAFDB90000C93F22AAFD390060ED3E03
:1026C000C30ACE372DAD65BD8FB8D53D0FB511BE50
:1026D00061C84C3EA8AAAABEDB0FC9BFDB0FC93F29
:1026E0002DED020B019820F0004001909DED000BB4
:1026F00002B0704700B52DED048BB0EE409AF0EEBD
:10270000609A83B051EC190BFEF7E4F841EC180B1A
:1027100018EE100A18EE901A8DED008B002818BFE5
:102720000120084320F00040C0F17F6000F1E0404C
:10273000C00F14D019EE101A19EE900A8DED009BFF
:10274000002918BF0121084320F00040C0F17F603C
:1027500000F1E040C00F04BF012000F02BF8B0EE04
:10276000480A03B0F0EE680ABDEC048B00BD30EE01
:10277000000A7047DFED020A80EEA00A70470000F1
:10278000000000009FED020A20EE000A70470000E2
:102790000000001002E008C8121F08C1002AFAD188
:1027A00070477047002001E001C1121F002AFBD1D1
:1027B0007047000001490860704700008000002059
:1027C0002DE9FF5FDDE90220010DDDF838B002439D
:1027D00018D044F61050A1F2FF3141430D140F9868
:1027E000012820D0A5EB0B00401C5FEA000A4FF047
:1027F0000004474EDFF81C91A046504616D5CAF19A
:10280000000728E00F98012443A2012808D00021E6
:1028100000980F9BC0E90021C0E90243BDE8FF9F7B
:102820006FEA0B01F4E7CBF10000DEE7074612E0A8
:10283000F80707D02246334640464946FDF72EFEAC
:10284000804689462246334610461946FDF726FE45
:1028500004460E467F10002FEAD1DDE90201BAF1ED
:10286000000F42464B4602DAFDF718FE01E0FDF785
:10287000C2FF04460E460022284BFDF7ADFE03D8EA
:102880004FF0FF30014607E00022254B204631463D
:10289000FDF75DFDFEF76FF8102409E0002C0ADB60
:1028A0000A220023FDF7FEFC019B30321A55641EFC
:1028B00050EA0102F2D1641C019AC4F111031444DC
:1028C0000F9A012A03D0012208430DD10AE00843E0
:1028D00004D000204FF0110B0F9080E7A3EB0B0505
:1028E0006D1E0DE05B4504DD4FF0000205F10105B2
:1028F00004E003DA4FF00002A5F10105002AECD054
:1029000000980F99C0E90231C0E9004586E7000050
:10291000000024400000F03F300000000000F043C1
:102920000000E03F2DE9FF4F95B09B4689460646E3
:1029300000250FE2252877D100242746F84A0121F7
:10294000059400E0044316F8013F203B01FA03F030
:102950001042F7D130782A2811D06FF02F03307849
:10296000A0F13002092A16D8059A44F0020402EBBD
:10297000820203EB42021044761C0590EFE759F8FF
:10298000042B0592002A03DA504244F400540590C7
:1029900044F00204761C30782E2816D116F8010F68
:1029A00044F004042A280DD06FF02F023078A0F1F3
:1029B0003003092B09D807EB870302EB4303C71841
:1029C000761CF3E759F8047B761C30786C280FD01E
:1029D00006DC4C2817D068280DD06A2814D104E0F2
:1029E000742810D07A280FD10DE044F400140AE0C6
:1029F00044F4801401E044F440147278824202D11D
:102A000004F58014761C761C307866280BD013DC15
:102A1000582877D009DC002875D04528F6D04628FC
:102A2000F4D047281AD19DE118E0632835D06428F6
:102A300079D0652812D195E1702873D008DC672819
:102A4000F1D069286FD06E280DD06F2806D1B5E07F
:102A500073282CD0752875D0782874D05A461799C9
:102A600090476D1C75E1C4F30250022809D0032879
:102A70000DD0D9F8001004280DD00D6009F104091B
:102A800067E1D9F80010EA17C1E90052F6E7D9F872
:102A900000100D80F2E70D70F0E719F8041B8DF8B7
:102AA000001000208DF80100EA46012003E059F8EB
:102AB00004AB4FF0FF3061074FF0000102D40DE08E
:102AC00008F101018846B9420FDA8045F8DB1AF8AF
:102AD00008100029F4D108E008F10101884681427C
:102AE000FADB1AF808100029F6D105985B46A0EB2E
:102AF000080721463846179A00F094FA284400EB5C
:102B0000080507E04DE029E10DE01AF8010B5A46EF
:102B100017999047B8F10108F7D25B46214638462D
:102B2000179A13E142E00A220092C4F302524FF0D6
:102B3000000A022A08D059F804CB032A4FEAEC71A4
:102B40000AD00DE029E02AE009F1070121F007028F
:102B5000F2E802C1914609E00FFA8CFC4FEAEC71F1
:102B6000042A03D14FFA8CFC4FEAEC71002907DAF2
:102B70000A460021DCF1000C61EB02012D2202E08B
:102B8000220504D52B228DF80420012203E0E20760
:102B900001D02022F7E7904659E00A2102E01022F6
:102BA0000DE010214FF0000A00910BE010224FF0D1
:102BB000000A44F004040827009203E008224FF0C2
:102BC000000A0092C4F30252022A05D059F804CB3D
:102BD0000021032A08D009E009F1070121F00702CA
:102BE000F2E802C1914605E01FFA8CFC042A01D1EB
:102BF0000CF0FF0C4FF00008220728D5702806D0F3
:102C0000009B83F0100353EA0A0305D00EE0402234
:102C10008DF80420012208E05CEA010206D030228F
:102C20008DF804208DF8050002229046009B83F069
:102C3000080353EA0A030AD15CEA010201D16207E0
:102C400005D530228DF804204FF001087F1E58284A
:102C500004D034A003900EA802900DE036A0F9E74E
:102C600053466046009AFDF71DFB84460398825C3C
:102C70000298401E029002705CEA0100F0D10298B6
:102C800006A9081A00F1200A600702D524F480344E
:102C900000E00127574502DDA7EB0A0000E0002015
:102CA00000EB0A01009005984144401A0590E003AA
:102CB00006D45B462146179A059800F0B3F90544FF
:102CC000002706E001A85A46C05D179990476D1C81
:102CD0007F1C4745F6DBE0030CD55B462146179A7F
:102CE000059800F09FF9054404E030205A461799F2
:102CF00090476D1C0099481E00900029F5DC08E003
:102D0000029802995A460078491C029117999047F7
:102D10006D1CBAF10001AAF1010AF1DC65E10000C5
:102D200009280100303132333435363738396162A1
:102D30006364656600000000303132333435363765
:102D400038394142434445460000000000F058F93C
:102D50000544761C307800287FF4ECAD19B0284685
:102D6000BDE8F08F620700D4062709F1070222F0C0
:102D7000070CFCE80223E14603F000485FEA080C78
:102D800002D00FF2702C0DE05FEA045C02D50FF266
:102D9000682C07E05FEAC47C02D00FF2602C01E0EF
:102DA000AFF2700C4FF0FF3823F00043CDF850C065
:102DB00065280CD006DC452809D046281DD04728B8
:102DC0003DD13DE0662818D067287ED138E000214B
:102DD000112F01DB112000E0781CCDE9000106A9CC
:102DE0000EA8FFF7EDFCDDE90F010E9A039100211B
:102DF000009207F1010A04914DE04FF00040009766
:102E0000CDE9011006A90EA8FFF7DAFCDDE90F02F3
:102E100003920E9B11990022DDF80CA000930492FE
:102E200011B9791C00EB010AB7EB0A0004D4C0F118
:102E3000FF3007F1010A0490AAEB0700019044E07B
:102E4000012F00DA01270021112F01DD112000E000
:102E50003846CDE9000106A90EA8FFF7B1FCDDE96F
:102E60000F010E9A0391002104910092BA462107A6
:102E70000CD40399514500DA8A46BAF1010F05DDF9
:102E8000009AAAF10101515C302908D0B84202DA57
:102E900010F1040F06DA0121CDE9011015E0AAF1C5
:102EA0000101E9E7002805DC049901440491AAEB3B
:102EB000000102E0411C514500DD8A460499401A98
:102EC000401C01904FF000400290200704D401986C
:102ED000504501DBCDF8048000208DF84F000298AA
:102EE0000DF14F07B0F1004F25D02B200E90029826
:102EF0004FF0020800280CDA404202902D200E907C
:102F000007E00A210298FDF79BFB3031029007F899
:102F1000011DB8F10001A8F10108F2DC02980028B7
:102F2000EFD1791E0E980870307800F0200040F044
:102F3000450007F8020D12A8C01B00F107081498FD
:102F4000007800B1012000EB0A01019801EBE0716B
:102F500005984144401A401E0590E00306D45B46A4
:102F60002146179A059800F05DF8054414980078FA
:102F700018B15A46179990476D1CE00324D55B465B
:102F80002146179A059800F04DF805441CE0049876
:102F9000002807DBDDE90301884203DD0098405C7F
:102FA000179901E0179930205A469047049805F187
:102FB0000105401C04900198401E019004D12E2070
:102FC0005A46179990476D1CBAF10001AAF1010AFF
:102FD000DDDC05E017F8010B5A46179990476D1C88
:102FE000B8F10001A8F10108F4DC5B462146179A0C
:102FF0000598ABE62D0000002B000000200000002B
:103000002DE9F041044600251E461746880404D4E5
:1030100005E039462020B0476D1C641EF9D52846CE
:10302000BDE8F0812DE9F041044600251E4690469A
:10303000C80301D5302700E02027880404D505E027
:1030400041463846B0476D1C641EF9D52846BDE898
:10305000F08100000FB410B52DED0C8BDDED0E8A64
:10306000DDED0FBA139C28EEA80A0BEEAB0A10EEAA
:10307000100AFDF785FA41EC100BFFF73BFB51EC12
:10308000100BFDF7C1FA08EE100A9FED6E0AB4EEC0
:10309000C80AF1EE10FA22D99FED6B0BFFF720FB67
:1030A000B0EE409AF0EE609A18EE100AFDF768FA5A
:1030B00053EC192BFDF778FAEDD99DF844009FEDFC
:1030C00064AADFED64CADFED64AA9FED649B9FED07
:1030D00065BA9DED10CA012802D0022844D0AEE0A6
:1030E00018EE900A604988427DDB18EE100A5F49AD
:1030F000884278DB8BEEA80AFFF742FA08EE08AAAE
:103100002AEE881AF0EE408A7AEE6C0A80EE810A86
:10311000FFF7AAF938EE800A10EE100AFDF730FA30
:1031200053EC192BFDF7BAF9FDF76EFA18EE08BA51
:10313000DFED4F0A20608BEE200AFFF795F9B1EE24
:10314000400A10EE100AFDF71BFA53EC192BFDF79D
:10315000A5F9FDF759FA00EE100A84ED010AD4ED45
:10316000000AF1EE600A5EE09FED42DAF5EEC08AF9
:10317000F1EE10FA8BEEA80A1ED2FFF701FA08EE64
:1031800008AA2AEE881AF0EE408A7AEE6C0A80EEDF
:10319000810AFFF769F938EEC00A10EE100AFDF750
:1031A000EFF953EC192BFDF779F99FED331B53EC35
:1031B000112BFDF7CCF819E0FFF7E2F908EE08AAA9
:1031C0002AEE881AF0EE408A7AEE6C0A80EE810AC6
:1031D000FFF74AF938EEC00A10EE100AFDF7D0F9F1
:1031E00053EC192B00E02AE0FDF758F9FDF70CFA33
:1031F00018EE08BADFED1E0A20608BEE200AFFF7FA
:1032000033F910EE100AFDF7BBF953EC192BFDF75B
:1032100045F9FDF7F9F900EE100A84ED010AD4ED45
:10322000000A7DEE600A002030EEC00A30EE0C0A83
:1032300084ED020ABDEC0C8B10BC5DF814FB012080
:10324000F8E7000000007A430000000000003E4064
:103250000020994600103D4600008C43E79AD56156
:1032600094A94C4000A8F746CDCC4C3DCDCCCC3DEC
:1032700000A0F046000034430000000000806640DB
:1032800013B54FF6FF73012269460248FEF7ABFB08
:1032900000981CBD40030020012202211048FDF7C8
:1032A000A7FCFDF7B9FCFEF769FDFEF725FCFEF76C
:1032B00061FCFEF7C3FC00210A48FEF76DFA042109
:1032C0000848FEF769FA08210648FEF765FA0C215E
:1032D0000448FEF761FAFEF7E5FB00F012F8FEE79E
:1032E000001802400003002001460020842900D07D
:1032F000C81C704710B500B9012000F013FC002075
:1033000010BD10B500F05AFC002010BD38B5D0E952
:10331000011204683AB1C3682BB100200090204626
:1033200000F056FD38BD2046BDE83840002200F0D0
:103330002BBD7FB50D4604464169B0F9080081B147
:10334000A16971B1FFF7D0FFD4E905128DE807003C
:10335000D4E900102B46226900F065FF039004B009
:1033600070BDFFF7C1FF03A9CDE90001208A2B46FC
:1033700082B2D4E9001000F029FF012801D000201A
:10338000EDE70398EBE700002DE9F041184C0F46FC
:10339000054666692068001D00F001FB38B9206809
:1033A00090F82C1001208840A1698143A161681C1C
:1033B00007D137B12168BDE8F0410E48091D00F082
:1033C00031BB20683544B5424560216805D2A0680C
:1033D000BDE8F041091D00F00DBB6068091D00F05B
:1033E00009FB206B854200D22563BDE8F081000017
:1033F0001C0000209C0400202DE9F041054600F04F
:103400001DFB2E4C2069401C206120682C4F10B100
:10341000E06940B32DE025602069012829D100260C
:1034200006EB860007EB800000F0D6FA761C072E2C
:10343000F6D323488C3000F0CFFA2148A03000F0BA
:10344000CBFA1F48B43000F0C7FA1D48C83000F06E
:10345000C3FA1B48DC3000F0BFFA19488C306060BA
:103460001430A06005E02068E96AC06A884200D88C
:103470002560E06A401CE062E96A0120A269884098
:103480001043A06101EB810007EB8000291D00F0D3
:10349000C9FA00F0F3FAE06900280CD02068E96A64
:1034A000C06A884207D207494FF080500860BFF3D6
:1034B0004F8FBFF36F8FBDE8F08100001C0000202C
:1034C000C003002004ED00E030B4026C0B46002A7B
:1034D0000BD0C1681144C1604468A14201D30168A6
:1034E000C16030BC1846FCF70EBF30BC70472DE9F8
:1034F000F041856B174604460026026C82B1C7B1C5
:10350000E068FCF700FFE168206C091AE1602268BE
:10351000914202D26168081AE060022F16D017E0CB
:103520002068A8B9606800F01BFF064600206060B4
:103530000EE0A068FCF7E7FE216CA0680844A060DC
:103540006168884204D32068A06001E005B16D1E67
:103550006D1CA5633046BDE8F08110B5044690F8B7
:10356000510058B101280CD002280FD0502080F310
:103570001188BFF34F8FBFF36F8FFEE7206B00F012
:1035800091FA2046BDE8104000F08CBA10BD000052
:1035900010484FF47051420706D0C01D0D4920F06D
:1035A0000700411AC1F570510B4A00230144C2E9DA
:1035B00000030839103A21F0070111604B600B60DD
:1035C0000B1AC0E9001393604FF000405360D060C5
:1035D00070470000B004002068000020144E154C15
:1035E000A6F1C8074FF08058DFF84C9012E000BFFA
:1035F00000F024FAF068C568281D00F0D0F92069B1
:10360000401E2061E068401EE06000F037FA284666
:10361000FFF7A3FFE0680028EAD138680128F9D94C
:10362000C9F80080BFF34F8FBFF36F8FF2E7000040
:10363000880400201C00002004ED00E003460098F0
:1036400029B10260C0E90F31012100F0F5BB006033
:10365000F8E72DE9F0479A46DDE9098481466FF0E5
:103660000303206B03EB82021044089D20F0070641
:10367000700707D0502080F31188BFF34F8FBFF33E
:103680006F8FFEE723180A5C83F834200A5C12B1BE
:10369000401C1028F6D3002784F84370072D00D370
:1036A0000625E562C4E91157201D00F0A0F904F1D8
:1036B000180000F09CF92461C5F107006462A06164
:1036C000E76484F8507052464946304600F002F9EB
:1036D0002060B8F1000F01D0C8F80040BDE8F087C5
:1036E00030B5114900E011460A688242FBD34B68AD
:1036F0005C18844203D14068184448600846436817
:103700001C18944209D1084C103C2468A24209D0EC
:1037100052681A4442600A6812680260814200D00E
:10372000086030BD0460F9E76800002010B5044669
:1037300000F084F9A06B28B15FF0000400F09EF95E
:10374000204610BD0124F9E706484168096829B1FF
:103750004168C968C9684968016370474FF0FF3123
:10376000FAE700001C00002008484068401C4FF0A9
:10377000500080F3118804D0BFF34F8FBFF36F8FD9
:10378000FEE7BFF34F8FBFF36F8FFEE7700000209F
:103790002DE9F041044600F051F994F9455004F147
:1037A000240609E0606A48B1304600F025FE08B101
:1037B00000F0E6F96D1E6DB2002DF3DC4FF0FF3620
:1037C00084F8456000F05AF900F038F994F9445053
:1037D00004F1100709E0206948B1384600F00CFEFA
:1037E00008B100F0CDF96D1E6DB2002DF3DC84F848
:1037F0004460BDE8F04100F041B900002DE9F0411E
:103800000546002700F010FA314E306808B9FFF77E
:10381000BFFEF06805424BD1C5B3083568070ED02E
:1038200005F00700C0F108000544680707D05020E4
:1038300080F31188BFF34F8FBFF36F8FFEE72DB377
:103840007068854234D82248103001460C6801E087
:1038500020460C466168A94202D221680029F7D1AE
:1038600031688C4224D0076821680160606808379D
:10387000411B10290FD96019420708D0502080F34E
:103880001188BFF34F8FBFF36F8FFEE710E04160E9
:103890006560FFF725FF61687068401A7060B26864
:1038A000904200D2B060F06801430020C4E90001FA
:1038B00000F0DCFD780707D0502080F31188BFF3BB
:1038C0004F8FBFF36F8FFEE73846BDE8F0810000F1
:1038D0005800002010B5031F4FF080741C601B1FA0
:1038E00021F001011960191F044B0B6014390A60A3
:1038F000091F6FF0020244380A6010BD69370008E2
:10390000DFED060A4FF0804130EE200ABCEEC00A1F
:1039100010EE100A48636420FDF76EB80000B44250
:10392000DFED060A4FF0804130EE200ABCEEC00AFF
:1039300010EE100A88636420FDF75EB80000B44200
:10394000DFED060A4FF0804130EE200ABCEEC00ADF
:1039500010EE100AC8636420FDF74EB80000B442B0
:1039600010B500EE100A2DED028BB1EEC08A18EEF4
:10397000100A20F00040C0F1FF40C00F0AD010EE46
:10398000100A20F00040C0F1FF40C00F04BF01202A
:10399000FEF710FF18EE100ABDEC028B10BDD0E947
:1039A000013201699A60D0E901235A604A68824273
:1039B00001D182684A60002202610868401E0860E6
:1039C00008687047034B036003F1540008608020CF
:1039D00010607047AC00002000F108014FF0FF328A
:1039E000C0E90112C160016100210160704700213E
:1039F0000161704730B50B685A1C02D000F1080213
:103A000002E0026904E02246546825689D42FAD922
:103A100053684B6099608A60516008610168491C75
:103A2000016030BD42684A6093688B60936859605A
:103A3000916008610168491C01607047502080F363
:103A40001188BFF34F8FBFF36F8F0A494868401C3E
:103A5000486001280CD10848006810F0FF0F07D01B
:103A6000502080F31188BFF34F8FBFF36F8FFEE7B5
:103A7000704700007000002004ED00E0084948682D
:103A800028B1401E486001D180F311887047502052
:103A900080F31188BFF34F8FBFF36F8FFEE70000F5
:103AA0007000002070B5002827D0144DA0F1080444
:103AB0006168E868014207D1502080F31188BFF3A4
:103AC0004F8FBFF36F8FFEE722683AB1502080F32B
:103AD0001188BFF34F8FBFF36F8FFEE781436160A3
:103AE00000F0A2F860686968084468602046FFF743
:103AF000F7FDBDE8704000F0B9BC70BD5800002073
:103B00004FF0E02000210161816105494FF47A7294
:103B10000968B1FBF2F1491E41610721016170475B
:103B20001800002010B5020014D00F48806B38B187
:103B3000502080F31188BFF34F8FBFF36F8FFEE7E4
:103B400000F072F800211046FFF71EFC00F08EFC1A
:103B5000002807D105494FF080500860BFF34F8F10
:103B6000BFF36F8F10BD00001C00002004ED00E0CB
:103B700002498A6A02604969416070471C0000205E
:103B800001490120486270471C00002010B50C4616
:103B900050B1094909681831FFF72CFF2046BDE8EC
:103BA00010400121FFF7F0BB502080F31188BFF3D4
:103BB0004F8FBFF36F8FFEE71C00002010B586B05B
:103BC0000024039405AA04A903A80494FFF7FAFEAD
:103BD000DDE903010094CDE9011000230EA1104896
:103BE000059A00F020FB0F490028486311D05020AF
:103BF00080F31188BFF34F8FBFF36F8F4FF0FF300B
:103C000008630120C8614C6106B0BDE8104000F0B7
:103C100041B806B010BD000049444C45000000000A
:103C2000DD3500081C0000200248816B491C8163BF
:103C3000704700001C0000201448816B11B1012165
:103C400041627047002141628169B1FA81F1C1F19D
:103C50001F0101EB81020E4951F822306BB101EBDB
:103C6000820101F108034A6852684A609A4201D110
:103C700052684A60D16801607047502080F3118813
:103C8000BFF34F8FBFF36F8FFEE700001C000020D3
:103C9000C00300201CB537480168374A914207D15C
:103CA000502080F31188BFF34F8FBFF36F8FFEE773
:103CB00000683149491E884207D1502080F311889D
:103CC000BFF34F8FBFF36F8FFEE72C490878019049
:103CD000FF20087008788DF800009DF800009DF81E
:103CE000002000F0F000904207D0502080F31188AF
:103CF000BFF34F8FBFF36F8FFEE79DF80000204B9F
:103D000000F0500018700720986005E09DF8002032
:103D100052008DF80020401E9DF800201206F5D4B8
:103D20009860032807D0502080F31188BFF34F8F8D
:103D3000BFF36F8FFEE74FF44070986001980870F2
:103D40000C482030016841F470010160016841F0C5
:103D500070410160FFF7D4FE00205860FCF754FA70
:103D60000848016841F040410160FCF739FA002041
:103D70001CBD000000ED00E071C20F4100E400E056
:103D80007000002034EF00E0F8B517460E4605003D
:103D900014D0DEB105FB06F04830FFF72FFD04001C
:103DA0000AD0002084F8460004F148023B46314620
:103DB00028460094FFF742FC2046F8BD502080F3CF
:103DC0001188BFF34F8FBFF36F8FFEE70020E3E74B
:103DD00038B5049D18B153B1CAB181B120E050206B
:103DE00080F31188BFF34F8FBFF36F8FFEE7502032
:103DF00080F31188BFF34F8FBFF36F8FFEE7502022
:103E000080F31188BFF34F8FBFF36F8FFEE739B197
:103E1000502080F31188BFF34F8FBFF36F8FFEE701
:103E200048241C46012384F846302B460094FFF7B3
:103E300005FC204638BD000070B50D46040025D0B5
:103E4000FFF7FCFDD4E90F20216802FB001161603F
:103E50000021A1632168A1600A46D4E90F01401E38
:103E600000FB0121E16021464FF0FF3001F8440FD3
:103E7000487004F110008DB1FFF7AEFD04F124008D
:103E8000FFF7AAFDFFF7FAFD012070BD502080F377
:103E90001188BFF34F8FBFF36F8FFEE721690029B1
:103EA000F0D000F0A9FA0028ECD004494FF080507F
:103EB0000860BFF34F8FBFF36F8FE3E704ED00E0BF
:103EC0002DE9FF4782B01D468A464FF000080400E6
:103ED00003D0BAF1000F08D011E0502080F3118810
:103EE000BFF34F8FBFF36F8FFEE7206C38B15020C8
:103EF00080F31188BFF34F8FBFF36F8FFEE7022D62
:103F00000AD1E06B012807D0502080F31188BFF35D
:103F10004F8FBFF36F8FFEE700F0B0F93F4F4FF0C8
:103F200000094FF0805648B9049838B1502080F30A
:103F30001188BFF34F8FBFF36F8FFEE7FFF77EFD52
:103F4000A06BE16B884207D3022D05D00498D0B155
:103F5000B8F1000F1AD01EE02A4651462046FFF75E
:103F6000C6FA616A19B104F1240000F045FA20B1E3
:103F70003E60BFF34F8FBFF36F8FFFF77FFD0120D0
:103F800006B0BDE8F087FFF779FD22E06846FFF74D
:103F9000EFFD4FF00108FFF771FDFFF745FEFFF75A
:103FA0004DFD94F94400401C01D184F8449094F9EB
:103FB0004500401C01D184F84590FFF75FFD04A93E
:103FC000684600F0C9F830B12046FFF7E1FB00F089
:103FD0004DFA0020D4E7FFF731FDA06BE16B88427A
:103FE00013D1FFF74BFD04F110000499FFF7CEFD4C
:103FF0002046FFF7CDFB00F039FA00289ED13E6045
:10400000BFF34F8FBFF36F8F98E7FFF737FD204661
:10401000FFF7BEFB00F02AFA90E7000004ED00E095
:104020002DE9F747002683B08A46040003D0BAF191
:10403000000F08D011E0502080F31188BFF34F8F9C
:10404000BFF36F8FFEE7206C38B1502080F31188EA
:10405000BFF34F8FBFF36F8FFEE700F00FF9DFF86C
:10406000F4804FF000094FF0805748B9059838B1F7
:10407000502080F31188BFF34F8FBFF36F8FFEE79F
:10408000FFF7DCFCA56BC5B151462046FFF71CFAD3
:104090006D1EA563206950B104F1100000F0ACF969
:1040A00028B1C8F80070BFF34F8FBFF36F8FFFF7D1
:1040B000E5FC012006B0BDE8F087059808B11EB107
:1040C00006E0FFF7DBFC27E06846FFF751FD01261D
:1040D000FFF7D4FCFFF7A8FDFFF7B0FC94F944000C
:1040E000401C01D184F8449094F94500401C01D152
:1040F00084F84590FFF7C2FC05A9684600F02CF84B
:10410000002820460AD0FFF743FB00F0AFF9204615
:10411000FFF70CFB0028B3D00020CBE7FFF706FB2E
:1041200090B104F124000599FFF730FD2046FFF718
:104130002FFB00F09BF90028A2D1C8F80070BFF354
:104140004F8FBFF36F8F9BE72046FFF721FB00F0F7
:104150008DF995E704ED00E02DE9F0410C460500EE
:1041600011D0C4B1FFF76AFC174B5A696E6820681A
:10417000911B471C17D02F689B6A9F4219D096420B
:1041800017D8012410E0502080F31188BFF34F8F1F
:10419000BFF36F8FFEE7502080F31188BFF34F8F7E
:1041A000BFF36F8FFEE70024FFF768FC2046BDE8F1
:1041B000F081884205D9401A20602846FFF7D8FCD4
:1041C000F1E700202060DCE71C0000202DE9FF5F04
:1041D0008346DDE90E87994616468A469000FFF72A
:1041E0000DFB05001CD05420FFF708FB040014D081
:1041F0000020256384F85100CDE90240CDE9008715
:104200004B46324651465846FFF723FA2046FFF701
:10421000F3F8012004B0BDE8F09F2846FFF742FC08
:104220004FF0FF30F6E7F0B585B0DDE90B640A9D8D
:10423000A6B1DCB1542700972663022684F85160AA
:10424000002604AFCDE90246CDE90057FFF701FA99
:104250002046FFF7D1F8049805B0F0BD502080F358
:104260001188BFF34F8FBFF36F8FFEE7502080F3AD
:104270001188BFF34F8FBFF36F8FFEE70548C16909
:1042800019B1806B18B100207047012070470220DF
:10429000704700001C0000202DE9F0412E4C002743
:1042A000A06B40B1206A401C2062606A00B1012707
:1042B0003846BDE8F0816669761C666113D1606896
:1042C000006838B1502080F31188BFF34F8FBFF3DF
:1042D0006F8FFEE76068A1686160A060A06A401C03
:1042E000A062FFF731FA206BDFF87080864209D3B5
:1042F0006068006880B16068C068C56868688642A8
:104300000DD220632068C06A00EB800158F82100BC
:104310000128CAD90127C8E74FF0FF30F1E7281D6F
:10432000FFF73DFBA86A18B105F11800FFF737FB4E
:10433000E86A0121A26981401143A16100EB80017B
:1043400008EB8100291DFFF76DFBE86A2168C96A47
:104350008842CDD30127CBE71C000020C0030020FA
:1043600070B504004FF0000140D0214D2868844210
:1043700007D0502080F31188BFF34F8FBFF36F8FAA
:10438000FEE7A06C38B1401EA064636CE26A9A42FA
:104390002CD040B12AE0502080F31188BFF34F8F1A
:1043A000BFF36F8FFEE7201DFFF7F9FA114A0121D5
:1043B00050B9E06A00EB800352F8233023B9AB69AF
:1043C00001FA00F08343AB61606CE062C0F107006A
:1043D000A061E06AAB6981401943A96100EB8000EC
:1043E00002EB8000211DFFF71DFB0121084670BD77
:1043F0001C000020C00300202DE9F041C068C46803
:10440000ACB104F118000746FFF7C9FA154DA86BC7
:104410000126A0B139461448FFF704FBE06A296879
:10442000C96A88421CD901206E62BDE8F081502023
:1044300080F31188BFF34F8FBFF36F8FFEE7201D0E
:10444000FFF7ADFAE16AAA6906FA01F01043A86124
:1044500001EB81000449B43901EB8000211DDBE749
:104460000020E2E71C000020740400202DE9F04742
:104470002C4D00242746A86B38B1FFF7DFFAA86B54
:10448000401EA863A86B40B146E0502080F311881D
:10449000BFF34F8FBFF36F8FFEE72969224E0120D4
:1044A000D1B3A6F1B40980463068E8B1F068C468B9
:1044B00004F11800FFF773FA201DFFF770FAE06AA5
:1044C000AA6908FA00F11143A96100EB800109EB28
:1044D0008100211DFFF7A6FAE06A2968C96A8842AF
:1044E000E2D3C5F82480DFE70CB1FFF72DF92C6A81
:1044F00044B14646FFF7D0FE00B16E62641EF9D1AA
:1045000000202862686A38B1084901273807086026
:10451000BFF34F8FBFF36F8FFFF7B0FA3846BDE898
:10452000F08700001C0000207404002004ED00E06F
:104530001000000008000000000000000000000063
:104540009C450008791C00080100000000000000E4
:10455000800000000000000000000000A8450008E6
:10456000FD200008000000000000000080000000A6
:1045700000000000000000000000B4420000000045
:104580000000000000000000000000000102030421
:104590000607080900000000010203045365727653
:1045A0006F5461736B000000546F705461736B0043
:1045B000D045000800000020840000009427000877
:1045C00054460008840000202C440000A427000862
:1045D00000000000000000000000000001000000DA
:1045E00010000000000000000024F40000000000A3
:1045F00000000000000000000000000000000000BB
:1046000000000000000000000000000000000000AA
:10461000000000000000000000000000000000009A
:10462000000000000000000000000000000000008A
:10463000000000000000000000000000000000007A
:1046400000000000AAAAAAAA0000000000000000C2
:044650000000000066
:04000005080001AD41
:00000001FF
