:020000040800F2
:10000000E8040020010100088F130008F511000822
:100010008D1300086D010008E517000800000000BE
:100020000000000000000000000000009313000822
:100030006F010008000000009113000895130008EC
:100040001B0100081B0100081B0100081B01000820
:100050001B0100081B0100081B0100081B01000810
:100060001B0100081B0100081B0100081B01000800
:100070001B0100081B0100081B0100081B010008F0
:100080001B0100081B0100081B0100081B010008E0
:100090001B0100081B0100081B0100081B010008D0
:1000A0001B0100081B0100081B0100081B010008C0
:1000B0001B0100081B010008000000001B010008D4
:1000C0001B01000800000000000000001B010008E8
:1000D000000000001B010008D91700080000000004
:1000E0001B0100081B0100081B010008DFF80CD0F1
:1000F00000F02AF80048004725180008E80400200E
:100100000648804706480047FEE7FEE7FEE7FEE7B1
:10011000FEE7FEE7FEE7FEE7FEE7FEE7E71300087F
:10012000ED000008D2B201E000F8012B491EFBD21D
:1001300070470022F6E710B513460A4604461946F2
:10014000FFF7F0FF204610BD064C074D06E0E068C3
:1001500040F0010394E8070098471034AC42F6D30E
:10016000FFF7C8FF7418000894180008FEE77047EE
:10017000704710B590F821100022022905D0042103
:10018000816380F82020012010BD01680B6823F0F6
:100190000E030B6001680B6823F001030B6090F8FD
:1001A0004030C46B012101FA03F3636080F8211031
:1001B00080F82020104610BD10B590F821100024C2
:1001C000022903D00421816301243DE001680A680B
:1001D00022F00E020A6001680A6822F001020A6039
:1001E0001A4A0168914201D1012121E0174A1432D3
:1001F000914201D110211BE0144A2832914201D1D1
:10020000891515E0114A3C32914201D189140FE061
:100210000E4A5032914202D14FF4803108E00B4A2D
:100220006432914202D14FF4801101E04FF08071AD
:10023000064A083A5160012180F82110002180F817
:100240002010416B01B18847204610BD08000240D4
:100250002DE9F84FDFF89C91002409F1040A0AF116
:10026000040B23460F270BF1040EBBE00125A5402C
:100270002A40AA4276D1DFF880C14E68A6EB0C086E
:1002800066452BD00DDC032E34D005DC36B3012EB1
:1002900019D0022E2FD11BE0112E16D0122E2AD1EA
:1002A00019E0B8F5881F19D006DCB8F5803F15D0E5
:1002B000B8F5801F1FD111E0B8F5001F0ED0B8F5BA
:1002C000041F18D10AE0CB6815E0CB681B1D12E0B3
:1002D000CB6808330FE0CB680C330CE08B682BB194
:1002E000012B4FF0080303D0456104E0042302E032
:1002F000056100E00023FF2A01D8064601E000F175
:1003000004064FEA840501D9A5F12005D6F800803E
:1003100007FA05FC28EA0C0803FA05F548EA05087F
:10032000C6F800804D68ED005BD5344DAE6946F0EF
:100330000106AE61AD6924F0030605F001050095E4
:100340002F4D06EB050CDCF80850A607360F07FA10
:1003500006F825EA0805DFF8AC80404503D14FF0E8
:10036000000810E03DE0DFF8A080404502D14FF0EA
:10037000010808E0DFF89480404502D14FF0020800
:1003800001E04FF0030808FA06F848EA0508CCF83F
:1003900008804D68D9F80060ED034D4601D516433D
:1003A00000E096432E604D68DAF80060AD035546D4
:1003B00001D5164300E096432E604D68DBF80060DF
:1003C000ED025D4601D5164300E096432E604D6870
:1003D000DEF80060AD02754601D5164300E0964395
:1003E0002E60641C0A6832FA04F57FF43FAFBDE862
:1003F000F88F0000000401400000111000100240BE
:100400000000014000080140000C014000100140C4
:1004100001488068704700000000002002488168A1
:10042000027811448160704700000020074810B531
:10043000016841F010010160032000F075F8002010
:1004400000F006F800F024F8002010BD0020024063
:1004500070B50D4D04464FF47A712878B1FBF0F079
:100460000A490968B1FBF0F000F0ECFA48B9102C29
:1004700007D200222146501E00F036F800206C60A2
:1004800070BD012070BD0000000000200C000020A5
:100490000C4808B5816941F001018161816901F071
:1004A00001010091C16941F08051C161C06900F052
:1004B000805000900448416821F0E06141F0806183
:1004C000416008BD0010024000000140002809DB27
:1004D00000F01F02012191404009800000F1E0205E
:1004E000C0F8001170470000F0B40E4B1B680C46BA
:1004F000C3F30223C3F10705042D00D90425191DF8
:10050000072901D2002300E0DB1E012606FA05F1CF
:10051000491E214099409E40761E16403143F0BC52
:1005200001F061B90CED00E0064900F0070208682F
:100530004FF6FF03184040EA0220034A10430860C8
:10054000704700000CED00E00000FA052DE9F047CF
:100550000F46050061D0434E306800F00700B842F6
:1005600009D2306820F0070038433060306800F06E
:100570000700B84251D128683B4C810712D540078B
:1005800003D5606840F4E06060602878000703D518
:10059000606840F4605060606068A96820F0F00016
:1005A000084360602878C00728D06868012810D008
:1005B0002168022810D0890700292EDA616821F00D
:1005C000030101436160FFF723FF804641F2883950
:1005D0000DE021688903EFE78901EDE7FFF718FFD8
:1005E000A0EB0801494502D90320BDE8F087606807
:1005F000696800F00C00B0EB810FEFD1306800F0BB
:100600000700B8420BD9306820F00700384330604B
:10061000306800F00700B84201D00120E5E72878F3
:10062000400705D56068E96820F4E0600843606031
:100630002878000706D56068296920F4605040EAF0
:10064000C100606000F038F86168084AC1F3031126
:10065000515CC8400649086006480068FFF7F8FE8C
:100660000020C2E700200240001002405C18000891
:100670000C00002004000020044805490068496877
:10068000044AC1F30221515CC84070470C000020AD
:10069000001002406C1800080448054900684968C9
:1006A000044AC1F3C221515CC84070470C000020CD
:1006B000001002406C18000812A185B00FC98DE827
:1006C0000F0014A0144A006804905168134801F008
:1006D0000C03042B10D0082B0ED1C1F38343C903A4
:1006E0001DF803000AD5516804AAC1F34041515CCA
:1006F0000A4A5043B0FBF1F005B07047084948433F
:10070000FAE7000002030405060708090A0B0C0DAE
:100710000E0F1010010200000010024000127A00BB
:1007200000093D002DE9F84F040070D02078C04D3D
:10073000C00749D06868C0F38100012807D0686805
:10074000C0F38100022809D16868C00306D5286873
:10075000800339D560680028E7D035E06068B0F5DF
:10076000803F0BD010B1B0F5A02F11D0286820F435
:1007700080302860286820F4802002E0286840F457
:1007800080302860606890B1FFF742FE06460AE0BC
:10079000286840F480202860F0E700BFFFF738FEAB
:1007A000801B642873D828688003F7D50CE0FFF716
:1007B0002FFE064605E000BFFFF72AFE801B6428D7
:1007C000F0D828688003F7D420789A4E80074FF03D
:1007D00001094FF0000839D5686810F00C0F07D0F8
:1007E0006868C0F38100022809D16868C00306D494
:1007F0002868800714D52069012808D110E02069F5
:10080000B0B1C6F80090FFF703FE074605E00AE125
:10081000FFF7FEFDC01B0228C4D828688007F7D563
:100820002868616920F0F80040EAC10028600DE006
:10083000C6F80080FFF7ECFD074604E0FFF7E8FD8F
:10084000C01B022823D828688007F7D42078000727
:100850002CD57948A169D9B1C0F80090FFF7D8FD2F
:10086000074604E0FFF7D4FDC01B02280FD8686AD2
:100870008007F7D571484FF4FA510068B0FBF1F0EA
:10088000009000BF0098411E0091FAD20EE080E077
:10089000C0F80080FFF7BCFD074604E0FFF7B8FD95
:1008A000C01B022875D8686A8007F7D420784007F3
:1008B00060D5E8690027C00008D4E86940F080509E
:1008C000E861E869012700F0805000905C48016809
:1008D000C90513D40168834641F480710160FFF7B4
:1008E00097FD824606E000BFFFF792FDA0EB0A00ED
:1008F00064284ED8DBF80000C005F5D5E068012873
:100900000AD008B1052813D0286A20F00100286217
:10091000286A20F0040002E0286A40F00100286202
:10092000E06841F2883B98B1FFF772FD82460BE028
:10093000286A40F004002862EEE700BFFFF768FD78
:10094000A0EB0A0159455AD8286A8007F6D50CE071
:10095000FFF75EFD824605E0FFF75AFDA0EB0A01B6
:1009600059454CD8286A8007F6D41FB1E86920F0B1
:100970008050E861E06988B36968C1F381010229A8
:1009800044D00228C6F8608004D0FFF741FD044639
:1009900038E034E0FFF73CFD074604E0FFF738FDA0
:1009A000C01B02282BD828688001F7D4206AB0F534
:1009B000803F05D16868A16820F400300843686072
:1009C000D4E908010843696821F474110843686098
:1009D000C6F86090FFF71CFD044606E025E000BF66
:1009E000FFF716FD001B022809D828688001F7D5FB
:1009F0001BE000BFFFF70CFD001B022802D90320FB
:100A0000BDE8F88F28688001F4D40EE00128F7D003
:100A10006868226A00F48031914204D1616A00F46E
:100A20007010884201D00120EAE70020E8E70000CA
:100A30000010024000004242800442420C000020AC
:100A40000070004010B5401EB0F1807F01D301203E
:100A500010BD4FF0E02460610F21601700F0C3FE6D
:100A60000020A06107202061002010BD10B590F883
:100A70003C20012A22D0012280F83C20CA688C68E0
:100A800022F4407222434C6822F4806222430C68B4
:100A900022F4006222430C6922F4805222434C6902
:100AA00022F400522243C969002322F480420A43FF
:100AB00001684A6480F83C30002010BD022010BD5F
:100AC00070B590F83C20012A23D0012480F83C40E6
:100AD000022280F83D2003685A689D6822F0700663
:100AE0000A6832435A600C4B02689A4205D0B2F150
:100AF000804F02D0094B9A4204D1496825F0800307
:100B00001943916080F83D40002180F83C10084670
:100B100070BD022070BD0000002C014000040040A8
:100B200070B590F83E60044690F83F5090F842301F
:100B300090F84320022021B104290ED0012E1BD1B0
:100B400014E0012E18D1012B16D184F83E0084F850
:100B5000420001220021206820E0012D0CD1012A51
:100B60000AD184F83F0084F8430014E0012D03D13A
:100B7000012B01D1012A01D0012070BD84F83E0073
:100B800084F83F0084F8420084F8430001220021E9
:100B9000206800F057FC01220421206800F052FC7C
:100BA0002068016841F001010160002070BD2DE95D
:100BB000F041054690F83C000C46012836D0012053
:100BC00085F83C008AB3042A42D02868082A51D00C
:100BD000D4E90023E168066A26F480560662C669F5
:100BE000076A26F4407646EA03234FF6FF7606EAC4
:100BF000013123F4704319434FF4005627F4005396
:100C000006EA02321A43C16102622868C16921F40E
:100C10004061C1612868C169A26841EA0221C161DD
:100C2000002085F83C00BDE8F08101E00220FAE7F1
:100C3000D4E90012E368286800F0B4FC28688169F0
:100C400021F00C01816128688169A26811430FE0DD
:100C5000D4E90012E368286800F0CCFC28688169B8
:100C600021F44061816128688169A26841EA02211A
:100C70008161D5E7D4E90027267B016A21F48071E0
:100C80000162C169036A21F00301394321F0F007D1
:100C900031074FF4007647EA116123F4007306EA46
:100CA00002221A43C16102622868C16921F00C0165
:100CB000C1612868C169A2681143B0E710B504009A
:100CC00003D094F83D0010B107E0012010BD0020D2
:100CD00084F83C00204600F01FF8022084F83D0014
:100CE000211D206800F080FB012084F8460084F874
:100CF0003E0084F83F0084F8400084F8410084F806
:100D0000420084F8430084F8440084F8450084F8E5
:100D10003D00002010BD000000B585B0002100910D
:100D20000191029103910068B0F1804F16D10C48F7
:100D3000C16941F00101C161C16901F00101049182
:100D4000816941F0040181618069694600F0040015
:100D50000490032000900348FFF77AFA05B000BD25
:100D6000001002400008014000B585B0002100914C
:100D700001910291039100680B49884212D10B48FE
:100D8000816941F0040181618069694600F00400D5
:100D900004904FF4407000900220019003900448AA
:100DA000FFF756FA05B000BD002C014000100240CC
:100DB0000008014070B5044690F83C000D4601283B
:100DC0000AD0012084F83C0042B1042A18D0082A35
:100DD0002AD00C2A4DD139E0022070BD206800F0E5
:100DE0003FFB2068816941F00801816120688169C9
:100DF00021F004018161206881692A69114311E0B1
:100E0000206800F055FB2068816941F40061816130
:100E10002068816921F480618161206881692A6983
:100E200041EA0221816124E0206800F06DFB206826
:100E3000C16941F00801C1612068C16921F0040164
:100E4000C1612068C1692A69114311E0206800F07E
:100E500087FB2068C16941F40061C1612068C169F4
:100E600021F48061C1612068C1692A6941EA0221D7
:100E7000C161002084F83C0070BD10B5040003D0AF
:100E800094F83D0010B107E0012010BD002084F867
:100E90003C00204600F01EF8022084F83D00211D91
:100EA000206800F0A1FA012084F8460084F83E0092
:100EB00084F83F0084F8400084F8410084F8420040
:100EC00084F8430084F8440084F8450084F83D0029
:100ED000002010BD08B500680649884208D10648C0
:100EE000816941F400618161806900F400600090D3
:100EF00008BD0000002C0140001002407047704700
:100F0000F8B5026804461068D168536910F00F0FF5
:100F10004FF0000554D003F0010601F490773743F9
:100F20005FD0C20705D0CA0503D5226C42F001028A
:100F30002264420705D5DA0703D0226C42F0020290
:100F40002264820705D5DA0703D0226C42F004023E
:100F50002264020707D501F02002324303D0226C3D
:100F600042F008022264226C002A35D0800604D5A3
:100F7000880602D5204600F078FB20684069216C85
:100F8000C0F3801001F008010143204625D000F095
:100F900054FB2068416949061BD5416921F0400195
:100FA0004161A06BA8B158494163A06BFFF704F9F8
:100FB000002811D0A06B416B01B0BDE8F04008479C
:100FC00083060ED58B060CD52046BDE8F84000F010
:100FD0004CBB2046FFF793FFF8BDFFF790FF256459
:100FE000F8BD266B2023012E52D1C60650D5CE0661
:100FF0004ED5106850680090506940062AD5A16B04
:10100000086840680004000CEAD0A68D8642E7D943
:10101000E0858869202818D0D06820F48070D060DE
:101020002068416921F0010141612068416921F096
:101030004001416184F83E3025632068C16821F099
:101040001001C160A06BFFF794F8A08DE18D401AEC
:1010500081B219E0A08DE18D401A81B2E08D0028A7
:10106000BED00029BCD0D06820F49070D060206839
:10107000426922F00102426184F83E302563206813
:10108000C26822F01002C2602046FFF737FFF8BDA9
:1010900005062BD50D0629D594F83D002128F6D15B
:1010A000A068B0F5805F01D12069B0B1206A411C11
:1010B0002162216800784860E08C401E0004000C2A
:1010C000E084E4D12068C16821F08001C16020681B
:1010D000C16841F04001C160F8BD206A0088C0F3DA
:1010E00008005060206A801C2062E5E74006F3D5C6
:1010F0004806F1D5D168204621F04001D16084F83E
:101100003D3000F076F8F8BD2B16000870B50400ED
:1011100004D094F83D00002510B106E0012070BD18
:1011200084F83C50204600F023F8242084F83D0049
:101130002068C16821F40051C160204600F0F0FA37
:101140002068016921F4904101612068416921F022
:101150002A0141612068C16841F40051C1602564E1
:10116000202084F83D0084F83E00002070BD00007F
:1011700030B585B000240094019402940394006873
:10118000184988422BD11848C16941F40031C16126
:10119000C16901F400310491816941F00401816168
:1011A0008069124D00F00400049004200090022099
:1011B00001900320039069462846FFF749F808206C
:1011C000CDE90004694628460294FFF741F8002261
:1011D00011462620FFF788F92620FFF777F905B09A
:1011E00030BD0000004400400010024000080140F3
:1011F00070477047FEE70000094808B5816941F073
:1012000020018161816901F020010091816941F033
:1012100004018161806900F00400009008BD0000B5
:101220000010024010B592B000240F941C216846B3
:101230001094FEF77EFF202107A8FEF77AFF2548CD
:101240002349016041F61F41C0E9011440F2F31146
:10125000C0E9031444618461FFF70FFE08B1FEF793
:1012600087FF0F940FA91B481094FFF729FC08B1C2
:10127000FEF77EFF6020CDE90004029403940494FD
:1012800005940022694613480694FFF793FD08B1C0
:10129000FEF76EFF042269460E48FFF78BFD08B18A
:1012A000FEF766FF0794089409944FF400500A94DF
:1012B000CDE90B4007A907480E94FFF7D7FB08B10B
:1012C000FEF756FF0348FFF74FFD12B010BD0000B8
:1012D000002C01401000002010B586B000241C48EE
:1012E000059404940094019402944FF08041039477
:1012F000C0E90014602181604FF6FF71C0E903145A
:101300008461FFF7DBFC08B1FEF732FF049404A907
:101310000F480594FFF7D4FB08B1FEF729FF012021
:10132000CDE9004002940022694609480394FFF782
:101330003EFC08B1FEF71CFF042269460448FFF793
:1013400036FC002801D0FEF713FF06B010BD0000E8
:10135000580000200C4810B50A4901604FF4E131F3
:101360004160002181600C22C160C0E904128161EA
:10137000C161FFF7CBFE002803D0BDE81040FEF7A7
:10138000F7BE10BD00440040A0000020FEE77047FB
:1013900070477047FFF742B830B58FB028216846D4
:1013A000FEF7C7FE14210AA8FEF7C3FE01210804B8
:1013B000CDE900100024029402250491CDE90750E4
:1013C0004FF4E01009906846FFF7ACF90F20CDE923
:1013D0000A056802CDE90C4002210AA80E94FFF725
:1013E000B5F80FB030BD704770B50268134B144CA0
:1013F0004FF08046984203D0B04201D0A04203D1C2
:1014000022F070054A682A43984203D0B04201D0C6
:10141000A04203D122F44074CA6822434C6922F0EE
:101420008002224302608A68C2620A68826298422D
:1014300001D1096901630121416170BD002C0140A6
:101440000004004010B501F01F030121046A994017
:101450008C430462016A9A401143016210BD00008E
:1014600030B5026A22F001020262026A43688469AE
:1014700024F073050C682C4322F002058A682A4385
:101480000A4DA8420BD122F00805CA6823F4407324
:101490002A434D6922F004021D438B692B434360AC
:1014A000846149684163026230BD0000002C014044
:1014B00030B5026A22F010020262026A436884694F
:1014C0000D6824F4E64444EA05248D6822F02002E5
:1014D00042EA05120B4DA8420ED1CD6822F08002DF
:1014E00042EA05124D6923F4406343EA85038D699E
:1014F00022F0400243EA85034360846149688163C6
:10150000026230BD002C014030B5026A22F48072C4
:101510000262036A4268C46923F4007324F073050D
:101520000C682C438D6843EA05230C4DA8420ED16C
:10153000CD6823F4006343EA05234D6922F4405249
:1015400042EA05128D6923F4806342EA0512426083
:10155000C4614968C163036230BD0000002C0140D2
:1015600030B5026A22F480520262046A4268C3699A
:101570000D6823F4E64343EA05238D6824F4005400
:1015800044EA0534064DA84204D14D6922F4804254
:1015900042EA85124260C36149680164046230BD59
:1015A000002C014070B5046A24F0010404628469CF
:1015B000056A0E4EB04205D0B0F1804F02D00C4EFD
:1015C000B04203D124F00304144301E044F00104C9
:1015D0001A0724F0F00444EA126225F00A0301F02D
:1015E0000A0119438261016270BD0000002C0140B4
:1015F0000004004030B5046A24F0100404628469D9
:10160000056A24F4407444EA022222F470444FF63E
:10161000FF7202EA03322243A02425F0A00304EA69
:10162000011119438261016230BD10B5406A002189
:10163000C185C184FFF763FC10BD0168CA6822F44C
:101640009072CA6001684A6922F001024A61016B26
:10165000012904D10168CA6822F01002CA60202161
:1016600080F83E1000210163704708B590F83E10E5
:10167000222901D0022008BD82684FF480539A428B
:1016800001D1016921B1816A9A421BD04AB10AE0B5
:101690000268816A5268C2F308020A80816A891C62
:1016A00008E0026972B10268526802F07F020A70B3
:1016B000816A491C8162C18D491E0904090CC185DA
:1016C00003D019E002685268F1E70168CA6822F0A5
:1016D0002002CA600168CA6822F48072CA60016888
:1016E0004A6922F001024A61202180F83E10016B14
:1016F000012903D0FFF77CFD002008BD0021016314
:101700000168CA6822F01002CA6001680A68D2063D
:1017100002D50A6849680091818DFFF7EFFBEBE77E
:1017200070B5044600680169E26821F44051114334
:1017300001612169A0680843616908432168CA689A
:1017400041F20C639A430243CA6020684169A2696E
:1017500021F44071114341611E492068884202D141
:10176000FEF79AFF01E0FEF787FF00EBC00101EBF7
:101770000012606864218000B2FBF0F3B3FBF1F368
:101780006FF018067343B2FBF0F5B2FBF0F605EB11
:101790008305322303EB0515B5FBF1F5B6FBF1F636
:1017A00005F0F00505EB0615B2FBF0F6B2FBF0F024
:1017B000B0FBF1F06FF01802504306EB800003EB32
:1017C0000010B0FBF1F0216800F00F0028448860A1
:1017D00070BD0000003801400148FFF791BB0000D8
:1017E000A0000020FEE70907090E002804DB00F135
:1017F000E02080F80014704700F00F0000F1E020B6
:1018000080F8141D704702E008C8121F08C1002AA2
:10181000FAD170477047002001E001C1121F002A71
:10182000FBD1704710B501210B48FFF779F9FEF79E
:10183000FDFDFFF7B1FDFFF7DFFCFFF7F3FCFFF75E
:101840004BFDFFF787FD4FF08040406A024A0021C0
:101850001268516210BD0000580000200000000016
:101860000000000001020304060708090000000050
:10187000010203049418000800000020100000007A
:1018800006180008A418000810000020D804000062
:101890001618000801000000100000000000000001
:0418A0000024F4002C
:04000005080000ED02
:00000001FF
