:020000040800F2
:1000000060440020810200082B1100080B1000083A
:1000100029110008CD030008F114000800000000B9
:10002000000000000000000000000000C101000806
:10003000CF030008000000001D020008C5110008E1
:100040009B0200089B0200089B0200089B0200081C
:100050009B0200089B0200089B0200089B0200080C
:100060009B0200089B0200089B0200089B020008FC
:100070009B0200089B0200089B0200089B020008EC
:100080009B0200089B0200089B0200089B020008DC
:100090009B0200089B0200089B0200089B020008CC
:1000A0009B020008911200089B0200089B020008B6
:1000B0009B0200089B0200089B0200089B020008AC
:1000C0009B0200089B0200089B0200089B0200089C
:1000D0009B0200089B0200089B0200089B0200088C
:1000E0009B0200089B0200089B0200089B0200087C
:1000F0009B0200089B0200089B0200089B0200086C
:100100009B0200089B0200089B0200089B0200085B
:100110009B0200089B0200089B0200089B0200084B
:100120009B0200089B0200089B0200089B0200083B
:100130009B0200089B0200089B0200089B0200082B
:100140009B0200089B0200089B0200089B0200081B
:100150009B0200089B0200089B0200089B0200080B
:100160009B0200089B0200089B0200089B020008FB
:100170009B0200089B0200089B0200080000000090
:100180009B0200089B0200089B0200089B020008DB
:100190009B0200089B0200089B0200089B020008CB
:1001A00000000000000000009B020008DFF80CD0F7
:1001B00000F0FAF8004800474116000860440020AB
:1001C0002C4B19680868B0E8F04F80F30988BFF33A
:1001D0006F8F4FF0000080F311887047000000001F
:1001E00008480068006880F308884FF0000080F33A
:1001F000148862B661B6BFF34F8FBFF36F8F00DF15
:1002000000BF00BF08ED00E0DFF80C00016841F41A
:1002100070010160704700BF88ED00E0EFF30980D6
:10022000BFF36F8F134B1A681EF0100F08BF20ED3D
:10023000108A20E9F04F106009B44FF0500080F3AD
:100240001188BFF34F8FBFF36F8F01F089FE4FF01E
:10025000000080F3118809BC19680868B0E8F04F05
:100260001EF0100F08BFB0EC108A80F30988BFF3AE
:100270006F8F704738000020EFF305807047000053
:100280000648804706480047FEE7FEE7FEE7FEE730
:10029000FEE7FEE7FEE7FEE7FEE7FEE77512000871
:1002A000AD0100082DE9F05F0546002092469B460F
:1002B00088460646814640241BE02846414647467C
:1002C000224600F061F853465A46C01A914110D3B5
:1002D00011461846224600F048F82D1A67EB01082F
:1002E0004F4622460120002100F03FF817EB00099D
:1002F0004E41201EA4F10104DFDC484631462A4667
:100300004346BDE8F09F40EA01039B0703D009E0A4
:1003100008C9121F08C0042AFAD203E011F8013BF1
:1003200000F8013B521EF9D27047D2B201E000F84A
:10033000012B491EFBD270470022F6E710B5134689
:100340000A4604461946FFF7F0FF204610BD10B5D7
:10035000002200E0521C835C8C5CA34201D1002B84
:10036000F8D1D8B2E1B2401A10BD202A04DB203AFD
:1003700000FA02F1002070479140C2F1200320FAF8
:1003800003F3194390407047202A04DB203A21FAF6
:1003900002F00021704721FA02F3D040C2F120029E
:1003A0009140084319467047064C074D06E0E06847
:1003B00040F0010394E8070098471034AC42F6D3AC
:1003C000FFF7F8FE2C2900084C290008FEE77047CB
:1003D000704700002DE9F84F00224FF00108032577
:1003E0004FF00F0E0B6808FA02F42340A3426ED1BF
:1003F0004E68012E05D0022E03D0112E01D0122EF0
:1004000012D186684FEA420C05FA0CF7BE43CF685A
:1004100007FA0CF7374387604668A6430C79C4F3A4
:100420000014944034434460C668570005FA07FC42
:100430008C6826EA0C06BC403443C4604C68022C2D
:1004400001D0122C13D1D40800EB8404A346D4F8B5
:10045000209054074FEAD46A0EFA0AF629EA0609F0
:100460000E6906FA0AF646EA0906CBF82060046827
:100470000E7924EA0C0406F00306BE40264306600B
:100480004C68E4006FD53B4C266846F480462660F5
:10049000246822F0030604F480440094364C34446B
:1004A000A446D4F808489607360F0EFA06F7BC4360
:1004B000324FB84201D100272EE0314FB84201D16E
:1004C000012729E02F4FB84202D1022724E04AE059
:1004D0002D4FB84201D103271EE02C4FB84201D165
:1004E000042719E02A4FB84201D1052714E0294F0B
:1004F000B84201D106270FE0274FB84201D10727A4
:100500000AE0264FB84201D1082705E0244FB8423F
:1005100001D1092700E00A27B7402743CCF8087823
:10052000204E34684F689C43FF0300D51C43346061
:100530001C4E361D34684F689C43BF0300D51C43D6
:100540003460184E083634684F689C43FF0200D56B
:100550001C433460134E0C3634684F689C43BF0212
:1005600000D51C433460521C102AFFF43BAFBDE899
:10057000F88F000044380240003001400000024083
:100580000004024000080240000C0240001002403B
:100590000014024000180240001C024000200240EB
:1005A00000240240003C01400AB181617047090407
:1005B000FBE7000001488068704700002800002029
:1005C0000248816802781144816070472800002049
:1005D0000B4810B5016841F400710160016841F4F5
:1005E00080610160016841F480710160032000F0C6
:1005F0008DF8002000F006F800F03EF8002010BD55
:10060000003C024010B5014688B00022192000F0DD
:100610005DF8192000F04CF813480024016841F0FF
:1006200001010160006805A900F00100069068461C
:1006300000F018F900F046F90C490D4AB0FBF1F151
:100640000C48491E026040F2E732C0E90324C0E9C9
:10065000011400F029FB10B1012008B010BD0548BD
:1006600000F03EFBF9E700004438024040420F0032
:1006700000000140300300200C4882B0016841F4C2
:1006800080410160006800F4804000900748001F2E
:10069000016841F0805101600068002200F0805044
:1006A00000900F21901E02B000F010B844380240B4
:1006B000002809DB00F01F02012191404009800061
:1006C00000F1E020C0F8001170470000F0B40E4BBC
:1006D0001B680C46C3F30223C3F10705042D00D9A0
:1006E0000425191D072901D2002300E0DB1E012685
:1006F00006FA05F1491E214099409E40761E16409B
:100700003143F0BC00F006BF0CED00E0064900F0FC
:10071000070208684FF6FF03184040EA0220034A28
:1007200010430860704700000CED00E00000FA057F
:100730002DE9F0470E46050065D0DFF81481D8F8A2
:100740000000F7B200F00F00B04207D288F8007046
:10075000D8F8000000F00F00B04254D128683D4C9A
:10076000810712D5400703D5206840F4E05020608F
:100770002878000703D5206840F460402060206896
:10078000A96820F0F000084320602878C0072DD029
:10079000304968680839012812D0022813D003288C
:1007A00011D00968890700292DDA216821F0030199
:1007B00001432160FFF7FEFE814641F2883A0EE0D8
:1007C00009688903EFE709688901ECE7FFF7F2FEA2
:1007D000A0EB0901514502D90320BDE8F08720684C
:1007E000696800F00C00B0EB810FEFD1D8F8001071
:1007F000404601F00F01B14207D90770006800F0D0
:100800000F00B04201D00120E7E72878400705D566
:100810002068E96820F4E050084320602878000749
:1008200006D52068296920F4604040EAC1002060B4
:1008300000F058F82168084AC1F30311515CC84020
:100840000649086006480068FFF7DCFE0020C4E7A0
:10085000003C024008380240BC2800083400002058
:100860002C0000200F2202600C4A136803F00303DF
:100870004360136803F0F0038360136803F4E053EC
:10088000C36012684FF4E05303EAD20202610448E5
:10089000006800F00F000860704700000838024050
:1008A000003C02400448054900680968044AC1F355
:1008B0008221515CC8407047340000200838024053
:1008C000CC2800080448054900680968044AC1F3B7
:1008D0004231515CC8407047340000200838024063
:1008E000CC280008154810B5006810F00C02144818
:1008F00013D01449042A0FD0082A0ED10F4C241FFC
:100900002268236802F03F025B0207D52068C0F32B
:100910008810A0FB010106E0084610BD2168C1F364
:100920008811A1FB00010023FFF7BCFC2168C1F383
:100930000141491C4900B0FBF1F010BD08380240EC
:100940000024F400001BB7002DE9F84F040076D016
:100950002078DFF838A3CE4DC00749D0DAF8001070
:100960005046C1F38101012908D00068C0F381001D
:1009700002280AD1281D0068400206D52868800395
:1009800036D560680028E2D032E06068B0F5803F7C
:1009900010D0B0F5A02F286810D020F48030286047
:1009A000286820F4802028606068A0B1FFF702FE6C
:1009B00006460CE0286840F48030F4E740F48020DC
:1009C0002860F7E7FFF7F6FD801B642873D82868D6
:1009D0008003F7D50CE0FFF7EDFD064605E000BF0C
:1009E000FFF7E8FD801B6428F0D828688003F7D45F
:1009F0002078DFF8A08280074FF000093ED5DAF8B2
:100A00000010504611F00C0F09D00068C0F38100AF
:100A100002280BD19D48001F0068400206D42868B8
:100A2000800715D5E068012809D111E0E068B8B168
:100A30000120C8F80000FFF7BDFD064605E020E1F3
:100A4000FFF7B8FD801B0228C0D828688007F7D5BB
:100A50002868216920F0F80040EAC10028600DE014
:100A6000C8F80090FFF7A6FD064604E0FFF7A2FDD8
:100A7000801B02281FD828688007F7D42078000739
:100A800022D5824E844861696C3671B101210160C2
:100A9000FFF790FD074604E0FFF78CFDC01B02281E
:100AA00009D830688007F7D50EE0C0F80090FFF74E
:100AB00081FD074605E082E0FFF77CFDC01B0228B0
:100AC0007DD830688007F7D42078400768D5DFF8F4
:100AD000BCB100270BF1380BDBF80000C0000BD4D1
:100AE000DBF8001041F08051CBF80010DBF800007B
:100AF000012700F080500090684E3068C00510D487
:100B0000306840F480703060FFF754FD009005E0DD
:100B1000FFF750FD0099401A022850D83068C005F0
:100B2000F6D55A4EA068683601280FD005283068DF
:100B300010D020F001003060306820F004003060F8
:100B4000A068B8B1FFF736FD00900FE0306840F0C4
:100B50000100F4E740F004003060F7E7FFF72AFDFA
:100B60000099411A41F28830814266D83068800786
:100B7000F4D50EE0FFF71EFD009007E0FFF71AFD29
:100B80000099411A41F28830814256D83068800776
:100B9000F4D42FB1DBF8001021F08051CBF8001015
:100BA000A069D0B3DAF800205146C2F38102022ACC
:100BB0004AD00228484607D0C8F8600000E03CE070
:100BC000FFF7F8FC04463BE04746C8F86000FFF733
:100BD000F1FC064605E000BFFFF7ECFC801B022895
:100BE0002BD828688001F7D4D4E907010843A16A0B
:100BF0002B4A490802EB0141626A41EA821108432B
:100C000094F82C1040EA01612048001F0160012087
:100C10003866FFF7CFFC044605E034E0FFF7CAFC76
:100C2000001B022809D828688001F7D52BE000BFF7
:100C3000FFF7C0FC001B022802D90320BDE8F88F93
:100C400028688001F4D41EE00128F7D00868E26922
:100C500000F48001914214D1226A00F03F019142D8
:100C60000FD147F6C071626A0140914209D1A26A70
:100C700000F44031914204D1E16A00F07060884292
:100C800001D00120DAE70020D8E700000838024050
:100C90000038024000004742800E4742007000408A
:100CA0000000FFFF7047704710B5040003D094F8B0
:100CB0003D0010B107E0012010BD002084F83C0089
:100CC000204600F00CF8022084F83D00211D206829
:100CD00000F0E4FA012084F83D00002010BD7047C8
:100CE0000168CA6842F00102CA600068816801F0C8
:100CF0000701062903D0016841F0010101600020CD
:100D00007047704770B50446006801694FF00005F0
:100D1000C943890715D4C168C943890711D4E91E9D
:100D2000016101202077206880698007204602D079
:100D3000FFF7E7FF04E000F098F8204600F096F88F
:100D4000257720680169C943490717D4C168C94399
:100D5000490713D46FF00401016102202077206855
:100D6000806910F4407F204602D0FFF7CAFF04E0FC
:100D700000F07BF8204600F079F8257720680169BB
:100D8000C943090716D4C168C943090712D46FF0D3
:100D900008010161042020772068C069800720468F
:100DA00002D0FFF7AEFF04E000F05FF8204600F04D
:100DB0005DF8257720680169C943C90617D4C16861
:100DC000C943C90613D46FF01001016108202077D0
:100DD0002068C06910F4407F204602D0FFF791FFE1
:100DE00004E000F042F8204600F040F82577206843
:100DF0000169C943C90708D1C168C943C90704D1FA
:100E0000891E0161204600F033F820680169C9435A
:100E1000090609D4C168C943090605D46FF08001E9
:100E200001612046FFF73EFF20680169C94349067A
:100E300009D4C168C943490605D46FF04001016176
:100E4000204600F01FF820680169C94389060BD4C9
:100E5000C168C943890607D46FF0200101612046AB
:100E6000BDE87040FFF71FBF70BD704770470000BE
:100E700000680349884201D1FFF7A2BB7047000018
:100E800000000140704770B5040004D094F83900A8
:100E9000002510B106E0012070BD84F838502046CE
:100EA00000F022F8242084F839002068C16821F479
:100EB0000051C160204600F055FA2068016921F414
:100EC000904101612068416921F02A014161206857
:100ED000C16841F40051C160E563202084F8390005
:100EE00084F83A00002070BD10B586B00446142185
:100EF0006846FFF721FA13492068884220D112483A
:100F0000016841F400310160006800F40030059090
:100F10000D481038016841F0080101600068694619
:100F200000F0080005906020009002200190012050
:100F3000029003200390072004900448FFF74AFA28
:100F400006B010BD0044004040380240000C024092
:100F50002DE9F843044690F839001F4616460D4621
:100F6000202850D1B5B1AEB194F8380001284AD04C
:100F7000012084F838004FF00008C4F83C8021209C
:100F800084F83900FFF716FBA6848146E68484F8CE
:100F9000388026E00120BDE8F883E08C401EE08424
:100FA000A0684B46B0F5805F4FF000024FF0800123
:100FB0002046009703D000F069FAE8B90DE000F090
:100FC00065FAC8B928882168C0F30800486020691C
:100FD00008B16D1C05E0AD1C03E0216815F8010B9C
:100FE0004860E08C0028D8D14B46002240212046A2
:100FF000009700F04BFA08B10320CCE7202084F8DA
:1010000039000020C7E70220C5E7FEE710B5174BFF
:101010009AB015AC0FCB84E80F00002115A800F0A2
:1010200032FB134C11491C22E06010316846FFF777
:101030006AF90021684600F039FB0C4920601C2247
:101040002C3107A8FFF75FF9002107A800F02EFB5D
:10105000064960601C2248310EA8FFF754F90021B0
:101060000EA800F023FBA0601AB010BD582800089D
:101070000000002030B587B014216846FFF75CF906
:1010800019480024016841F001010160016801F084
:1010900001010591016841F008010160016801F05A
:1010A00008010591016841F080010160016801F0CB
:1010B00080010591016841F04001016000680B4D1D
:1010C00000F04000059001221E212846FFF76CFA2F
:1010D0001E2000900120CDE90104694628460394B2
:1010E000FFF778F907B030BD3038024000180240F1
:1010F0000C4810B50A4901604FF4E131416000210C
:1011000081600C22C160C0E904128161C161FFF7F6
:10111000BAFE002803D0BDE81040FFF759B910BD52
:1011200000440040F0020020FEE77047B2B0DFF854
:1011300070801C4F08F110064FF0FF3906F10805CA
:101140004A4669464446D8F80C0001F0FDF80128EB
:10115000F6D1318800223846FFF726FA6422694624
:10116000E06801F0F1F80028F8D169460EA000F01F
:10117000C1F90024684655F82410FFF7E8F850B983
:1011800036F8141000223846FFF70EFA55F82410EE
:1011900009A000F0AFF9641C042CEBDBD0E70000E1
:1011A0000000002000180240726563656976653AA8
:1011B000202573200A000000436D642069732025F8
:1011C00073200A0010B5502080F31188BFF34F8FB1
:1011D000BFF36F8F01F0F4F918B104494FF080505C
:1011E0000860002080F3118810BD000004ED00E0CD
:1011F00030B593B030216846FFF79EF814210CA853
:10120000FFF79AF819480025016841F08051016004
:10121000006800F0805011901548016821F44041A9
:1012200041F4804101600068022400F440401190C4
:1012300001200090000401908001CDE906401920B2
:1012400008909020CDE9090404200B906846FFF730
:101250007BFB0CA90F2081E83100E002CDE90F05EE
:1012600002210CA8FFF764FA13B030BD40380240E9
:10127000007000400548016841F4700101600349B5
:101280004FF00060803908607047000088ED00E092
:101290000148FFF737BD000030030020F0B50268B9
:1012A000254C264D264E274F274B4FF0804CA04211
:1012B00009D0604507D0A84205D0B04203D0B8425B
:1012C00001D0984204D122F0700E4A6842EA0E0220
:1012D000A0421BD0604519D0A84217D0B04215D00B
:1012E000B84213D0984211D0184DA8420ED0184DD4
:1012F000A8420BD0174DA84208D0174DA84205D0E0
:10130000164DA84202D0164DA84203D122F44075D2
:10131000CA682A434D6922F080022A4302608A6823
:10132000C2620A688262A04201D0984201D1096972
:10133000016301214161F0BD000001400004004053
:1013400000080040000C0040000401400040014043
:10135000004401400048014000180040001C0040CB
:10136000002000402DE9F041044600680169E26870
:1013700021F44051114301612169A068E2690843E9
:101380006169114308432168CA6849F20C639A43B2
:101390000243CA6020684169A26921F44071114387
:1013A0004161E069192764253226B0F5004F354ABE
:1013B000354920684FF0000806D0884201D090429D
:1013C00036D1FFF77FFA35E0884201D0904202D152
:1013D000FFF778FA01E0FFF765FA61684A18A0FBA9
:1013E000070148EB0803FEF75DFF0146B0FBF5F08F
:1013F0000201B1FBF5F06FF01803584301EB8000D8
:1014000006EBC000B0FBF5F000F0F80002EB400284
:10141000B1FBF5F0584301EB800006EBC000B0FBD8
:10142000F5F000F00700216810448860BDE8F08105
:10143000FFF738FA61688B0F8A00A0FB0701FEF7FF
:1014400031FF0146B0FBF5F06FF01802504301EB9D
:10145000800006EB0010B0FBF5F000F0F002B1FBED
:10146000F5F002EB0012B1FBF5F06FF018035843F2
:1014700001EB800006EB0010B0FBF5F000F00F0070
:10148000D1E7000000140140001001402DE9F041B7
:10149000984617460E460446069D1DE0681C1BD064
:1014A0002DB1FFF787F8A0EB0800A84214D92068F7
:1014B000C16821F4D071C1602068416921F0010147
:1014C0004161202084F8390084F83A00002084F833
:1014D00038000320BDE8F0812068006836EA00008B
:1014E00004D00020B842D9D00020F3E70120F9E76A
:1014F000FEE700000FB4054B10B503A9044A02989B
:1015000000F027F810BC5DF814FB00002916000855
:10151000980000200907090E002804DB00F1E020F4
:1015200080F80014704700F00F0000F1E02080F810
:10153000141D704702E008C8121F08C1002AFAD122
:1015400070477047002001E001C1121F002AFBD143
:1015500070472DE9F84F9946924688460546002780
:1015600006E025280AD051464A4690476D1C7F1C4C
:1015700028780028F5D13846BDE8F88F002315F803
:10158000011F18462E2915D115F8011F04232A29F9
:101590000DD06FF02F022978A1F13004092C09D861
:1015A00000EB800002EB400008446D1CF3E758F8A4
:1015B000040B6D1C2A78002ADDD0632A07D0732A19
:1015C0000FD0104651464A4690477F1C2AE018F833
:1015D000042B8DF8002000218DF801106E460121AA
:1015E00003E058F8046B4FF0FF315A074FF0000446
:1015F00001D409E0641C84420BDA8C42FADB325DD0
:10160000002AF7D105E0641C8C42FCDB305D002829
:10161000F9D1274404E016F8010B51464A46904799
:10162000641EF8D26D1CA3E713B54FF6FF730122B9
:1016300069460248FFF78CFC00981CBDF0020020B0
:10164000FEF7C6FFFFF7D4FDFFF714FDFFF750FDCF
:10165000FFF7DCFC00F012F8FEE7014600208429C9
:1016600000D0C81C7047012000F001F8FBE710B55E
:1016700000B9012000F0EAFB002010BD10B500F019
:1016800031FC002010BD38B5D0E9011204683AB130
:10169000C3682BB100200090204600F02DFD38BD1E
:1016A0002046BDE83840002200F002BD7FB50D465F
:1016B00004464169B0F9080081B1A16971B1FFF731
:1016C000CCFFD4E905128DE80700D4E900102B46C1
:1016D000226900F03CFF039004B070BDFFF7BDFF2E
:1016E00003A9CDE90001208A2B4682B2D4E900107B
:1016F00000F000FF012801D00020EDE70398EBE7A0
:101700002DE9F041184C0F46054666692068001D1A
:1017100000F0D8FA38B9206890F82C1001208840E1
:10172000A1698143A161681C07D137B12168BDE877
:10173000F0410E48091D00F009BB20683544B54250
:101740004560216805D2A068BDE8F041091D00F0A0
:10175000E5BA6068091D00F0E1FA206B854200D20D
:101760002563BDE8F0810000380000204C04002013
:101770002DE9F041054600F0F5FA2E4C2069401C99
:10178000206120682C4F10B1E06940B32DE0256046
:101790002069012829D1002606EB860007EB80008E
:1017A00000F0AEFA761C072EF6D323488C3000F0FA
:1017B000A7FA2148A03000F0A3FA1F48B43000F087
:1017C0009FFA1D48C83000F09BFA1B48DC3000F03F
:1017D00097FA19488C3060601430A06005E02068EA
:1017E000E96AC06A884200D82560E06A401CE0626D
:1017F000E96A0120A26988401043A06101EB8100E1
:1018000007EB8000291D00F0A1FA00F0CBFAE06997
:1018100000280CD02068E96AC06A884207D20749CC
:101820004FF080500860BFF34F8FBFF36F8FBDE85C
:10183000F0810000380000207003002004ED00E07B
:1018400030B4026C0B46002A0BD0C1681144C16051
:101850004468A14201D30168C16030BC1846FEF75C
:1018600052BD30BC70472DE9F041856B17460446E8
:101870000026026C82B1C7B1E068FEF744FDE16862
:10188000206C091AE1602268914202D26168081A4C
:10189000E060022F16D017E02068A8B9606800F059
:1018A000F3FE0646002060600EE0A068FEF72BFD08
:1018B000216CA0680844A0606168884204D3206855
:1018C000A06001E005B16D1E6D1CA5633046BDE84A
:1018D000F08110B5044690F8510058B101280CD0A1
:1018E00002280FD0502080F31188BFF34F8FBFF331
:1018F0006F8FFEE7206B00F069FA2046BDE81040CC
:1019000000F064BA10BD000010484FF47051420757
:1019100006D0C01D0D4920F00700411AC1F57051D5
:101920000B4A00230144C2E900030839103A21F0B0
:10193000070111604B600B600B1AC0E90013936044
:101940004FF000405360D0607047000060040020FA
:1019500084000020144E154CA6F1C8074FF08058A3
:10196000DFF84C9012E000BF00F0FCF9F068C568A9
:10197000281D00F0A7F92069401E2061E068401E84
:10198000E06000F00FFA2846FFF7A3FFE0680028A8
:10199000EAD138680128F9D9C9F80080BFF34F8F20
:1019A000BFF36F8FF2E700003804002038000020FA
:1019B00004ED00E00346009829B10260C0E90F3150
:1019C000012100F0CDBB0060F8E72DE9F0479A4611
:1019D000DDE9098481466FF00303206B03EB82028B
:1019E0001044089D20F00706700707D0502080F3B0
:1019F0001188BFF34F8FBFF36F8FFEE723180A5C88
:101A000083F834200A5C12B1401C1028F6D300275A
:101A100084F84370072D00D30625E562C4E9115709
:101A2000201D00F078F904F1180000F074F9246129
:101A3000C5F107006462A061E76484F85070524603
:101A40004946304600F002F92060B8F1000F01D09D
:101A5000C8F80040BDE8F08730B5114900E01146F4
:101A60000A688242FBD34B685C18844203D1406809
:101A700018444860084643681C18944209D1084C31
:101A8000103C2468A24209D052681A4442600A6895
:101A900012680260814200D0086030BD0460F9E73E
:101AA0008400002010B5044600F05CF9A06B28B15A
:101AB0005FF0000400F076F9204610BD0124F9E73C
:101AC00006484168096829B14168C968C968496818
:101AD000016370474FF0FF31FAE700003800002043
:101AE00008484068401C4FF0500080F3118804D033
:101AF000BFF34F8FBFF36F8FFEE7BFF34F8FBFF37F
:101B00006F8FFEE78C0000202DE9F041044600F0C5
:101B100029F994F9455004F1240609E0606A48B1B6
:101B2000304600F0FDFD08B100F0BEF96D1E6DB24B
:101B3000002DF3DC4FF0FF3684F8456000F032F9F9
:101B400000F010F994F9445004F1100709E02069FD
:101B500048B1384600F0E4FD08B100F0A5F96D1E6B
:101B60006DB2002DF3DC84F84460BDE8F04100F074
:101B700019B900002DE9F0410546002700F0E8F909
:101B8000314E306808B9FFF7BFFEF06805424BD10F
:101B9000C5B3083568070ED005F00700C0F108008E
:101BA0000544680707D0502080F31188BFF34F8F9A
:101BB000BFF36F8FFEE72DB37068854234D822489B
:101BC000103001460C6801E020460C466168A942CD
:101BD00002D221680029F7D131688C4224D00768ED
:101BE0002168016060680837411B10290FD960190E
:101BF000420708D0502080F31188BFF34F8FBFF306
:101C00006F8FFEE710E041606560FFF725FF6168B8
:101C10007068401A7060B268904200D2B060F0689C
:101C200001430020C4E9000100F0B4FD780707D0AB
:101C3000502080F31188BFF34F8FBFF36F8FFEE703
:101C40003846BDE8F08100007400002010B5031F85
:101C50004FF080741C601B1F21F001011960191FD7
:101C6000044B0B6014390A60091F6FF002024438FC
:101C70000A6010BDE11A00080EB50BA20D4C07CA90
:101C80008DE807004FF4FA7500231A466946E068AC
:101C900000F0AAFA012803D1694607A0FFF72AFC41
:101CA0002846FFF7E4FCEFE76F70656E6C65643201
:101CB000200A00000000002073656E643A2025733E
:101CC000200A0000D0E9013201699A60D0E90123BD
:101CD0005A604A68824201D182684A6000220261E9
:101CE0000868401E0860086870470000034B0360E6
:101CF00003F1540008608020106070479C000020B1
:101D000000F108014FF0FF32C0E90112C16001612A
:101D100000210160704700210161704730B50B68F8
:101D20005A1C02D000F1080202E0026904E02246D7
:101D3000546825689D42FAD953684B6099608A605F
:101D4000516008610168491C016030BD42684A6009
:101D500093688B6093685960916008610168491CC1
:101D600001607047502080F31188BFF34F8FBFF39D
:101D70006F8F0A494868401C486001280CD1084808
:101D8000006810F0FF0F07D0502080F31188BFF3D8
:101D90004F8FBFF36F8FFEE7704700008C0000206D
:101DA00004ED00E00849486828B1401E486001D1B0
:101DB00080F311887047502080F31188BFF34F8F54
:101DC000BFF36F8FFEE700008C00002070B5002885
:101DD00027D0144DA0F108046168E868014207D1DA
:101DE000502080F31188BFF34F8FBFF36F8FFEE752
:101DF00022683AB1502080F31188BFF34F8FBFF3B0
:101E00006F8FFEE78143616000F0A2F86068696847
:101E1000084468602046FFF71FFEBDE8704000F0F0
:101E2000B9BC70BD740000204FF0E02000210161BA
:101E3000816105494FF47A720968B1FBF2F1491EDC
:101E400041610721016170473400002010B5020094
:101E500014D00F48806B38B1502080F31188BFF345
:101E60004F8FBFF36F8FFEE700F072F8002110462E
:101E7000FFF746FC00F08EFC002807D105494FF023
:101E800080500860BFF34F8FBFF36F8F10BD00000D
:101E90003800002004ED00E002498A6A02604969C6
:101EA00041607047380000200149012048627047B6
:101EB0003800002010B50C4650B1094909681831A6
:101EC000FFF72CFF2046BDE810400121FFF718BCAA
:101ED000502080F31188BFF34F8FBFF36F8FFEE761
:101EE0003800002010B586B00024039405AA04A988
:101EF00003A80494FFF7FAFEDDE903010094CDE99D
:101F0000011000230EA11048059A00F020FB0F4994
:101F10000028486311D0502080F31188BFF34F8F01
:101F2000BFF36F8F4FF0FF3008630120C8614C6131
:101F300006B0BDE8104000F041B806B010BD00008A
:101F400049444C45000000005519000838000020A5
:101F50000248816B491C81637047000038000020F3
:101F60001448816B11B10121416270470021416227
:101F70008169B1FA81F1C1F11F0101EB81020E49C2
:101F800051F822306BB101EB820101F108034A687C
:101F900052684A609A4201D152684A60D168016031
:101FA0007047502080F31188BFF34F8FBFF36F8FBE
:101FB000FEE7000038000020700300201CB5374801
:101FC0000168374A914207D1502080F31188BFF34E
:101FD0004F8FBFF36F8FFEE700683149491E88427B
:101FE00007D1502080F31188BFF34F8FBFF36F8F5D
:101FF000FEE72C4908780190FF20087008788DF8DA
:1020000000009DF800009DF8002000F0F0009042D4
:1020100007D0502080F31188BFF34F8FBFF36F8F2D
:10202000FEE79DF80000204B00F0500018700720DC
:10203000986005E09DF8002052008DF80020401EB9
:102040009DF800201206F5D49860032807D0502090
:1020500080F31188BFF34F8FBFF36F8FFEE74FF40C
:1020600040709860019808700C482030016841F475
:1020700070010160016841F070410160FFF7D4FE1A
:1020800000205860FEF7C0F80848016841F0404160
:102090000160FEF7A5F800201CBD000000ED00E087
:1020A00071C20F4100E400E08C00002034EF00E03A
:1020B000F8B517460E46050014D0DEB105FB06F054
:1020C0004830FFF757FD04000AD0002084F846008E
:1020D00004F148023B46314628460094FFF76AFC6B
:1020E0002046F8BD502080F31188BFF34F8FBFF317
:1020F0006F8FFEE70020E3E738B5049D18B153B1B8
:10210000CAB181B120E0502080F31188BFF34F8F16
:10211000BFF36F8FFEE7502080F31188BFF34F8F1E
:10212000BFF36F8FFEE7502080F31188BFF34F8F0E
:10213000BFF36F8FFEE739B1502080F31188BFF3F2
:102140004F8FBFF36F8FFEE748241C46012384F8AE
:1021500046302B460094FFF72DFC204638BD00008A
:1021600070B50D46040025D0FFF7FCFDD4E90F2023
:10217000216802FB001161600021A1632168A16058
:102180000A46D4E90F01401E00FB0121E16021460F
:102190004FF0FF3001F8440F487004F110008DB18A
:1021A000FFF7AEFD04F12400FFF7AAFDFFF7FAFDEB
:1021B000012070BD502080F31188BFF34F8FBFF313
:1021C0006F8FFEE721690029F0D000F0A9FA0028FE
:1021D000ECD004494FF080500860BFF34F8FBFF33D
:1021E0006F8FE3E704ED00E02DE9FF4782B01D4665
:1021F0008A464FF00008040003D0BAF1000F08D05F
:1022000011E0502080F31188BFF34F8FBFF36F8F21
:10221000FEE7206C38B1502080F31188BFF34F8F58
:10222000BFF36F8FFEE7022D0AD1E06B012807D0C4
:10223000502080F31188BFF34F8FBFF36F8FFEE7FD
:1022400000F0B0F93F4F4FF000094FF0805648B909
:10225000049838B1502080F31188BFF34F8FBFF33B
:102260006F8FFEE7FFF77EFDA06BE16B884207D31F
:10227000022D05D00498D0B1B8F1000F1AD01EE09D
:102280002A4651462046FFF7EEFA616A19B104F179
:10229000240000F045FA20B13E60BFF34F8FBFF33A
:1022A0006F8FFFF77FFD012006B0BDE8F087FFF7D5
:1022B00079FD22E06846FFF7EFFD4FF00108FFF7D8
:1022C00071FDFFF745FEFFF74DFD94F94400401CFA
:1022D00001D184F8449094F94500401C01D184F860
:1022E0004590FFF75FFD04A9684600F0C9F830B1DA
:1022F0002046FFF709FC00F04DFA0020D4E7FFF775
:1023000031FDA06BE16B884213D1FFF74BFD04F167
:1023100010000499FFF7CEFD2046FFF7F5FB00F013
:1023200039FA00289ED13E60BFF34F8FBFF36F8F05
:1023300098E7FFF737FD2046FFF7E6FB00F02AFAA3
:1023400090E7000004ED00E02DE9F747002683B098
:102350008A46040003D0BAF1000F08D011E05020E3
:1023600080F31188BFF34F8FBFF36F8FFEE7206CB0
:1023700038B1502080F31188BFF34F8FBFF36F8FB8
:10238000FEE700F00FF9DFF8F4804FF000094FF09E
:10239000805748B9059838B1502080F31188BFF3B1
:1023A0004F8FBFF36F8FFEE7FFF7DCFCA56BC5B166
:1023B00051462046FFF744FA6D1EA563206950B1CF
:1023C00004F1100000F0ACF928B1C8F80070BFF3B8
:1023D0004F8FBFF36F8FFFF7E5FC012006B0BDE81C
:1023E000F087059808B11EB106E0FFF7DBFC27E097
:1023F0006846FFF751FD0126FFF7D4FCFFF7A8FD63
:10240000FFF7B0FC94F94400401C01D184F84490DB
:1024100094F94500401C01D184F84590FFF7C2FCB7
:1024200005A9684600F02CF8002820460AD0FFF7DE
:102430006BFB00F0AFF92046FFF734FB0028B3D068
:102440000020CBE7FFF72EFB90B104F124000599A3
:10245000FFF730FD2046FFF757FB00F09BF90028FF
:10246000A2D1C8F80070BFF34F8FBFF36F8F9BE707
:102470002046FFF749FB00F08DF995E704ED00E0F9
:102480002DE9F0410C46050011D0C4B1FFF76AFCFC
:10249000174B5A696E682068911B471C17D02F682C
:1024A0009B6A9F4219D0964217D8012410E0502011
:1024B00080F31188BFF34F8FBFF36F8FFEE750207B
:1024C00080F31188BFF34F8FBFF36F8FFEE70024B7
:1024D000FFF768FC2046BDE8F081884205D9401A24
:1024E00020602846FFF7D8FCF1E700202060DCE7F9
:1024F000380000202DE9FF5F8346DDE90E8799460D
:1025000016468A469000FFF735FB05001CD0542084
:10251000FFF730FB040014D00020256384F851003D
:10252000CDE90240CDE900874B4632465146584638
:10253000FFF74BFA2046FFF71BF9012004B0BDE876
:10254000F09F2846FFF742FC4FF0FF30F6E7F0B56A
:1025500085B0DDE90B640A9DA6B1DCB15427009774
:102560002663022684F85160002604AFCDE90246B6
:10257000CDE90057FFF729FA2046FFF7F9F804984C
:1025800005B0F0BD502080F31188BFF34F8FBFF32B
:102590006F8FFEE7502080F31188BFF34F8FBFF39A
:1025A0006F8FFEE70548C16919B1806B18B1002033
:1025B000704701207047022070470000380000205B
:1025C0002DE9F0412E4C0027A06B40B1206A401C41
:1025D0002062606A00B101273846BDE8F081666973
:1025E000761C666113D16068006838B1502080F3B2
:1025F0001188BFF34F8FBFF36F8FFEE76068A1684C
:102600006160A060A06A401CA062FFF759FA206BCD
:10261000DFF87080864209D36068006880B1606826
:10262000C068C568686886420DD220632068C06AA9
:1026300000EB800158F821000128CAD90127C8E71A
:102640004FF0FF30F1E7281DFFF73CFBA86A18B1F7
:1026500005F11800FFF736FBE86A0121A269814005
:102660001143A16100EB800108EB8100291DFFF7F8
:102670006DFBE86A2168C96A8842CDD30127CBE7A0
:10268000380000207003002070B504004FF00001F6
:1026900040D0214D2868844207D0502080F3118813
:1026A000BFF34F8FBFF36F8FFEE7A06C38B1401EB2
:1026B000A064636CE26A9A422CD040B12AE05020B8
:1026C00080F31188BFF34F8FBFF36F8FFEE7201D9C
:1026D000FFF7F8FA114A012150B9E06A00EB8003D4
:1026E00052F8233023B9AB6901FA00F08343AB61A0
:1026F000606CE062C0F10700A061E06AAB698140F4
:102700001943A96100EB800002EB8000211DFFF757
:102710001DFB0121084670BD380000207003002019
:102720002DE9F041C068C468ACB104F11800074657
:10273000FFF7C8FA154DA86B0126A0B13946144819
:10274000FFF704FBE06A2968C96A88421CD90120A6
:102750006E62BDE8F081502080F31188BFF34F8F87
:10276000BFF36F8FFEE7201DFFF7ACFAE16AAA699D
:1027700006FA01F01043A86101EB81000449B43965
:1027800001EB8000211DDBE70020E2E7380000209C
:10279000240400202DE9F0472C4D00242746A86B87
:1027A00038B1FFF7DFFAA86B401EA863A86B40B1F1
:1027B00046E0502080F31188BFF34F8FBFF36F8F37
:1027C000FEE72969224E0120D1B3A6F1B409804663
:1027D0003068E8B1F068C46804F11800FFF772FAD5
:1027E000201DFFF76FFAE06AAA6908FA00F11143A9
:1027F000A96100EB800109EB8100211DFFF7A6FA1A
:10280000E06A2968C96A8842E2D3C5F82480DFE714
:102810000CB1FFF755F92C6A44B14646FFF7D0FEDC
:1028200000B16E62641EF9D100202862686A38B176
:102830000849012738070860BFF34F8FBFF36F8F38
:10284000FFF7B0FA3846BDE8F087000038000020F6
:102850002404002004ED00E0050000000800000052
:1028600000000000000000001C290008791C00087E
:1028700000000000000000008000000000000000D8
:1028800000000000102900082D11000801000000C0
:1028900000000000800000000000000000000000B8
:1028A000EC28000867160008FDFF0000000000008B
:1028B0008000000000000000000000000000000098
:1028C00000000000010203040607080900000000E0
:1028D000010203046F70656E6C65643100000000D6
:1028E0006F70656E6C656432000000006D79546134
:1028F000736B3033000000006F70656E6C6564337D
:10290000000000006F70656E6C65643400000000AC
:10291000526563656976655461736B007472616EAC
:10292000736D69745461736B000000004C290008DA
:10293000000000209C00000034150008E829000871
:102940009C000020C4430000441500080000000063
:102950000000000000000000000000000200040071
:1029600008001000D4280008E0280008F828000813
:102970000429000801000000100000000000000011
:102980000024F4000000000000000000000000002F
:102990000000000000000000000000000000000037
:1029A0000000000000000000000000000000000027
:1029B0000000000000000000000000000000000017
:1029C0000000000000000000000000000000000007
:1029D000000000000000000000000000AAAAAAAA4F
:0829E0000000000000000000EF
:04000005080001AD41
:00000001FF
