:020000040800F2
:10000000F8450020810200085F210008711B0008EC
:100010004D210008B9030008652700080000000012
:10002000000000000000000000000000C101000806
:1000300065040008000000001D0200086921000896
:100040009B0200089B0200089B0200089B0200081C
:100050009B0200089B0200089B0200089B0200080C
:100060009B0200089B0200089B0200089B020008FC
:100070009B0200089B0200089B0200089B020008EC
:100080009B0200089B0200089B020008C9030008AD
:10009000BD0300089B0200089B0200089B020008A9
:1000A0009B0200089B0200089B0200089B020008BC
:1000B0009B0200089B0200089B0200089B020008AC
:1000C0009B0200089B0200089B0200089B0200089C
:1000D0009B0200084D270008592700089B020008D2
:1000E0009B0200089B0200089B0200089B0200087C
:1000F0009B0200089B0200089B0200089B0200086C
:100100009B0200089B0200089B0200089B0200085B
:100110009B0200089B020008352200089B02000891
:100120009B0200089B020008DD0300089B020008F8
:100130009B0200089B0200089B0200089B0200082B
:100140009B0200089B0200089B0200089B0200081B
:100150009B0200089B0200089B0200089B0200080B
:100160009B0200089B0200089B0200089B020008FB
:100170009B0200089B0200089B0200080000000090
:100180009B0200089B0200089B0200089B020008DB
:100190009B0200089B0200089B0200089B020008CB
:1001A00000000000000000009B020008DFF80CD0F7
:1001B00000F0ECF800480047A5270008F8450020AB
:1001C0002C4B19680868B0E8F04F80F30988BFF33A
:1001D0006F8F4FF0000080F311887047000000001F
:1001E00008480068006880F308884FF0000080F33A
:1001F000148862B661B6BFF34F8FBFF36F8F00DF15
:1002000000BF00BF08ED00E0DFF80C00016841F41A
:1002100070010160704700BF88ED00E0EFF30980D6
:10022000BFF36F8F134B1A681EF0100F08BF20ED3D
:10023000108A20E9F04F106009B44FF0500080F3AD
:100240001188BFF34F8FBFF36F8F02F067FE4FF03F
:10025000000080F3118809BC19680868B0E8F04F05
:100260001EF0100F08BFB0EC108A80F30988BFF3AE
:100270006F8F704788000020EFF305807047000003
:100280000648804706480047FEE7FEE7FEE7FEE730
:10029000FEE7FEE7FEE7FEE7FEE7FEE719220008BD
:1002A000AD0100082DE9F05F0546002092469B460F
:1002B00088460646814640241BE02846414647467C
:1002C000224600F053F853465A46C01A914110D3C3
:1002D00011461846224600F03AF82D1A67EB01083D
:1002E0004F4622460120002100F031F817EB0009AB
:1002F0004E41201EA4F10104DFDC484631462A4667
:100300004346BDE8F09F40EA01039B0703D009E0A4
:1003100008C9121F08C0042AFAD203E011F8013BF1
:1003200000F8013B521EF9D27047D2B201E000F84A
:10033000012B491EFBD270470022F6E710B5134689
:100340000A4604461946FFF7F0FF204610BD202A52
:1003500004DB203A00FA02F1002070479140C2F11C
:10036000200320FA03F3194390407047202A04DB4E
:10037000203A21FA02F00021704721FA02F3D0401E
:10038000C2F120029140084319467047064C074DC0
:1003900006E0E06840F0010394E807009847103455
:1003A000AC42F6D3FFF706FF0437000824370008F5
:1003B000012002F014FAFBE7FEE70000014800F01C
:1003C00054B80000E8000020014800F04EB80000DA
:1003D000E8000020012002F002FAFBE7014800F0EB
:1003E00031BA00006404002001681823CAB2103A30
:1003F000B2FBF3F2054B6FF30901032A9B5CC36563
:1004000000D9091D81650846704700009436000830
:1004100010B5014600208B698A6A4FF0C07453B151
:10042000B3F5005F15D072B1012A0CD0022A0AD0B0
:10043000032A09D104E01AB1012A06D0022A03D105
:10044000C96AC90100D5012010BDC96AA142FAD00C
:1004500010BD002AF7D0012AF2D0022AF3D0032AD5
:10046000F3D010BD7047704770472DE9F05F054627
:10047000006800244669D0F804908768D0F80CB072
:10048000D0F810A0D0F81880F10748D0F90714D0A0
:1004900001218160B80703D5284600F0BBF90CE0C4
:1004A000780702D54FF4006407E0380702D54FF40F
:1004B000805402E0284600F0ACF9F80516D529680A
:1004C0004FF480708860B80503D5284600F0A4F981
:1004D0000CE0780502D544F4005407E0380502D555
:1004E00044F4804402E0284600F095F9F80316D55C
:1004F00029684FF480308860B80303D5284600F09F
:100500008DF90CE0780302D544F4004407E0380389
:1005100002D544F4803402E0284600F07EF930072A
:1005200007D55FEACB6004D52968102044F4007435
:10053000C86070074FF0080707D55FEA0B7004D555
:100540002868C760284600F05FF9B00706D528681C
:10055000C068800702D0284600F057F9700607D51A
:100560005FEACA6004D52968102044F480640861F9
:10057000B00607D55FEA0A7004D5286807612846E7
:1005800000F044F9F00606D528680069800702D01B
:10059000284600F03CF9B00308D55FEAC96005D5EC
:1005A000296810204860284600F032F9F00307D58A
:1005B0005FEA097004D528684760284600F02FF9E3
:1005C000300446D55FEA497040D5F00504D55FEAAE
:1005D000C87001D044F00104B00504D55FEA88700A
:1005E00001D544F00204700504D55FEA487001D5D6
:1005F00044F00404300529D518F0700F26D008F017
:100600007000402815D006DC102809D020280AD018
:10061000302816D10AE050280ED0602811D10EE003
:1006200044F008040DE044F010040AE044F0200413
:1006300007E044F0400404E044F0800401E044F4A6
:1006400080742868816921F0700181612968042023
:100650004860002C05D0686A204368622846FFF78E
:1006600003FFBDE8F09F70B5040003D094F82000AC
:1006700010B104E0012070BD204600F081F8206830
:10068000016821F00201016000F000FB054605262B
:1006900004E000F0FBFA401B0A2811D820684068EB
:1006A0008007F6D42068016841F00101016000F084
:1006B000EDFA05460BE000F0E9FA401B0A2806D9DE
:1006C000606A40F40030606284F82060D2E72068FD
:1006D0004068C007EFD0207E0128206801683DD027
:1006E00021F080010160607E01282068016838D017
:1006F00021F040010160A07E01282068016833D00C
:1007000021F020010160E07E0128206801682ED0E0
:1007100041F010010160207F01282068016829D084
:1007200021F008010160607F01282068016824D061
:1007300021F004010160D4E902010843D4E9041264
:10074000114308436168491E08432168C8610020BD
:100750006062012084F82000002070BD41F080011B
:10076000C0E741F04001C5E741F02001CAE721F0B0
:100770001001CFE741F00801D4E741F00401D9E7C7
:1007800010B586B0044614216846FFF7D5FD1B4915
:10079000206888422FD11A480021026842F0007276
:1007A0000260006800F0007005901548103802687B
:1007B00042F0080202600068022200F00800059082
:1007C0000320CDE90210CDE900020920049069461A
:1007D0000C4800F071F900220521132000F0E2FA24
:1007E000132000F0D1FA00220521142000F0DAFADB
:1007F000142000F0C9FA06B010BD000000640040EB
:1008000040380240000C0240704770477047704704
:100810007047704770477047704770477047704720
:1008200090F83510022903D08021416501207047DE
:10083000052180F835100068016821F00101016090
:10084000002070472DE9F84304464FF00009CDF829
:10085000009063484FF41651A56D0068B0FBF1F7A6
:100860002E6894F85C10082000FA01F131420FD094
:1008700021680A6852070BD50A6822F004020A6050
:1008800094F85C108840A860606D40F001006065DD
:1008900094F85C104FF0010808FA01F0304208D0DB
:1008A00021684969090604D5A860606D40F002001E
:1008B000606594F85C1004208840304208D02168BC
:1008C0000968890704D5A860606D40F00400606580
:1008D00094F85C1010208840304218D021680968D4
:1008E000090714D5A86020680168490304D5006889
:1008F000000308D5A16C07E00168C90503D40168AD
:1009000021F008010160216C09B12046884794F864
:100910005C1020208840304231D021680968C90627
:100920002DD5A86094F8350005282068016806D008
:10093000490347D5006800031DD4616C1CE021F019
:10094000160101602068416921F080014161206C3D
:1009500008B9A06C20B12068016821F0080101608D
:1009600094F85C103F208840A86084F8349084F8A4
:100970003580216D1FE0E16B09B120468847606D2D
:1009800000282BD0606DC00714D0052084F83500F6
:100990002068016821F0010101600098401C00906E
:1009A000B84203D820680068C007F6D184F83490B4
:1009B00084F83580E16C002910D001B02046BDE8F4
:1009C000F04308470168C905D5D4016821F010013A
:1009D000016084F8349084F83580CCE7BDE8F88372
:1009E000840000202DE9F041044600F04FF906464E
:1009F0005CB1002584F83450022084F8350020686A
:100A0000016821F0010101600DE00120BDE8F081E5
:100A100000F03CF9801B052805D9202060650320E3
:100A200084F83500F2E720680068C007F0D122683A
:100A3000116820480140D4E901031843D4E9033682
:100A40003343184363691843A3691843E3691843A0
:100A5000236A18430843616A042903D1D4E90B13BC
:100A600019430843106020684069666A20F0070156
:100A700030460E43012704280CD1A06A0643E06AE1
:100A800040B12046FFF7C4FC20B14020606584F8E7
:100A90003570BAE7206846612046FFF7A5FC94F858
:100AA0005C203F2191408160656584F835700020AD
:100AB000ACE700003F8010F02DE9F84F00224FF026
:100AC000010803254FF00F0E0B6808FA02F42340CB
:100AD000A3426ED14E68012E05D0022E03D0112EF6
:100AE00001D0122E12D186684FEA420C05FA0CF79B
:100AF000BE43CF6807FA0CF7374387604668A643C2
:100B00000C79C4F30014944034434460C668570021
:100B100005FA07FC8C6826EA0C06BC403443C46026
:100B20004C68022C01D0122C13D1D40800EB8404A1
:100B3000A346D4F8209054074FEAD46A0EFA0AF676
:100B400029EA06090E6906FA0AF646EA0906CBF80A
:100B5000206004680E7924EA0C0406F00306BE4007
:100B6000264306604C68E4006FD53B4C266846F48B
:100B700080462660246822F0030604F48044009432
:100B8000364C3444A446D4F808489607360F0EFA7B
:100B900006F7BC43324FB84201D100272EE0314F57
:100BA000B84201D1012729E02F4FB84202D10227D4
:100BB00024E04AE02D4FB84201D103271EE02C4F1C
:100BC000B84201D1042719E02A4FB84201D10527C4
:100BD00014E0294FB84201D106270FE0274FB84251
:100BE00001D107270AE0264FB84201D1082705E0C6
:100BF000244FB84201D1092700E00A27B740274314
:100C0000CCF80878204E34684F689C43FF0300D529
:100C10001C4334601C4E361D34684F689C43BF0330
:100C200000D51C433460184E083634684F689C4326
:100C3000FF0200D51C433460134E0C3634684F68F5
:100C40009C43BF0200D51C433460521C102AFFF4A1
:100C50003BAFBDE8F88F000044380240003001404F
:100C6000000002400004024000080240000C024064
:100C7000001002400014024000180240001C024014
:100C80000020024000240240003C014001488068EE
:100C90007047000078000020024881680278114403
:100CA00081607047780000200B4810B5016841F45E
:100CB00000710160016841F480610160016841F4E4
:100CC00080710160032000F08DF8002000F006F82C
:100CD00000F03EF8002010BD003C024010B5014677
:100CE00088B00022362000F05DF8362000F04CF885
:100CF00013480024016841F010010160006805A953
:100D000000F010000690684600F018F900F036F97F
:100D10000C494000B0FBF1F10C480B4A491E02603F
:100D200040F2E732C0E90324C0E9011400F09AFB65
:100D300010B1012008B010BD044800F0C1FBF9E774
:100D40004038024040420F0000100040C404002020
:100D50000C4882B0016841F480410160006800F4F1
:100D6000804000900748001F016841F080510160F9
:100D70000068002200F0805000900F21901E02B009
:100D800000F010B844380240002809DB00F01F02D0
:100D9000012191404009800000F1E020C0F80011DD
:100DA00070470000F0B40E4B1B680C46C3F30223DF
:100DB000C3F10705042D00D90425191D072901D207
:100DC000002300E0DB1E012606FA05F1491E214042
:100DD00099409E40761E16403143F0BC01F0C3BCE2
:100DE0000CED00E0064900F0070208684FF6FF032B
:100DF000184040EA0220034A104308607047000090
:100E00000CED00E00000FA052DE9F0470E46050064
:100E100065D0DFF81481D8F80000F7B200F00F00B9
:100E2000B04207D288F80070D8F8000000F00F0038
:100E3000B04254D128683D4C810712D5400703D5F4
:100E4000206840F4E05020602878000703D520682F
:100E500040F4604020602068A96820F0F00008435A
:100E600020602878C0072DD03049686808390128EB
:100E700012D0022813D0032811D00968890700294D
:100E80002DDA216821F0030101432160FFF7FEFE06
:100E9000814641F2883A0EE009688903EFE7096864
:100EA0008901ECE7FFF7F2FEA0EB0901514502D9F9
:100EB0000320BDE8F0872068696800F00C00B0EB03
:100EC000810FEFD1D8F80010404601F00F01B14278
:100ED00007D90770006800F00F00B04201D0012070
:100EE000E7E72878400705D52068E96820F4E05056
:100EF000084320602878000706D52068296920F477
:100F0000604040EAC100206000F058F82168084ABB
:100F1000C1F30311515CC8400649086006480068E7
:100F2000FFF7DCFE0020C4E7003C02400838024026
:100F30009C360008840000207C0000200F22026004
:100F40000C4A136803F003034360136803F0F003D3
:100F50008360136803F4E053C36012684FF4E053F6
:100F600003EAD20202610448006800F00F00086042
:100F70007047000008380240003C02400448054920
:100F800000680968044AC1F38221515CC840704777
:100F90008400002008380240AC36000804480549A7
:100FA00000680968044AC1F34231515CC840704787
:100FB0008400002008380240AC360008154810B5FF
:100FC000006810F00C02144813D01449042A0FD002
:100FD000082A0ED10F4C241F2268236802F03F021A
:100FE0005B0207D52068C0F38810A0FB010106E072
:100FF000084610BD2168C1F38811A1FB0001002340
:10100000FFF750F92168C1F30141491C4900B0FBC9
:10101000F1F010BD083802400024F400001BB700B6
:101020002DE9F84F040076D02078DFF838A3CE4DB4
:10103000C00749D0DAF800105046C1F381010129F8
:1010400008D00068C0F3810002280AD1281D00687A
:10105000400206D52868800336D560680028E2D0B3
:1010600032E06068B0F5803F10D0B0F5A02F28685E
:1010700010D020F480302860286820F48020286078
:101080006068A0B1FFF702FE06460CE0286840F455
:101090008030F4E740F480202860F7E7FFF7F6FDA2
:1010A000801B642873D828688003F7D50CE0FFF70D
:1010B000EDFD064605E000BFFFF7E8FD801B642854
:1010C000F0D828688003F7D42078DFF8A082800762
:1010D0004FF000093ED5DAF80010504611F00C0F21
:1010E00009D00068C0F3810002280BD19D48001F81
:1010F0000068400206D42868800715D5E0680128FA
:1011000009D111E0E068B8B10120C8F80000FFF78C
:10111000BDFD064605E020E1FFF7B8FD801B022873
:10112000C0D828688007F7D52868216920F0F80022
:1011300040EAC10028600DE0C8F80090FFF7A6FD66
:10114000064604E0FFF7A2FD801B02281FD828688E
:101150008007F7D42078000722D5824E8448616941
:101160006C3671B101210160FFF790FD074604E084
:10117000FFF78CFDC01B022809D830688007F7D51F
:101180000EE0C0F80090FFF781FD074605E082E021
:10119000FFF77CFDC01B02287DD830688007F7D49C
:1011A0002078400768D5DFF8BCB100270BF1380B79
:1011B000DBF80000C0000BD4DBF8001041F08051D8
:1011C000CBF80010DBF80000012700F08050009001
:1011D000684E3068C00510D4306840F480703060CC
:1011E000FFF754FD009005E0FFF750FD0099401A0D
:1011F000022850D83068C005F6D55A4EA068683627
:1012000001280FD00528306810D020F00100306090
:10121000306820F004003060A068B8B1FFF736FDF8
:1012200000900FE0306840F00100F4E740F0040067
:101230003060F7E7FFF72AFD0099411A41F2883044
:10124000814266D830688007F4D50EE0FFF71EFDB6
:10125000009007E0FFF71AFD0099411A41F288302B
:10126000814256D830688007F4D42FB1DBF80010E3
:1012700021F08051CBF80010A069D0B3DAF800203B
:101280005146C2F38102022A4AD00228484607D0BA
:10129000C8F8600000E03CE0FFF7F8FC04463BE0E3
:1012A0004746C8F86000FFF7F1FC064605E000BFBE
:1012B000FFF7ECFC801B02282BD828688001F7D4AC
:1012C000D4E907010843A16A2B4A490802EB01410E
:1012D000626A41EA8211084394F82C1040EA0161E5
:1012E0002048001F016001203866FFF7CFFC04464C
:1012F00005E034E0FFF7CAFC001B022809D8286883
:101300008001F7D52BE000BFFFF7C0FC001B0228CF
:1013100002D90320BDE8F88F28688001F4D41EE0CC
:101320000128F7D00868E26900F48001914214D1E5
:10133000226A00F03F0191420FD147F6C071626A04
:101340000140914209D1A26A00F44031914204D196
:10135000E16A00F07060884201D00120DAE70020E5
:10136000D8E7000008380240003802400000474239
:10137000800E4742007000400000FFFF704770473A
:1013800010B590F83C20012A22D0012280F83C20A0
:10139000CA688C6822F4407222434C6822F480624E
:1013A00022430C6822F4006222430C6922F480522A
:1013B00022434C6922F400522243C969002322F4DB
:1013C00080420A4301684A6480F83C30002010BD26
:1013D000022010BD70B590F83C20012A32D00124C3
:1013E00080F83C40022280F83D2003685A689D68DE
:1013F00022F070060A6832435A60134B02689A4220
:1014000014D0B2F1804F11D0104B9A420ED0104B35
:101410009A420BD00F4B9A4208D00F4B9A4205D0FC
:101420000E4B9A4202D00E4B9A4204D1496825F0E5
:1014300080031943916080F83D40002180F83C1002
:10144000084670BD022070BD00000140000400404D
:1014500000080040000C0040000401400040014032
:101460000018004010B5040003D094F83D0010B1FE
:1014700007E0012010BD002084F83C00204600F069
:101480000DF8022084F83D00211D206800F0D8FEF0
:10149000012084F83D00002010BD000008B5006860
:1014A000B0F1804F08D10548016841F001010160A9
:1014B000006800F00100009008BD000040380240C4
:1014C0000168CA6842F00102CA600068816801F0E0
:1014D0000701062903D0016841F0010101600020E5
:1014E000704770B5044690F83C00012817D00125DC
:1014F00084F83C50022084F83D002068826822F085
:10150000770222F47F4282600868502830D00DDCD8
:1015100020284DD005DC98B310283BD148E00220AC
:1015200070BD302844D0402834D139E0602828D01C
:10153000702806D0B0F5805F2CD0B0F5005F29D1BF
:101540000AE0CB68D1E90121206800F0DDFE2068C7
:10155000816841F0770109E0CB68D1E90121206879
:1015600000F0D2FE2068816841F48041816011E082
:10157000CA684968206800F09BFF5021206807E096
:1015800016E0CA684968206800F0A3FF602120685F
:1015900000F0C4FE84F83D50002084F83C0070BD8B
:1015A000CA684968206800F083FF40212068EFE79F
:1015B000226801461046EBE7704770B504460068A4
:1015C00001694FF00005C943890715D4C168C943B3
:1015D000890711D4E91E0161012020772068806904
:1015E0008007204602D0FFF7E7FF04E000F0D8F8BC
:1015F000204600F06DF9257720680169C943490745
:1016000017D4C168C943490713D46FF004010161BD
:10161000022020772068806910F4407F204602D0A5
:10162000FFF7CAFF04E000F0BBF8204600F050F9D5
:10163000257720680169C943090716D4C168C943E1
:10164000090712D46FF00801016104202077206897
:10165000C0698007204602D0FFF7AEFF04E000F02B
:101660009FF8204600F034F9257720680169C943C6
:10167000C90617D4C168C943C90613D46FF0100155
:101680000161082020772068C06910F4407F20465F
:1016900002D0FFF791FF04E000F082F8204600F04E
:1016A00017F9257720680169C943C90708D1C168BE
:1016B000C943C90704D1891E0161204600F00AF917
:1016C00020680169C943090609D4C168C9430906EC
:1016D00005D46FF0800101612046FFF74FFE2068BE
:1016E0000169C943490609D4C168C943490605D4FB
:1016F0006FF040010161204600F0F6F820680169B2
:10170000C94389060BD4C168C943890607D46FF061
:10171000200101612046BDE87040FFF730BE70BD7A
:1017200010B586B0044614216846FEF705FE23680E
:10173000002117480222B3F1804F17D0154CA34265
:1017400012D1036843F480730360006800F4807072
:10175000059020200090CDE901210320CDE9031060
:1017600069460D48FFF7A8F906B010BD036843F0BD
:1017700001030360006800F0010005900F20009055
:10178000CDE901210120CDE9031069460348E9E7CD
:1017900030380240000401400020024000000240B6
:1017A000704770B5044690F83C000D4601280DD0F6
:1017B000012684F83C60022084F83D0042B1042AEE
:1017C00018D0082A2AD00C2A4DD139E0022070BD49
:1017D000206800F0ABFD2068816941F0080181615B
:1017E0002068816921F004018161206881692A698A
:1017F000114311E0206800F0C9FD2068816941F4BF
:10180000006181612068816921F4806181612068C3
:1018100081692A6941EA0221816124E0206800F09F
:10182000EBFD2068C16941F00801C1612068C16910
:1018300021F00401C1612068C1692A69114311E0E6
:10184000206800F00DFE2068C16941F40061C161AB
:101850002068C16921F48061C1612068C1692A6979
:1018600041EA0221C16184F83D60002084F83C0017
:1018700070BD10B5040003D094F83D0010B107E02E
:10188000012010BD002084F83C00204600F00CF838
:10189000022084F83D00211D206800F0D1FC0120C9
:1018A00084F83D00002010BD08B500680649884254
:1018B00008D10648016841F002010160006800F0AB
:1018C0000200009008BD00000004014044380240BE
:1018D0007047000000680349884201D1FFF7DCB976
:1018E00070470000001000407047704770B50268F4
:1018F00004461068D168536910F00F0F53D003F0FD
:10190000010501F490762E435FD0C20705D0CA05C9
:1019100003D5E26B42F00102E263420705D5DA0724
:1019200003D0E26B42F00202E263820705D5DA07D8
:1019300003D0E26B42F00402E263020707D501F034
:1019400020022A4303D0E26B42F00802E263E26B1A
:10195000002A34D0800604D5880602D5204600F03F
:10196000E4FD20684069E16BC0F3801001F00801DC
:101970000143204624D000F0CAFD20684169490691
:101980001AD5416921F040014161606BA0B11B494A
:101990000165606BFEF744FF002810D0606B016D9D
:1019A000BDE87040084783060FD58B060DD520464D
:1019B000BDE8704000F0B9BD2046FFF796FF70BD4E
:1019C000FFF793FF0020E06370BD030606D50B060A
:1019D00004D52046BDE8704000F086BE4006F3D531
:1019E0004806F1D5D168204621F04001D160202180
:1019F00084F8391000F0B7F870BD0000FF2400082B
:101A000070B5040004D094F83900002510B106E048
:101A1000012070BD84F83850204600F023F82420BF
:101A200084F839002068C16821F40051C160204663
:101A300000F0C6FD2068016921F490410161206831
:101A4000416921F02A0141612068C16841F40051D7
:101A5000C160E563202084F8390084F83A00002052
:101A600070BD0000F0B587B0064614216846FEF749
:101A700063FCDFF8D4C0306800253449022201231A
:101A800003240727604538D130481430D0F800C00F
:101A90004CF0100CC0F800C0006800F01000059079
:101AA000086840F0020008600868694600F002001B
:101AB0000590C0208DE89D002548FEF7FDFF264CCF
:101AC000244820604FF00060C4E901054014C4E9D7
:101AD00003506561A561E561256220466562FEF7F8
:101AE00081FF08B1FEF7BFFC7463002205212520A9
:101AF000A663FFF757F9252021E0184DA84220D111
:101B000012481030056845F400350560006800F49F
:101B100000300590086840F00800086008686946D1
:101B200000F00800059060208DE89D000C48FEF74D
:101B3000C3FF002205212620FFF734F92620FFF7F6
:101B400023F907B0F0BD000000100140303802401A
:101B5000000402404064024064040020004400404D
:101B6000000C024070477047012000F038FEFBE790
:101B7000FEE700000E4810B50C49016003214160EA
:101B800000218160C16001614161017601224276DC
:101B90008176C17601774177FEF765FD002803D095
:101BA000BDE81040FEF75FBC10BD000000640040BF
:101BB000E8000020094808B5016841F4800101608F
:101BC0000068002200F48000009005213A20FFF711
:101BD000E9F8BDE808403A20FFF7D6B830380240AF
:101BE00030B5B94DADF5117D38AC95E80F0084E8FE
:101BF0000F00002138A800F0FEFDB44C10350DF1A7
:101C0000F00C206295E80F008CE80F0000213CA842
:101C1000103D00F0F0FD2035606295E80F000DF5F5
:101C2000807C203D8CE80F00002140A800F0E3FDFF
:101C30003035A06295E80F000DF5887C303D8CE8CA
:101C40000F00002144A800F0D6FD4035E06295E881
:101C50000F000DF5907C403D8CE80F00002148A856
:101C600000F0C9FD5035206395E80F000DF5987C14
:101C7000503D8CE80F0000214CA800F0BCFD603501
:101C8000606395E80F000DF5A07C603D8CE80F00C7
:101C9000002150A800F0AFFD7035206495E80F00DA
:101CA00054AD85E80F00002154A800F0A4FD864D36
:101CB000E06480350DF5B07C95E80F008CE80F00EE
:101CC000002158A800F097FD1035A06395E80F009B
:101CD0000DF5B87C103D8CE80F0000215CA800F0E9
:101CE0008AFD2035606495E80F000DF5C07C203D2D
:101CF0008CE80F00002160A800F07DFD30352065E4
:101D000095E80F000DF5C87C303D8CE80F000021F0
:101D100064A800F070FD4035E06395E80F000DF514
:101D2000D07C403D8CE80F00002168A800F063FDE6
:101D30005035A06495E80F000DF5D87C503D8CE837
:101D40000F0000216CA800F056FD6035606595E835
:101D50000F000DF5E07C603D8CE80F00002170A8BD
:101D600000F049FD7035A06595E80F0074AD85E879
:101D70000F00002174A800F03EFD554DE0650DF503
:101D8000F07C95E80F008CE80F00002178A800F0A7
:101D900032FD1035206695E80F000DF5F87C103DFA
:101DA0008CE80F0000217CA800F025FD203560663E
:101DB00095E80F000DF5007C203D8CE80F00002118
:101DC00080A800F018FD3035A06695E80F000DF5ED
:101DD000047C303D8CE80F00002184A800F00BFD4E
:101DE0004035E06695E80F000DF5087C403D8CE835
:101DF0000F00002188A800F0FEFC5035206795E810
:101E00000F008CAD85E80F0000218CA800F0F3FCDA
:101E10002F4960671C2260316846FEF774FA002182
:101E2000684600F0FBFC2A4920601C227C3107A890
:101E3000FEF769FA002107A800F0F0FC2449606071
:101E40001C2298310EA8FEF75EFA00210EA800F0C1
:101E5000E5FC1F49A0601C22B43115A8FEF753FA17
:101E6000002115A800F0DAFC1949E0601C22D031ED
:101E70001CA8FEF748FA00211CA800F0CFFC14496A
:101E800020611C22EC3123A8FEF73DFA002123A893
:101E900000F0C4FC60611C220E492AA8FEF733FA48
:101EA00000212AA800F0BAFC0A49A0611C221C31BA
:101EB00031A8FEF728FA002131A800F0AFFCE0615C
:101EC0000DF5117D30BD00005434000800000020E5
:101ED000543500085C36000800B587B01421684608
:101EE000FEF72AFA1C480021026842F00102026053
:101EF000026802F001020592026842F002020260EA
:101F0000026802F002020592026842F008020260D2
:101F1000026802F008020592026842F480720260D0
:101F2000026802F480720592026842F08002026048
:101F3000006800F0800005904FF4007000900220CF
:101F4000CDE901010120CDE9031069460348FEF700
:101F5000B3FD07B000BD0000303802400000024071
:101F600010B58EB000240794089409940A940B9439
:101F70001C2168460C94FEF7DFF92A484FF0804197
:101F80000160C721C0E9011441F26701C0E90314EF
:101F900080218161FFF766FA08B1FEF764FA4FF419
:101FA0008050079007A91F48FFF79BFA08B1FEF77A
:101FB0005AFA1C48FFF75DFC08B1FEF754FA0B947F
:101FC0000BA918480C94FFF705FA08B1FEF74BFA75
:101FD0006020CDE90004029400226946114804946F
:101FE000FFF7DFFB08B1FEF73EFA042269460D4811
:101FF000FFF7D7FB08B1FEF736FA08226946094811
:10200000FFF7CFFB08B1FEF72EFA0C226946054810
:10201000FFF7C7FB08B1FEF726FA0248FFF780FB7F
:102020000EB010BD6403002010B592B000240F94D0
:102030001C2108A81094FEF77FF920216846FEF7BE
:102040007BF921481F490160C721C0E9011441F211
:102050006701C0E903148021C0E90541FFF709FCCD
:1020600008B1FEF700FA0F940FA917481094FFF774
:10207000B1F908B1FEF7F7F96020CDE908040A9438
:102080000B940C940D94002208A90F480E94FFF7AE
:1020900088FB08B1FEF7E7F900944FF40050CDE952
:1020A0000440029401940394694607480794FFF79B
:1020B00067F908B1FEF7D7F90348FFF731FB12B013
:1020C00010BD000000040140A40300200D4810B51D
:1020D0000B4901600C49416000214FF4806281602E
:1020E000C0E903120C22C0E90521C161FFF788FC99
:1020F000002803D0BDE81040FEF7B5B910BD0000C0
:1021000000100140E4030020A08601000C4810B537
:102110000A4901604FF4E1314160002181600C22E5
:10212000C160C0E904128161C161FFF769FC002848
:1021300003D0BDE81040FEF796B910BD0044004042
:1021400024040020012000F04AFBFBE7FEE7012009
:1021500000F045FBFBE7012000F041FBFBE7704787
:10216000012000F03CFBFBE710B5502080F3118804
:10217000BFF34F8FBFF36F8F01F06CF818B10449B4
:102180004FF080500860002080F3118810BD0000DF
:1021900004ED00E030B593B030216846FEF7CCF88E
:1021A00014210CA8FEF7C8F819480025016841F071
:1021B00080510160006800F080501190154801685E
:1021C00041F4404101600068022400F44040119055
:1021D00001200090000401908001CDE90640062016
:1021E0000890A820CDE9090404200B906846FEF76A
:1021F00017FF0CA90F2081E831004FF4A0500F9079
:10220000E002109005210CA8FEF7FEFD13B030BDD2
:1022100040380240007000400548016841F47001F8
:10222000016003494FF0006080390860704700008A
:1022300088ED00E00148FFF7C0B90000C4040020A9
:10224000F0B50268254C264D264E274F274B4FF000
:10225000804CA04209D0604507D0A84205D0B042CA
:1022600003D0B84201D0984204D122F0700E4A68DF
:1022700042EA0E02A0421BD0604519D0A84217D0F6
:10228000B04215D0B84213D0984211D0184DA84290
:102290000ED0184DA8420BD0174DA84208D0174DAC
:1022A000A84205D0164DA84202D0164DA84203D12F
:1022B00022F44075CA682A434D6922F080022A43FD
:1022C00002608A68C2620A688262A04201D09842B3
:1022D00001D10969016301214161F0BD00000140A4
:1022E0000004004000080040000C004000040140D1
:1022F00000400140004401400048014000180040F7
:10230000001C00400020004010B5846842EA03220F
:1023100024F47F440A432243826010BD826822F085
:1023200070020A4342F0070181607047F0B5026A0B
:1023300022F001020262036A42688469124E24F0AC
:1023400073050C682C4323F002058B682B430D4D5D
:10235000A84201D0B04205D123F00807CB683B4327
:1023600023F00403A84201D0B04205D14D6922F404
:10237000407215438A692A43426084614968416317
:102380000362F0BD0000014000040140F0B5026AA4
:1023900022F010020262026A436884690D6824F424
:1023A000E64444EA05248D6822F0200242EA051240
:1023B0000F4D104EA84201D0B04206D1CF6822F096
:1023C000800242EA071222F04002A84201D0B04245
:1023D00007D14D6923F4406343EA85038D6943EADD
:1023E000850343608461496881630262F0BD000037
:1023F0000000014000040140F0B5026A22F480723E
:102400000262026A4368C46922F4007224F0730510
:102410000C68124E2C438D6842EA05220E4DA842EC
:1024200001D0B04206D1CF6822F4006242EA07220E
:1024300022F48062A84201D0B04207D14D6923F452
:10244000405343EA05138D6943EA05134360C461B1
:102450004968C1630262F0BD000001400004014010
:1024600030B5026A22F480520262046A4268C3698B
:102470000D6823F4E64343EA05238D6824F40054F1
:1024800044EA0534084DA84202D0084DA84204D1C0
:102490004D6922F4804242EA85124260C361496874
:1024A0000164046230BD00000000014000040140EE
:1024B00010B5036A046A24F001040462846924F0FC
:1024C000F00444EA021423F00A020A43846102621F
:1024D00010BD10B5036A23F0100303628369046A18
:1024E00023F4704343EA023224F0A00343EA0111CB
:1024F0008261016210BD012000F071F9FBE710B5A7
:10250000806B0021C185C184FFF7EFF910BD016820
:10251000CA6822F49072CA6001684A6922F0010216
:102520004A61202180F83A10704710B590F83A10AF
:10253000222901D0022010BD8168B1F5805F11D041
:102540000169002901681FD0496801F07F03816A91
:102550004A1C82620B70C18D491E0904090CC18599
:1025600018D02BE00269816A002A0268526805D0FF
:10257000D2B20A80816A491C8162ECE7C2F3080288
:102580000A80816A891CF7E74A68816A4B1C83626A
:102590000A70E0E70168CA6822F02002CA60016898
:1025A000CA6822F48072CA6001684A6922F0010296
:1025B0004A61202180F83A10FFF7D4FA002010BDBC
:1025C0002DE9F041044600680169E26821F44051B8
:1025D000114301612169A068E269084361691143FF
:1025E00008432168CA6849F20C639A430243CA60EF
:1025F00020684169A26921F4407111434161E06999
:10260000192764253226B0F5004F354A3549206830
:102610004FF0000806D0884201D0904236D1FEF734
:10262000BDFC35E0884201D0904202D1FEF7B6FCF5
:1026300001E0FEF7A3FC61684A18A0FB070148EB24
:102640000803FDF72FFE0146B0FBF5F00201B1FBD8
:10265000F5F06FF01803584301EB800006EBC00063
:10266000B0FBF5F000F0F80002EB4002B1FBF5F032
:10267000584301EB800006EBC000B0FBF5F000F022
:102680000700216810448860BDE8F081FEF776FC01
:1026900061688B0F8A00A0FB0701FDF703FE01466E
:1026A000B0FBF5F06FF01802504301EB800006EB31
:1026B0000010B0FBF5F000F0F002B1FBF5F002EB1A
:1026C0000012B1FBF5F06FF01803584301EB8000E6
:1026D00006EB0010B0FBF5F000F00F00D1E70000B2
:1026E000001401400010014090F83910212901D058
:1026F000022070478168B1F5805F016A0BD04A1CE7
:102700000262026809785160C18C491E0904090CF3
:10271000C1840ED017E009880268C1F30801516036
:1027200001690029016A02D0491C0162ECE7891C99
:10273000FBE70168CA6822F08002CA600068C168CD
:1027400041F04001C1600020704700000148FFF7E0
:10275000CDB80000E40300200148FFF7C7B800002F
:1027600024040020FEE70907090E002804DB00F11D
:10277000E02080F80014704700F00F0000F1E02026
:1027800080F8141D704702E008C8121F08C1002A13
:10279000FAD170477047002001E001C1121F002AE2
:1027A000FBD17047FEF780FAFFF7F4FCFFF794FBCC
:1027B000FFF700FAFFF7DEF9FFF7D2FBFFF734FC73
:1027C000FFF784FCFFF7A2FCFFF70AFA00F00EF80F
:1027D000FEE701460020842900D0C81C704710B5D0
:1027E00000B9012000F036FB002010BD10B500F04C
:1027F00057FB002010BD38B5D0E9011204683AB18A
:10280000C3682BB100200090204600F053FC38BD77
:102810002046BDE83840002200F028BC7FB50D46B8
:1028200004464169B0F9080081B1A16971B1FFF7AF
:10283000D0FFD4E905128DE80700D4E900102B463B
:10284000226900F0DCFC039004B070BDFFF7C1FF0B
:1028500003A9CDE90001208A2B4682B2D4E90010F9
:1028600000F0A0FC012801D00020EDE70398EBE781
:102870002DE9F041184C0F46054666692068001D99
:1028800000F024FA38B9206890F82C100120884014
:10289000A1698143A161681C07D137B12168BDE8F6
:1028A000F0410E48091D00F055BA20683544B54284
:1028B0004560216805D2A068BDE8F041091D00F01F
:1028C00031BA6068091D00F02DFA206B854200D2F4
:1028D0002563BDE8F081000088000020E0050020AD
:1028E0002DE9F041054600F041FA2E4C2069401CCC
:1028F000206120682C4F10B1E06940B32DE02560C5
:102900002069012829D1002606EB860007EB80000C
:1029100000F0FAF9761C072EF6D323488C3000F02D
:10292000F3F92148A03000F0EFF91F48B43000F06F
:10293000EBF91D48C83000F0E7F91B48DC3000F027
:10294000E3F919488C3060601430A06005E020681D
:10295000E96AC06A884200D82560E06A401CE062EB
:10296000E96A0120A26988401043A06101EB81005F
:1029700007EB8000291D00F0EDF900F017FAE0697F
:1029800000280CD02068E96AC06A884207D207494B
:102990004FF080500860BFF34F8FBFF36F8FBDE8DB
:1029A000F0810000880000200405002004ED00E014
:1029B00010B5044690F8510058B101280CD00228F7
:1029C0000FD0502080F31188BFF34F8FBFF36F8F6C
:1029D000FEE7206B00F0FEF92046BDE8104000F055
:1029E000F9B910BD10484FF47051420706D0C01D10
:1029F0000D4920F00700411AC1F570510B4A002320
:102A00000144C2E900030839103A21F007011160BE
:102A10004B600B600B1AC0E9001393604FF000404D
:102A20005360D06070470000F4050020D4000020FF
:102A3000144E154CA6F1C8074FF08058DFF84C90A3
:102A400012E000BF00F092F9F068C568281D00F0A0
:102A50003DF92069401E2061E068401EE06000F002
:102A6000A5F92846FFF7A4FFE0680028EAD13868F6
:102A70000128F9D9C9F80080BFF34F8FBFF36F8FDA
:102A8000F2E70000CC0500208800002004ED00E003
:102A90000346009829B10260C0E90F31012100F01E
:102AA0003DBB0060F8E72DE9F0479A46DDE909846F
:102AB00081466FF00303206B03EB82021044089DF4
:102AC00020F00706700707D0502080F31188BFF36D
:102AD0004F8FBFF36F8FFEE723180A5C83F8342013
:102AE0000A5C12B1401C1028F6D3002784F843700A
:102AF000072D00D30625E562C4E91157201D00F01B
:102B00000EF904F1180000F00AF92461C5F107007C
:102B10006462A061E76484F85070524649463046CA
:102B200000F0BEF82060B8F1000F01D0C8F80040F6
:102B3000BDE8F08730B5114900E011460A688242CD
:102B4000FBD34B685C18844203D14068184448604A
:102B5000084643681C18944209D1084C103C24686C
:102B6000A24209D052681A4442600A6812680260A0
:102B7000814200D0086030BD0460F9E7D400002035
:102B800006484168096829B14168C968C968496847
:102B9000016370474FF0FF31FAE700008800002022
:102BA00008484068401C4FF0500080F3118804D062
:102BB000BFF34F8FBFF36F8FFEE7BFF34F8FBFF3AE
:102BC0006F8FFEE7DC0000202DE9F041054600276D
:102BD00000F09CF9314E306808B9FFF703FFF06848
:102BE00005424BD1C5B3083568070ED005F0070084
:102BF000C0F108000544680707D0502080F3118811
:102C0000BFF34F8FBFF36F8FFEE72DB37068854220
:102C100034D82248103001460C6801E020460C46AA
:102C20006168A94202D221680029F7D131688C423B
:102C300024D007682168016060680837411B1029AB
:102C40000FD96019420708D0502080F31188BFF3D4
:102C50004F8FBFF36F8FFEE710E041606560FFF7B5
:102C600069FF61687068401A7060B268904200D273
:102C7000B060F06801430020C4E9000100F088FB67
:102C8000780707D0502080F31188BFF34F8FBFF330
:102C90006F8FFEE73846BDE8F0810000C4000020D9
:102CA00010B5031F4FF080741C601B1F21F0010141
:102CB0001960191F044B0B6014390A60091F6FF06B
:102CC000020244380A6010BDA12B0008D0E901328D
:102CD00001699A60D0E901235A604A68824201D1B1
:102CE00082684A60002202610868401E0860086825
:102CF00070470000034B036003F15400086080201C
:102D0000106070471001002000F108014FF0FF3201
:102D1000C0E90112C160016100210160704700211A
:102D20000161704730B50B685A1C02D000F10802EF
:102D300002E0026904E02246546825689D42FAD9FF
:102D400053684B6099608A60516008610168491C52
:102D5000016030BD42684A6093688B609368596037
:102D6000916008610168491C01607047502080F340
:102D70001188BFF34F8FBFF36F8F0A494868401C1B
:102D8000486001280CD10848006810F0FF0F07D0F8
:102D9000502080F31188BFF34F8FBFF36F8FFEE792
:102DA00070470000DC00002004ED00E0084948689E
:102DB00028B1401E486001D180F31188704750202F
:102DC00080F31188BFF34F8FBFF36F8FFEE70000D2
:102DD000DC00002070B5002827D0144DA0F10804B5
:102DE0006168E868014207D1502080F31188BFF381
:102DF0004F8FBFF36F8FFEE722683AB1502080F308
:102E00001188BFF34F8FBFF36F8FFEE7814361607F
:102E100000F07CF860686968084468602046FFF745
:102E200089FEBDE8704000F0B3BA70BDC400002058
:102E30004FF0E02000210161816105494FF47A7271
:102E40000968B1FBF2F1491E416107210161704738
:102E50008400002010B5020014D00F48806B38B1F8
:102E6000502080F31188BFF34F8FBFF36F8FFEE7C1
:102E700000F04CF800211046FFF7FAFC00F088FA49
:102E8000002807D105494FF080500860BFF34F8FED
:102E9000BFF36F8F10BD00008800002004ED00E03C
:102EA00010B586B00024039405AA04A903A80494CD
:102EB000FFF720FFDDE903010094CDE901100023B5
:102EC0000EA11048059A00F09AF90F4900284863AE
:102ED00011D0502080F31188BFF34F8FBFF36F8F55
:102EE0004FF0FF3008630120C8614C6106B0BDE8B7
:102EF000104000F041B806B010BD000049444C45F8
:102F000000000000312A0008880000200248816B80
:102F1000491C816370470000880000201448816BC1
:102F200011B1012141627047002141628169B1FA0A
:102F300081F1C1F11F0101EB81020E4951F82230EC
:102F40006BB101EB820101F108034A6852684A60E3
:102F50009A4201D152684A60D1680160704750209E
:102F600080F31188BFF34F8FBFF36F8FFEE7000030
:102F700088000020040500201CB537480168374A46
:102F8000914207D1502080F31188BFF34F8FBFF3D8
:102F90006F8FFEE700683149491E884207D15020F3
:102FA00080F31188BFF34F8FBFF36F8FFEE72C497B
:102FB00008780190FF20087008788DF800009DF8CF
:102FC00000009DF8002000F0F000904207D0502053
:102FD00080F31188BFF34F8FBFF36F8FFEE79DF82B
:102FE0000000204B00F0500018700720986005E0AA
:102FF0009DF8002052008DF80020401E9DF8002012
:103000001206F5D49860032807D0502080F3118869
:10301000BFF34F8FBFF36F8FFEE74FF440709860A0
:10302000019808700C482030016841F4700101607B
:10303000016841F070410160FFF7FAFE002058601E
:10304000FDF7E2F80848016841F040410160FDF7F2
:10305000C7F800201CBD000000ED00E071C20F4168
:1030600000E400E0DC00002034EF00E0F8B5174693
:103070000E46050014D0DEB105FB06F04830FFF720
:10308000A3FD04000AD0002084F8460004F14802A1
:103090003B46314628460094FFF7FAFC2046F8BD2F
:1030A000502080F31188BFF34F8FBFF36F8FFEE77F
:1030B0000020E3E738B5049D18B153B1CAB181B11E
:1030C00020E0502080F31188BFF34F8FBFF36F8F44
:1030D000FEE7502080F31188BFF34F8FBFF36F8F4F
:1030E000FEE7502080F31188BFF34F8FBFF36F8F3F
:1030F000FEE739B1502080F31188BFF34F8FBFF343
:103100006F8FFEE748241C46012384F846302B4687
:103110000094FFF7BDFC204638BD000070B50D4699
:10312000040025D0FFF722FED4E90F20216802FB1E
:10313000001161600021A1632168A1600A46D4E901
:103140000F01401E00FB0121E16021464FF0FF30DE
:1031500001F8440F487004F110008DB1FFF7D4FD61
:1031600004F12400FFF7D0FDFFF720FE012070BD21
:10317000502080F31188BFF34F8FBFF36F8FFEE7AE
:1031800021690029F0D000F0C9F80028ECD00449EA
:103190004FF080500860BFF34F8FBFF36F8FE3E7AE
:1031A00004ED00E02DE9FF5F8346DDE90E879946D7
:1031B00016468A469000FFF707FD05001CD05420F4
:1031C000FFF702FD040014D00020256384F85100AD
:1031D000CDE90240CDE900874B463246514658467C
:1031E000FFF761FC2046FFF77BFB012004B0BDE840
:1031F000F09F2846FFF7EEFD4FF0FF30F6E7F0B501
:1032000085B0DDE90B640A9DA6B1DCB154270097B7
:103210002663022684F85160002604AFCDE90246F9
:10322000CDE90057FFF73FFC2046FFF759FB049814
:1032300005B0F0BD502080F31188BFF34F8FBFF36E
:103240006F8FFEE7502080F31188BFF34F8FBFF3DD
:103250006F8FFEE72DE9F0412E4C0027A06B40B1A7
:10326000206A401C2062606A00B101273846BDE830
:10327000F0816669761C666113D16068006838B1B8
:10328000502080F31188BFF34F8FBFF36F8FFEE79D
:103290006068A1686160A060A06A401CA062FFF73E
:1032A0006FFC206BDFF87080864209D3606800688D
:1032B00080B16068C068C568686886420DD22063C6
:1032C0002068C06A00EB800158F821000128CAD9A3
:1032D0000127C8E74FF0FF30F1E7281DFFF7F6FCA4
:1032E000A86A18B105F11800FFF7F0FCE86A01219F
:1032F000A26981401143A16100EB800108EB8100CC
:10330000291DFFF727FDE86A2168C96A8842CDD3E5
:103310000127CBE788000020040500202DE9F041BB
:10332000C068C468ACB104F118000746FFF7CEFCD2
:10333000154DA86B0126A0B139461448FFF70AFDC8
:10334000E06A2968C96A88421CD901206E62BDE81A
:10335000F081502080F31188BFF34F8FBFF36F8F40
:10336000FEE7201DFFF7B2FCE16AAA6906FA01F048
:103370001043A86101EB81000449B43901EB8000DE
:10338000211DDBE70020E2E788000020B8050020CF
:103390002DE9F0472C4D00242746A86B38B1FFF7E4
:1033A000E5FCA86B401EA863A86B40B146E0502026
:1033B00080F31188BFF34F8FBFF36F8FFEE729694A
:1033C000224E0120D1B3A6F1B40980463068E8B19D
:1033D000F068C46804F11800FFF778FC201DFFF7BF
:1033E00075FCE06AAA6908FA00F11143A96100EBD3
:1033F000800109EB8100211DFFF7ACFCE06A296820
:10340000C96A8842E2D3C5F82480DFE70CB1FFF730
:10341000B7FB2C6A44B14646FFF71CFF00B16E6251
:10342000641EF9D100202862686A38B10849012772
:1034300038070860BFF34F8FBFF36F8FFFF7B6FCFD
:103440003846BDE8F087000088000020B80500205D
:1034500004ED00E001000000020000000000000098
:103460000000000001000000020000000000000059
:103470000000000001000000020000000000000049
:103480000000000001000000020000000000000039
:103490000000000001000000020000000000000029
:1034A0000000000001000000020000000000000019
:1034B0000000000001000000020000000000000009
:1034C00000000000010000000200000000000000F9
:1034D00000000000010000000200000000000000E9
:1034E00000000000010000000200000000000000D9
:1034F00000000000010000000200000000000000C9
:1035000000000000010000000200000000000000B8
:1035100000000000010000000200000000000000A8
:103520000000000001000000020000000000000098
:103530000000000001000000020000000000000088
:103540000000000001000000020000000000000078
:103550000000000001000000020000000000000068
:103560000000000001000000020000000000000058
:103570000000000001000000020000000000000048
:103580000000000001000000020000000000000038
:103590000000000001000000020000000000000028
:1035A0000000000001000000020000000000000018
:1035B00000000000B4360008691B0008FDFF000091
:1035C000000000008000000000000000000000007B
:1035D000BC360008D5030008FEFF00000000000014
:1035E000800000000000000000000000DC36000841
:1035F000F7240008FFFF000000000000800000002A
:103600000000000000000000D0360008B1030008F0
:10361000000000000000000080000000000000002A
:1036200000000000C4360008452100080100000029
:10363000000000008000000000000000000000000A
:10364000EC3600084F2100080100000000000000D7
:10365000800000000000000000000000E4360008C8
:10366000612100080200000000000000800000004E
:103670000000000000000000F83600085721000894
:1036800002000000000000008000000000000000B8
:1036900000000000000610160006101600000000D2
:1036A00000000000010203040607080900000000F2
:1036B00001020304484D495461736B00436F6D541C
:1036C00061736B004D6561726D5461736B00000036
:1036D000416374696F6E5461736B0000546F705472
:1036E00061736B005069725461736B004D6F74634A
:1036F0006F725461736B00004D6F746F725461731D
:103700006B0000002437000800000020E8000000E3
:10371000862700080C380008E8000020104500004B
:1037200096270008000000000000000000000000D4
:103730000000000000000000000000000000000089
:103740000000000000000000000000000000000079
:103750000000000000000000000000000000000069
:103760000000000000000000000000000000000059
:103770000000000000000000000000000000000049
:103780000000000000000000000000000000000039
:103790000000000000000000000000000100000028
:1037A00010000000000000000024F40000000000F1
:1037B0000000000000000000000000000000000009
:1037C00000000000000000000000000000000000F9
:1037D00000000000000000000000000000000000E9
:1037E00000000000000000000000000000000000D9
:1037F00000000000000000000000000000000000C9
:0C38000000000000AAAAAAAA0000000014
:04000005080001AD41
:00000001FF
