:020000040800F2
:1000000030050020AD020008D9360008133400087E
:10001000D5360008B90300084D5C00080000000058
:10002000000000000000000000000000A5390008EA
:10003000BD03000800000000DB360008A7390008F7
:10004000C7020008C7020008C7020008C70200086C
:10005000C7020008C7020008C7020008C70200085C
:10006000C7020008C7020008C7020008C70200084C
:10007000C7020008C7020008C7020008C70200083C
:10008000C7020008C7020008C7020008C70200082C
:10009000C7020008C7020008C7020008C70200081C
:1000A000C7020008C7020008C7020008C70200080C
:1000B000C7020008C7020008C7020008C7020008FC
:1000C000C7020008C7020008C7020008C7020008EC
:1000D000C7020008C7020008195C0008C702000830
:1000E000C7020008C702000800000000C70200089D
:1000F000C7020008C7020008C7020008C7020008BC
:10010000C7020008C7020008C7020008C7020008AB
:10011000C7020008C7020008C7020008C70200089B
:10012000C7020008C7020008C7020008C70200088B
:10013000C7020008C7020008C7020008C70200087B
:1001400000000000000000000000000000000000AF
:10015000C7020008C7020008C7020008C70200085B
:10016000C7020008C7020008C7020008C70200084B
:10017000C7020008C7020008C7020008C70200083B
:10018000C7020008C7020008C7020008C70200082B
:10019000C7020008C7020008C7020008C70200081B
:1001A000C7020008C7020008C7020008C70200080B
:1001B000C7020008C7020008C7020008C7020008FB
:1001C000C7020008C7020008C7020008C7020008EB
:1001D000C7020008C7020008C7020008C7020008DB
:1001E000C7020008C7020008C7020008C7020008CB
:1001F000C7020008C7020008C7020008C7020008BB
:10020000C7020008C7020008C7020008C7020008AA
:10021000C7020008C7020008C7020008C70200089A
:10022000C7020008C7020008C7020008000000005B
:10023000C7020008C702000800000000C70200084B
:10024000C7020008C7020008C7020008C70200086A
:10025000C7020008C7020008C7020008C70200085A
:10026000C7020008C7020008C7020008C70200084A
:10027000C7020008C7020008C7020008000000000B
:10028000C7020008C7020008C702000800000000FB
:1002900000000000C7020008DFF80CD000F07AF878
:1002A00000480047795D0008300500200648804777
:1002B00006480047FEE7FEE7FEE7FEE7FEE7FEE74B
:1002C000FEE7FEE7FEE7FEE7793A0008990200083C
:1002D0002DE9F05F0546002092469B46884606467B
:1002E000814640241BE0284641464746224600F00E
:1002F00041F853465A46C01A914110D31146184648
:10030000224600F028F82D1A67EB01084F462246D6
:100310000120002100F01FF817EB00094E41201EBC
:10032000A4F10104DFDC484631462A464346BDE8D5
:10033000F09FD2B201E000F8012B491EFBD27047BA
:100340000022F6E710B513460A4604461946FFF7A1
:10035000F0FF204610BD202A04DB203A00FA02F10B
:10036000002070479140C2F1200320FA03F31943A3
:1003700090407047202A04DB203A21FA02F0002145
:10038000704721FA02F3D040C2F1200291400843A5
:1003900019467047064C074D06E0E06840F001033F
:1003A00094E8070098471034AC42F6D3FFF778FF83
:1003B000405E0008605E000800BFFEE770477047BF
:1003C00070B504460CB9012070BD94F835000228C0
:1003D00003D0802060650120F6E79F4920688842AD
:1003E00049D09D4918312068884244D09A4930311B
:1003F000206888423FD098494831206888423AD0E6
:10040000954960312068884235D093497831206819
:10041000884230D090499031206888422BD08E4954
:10042000A8312068884226D08C492068884222D092
:100430008A491831206888421DD0884930312068A7
:10044000884218D0854948312068884213D08349B2
:100450006031206888420ED0804978312068884217
:1004600009D07E4990312068884204D07B49A83168
:100470002068884201D1012000E00020F0B3042070
:1004800084F835007449206888424BD0724918318D
:100490002068884246D0704930312068884241D077
:1004A0006D494831206888423CD06B4960312068F2
:1004B000884237D0684978312068884232D066490E
:1004C0009031206888422DD06349A8312068884245
:1004D00028D062492068884224D0604918312068B9
:1004E00088421FD05D493031206888421AD05B496C
:1004F00048312068884215D0584900E020E060313A
:10050000206888420ED0554978312068884209D049
:10051000524990312068884204D05049A83120685F
:10052000884206D12068006820F001002168086038
:1005300090E02068006820F001002168086089E0F0
:100540002068006820F00E00216808604249206899
:10055000884249D0404918312068884244D03E49F9
:100560003031206888423FD03B494831206888427A
:100570003AD0394960312068884235D036497831DF
:100580002068884230D034499031206888422BD08E
:100590003149A8312068884226D0304920688842F5
:1005A00022D02E491831206888421DD02B49303185
:1005B0002068884218D0294948312068884213D0E1
:1005C00026496031206888420ED02449783120685D
:1005D000884209D0214990312068884204D01F49BF
:1005E000A8312068884206D12068006820F0010008
:1005F0002168086005E02068006820F0010021689B
:100600000860206E006820F48070216E0860A56D7F
:1006100094F85C0000F01F01012088406860D4E974
:1006200019104860E06E40B1E06E006820F4807000
:10063000E16E0860D4E91C10486000BF002084F817
:10064000340000BF012084F83500206D10B1204631
:10065000216D88470020B7E61000024010040240D8
:10066000F8B502460023734DDEE001279F400E6877
:1006700006EA0704002C71D04E68022E02D04E68A4
:10068000122E13D1DF0802F1200656F827005E076C
:10069000F70E0F26BE40B0435F07FF0E0E69BE4047
:1006A0003043DF0802F1200646F8270010685F009B
:1006B0000326BE40B0430E7906F003065F00BE403D
:1006C000304310604E68012E08D04E68022E05D0CF
:1006D0004E68112E02D04E68122E13D190685F0022
:1006E0000326BE40B0435F00CE68BE4030439060FA
:1006F000506801269E40B0430E79C6F300169E4016
:1007000030435060D0685F000326BE40B0435F00B6
:100710008E68BE403043D0604E6806F08056B6F119
:10072000805F1BD100BF444E366846F00206424F40
:100730003E603E46366806F00206009600BF00BFE7
:100740003E4E9F0856F827009E07370F0F26BE40E3
:10075000B0433B4EB24202D100262EE063E0394E58
:10076000B24201D1012628E0374EB24201D1022621
:1007700023E0364EB24201D103261EE0344EB2428F
:1007800001D1042619E0334EB24201D1052614E00E
:10079000314EB24201D106260FE0304EB24201D1B5
:1007A00007260AE02E4EB24201D1082605E02D4E62
:1007B000B24201D1092600E00A269F073F0FBE4042
:1007C00030431E4E9F0846F827002868A0434E6815
:1007D00006F48036B6F5803F00D120432860686873
:1007E000A0434E6806F40036B6F5003F00D1204322
:1007F00068604FF0B0463068A0434E6806F480163B
:10080000B6F5801F00D120434FF0B04630607068CD
:10081000A0434E6806F40016B6F5001F00D1204331
:100820004FF0B04670605B1C0E68DE40002E7FF417
:100830001CAFF8BD80000058F4440258080400586A
:10084000000002580004025800080258000C025828
:10085000001002580014025800180258001C0258D8
:1008600000200258002402580AB1816101E00B0403
:100870008361704701480068000C70470010005CFD
:10088000014800687047000010000020034800681D
:1008900003490978084401490860704710000020A6
:1008A0001800002010B5032000F0B8F801F0B0FAED
:1008B00010490968C1F303210F4A515C01F01F017F
:1008C000C8400E4908600B48006800F00F00114650
:1008D000085C00F01F0109480068C840084908602A
:1008E000002000F00FF808B1012010BD00F036F82C
:1008F0000020FAE7184402582E5E00081C00002071
:100900002000002070B504461148007808B9012085
:1009100070BD0F4800784FF47A71B1FBF0F00D49CB
:100920000968B1FBF0F5284601F02CFF08B1012061
:10093000EEE7102C07D200222146501E00F030F8BE
:100940000548046001E00120E2E70020E0E7000044
:10095000180000201C0000201400002008B500BF73
:100960000648006840F00200044908600846006834
:1009700000F00200009000BF00BF08BDF444025820
:1009800001460846002809DB00F01F0301229A40B7
:1009900043099B0003F1E023C3F8002100BF704727
:1009A0002DE9F05F80460D46164605F051F90746E1
:1009B00039462A46334601F00700C0F1070ABAF16A
:1009C000040F02D94FF0040A01E0C0F1070AD14632
:1009D00000F1040ABAF1070F02D24FF0000A01E059
:1009E000A0F1030AD4464FF0010A0AFA09FAAAF163
:1009F000010A0AEA020A0AFA0CFA4FF0010B0BFA92
:100A00000CFBABF1010B0BEA030B4AEA0B0421468A
:100A1000404605F025F9BDE8F09F000000BF00F05A
:100A20000702064B19684FF6FF031940044B0B43AE
:100A300043EA0221014B196000BF70470CED00E052
:100A40000000FA0570B5044614480068C0F3800041
:100A500038B91248006800F00700A04201D0012018
:100A600070BD0E48006820F0070020430B49086065
:100A7000FFF706FF054607E0FFF702FF401BB0F552
:100A80007A7F01D90320EBE7044808380068C0F3F7
:100A900040300028F0D00020E2E700000C48025867
:100AA00010B501F0B5F907490968C1F30321064AF9
:100AB000515C01F01F01C840044908600846006805
:100AC00010BD0000184402582E5E00081C000020D3
:100AD00010B501F061F905490968C1F30211044A32
:100AE000515C01F01F01C84010BD000020440258B5
:100AF0002E5E000870B50146844D2D6805F0030395
:100B0000824D2D68C5F30530804D2D1D2D6805F0F3
:100B100010047E4D14352D68C5F3CC0515FB04F586
:100B200001EE105AB8EE411AF0EE410A00286FD0DB
:100B300023B1012B4ED0022B6BD16BE0734D283DBE
:100B40002D68C5F340153DB3704D283D2D68C5F3A4
:100B5000C1066F4D25FA06F201EE102AF8EE411A91
:100B600001EE100AB8EE411A81EE812A9FED691A52
:100B7000C0EE811A654D10352D68C5F3080501EEEC
:100B8000105AB8EE411A31EE811AF7EE001A31EE22
:100B9000211A22EE010A1CE001EE100AB8EE411AF9
:100BA000DFED5D1A81EE812A9FED5A1AC0EE811A9F
:100BB000564D10352D68C5F3080501EE105AB8EEF4
:100BC000411A31EE811AF7EE001A31EE211A22EEA7
:100BD000010A5BE001EE100AB8EE411ADFED4F1A90
:100BE00081EE812A9FED4B1AC0EE811A474D1035D8
:100BF0002D68C5F3080501EE105AB8EE411A31EE22
:100C0000811AF7EE001A31EE211A22EE010A3DE0B8
:100C100077E01DE001EE100AB8EE411A9FED402A80
:100C2000C2EE011A9FED3B1A80EE812A374D103536
:100C30002D68C5F3080501EE105AB8EE411A32EEE0
:100C4000011AB7EE002A31EE021A21EE810A1DE0E8
:100C500001EE100AB8EE411ADFED301A81EE812A5A
:100C60009FED2C1AC0EE811A284D10352D68C5F362
:100C7000080501EE105AB8EE411A31EE811AF7EE6E
:100C8000001A31EE211A22EE010A00BF00BF1F4DEB
:100C900010352D68C5F3462501EE105AB8EE411AFD
:100CA000F7EE001A31EE211AC0EE011ABCEEE11A7D
:100CB00081ED001A154D10352D68C5F3064501EE7E
:100CC000105AB8EE411AF7EE001A31EE211AC0EEB2
:100CD000011ABCEEE11A81ED011A0C4D10352D6898
:100CE000C5F3066501EE105AB8EE411AF7EE001A88
:100CF00031EE211AC0EE011ABCEEE11A81ED021AA2
:100D000003E000250D604D608D6070BD28440258E1
:100D10000090D003000000460024744C0024744A64
:100D200020BCBE4B70B50146844D2D6805F0030311
:100D3000824D2D68C5F30550804D2D1D2D6805F49D
:100D400080747E4D1C352D68C5F3CC0515FB04F56C
:100D500001EE105AB8EE411AF0EE410A00286FD0A9
:100D600023B1012B4ED0022B6BD16BE0734D283D8C
:100D70002D68C5F340153DB3704D283D2D68C5F372
:100D8000C1066F4D25FA06F201EE102AF8EE411A5F
:100D900001EE100AB8EE411A81EE812A9FED691A20
:100DA000C0EE811A654D18352D68C5F3080501EEB2
:100DB000105AB8EE411A31EE811AF7EE001A31EEF0
:100DC000211A22EE010A1CE001EE100AB8EE411AC7
:100DD000DFED5D1A81EE812A9FED5A1AC0EE811A6D
:100DE000564D18352D68C5F3080501EE105AB8EEBA
:100DF000411A31EE811AF7EE001A31EE211A22EE75
:100E0000010A5BE001EE100AB8EE411ADFED4F1A5D
:100E100081EE812A9FED4B1AC0EE811A474D18359D
:100E20002D68C5F3080501EE105AB8EE411A31EEEF
:100E3000811AF7EE001A31EE211A22EE010A3DE086
:100E400077E01DE001EE100AB8EE411A9FED402A4E
:100E5000C2EE011A9FED3B1A80EE812A374D1835FC
:100E60002D68C5F3080501EE105AB8EE411A32EEAE
:100E7000011AB7EE002A31EE021A21EE810A1DE0B6
:100E800001EE100AB8EE411ADFED301A81EE812A28
:100E90009FED2C1AC0EE811A284D18352D68C5F328
:100EA000080501EE105AB8EE411A31EE811AF7EE3C
:100EB000001A31EE211A22EE010A00BF00BF1F4DB9
:100EC00018352D68C5F3462501EE105AB8EE411AC3
:100ED000F7EE001A31EE211AC0EE011ABCEEE11A4B
:100EE00081ED001A154D18352D68C5F3064501EE44
:100EF000105AB8EE411AF7EE001A31EE211AC0EE80
:100F0000011ABCEEE11A81ED011A0C4D18352D685D
:100F1000C5F3066501EE105AB8EE411AF7EE001A55
:100F200031EE211AC0EE011ABCEEE11A81ED021A6F
:100F300003E000250D604D608D6070BD28440258AF
:100F40000090D003000000460024744C0024744A32
:100F500020BCBE4B2DE9F04104460025A846206880
:100F600000F00060B0F1006F30D1606E48B1B0F5B4
:100F7000801F0DD0B0F5001F10D0B0F5401F15D167
:100F800013E0F948006840F40030F74908600FE0CA
:100F90000221201D02F0A2FB054609E0022104F116
:100FA000240002F04DFC054602E001E0012500BFEF
:100FB00000BF55B9EC482430006820F44010616E41
:100FC0000843E9492431086000E0A846208800F47D
:100FD0008070B0F5807F2DD1606D05281AD2DFE8D2
:100FE00000F0030A10171800DF48006840F40030D2
:100FF000DD49086010E00021201D02F06FFB05466E
:101000000AE0002104F1240002F01AFC054603E086
:1010100002E001E0012500BF00BF55B9D2482430ED
:10102000006820F00700616D0843CF492431086053
:1010300000E0A846208800F40070B0F5007F33D1AE
:10104000A06D802817D003DC40B140281CD10CE0F3
:10105000C02817D0B0F5807F16D114E0C2480068D0
:1010600040F40030C049086010E00021201D02F06B
:1010700035FB05460AE0002104F1240002F0E0FB04
:10108000054603E002E001E0012500BF00BF55B9BD
:10109000B5482430006820F4E070A16D0843B249DF
:1010A0002431086000E0A846208800F48060B0F594
:1010B000806F38D1D4F8A400B0F5800F19D004DCCB
:1010C00050B1B0F5001F1DD10DE0B0F5C00F17D025
:1010D000B0F5000F16D114E0A348006840F40030CA
:1010E000A149086010E00021201D02F0F7FA054632
:1010F0000AE0002104F1240002F0A2FB054603E00F
:1011000002E001E0012500BF00BF5DB996482C3028
:10111000006820F46000D4F8A410084392492C31F0
:10112000086000E0A846208800F40060B0F5006F79
:1011300038D1D4F8A800B0F1007F19D004DC50B148
:10114000B0F1807F1DD10DE0B0F1407F17D0B0F13C
:10115000806F16D114E08448006840F40030824962
:10116000086010E00021201D02F0B8FA05460AE0F0
:10117000002104F1240002F063FB054603E002E0D5
:1011800001E0012500BF00BF5DB977482C30006841
:1011900020F0E060D4F8A810084373492C310860AF
:1011A00000E0A846206800F00070B0F1007F27D171
:1011B000A06CA0B1102804D0202809D030280FD16D
:1011C0000CE06948006840F400306749086009E0B5
:1011D0000221201D02F082FA054603E002E001E050
:1011E000012500BF00BF55B95F482030006820F0DE
:1011F0003000A16C08435C492031086000E0A8463B
:10120000208800F48050B0F5805F36D1E06DB0F5F5
:10121000005F19D004DC50B1B0F5805F1DD10DE046
:10122000B0F5405F17D0B0F5804F16D114E04E48AE
:10123000006840F400304C49086010E00021201D97
:1012400002F04CFA05460AE0002104F1240002F005
:10125000F7FA054603E002E001E0012500BF00BF08
:1012600055B941482430006820F4E040E16D08435E
:101270003D492431086000E0A846208800F4005071
:10128000B0F5005F34D1206EB0F5403F1DD007DCD3
:1012900068B1B0F5803F0BD0B0F5003F18D10DE03C
:1012A000B0F5802F12D0B0F5A02F11D10FE011E0D2
:1012B0000121201D02F012FA05460BE0012104F184
:1012C000240002F0BDFA054604E003E002E001E07C
:1012D000012500BF00BF55B923482430006820F421
:1012E000E020216E084320492431086000E0A84630
:1012F000208800F48040B0F5804F38D1D4F8AC009D
:10130000B0F1405F1DD007DC68B1B0F1805F0BD059
:10131000B0F1005F18D10DE0B0F1804F12D0B0F104
:10132000A04F11D10FE011E00121201D02F0D6F9EC
:1013300005460BE0012104F1240002F081FA054684
:1013400004E003E002E001E0012500BF00BF6DB949
:1013500005482C30006820F0E040D4F8AC10084379
:1013600001492C31086002E02C440258A84620882C
:1013700000F40040B0F5004F26D1E06E98B1B0F116
:10138000805F03D0B0F1005F0ED106E0F94800683D
:1013900040F40030F749086008E00121201D02F008
:1013A0009DF9054602E001E0012500BF00BF55B9E7
:1013B000F0482430006820F04050E16E0843ED49C9
:1013C0002431086000E0A846206800F08070B0F189
:1013D000807F27D1606CA0B1012804D0022809D0F9
:1013E00003280FD10CE0E348006840F40030E149E5
:1013F000086009E00221201D02F070F9054603E0B3
:1014000002E001E0012500BF00BF55B9D9482030F6
:10141000006820F00300616C0843D6492031086061
:1014200000E0A846206800F48000B0F5800F7DD170
:10143000D148006840F48070CF490860FFF720FA77
:10144000064606E0FFF71CFA801B642801D9032535
:1014500005E0C948006800F480700028F2D000BFA1
:1014600085BBC4484430006800F44070B4F8B01044
:1014700001F44071884213D0BE484430006820F423
:101480004077BC484430006840F48030B94944316A
:1014900008600846006820F480300860084607604D
:1014A000D4F8B000B0F5807F15D1FFF7E9F9064612
:1014B00009E0FFF7E5F9801B41F28831884202D943
:1014C000032507E038E0AB4844300068C0F3400033
:1014D0000028EED000BF55BB00BFB4F8B00000F448
:1014E0004070B0F5407F0ED1A2481C38006820F44F
:1014F0007C51A24AD4F8B000104041EA10109D4936
:101500001C39086007E09B481C38006820F47C50B8
:1015100098491C390860974844300068B4F8B01006
:10152000C1F30B0108439349443101E005E001E0B8
:10153000086002E0A84600E0A846207800F001001C
:1015400068B3A06F182819D005DC48B1082808D066
:10155000102816D10BE0202811D0282811D10FE037
:1015600011E00121201D02F0B9F805460BE0012130
:1015700004F1240002F064F9054604E003E002E00F
:1015800001E0012500BF00BF55B97A482830006846
:1015900020F03800A16F084376492831086000E048
:1015A000A846207800F00200022828D1606F0628A3
:1015B00015D2DFE800F003040A11121311E0012133
:1015C000201D02F08BF805460BE0012104F12400F8
:1015D00002F036F9054604E003E002E001E00125EF
:1015E00000BF00BF55B963482830006820F00700ED
:1015F000616F08435F492831086000E0A846207801
:1016000000F0040004282AD1D4F89000062815D24E
:10161000DFE800F003040A11121311E00121201D7C
:1016200002F05CF805460BE0012104F1240002F011
:1016300007F9054604E003E002E001E0012500BFF0
:1016400000BF5DB94B482C30006820F00700D4F88B
:101650009010084347492C31086000E0A8462078E4
:1016600000F02000202836D1D4F88C00B0F1405F83
:101670001DD007DC68B1B0F1805F0BD0B0F1005F26
:1016800018D10DE0B0F1804F12D0B0F1A04F11D1C0
:101690000FE011E00021201D02F020F805460BE0CC
:1016A000022104F1240002F0CBF8054604E003E037
:1016B00002E001E0012500BF00BF5DB92D482830E0
:1016C000006820F0E040D4F88C1008432949283104
:1016D000086000E0A846207800F04000402836D19D
:1016E000D4F89800B0F5406F1DD007DC68B1B0F5B4
:1016F000806F0BD0B0F5006F18D10DE0B0F5805FB2
:1017000012D0B0F5A05F11D10FE011E00021201D33
:1017100001F0E4FF05460BE0022104F1240002F091
:101720008FF8054604E003E002E001E0012500BF78
:1017300000BF5DB90F482C30006820F4E050D4F8A9
:10174000981008430B492C31086000E0A846207827
:1017500000F0800080283AD1D4F89C00B0F5C04F4A
:1017600023D00DDC98B1B0F5005F11D0B0F5804FFB
:101770001ED113E02C44025800480258FFFCFF0F12
:10178000B0F5004F12D0B0F5204F11D10FE011E0AD
:101790000021201D01F0A2FF05460BE0022104F10B
:1017A000240002F04DF8054604E003E002E001E009
:1017B000012500BF00BF4DB9B648006820F4604065
:1017C000D4F89C100843B349086000E0A84620788C
:1017D00000F00800082818D1D4F88000B0F5805F28
:1017E00008D1022104F1240002F02AF868B14FF078
:1017F00001080AE0A748001F006820F44050D4F810
:1018000080100843A349091F0860207800F01000E9
:10181000102816D1D4F89400B0F5807F08D10221A9
:1018200004F1240002F00CF858B14FF0010808E070
:101830009848006820F44070D4F894100843954903
:101840000860206800F40020B0F5002F26D1D4F8FD
:10185000A00030B1B0F5803F09D0B0F5003F0ED107
:101860000CE00021201D01F039FF054609E00221AE
:1018700004F1240001F0E4FF054602E001E0012547
:1018800000BF00BF4DB98348006820F44030D4F851
:10189000A01008437F49086000E0A846206800F4D3
:1018A0008020B0F5802F2DD1D4F88400B0F5801FB2
:1018B00006D0B0F5001F0CD0B0F5401F11D10FE0DD
:1018C00074482C38006840F4003072492C390860A4
:1018D00009E0012104F1240001F0B2FF054602E015
:1018E00001E0012500BF00BF5DB96A48001F006824
:1018F00020F44010D4F8841008436649091F08609A
:1019000000E0A846206800F48030B0F5803F24D184
:10191000E06C18B1B0F5803F0FD108E05D482C387D
:10192000006840F400305B492C39086007E0022170
:10193000201D01F0D3FE054601E0012500BF00BFD8
:1019400055B954480C38006820F48030E16C0843E5
:1019500050490C39086000E0A846206800F00050AB
:10196000B0F1005F07D1022104F1240001F068FF0B
:1019700008B14FF00108206800F40030B0F5003FD6
:1019800027D1E06FA0B1B0F5807F06D0B0F5007F21
:101990000CD0B0F5407F0CD109E03E482C380068EF
:1019A00040F400303B492C39086004E003E002E0D9
:1019B00001E0012500BF00BF55B93648001F00688F
:1019C00020F44070E16F08433249091F086000E0CD
:1019D000A846206800F48010B0F5801F09D12D487A
:1019E0000838006820F00040216F08432949083971
:1019F0000860206800F08050B0F1805F0AD125486F
:101A00004838006820F48040D4F8B41008432149D5
:101A100048390860206800F40010B0F5001F09D1B3
:101A20001C480838006820F08070A16E08431949EE
:101A300008390860206800F08040B0F1804F11D173
:101A400000BF14484838006820F400401149483964
:101A5000086008460068D4F8B81008430D494839B2
:101A6000086000BF206800F00040B0F1004F09D1CD
:101A700008480C38006820F04050216D08430549A3
:101A80000C390860B8F1000F02D10020BDE8F081E8
:101A90000120FBE7584402582DE9F04104460D4669
:101AA00014B90120BDE8F081B648006800F00F00CD
:101AB000A8420ED2B348006820F00F002843B14975
:101AC00008600846006800F00F00A84201D001201D
:101AD000E8E7207800F0040004280ED1AA49206924
:101AE000096801F07001884207D9A748006820F012
:101AF000700021690843A4490860207800F00800BC
:101B0000082811D1A049091D6069096801F0700118
:101B1000884209D99C48001D006820F07000616966
:101B200008439949091D0860207800F0100010282A
:101B300011D19549091DA069096801F4E061884245
:101B400009D99148001D006820F4E060A1690843AC
:101B50008D49091D0860207800F02000202811D14F
:101B600089490831E069096801F07001884209D9A2
:101B700085480830006820F07000E1690843824918
:101B800008310860207800F0020002280ED17E495A
:101B9000E068096801F00F01884207D97A480068B7
:101BA00020F00F00E168084377490860207800F0D2
:101BB0000100002850D07448006820F47060A168CB
:101BC0000843714908606068022807D16E481838D8
:101BD0000068C0F34040F8B9012063E7606803285B
:101BE00007D1694818380068C0F34060A0B90120E7
:101BF00058E76068012807D1634818380068C0F3C7
:101C0000002048B901204DE75F4818380068C0F34C
:101C1000800008B9012045E75B480838006820F0DB
:101C2000070061680843584908390860FEF728FE34
:101C3000064608E0FEF724FE801B41F28831884208
:101C400001D903202EE750480838006800F038001A
:101C50006168B0EBC10FEDD1207800F002000228DE
:101C60000ED14949E068096801F00F01884207D2A6
:101C70004548006820F00F00E168084342490860C9
:101C80004048006800F00F00A8420ED93D480068A7
:101C900020F00F0028433B4908600846006800F028
:101CA0000F00A84201D00120FCE6207800F00400DB
:101CB00004280ED134492069096801F07001884276
:101CC00007D23148006820F07000216908432E498E
:101CD0000860207800F00800082811D12A49091D61
:101CE0006069096801F07001884209D22648001D28
:101CF000006820F07000616908432349091D0860ED
:101D0000207800F01000102811D11F49091DA0698A
:101D1000096801F4E061884209D21B48001D00688F
:101D200020F4E060A16908431749091D0860207884
:101D300000F02000202811D113490831E06909681A
:101D400001F07001884209D20F480830006820F085
:101D50007000E16908430C490831086000F058F848
:101D600009490968C1F30321084A515C01F01F01C8
:101D7000C8400749086007480068FEF7C3FD0746EA
:101D800038468FE600200052184402582E5E0008A4
:101D90001C0000201400002010B5FEF781FE07494A
:101DA000096801F00F01064A515C01F01F01C840AB
:101DB000044908600846006810BD00001844025835
:101DC0002E5E00082000002010B5FFF7E5FF054952
:101DD0000968C1F30211044A515C01F01F01C840B7
:101DE00010BD00001C4402582E5E000810B5FFF71D
:101DF000D3FF05490968C1F30221044A515C01F08F
:101E00001F01C84010BD00001C4402582E5E00088F
:101E1000F0B5824E366806F0380636B1082E15D079
:101E2000102E15D0182E7DD114E07C4E103E366851
:101E3000C6F3401646B1794E103E3668C6F3C10768
:101E4000774E26FA07F000E07548E5E07548E3E0D4
:101E50007548E1E0714E1836366806F003046F4E9F
:101E600018363668C6F305116C4E1C36366806F017
:101E700001056A4E24363668C6F3CC0616FB05F615
:101E800001EE106AB8EE410A002971D024B1012C8C
:101E900050D0022C6DD16DE0604E103E3668C6F316
:101EA00040163EB35D4E103E3668C6F3C1075C4E29
:101EB00026FA07F301EE103AF8EE411A01EE101A75
:101EC000B8EE411A81EE812A9FED581AC0EE011A30
:101ED000524E20363668C6F3080601EE106AB8EE98
:101EE000411A31EE811AF7EE001A31EE211A62EE34
:101EF000010A1EE001EE101AB8EE411ADFED4C1A8D
:101F000081EE812A9FED491AC0EE011A434E203618
:101F10003668C6F3080601EE106AB8EE411A31EED3
:101F2000811A00E076E0F7EE001A31EE211A62EE37
:101F3000010A5BE001EE101AB8EE411A9FED3D2A4E
:101F4000C2EE011A9FED391A80EE012A334E203677
:101F50003668C6F3080601EE106AB8EE411A32EE92
:101F6000011AB7EE002A31EE021A61EE810A3DE055
:101F70004EE01DE001EE101AB8EE411ADFED2E1A08
:101F800081EE812A9FED291AC0EE011A234E2036D8
:101F90003668C6F3080601EE106AB8EE411A31EE53
:101FA000811AF7EE001A31EE211A62EE010A1DE0E5
:101FB00001EE101AB8EE411A9FED1E2AC2EE011A68
:101FC0009FED1A1A80EE012A144E20363668C6F3A9
:101FD000080601EE106AB8EE411A32EE011AB7EEA9
:101FE000002A31EE021A61EE810A00BF00BF0B4EDB
:101FF00020363668C6F34626721C01EE102AB8EE6B
:10200000411AC0EE811ABCEEE11A11EE100A00E08E
:10201000002001E0034800BF00BFF0BD104402589B
:102020000090D00300093D0040787D01000000468B
:102030000024744C0024744A20BCBE4B2DE9F041AE
:10204000044614B90120BDE8F081207800F00100B9
:10205000002871D0F848006800F03806F6481830BB
:102060000768102E05D0182E0FD107F003000228A4
:102070000BD1F14810380068C0F3404000286AD006
:102080006068002867D10120DDE700BF6068B0F517
:10209000803F08D1E8481038006840F48030E649B5
:1020A000103908602EE0606868B9E34810380068AD
:1020B00020F48030E049103908600846006820F4B8
:1020C000802008601EE06068B0F5A02F0DD1DA48CE
:1020D0001038006840F48020D7491039086008465D
:1020E000006840F4803008600CE0D3481038006885
:1020F00020F48030D049103908600846006820F488
:102100008020086000BF606890B1FEF7B9FB05460B
:1021100006E0FEF7B5FB401B642801D9032092E7D7
:10212000C54810380068C0F340400028F1D012E0E4
:10213000FEF7A6FB054607E00EE0FEF7A1FB401BFD
:10214000642801D903207EE7BB4810380068C0F33B
:1021500040400028F1D100BF207800F002000228A2
:102160007ED1B548006800F03806B34818300768DB
:1021700026B1182E48D107F00300C0BBAE48103876
:102180000068C0F3800018B1E06808B901205AE780
:10219000A9481038006820F01900E1680843A649F2
:1021A00010390860FEF76CFB054606E0FEF768FB99
:1021B000401B022801D9032045E79F4810380068DA
:1021C000C0F380000028F1D000BFFEF753FB41F2BE
:1021D000030188420CD898480C38006820F47C3001
:1021E000216940EA013094490C3908600BE00BE0AA
:1021F00091480C38006820F0FE40217C40EA0160E4
:102200008D490C39086059E0E06850B38A481038AD
:10221000006820F01900E168084387491039086018
:10222000FEF72EFB054606E0FEF72AFB401B0228C0
:1022300001D9032007E7804810380068C0F3800008
:102240000028F1D000BFFEF715FB41F203018842E0
:102250000ED879480C38006820F47C30216901E000
:102260002DE011E040EA013073490C3908600AE0C2
:1022700071480C38006820F0FE40217C40EA016083
:102280006D490C39086019E06B481038006820F07F
:102290000100694910390860FEF7F2FA054606E0C8
:1022A000FEF7EEFA401B022801D90320CBE6624874
:1022B00010380068C0F380000028F1D100BF2078FA
:1022C00000F01000102878D15B48006800F0380654
:1022D000594818300768082E05D0182E2FD107F05E
:1022E000030001282BD1544810380068C0F30020A7
:1022F00020B1E069802801D00120A4E600BFFEF7EC
:10230000B9FA41F2030188420CD84B480C380068F6
:1023100020F0F84094F8201040EA816046490C39DA
:1023200008600BE04448001F006820F07C5094F8DF
:10233000201040EA01604049091F086058E0E06948
:10234000D0B33D481038006840F080003A49103959
:102350000860FEF795FA054606E0FEF791FA401B85
:10236000022801D903206EE6334810380068C0F314
:1023700000200028F1D000BFFEF77CFA41F20301F3
:1023800088420CD82C480C38006820F0F84094F8AB
:10239000201040EA816028490C3908600BE026488B
:1023A000001F006820F07C5094F8201040EA016083
:1023B0002149091F08601BE000E01AE01E481038A0
:1023C000006820F080001C4910390860FEF758FAB8
:1023D000054606E0FEF754FA401B022801D9032007
:1023E00031E6154810380068C0F300200028F1D10C
:1023F00000BF207800F00800082836D16069E8B1F5
:102400000D486430006840F001000B4964310860F9
:10241000FEF736FA054606E0FEF732FA401B0228C0
:1024200001D903200FE6044864300068C0F340007F
:102430000028F1D019E0000010440258CF4800688D
:1024400020F00100CD490860FEF71AFA054606E0C3
:10245000FEF716FA401B022801D90320F3E5C7480E
:102460000068C0F340000028F2D1207800F020007E
:10247000202836D1A069D0B1C0487438006840F433
:102480008050BE4974390860FEF7FAF9054606E047
:10249000FEF7F6F9401B022801D90320D3E5B7481F
:1024A00074380068C0F340300028F1D019E0B34818
:1024B0007438006820F48050B04974390860FEF721
:1024C000DFF9054606E0FEF7DBF9401B022801D9DB
:1024D0000320B8E5A94874380068C0F340300028EC
:1024E000F1D1207800F0040004287DD1A4480068D0
:1024F00040F48070A2490860FEF7C2F9054606E084
:10250000FEF7BEF9401B642801D903209BE59C48D7
:10251000006800F480700028F2D000BFA068012895
:1025200008D19648001F006840F001009349091F38
:1025300008602DE0A06868B99048001F006820F08E
:1025400001008E49091F08600846006820F0040059
:1025500008601DE0A06805280DD18848001F0068AC
:1025600040F004008549091F08600846006840F0F3
:10257000010008600CE08148001F006820F00100A5
:102580007E49091F08600846006820F004000860C2
:1025900000BFA068A0B1FEF773F9054608E0FEF79A
:1025A0006FF9401B41F28831884201D903204AE586
:1025B0007248001F0068C0F340000028EFD013E00D
:1025C000FEF75EF9054608E0FEF75AF9401B41F2B6
:1025D0008831884201D9032035E56848001F00682A
:1025E000C0F340000028EFD1606A00287ED0634825
:1025F0006438006800F03800182878D0606A022833
:1026000076D15E487438006820F080705B49743978
:102610000860FEF735F9054606E0FEF731F9401B84
:10262000022801D903200EE5544874380068C0F32D
:1026300040600028F1D100BFD4E90A1041EA00103F
:102640004E494C39096840F2F332914308434B49F3
:102650004C390860208E401EC0F30800616B491E93
:102660004FF47E4202EA41210843218F491ED201E4
:1026700002EA014108433C21095D491E120202EAB7
:10268000016108433D494439086000BF081F0068E4
:1026900020F00100091F08603848403800684FF6F4
:1026A000F8718843A16C40EAC100344940390860A0
:1026B00032484838006820F00C00216C08432F494C
:1026C000483908600846006820F00200616C084341
:1026D0002A49483908600846006840F4803008609C
:1026E0000846006840F40030086002E043E040E043
:1026F00024E00846006840F480200860084600682E
:1027000040F0010008601D487438006840F0807097
:102710001A4974390860FEF7B3F8054606E0FEF77B
:10272000AFF8401B022801D903208CE41348743809
:102730000068C0F340600028F1D01CE00F487438F6
:10274000006820F080700D4974390860FEF798F831
:10275000054606E0FEF794F8401B022801D9032045
:1027600071E4064874380068C0F340600028F1D175
:1027700001E0012067E4002065E400007444025891
:102780000048025870B504462546681EB0F1807FA7
:1027900001D301200FE0681E4FF0E02148610F21B6
:1027A0004FF0FF3003F05CFA00204FF0E021886129
:1027B00007200861002070BD30B502460B4600BFFF
:1027C00092F83C00012801D1022030BD012082F89E
:1027D0003C0000BF022082F83D001068416810688C
:1027E0008468114D1068A84203D0104D1068A842AB
:1027F00003D121F470015868014321F07001186879
:10280000014324F080049868044310684160106814
:102810008460012082F83D0000BF002082F83C0067
:1028200000BF00BFD1E700000000014000040140EC
:1028300010B504460CB9012010BD94F83D0028B92C
:10284000002084F83C00204600F00CF8022084F8B8
:102850003D00211D206801F063F9012084F83D004E
:102860000020E9E708B50168B1F1804F0DD100BF44
:102870000F49096841F001010D4A116011460968CC
:1028800001F00101009100BF11E00A4A0168914284
:102890000DD100BF0649096841F00201044A1160E8
:1028A0001146096801F00201009100BF00BF08BD98
:1028B000E8440258000400402DE9F04104460D466A
:1028C00000BF94F83C00012802D10220BDE8F0814D
:1028D000012084F83C0000BF022084F83D002068FD
:1028E00086684048064026F47F462068866028684F
:1028F000702826D00CDC00F00F01002966D10011F1
:10290000072863D2DFE800F0555657584B3741008F
:10291000B0F1101F52D009DCB0F5805F10D0B0F5D7
:10292000005F1BD0B0F5801F50D146E0A0F58010AD
:102930002038002843D0102842D0202846D140E03B
:1029400045E0D5E902136A68206801F060F9206863
:10295000866846F077062068866038E0D5E902137D
:102960006A68206801F053F92068806840F480406C
:10297000216888602BE0EA686968206801F00AFB3A
:102980005021206801F04EF921E0EA68696820686A
:1029900001F013FB6021206801F044F917E0EA68B8
:1029A0006968206801F0F6FA4021206801F03AF9E0
:1029B0000DE000BF00BF00BF00BF00BF00BF00BFF1
:1029C00000BF2968206801F02DF900E000BF00BFBA
:1029D000012084F83D0000BF002084F83C0000BFC7
:1029E00000BF73E788FFCEFF10B586B00446142100
:1029F00001A8FDF7A5FC2068B0F1804F1BD100BFF6
:102A00001D48006840F001001B4908600846006846
:102A100000F00100009000BF00BF032001900220E1
:102A200002900020039004900120059001A9134812
:102A3000FDF716FE1EE01249206888421AD100BF39
:102A40000D48006840F001000B4908600846006826
:102A500000F00100009000BF00BFC02001900220E4
:102A600002900020039004900220059001A90348E1
:102A7000FDF7F6FD06B010BDE04402580000025814
:102A80000004004070B504460D46164600BF94F899
:102A90003C00012801D1022070BD012084F83C00D7
:102AA00000BF022084F83D000C2E51D005DC4EB151
:102AB000042E1ED0082E7AD133E0102E60D0142EB2
:102AC000F9D175E02946206801F0B8F820688069DE
:102AD00040F00800216888612068806920F00400C7
:102AE00021688861206880692969084321688861B4
:102AF00077E02946206801F0F7F82068806940F403
:102B00000060216888612068806920F48060216805
:102B1000886120688069296940EA0120216888610C
:102B20005FE02946206801F039F92068C06940F06B
:102B300008002168C8612068C06920F0040021688D
:102B4000C8612068C069296908432168C86148E0F4
:102B50002946206801F07AF92068C06940F40060D5
:102B60002168C8612068C06920F480602168C8615C
:102B70002068C069296940EA01202168C86130E005
:102B80002946206801F09AF92068406D40F008005D
:102B9000216848652068406D20F004002168486580
:102BA0002068406D296908432168486519E017E0ED
:102BB0002946206801F0B8F92068406D40F40060B3
:102BC000216848652068406D20F480602168486570
:102BD0002068406D296940EA01202168486500E0CD
:102BE00000BF00BF012084F83D0000BF002084F832
:102BF0003C0000BF00BF4FE710B504460CB90120F0
:102C000010BD94F83D0028B9002084F83C0020460F
:102C100000F00CF8022084F83D00211D206800F02F
:102C20007FFF012084F83D000020E9E770470000A5
:102C300070B504460E4601223146206800F0D6FFEA
:102C40001749206888420FD01649206888420BD067
:102C500015492068884207D014492068884203D06B
:102C600013492068884201D1012000E0002028B1EA
:102C70002068406C40F40040216848642068806807
:102C80000C4900EA0105062D08D0B5F5803F05D0B6
:102C90002068006840F0010021680860002070BDD5
:102CA0000000014000040140004001400044014098
:102CB0000048014007000100014600BF91F87C0078
:102CC000012801D102207047012081F87C0000BF5B
:102CD0002420C1F88000086802680868006820F0B5
:102CE00001000B68186022F0005200204866086856
:102CF00002602020C1F8800000BF002081F87C0025
:102D000000BF00BFDFE7704770B504460D4600BF47
:102D100094F87C00012801D1022070BD012084F8C4
:102D20007C0000BF2420C4F880002068066820686A
:102D3000006820F00100216808602068806820F0A9
:102D40006060284321688860204601F04BF92068C4
:102D500006602020C4F8800000BF002084F87C00BA
:102D600000BF00BFD9E770B504460D4600BF94F818
:102D70007C00012801D1022070BD012084F87C0074
:102D800000BF2420C4F8800020680668206800681E
:102D900020F00100216808602068806820F0604011
:102DA000284321688860204601F01CF920680660ED
:102DB0002020C4F8800000BF002084F87C0000BF01
:102DC00000BFD9E77047704770470146D1F880309F
:102DD000D1F8842043EA0200704700002DE9F04753
:102DE00004462068C569206806682068876840F640
:102DF0000F0005EA0008B8F1000F0FD105F0200020
:102E000060B106F0200010B907F0805030B1E06EDC
:102E100010B12046E16E8847BDE8F087B8F1000F99
:102E20007ED06E48384018B96D4830400028F7D041
:102E300005F0010058B106F4807040B1012021680E
:102E40000862D4F8880040F00100C4F8880005F05A
:102E5000020058B107F0010040B102202168086269
:102E6000D4F8880040F00400C4F8880005F004009D
:102E700058B107F0010040B1042021680862D4F87D
:102E8000880040F00200C4F8880005F0080070B126
:102E900006F0200010B95148384040B108202168A0
:102EA0000862D4F8880040F00800C4F8880005F4EF
:102EB000006060B106F0806048B14FF400602168A6
:102EC0000862D4F8880040F02000C4F88800D4F8E4
:102ED0008800002844D005F0200050B106F0200002
:102EE00010B907F0805020B1E06E10B12046E16EBD
:102EF0008847D4F888902068806800F04000402817
:102F000002D009F0280028B3204601F065F92068B6
:102F1000806800F04000402818D12068806800E0F8
:102F20001FE020F0400021688860A06F50B12D485C
:102F3000A16F0865A06FFDF743FA88B1A06F016D1E
:102F400088470DE02046FFF73FFF09E02046FFF7E6
:102F50003BFF05E02046FFF737FF0020C4F888005C
:102F60005AE705F4801050B107F4800038B14FF4EF
:102F70008010216808622046FFF725FF4CE705F026
:102F8000800058B106F0800010B907F4000028B1A5
:102F9000206F10B12046216F88473DE705F04000C3
:102FA00030B106F0400018B1204601F029F933E7AE
:102FB00005F4000030B106F0804018B12046FFF75C
:102FC00001FF29E705F0807030B106F0004018B12C
:102FD0002046FFF798FE1FE700BF1DE70100001025
:102FE00020010004C141000810B504460CB90120BD
:102FF00010BDA06900B100E000BFD4F8800028B97E
:10300000002084F87C00204600F02AF82420C4F830
:1030100080002068006820F00100216808602046D8
:1030200001F022FA012800D1E2E7A06A10B120469F
:1030300001F010F82068406820F490402168486052
:103040002068806820F02A00216888602068006875
:1030500040F0010021680860204601F077F8C7E7DA
:1030600010B586B00446142101A8FDF769F91C4982
:103070002068884232D100BF1A48006840F400300E
:10308000184908600846006800F40030009000BF4E
:1030900000BF00BF13480838006840F00100114924
:1030A000083908600846006800F00100009000BF81
:1030B00000BF0C2001900220029000200390049099
:1030C0000720059001A90848FDF7CAFA0022114619
:1030D0002620FDF765FC2620FDF752FC06B010BD4A
:1030E00000440040E84402580000025810B503466E
:1030F000D3F88400202874D101B10AB9012010BD91
:1031000000BF93F87C00012801D10220F7E70120DD
:1031100083F87C0000BF9965A3F85C20A3F85E20CB
:103120000020D86600BF9868B0F5805F0AD11869A2
:1031300020B940F2FF10A3F8600020E0FF20A3F8C0
:1031400060001CE0986848B9186918B9FF20A3F816
:10315000600014E07F20A3F8600010E09868B0F1F0
:10316000805F09D1186918B97F20A3F8600006E0D4
:103170003F20A3F8600002E00020A3F8600000BF39
:103180000020C3F888002220C3F8840018688068F3
:1031900040F001001C68A060586EB0F1005F21D1C2
:1031A000B3F8680090421DDC9868B0F5805F04D1E8
:1031B000186910B91848D86601E01848D86600BFE9
:1031C000002083F87C0000BF1868006840F480701D
:1031D0001C6820601868806840F080501C68A060FF
:1031E00016E017E09868B0F5805F04D1186910B94F
:1031F0000B48D86601E00B48D86600BF002083F872
:103200007C0000BF1868006840F490701C68206063
:10321000002074E7022072E795420008B5430008D9
:10322000234200084943000810B58EB004463349D4
:10323000206888425FD132A2D2E900109268CDE9BD
:103240000C020B9131A30FCBCDE90923CDE9070186
:1032500032A30FCBCDE90523CDE9030133A103C987
:10326000CDE9010133480078312806D0322813D047
:10327000332820D034283CD12CE002F0C8FD42F2A3
:1032800010730E2203A92C4800F058F80122294996
:103290002948FFF72BFF2CE002F05EFD42F210738D
:1032A0000C220BA9244800F049F8012221492248A8
:1032B000FFF71CFF1DE002F09BFD42F210730D2290
:1032C00007A91D4800F03AF801221A491A48FFF7E9
:1032D0000DFF0EE002F07EFD42F21073072201A9FD
:1032E000154800F02BF8012212491348FFF7FEFEA3
:1032F00000BF00BF00BF0EB010BD00000044004082
:103300007475726E5F6C656674200A007475726EF7
:103310005F7269676874200A00000000676F5F735E
:1033200074726169676874200A00000073746F70BA
:10333000200A00000F000020A40000202DE9F84F13
:1033400004460E4617469946D4F8800020285DD1E1
:1033500006B117B90120BDE8F88F00BF94F87C00D2
:10336000012801D10220F6E7012084F87C0000BF8B
:103370000020543460632120E062FDF781FA824628
:1033800027806780543CA068B0F5805F04D1206935
:1033900010B90025B04602E035464FF000081DE0A8
:1033A0005346002280212046CDF8009002F0D4FB45
:1033B00008B10320CFE745B9B8F80000C0F3080012
:1033C0002168886208F1020803E028782168886291
:1033D0006D1CB4F85600401EA4F85600B4F8560010
:1033E0000028DDD15346002240212046CDF8009030
:1033F00002F0B2FB08B10320ADE72020C4F8800042
:1034000000BF002084F87C0000BFA4E70220A2E7F0
:10341000704700BFFEE7000000B587B0142102A886
:10342000FCF78EFF00BF3148006840F080002F4954
:1034300008600846006800F08000019000BF00BFEF
:1034400000BF0846006840F00100086008460068B8
:1034500000F00100019000BF00BF00BF08460068F7
:1034600040F0040008600846006800F00400019085
:1034700000BF00BF00BF0846006840F008000860B9
:103480000846006800F00800019000BF00BF00225D
:103490004FF470711648FDF7E7F900221E21154818
:1034A000FDF7E2F94FF470700290012003900020C4
:1034B0000490059002A90E48FDF7D2F84FF4407031
:1034C000029000200390049002A90B48FDF7C8F871
:1034D0001E2002900120039000200490059002A974
:1034E0000448FDF7BDF807B000BD0000E0440258F5
:1034F00000080258000C02580000025800B58FB0B6
:1035000000200B900C900D900E90089009900A905E
:103510001C2101A8FCF714FF4FF0804023490860EC
:103520004720486000212148816040F2CF71C1608E
:103530000021016180218161FFF77AF908B1FCF770
:103540003EFF4FF480500B900BA91848FFF7B4F9D9
:1035500008B1FCF734FF1548FFF74EFB08B1FCF744
:103560002EFF002008900A9008A91048FFF724F9C0
:1035700008B1FCF724FF6020019000200290039026
:103580000590002201A90948FFF77CFA08B1FCF771
:1035900016FF042201A90548FFF774FA08B1FCF7E9
:1035A0000EFF0248FFF720FA0FB000BD24000020F4
:1035B00000B58FB000200B900C900D900E900890ED
:1035C00009900A901C2101A8FCF7BAFE244825495D
:1035D00008603F20486000212248816040F2F311DA
:1035E000C1600021016180218161FFF721F908B1EB
:1035F000FCF7E5FE4FF480500B900BA91948FFF73C
:103600005BF908B1FCF7DBFE1648FFF7F5FA08B1E5
:10361000FCF7D5FE002008900A9008A91148FFF792
:10362000CBF808B1FCF7CBFE60200190002002909F
:1036300003900590002201A90A48FFF723FA08B178
:10364000FCF7BDFE042201A90648FFF71BFA08B1EA
:10365000FCF7B5FE0348FFF7C7F90FB000BD000047
:10366000000400406400002010B5184818490860A4
:103670004FF416504860002115488160C160016117
:103680000C21416100218161C16101624162002020
:103690000F4988620846FFF7A7FC08B1FCF78FFEC8
:1036A00000210B48FFF75FFB08B1FCF788FE002103
:1036B0000748FFF729FB08B1FCF781FE0448FFF734
:1036C000FBFA08B1FCF77BFE10BD0000004400408F
:1036D000A400002000BFFEE7704770472DE9F041CD
:1036E00004460E4600275548006800F003000328F2
:1036F00002D10120BDE8F08150482838006820F050
:1037000080604E4928390860FDF7BAF8054606E0A2
:10371000FDF7B6F8401B022801D90320EAE7474825
:1037200028380068C0F3C0600028F1D100BF4348CA
:10373000006820F47C30216840EA01303F4908608D
:10374000A088401EC0F30800A168491E4FF47E42C5
:1037500002EA41210843A189491ED20102EA01413E
:103760000843217C491E120202EA016108433349E1
:103770001031086000BF3148001D006820F0C00013
:10378000616908432D49091D08600846006820F05A
:103790002000A16908432949091D086008460068FE
:1037A00020F0100008602548143000684FF6F871CA
:1037B0008843E16940EAC1002049143108601F488C
:1037C000001D006840F010001C49091D08602EB95A
:1037D0000846006840F40020086012E0012E08D17D
:1037E0001648001D006840F480101449091D086047
:1037F00007E01248001D006840F400100F49091D41
:1038000008600E482838006840F080600B4928396D
:103810000860FDF735F8054606E0FDF731F8401B76
:10382000022801D9032065E7044828380068C0F35E
:10383000C0600028F1D038465CE7000028440258F8
:103840002DE9F04104460E4600275548006800F077
:103850000300032802D10120BDE8F0815048283838
:10386000006820F080504E4928390860FDF708F8BC
:10387000054606E0FDF704F8401B022801D90320A5
:10388000EAE7474828380068C0F340700028F1D1C3
:1038900000BF4348006820F07C70218840EA015056
:1038A0003F490860A088401EC0F30800A168491E77
:1038B0004FF47E4202EA41210843A189491ED20108
:1038C00002EA01410843217C491E120202EA016119
:1038D000084333491831086000BF3148001D0068B3
:1038E00020F44060616908432D49091D08600846BD
:1038F000006820F40070A16908432949091D086087
:103900000846006820F48070086025481C30006874
:103910004FF6F8718843E16940EAC10020491C3143
:1039200008601F48001D006840F480701C49091D94
:1039300008602EB90846006840F48000086012E074
:10394000012E08D11648001D006840F400001449FB
:10395000091D086007E01248001D006840F08070F3
:103960000F49091D08600E482838006840F0805053
:103970000B4928390860FCF783FF054606E0FCF791
:103980007FFF401B022801D9032065E7044828383F
:103990000068C0F340700028F1D038465CE70000B2
:1039A00028440258704710B5FCF770FF10BD0000A6
:1039B00000B5CBB04C2138A8FCF7C2FC202130A8C0
:1039C000FCF7BEFCBC2101A8FCF7BAFC0220FDF705
:1039D00039F800BF002000902548006820F0010061
:1039E000234908600846006800F001000090214863
:1039F000006820F4404040F480401E4908600846BA
:103A0000006800F44040009000BF00BF00BF1948AC
:103A10000068C0F340300028F9D00220389001201F
:103A20003B9020203C900020419038A8FEF706FBF8
:103A300008B1FCF7C4FC3F20309000203190329058
:103A400033903490359036903790002130A8FEF7AF
:103A500023F808B1FCF7B3FC0220019000201E906F
:103A600001A8FDF777FA08B1FCF7A9FC4BB000BD3F
:103A70002C040058184802582448006840F470008C
:103A8000224908602248006840F00100204908608F
:103A900000201F49103108601D4800681D4908407A
:103AA0001B49086000201A4918310860091D086088
:103AB000091D0860164928310860091D0860091DA4
:103AC0000860091D0860091D0860091D0860091DBE
:103AD0000860091D08600E48006820F480200C4929
:103AE000086000200A49603108600B4800686FF3E5
:103AF0000F00B0F1005F02D20120084908604FF0CA
:103B000000600249803908607047000088ED00E0DD
:103B1000004402587FEDF6EA0010005C0881005175
:103B200010B50268294B98420ED0B0F1804F0BD0EF
:103B3000274B984208D0274B984205D0264B9842F5
:103B400002D0264B984203D122F070024B681A43F0
:103B50001E4B984217D0B0F1804F14D01C4B9842A6
:103B600011D01C4B98420ED01B4B98420BD01B4BD4
:103B7000984208D01A4B984205D01A4B984202D06E
:103B8000194B984203D122F44072CB681A4322F0B9
:103B900080034C6943EA040202608B68C3620B68CD
:103BA00083620A4B98420BD00C4B984208D00C4BC6
:103BB000984205D00B4B984202D00B4B984201D152
:103BC0000B6903630123436110BD00000000014045
:103BD0000004004000080040000C004000040140C8
:103BE00000400140004401400048014030B501F070
:103BF0001F05012404FA05F3046A9C430462046A65
:103C000001F01F0502FA05F52C43046230BD30B502
:103C10000C46816821F47F4142EA0325254329436C
:103C2000816030BD0A468168034B194042F00703AA
:103C300019438160704700008FFFCFFF30B5056AE0
:103C400025F001050562026A43688469204D2C4015
:103C500024F003040D682C4322F002028D682A43ED
:103C60001C4DA84200D10FE01B4DA84200D10BE033
:103C70001A4DA84200D107E0194DA84200D103E037
:103C8000184DA84206D100BF22F00802CD682A4391
:103C900022F004020F4DA8420BD00F4DA84208D0CD
:103CA0000E4DA84205D00E4DA84202D00D4DA8429F
:103CB00007D123F4807323F400734D692B438D697E
:103CC0002B43436084614D684563026230BD000050
:103CD0008FFFFEFF00000140000401400040014052
:103CE000004401400048014030B5056A25F0100548
:103CF0000562026A43688469224D2C4024F44074B2
:103D00000D6844EA052422F020028D6842EA05127B
:103D10001D4DA84200D10FE01C4DA84200D10BE080
:103D20001B4DA84200D100BF1A4DA84200D100BFD0
:103D3000194DA84207D106E022F08002CD6842EA80
:103D4000051222F04002104DA8420BD00F4DA842A0
:103D500008D00F4DA84205D00E4DA84202D00E4DFE
:103D6000A84209D123F4806323F400634D6943EA38
:103D700085038D6943EA8503436084614D688563EB
:103D8000026230BDFF8FFFFE0000014000040140D1
:103D900000400140004401400048014030B5056A40
:103DA00025F480750562026A4368C46924F07004D2
:103DB00024F003040D682C4322F400728D6842EA5B
:103DC00005221D4DA84200D10FE01C4DA84200D194
:103DD0000BE01B4DA84200D100BF1A4DA84200D1F4
:103DE00000BF194DA84207D106E022F40062CD6859
:103DF00042EA052222F480620F4DA8420BD00F4DFB
:103E0000A84208D00E4DA84205D00E4DA84202D0BF
:103E10000D4DA84209D123F4805323F400534D697A
:103E200043EA05138D6943EA05134360C4614D6895
:103E3000C563026230BD0000000001400004014083
:103E400000400140004401400048014030B5056A8F
:103E500025F480550562036A4468C26922F4E04291
:103E600022F440720D6842EA052223F400538D6863
:103E700043EA05330C4DA8420BD00C4DA84208D0A4
:103E80000B4DA84205D00B4DA84202D00A4DA842C6
:103E900004D124F480444D6944EA85144460C2612D
:103EA0004D680564036230BD00000140000401401C
:103EB00000400140004401400048014030B5056A1F
:103EC00025F480350562046A4268436D23F070036F
:103ED0000D682B4324F400340D8944EA05440D4D4C
:103EE000A8420BD00C4DA84208D00C4DA84205D0DA
:103EF0000B4DA84202D00B4DA84204D122F48032CF
:103F00004D6942EA0522426043654D688565046259
:103F100030BD0000000001400004014000400140AD
:103F2000004401400048014030B5056A25F4801581
:103F30000562036A4468426D22F4E0420D6842EA79
:103F4000052223F400130D8943EA05530C4DA842C2
:103F50000BD00C4DA84208D00B4DA84205D00B4DFC
:103F6000A84202D00A4DA84204D124F400344D697D
:103F700044EA8524446042654D68C565036230BDEE
:103F800000000140000401400040014000440140A5
:103F90000048014030B50B461446026A056A25F018
:103FA00001050562816921F0F00141EA041122F066
:103FB0000A021A438161026230BD30B50B461446D5
:103FC000056A25F0100505628169026A21F47041D5
:103FD00041EA043122F0A00242EA03128161026246
:103FE00030BD00007FB517A660CECDE9025617A6FA
:103FF00060CECDE90056456E2DB90125A0F86A5076
:10400000A0F868501CE0082308240568AD68C5F3D3
:1040100042610568AD686A0F02ADAD5C15FB04F541
:104020001DF8026095FBF6F5A0F86A5002AD6D5CD4
:1040300015FB03F51DF8016095FBF6F5A0F8685037
:104040007FBD000001010103070100000804020414
:104050000801010190F8281001F0010139B101684F
:10406000496821F40031C26A11430268516090F836
:10407000281001F00201022907D10168496821F4E2
:104080008031026B11430268516090F8281001F0F2
:104090000401042907D10168496821F48021426B99
:1040A00011430268516090F8281001F008010829B6
:1040B00007D10168496821F40041826B114302680D
:1040C000516090F8281001F01001102907D1016803
:1040D000896821F48051C26B11430268916090F8A5
:1040E000281001F02001202907D10168896821F4F6
:1040F0000051026C11430268916090F8281001F0A1
:104100004001402913D10168496821F48011426CB3
:10411000114302685160416CB1F5801F07D10168FD
:10412000496821F4C001826C11430268516090F823
:10413000281001F08001802907D10168496821F425
:104140000021C26C114302685160704738B50446C3
:104150000020C4F88800FCF793FB0546206800683F
:1041600000F0080008280CD16FF07E402B4600229A
:104170004FF400110090204601F0EEFC08B103203E
:1041800038BD2068006800F0040004280CD16FF0EE
:104190007E402B4600224FF480010090204601F023
:1041A000DBFC08B10320EBE72020C4F88000C4F852
:1041B000840000BF002084F87C0000BF00BFDFE760
:1041C00070B50546AC6B0020A4F85E00A4F856005C
:1041D0002046FEF7F9FD70BD0168096821F4907171
:1041E0000268116001688968044A114002689160A0
:1041F0002021C0F884100021C1667047FEFFFFEF48
:1042000010B504462068006820F04000216808606E
:104210002020C4F88000002020672046FFF7F8F82F
:1042200010BD2DE9F0410446B4F86070D4F8840064
:10423000222826D12068406A86B2A56D06EA0700CA
:104240002880A06D801CA065B4F85E00401EA4F814
:104250005E00B4F85E00D0B92068006820F4907069
:10426000216808602068806820F00100216888606B
:104270002020C4F884000020E0662046FEF7D4FF2A
:1042800005E02068806940F0080021688861BDE889
:10429000F08100002DE9F0470446B4F86090D4F8AE
:1042A0008400222843D1B4F8685028E02068406A8E
:1042B0001FFA80F8A76D08EA09003880A06D801CFD
:1042C000A065B4F85E00401EA4F85E00B4F85E007D
:1042D00098B92068006820F4807021680860206820
:1042E000806817490840216888602020C4F884004D
:1042F0000020E0662046FEF797FF681E85B2002D7D
:10430000D4D1B4F85E60C6B1B4F86800B04214DD30
:104310002068806820F08050216888600948E06645
:104320002068006840F020002168086005E02068EF
:10433000806940F0080021688861BDE8F0870000CE
:10434000FEFFFFEF2342000870B50446B4F860603A
:10435000D4F88400222826D12068406A85B2F0B2C1
:104360002840A16D0870A06D401CA065B4F85E00E7
:10437000401EA4F85E00B4F85E00D0B92068006862
:1043800020F49070216808602068806820F00100A7
:10439000216888602020C4F884000020E066204660
:1043A000FEF742FF05E02068806940F008002168C0
:1043B000886170BD2DE9F0410446B4F86080D4F8FE
:1043C0008400222843D1B4F8685028E02068406A6D
:1043D00087B208F0FF003840A16D0870A06D401C46
:1043E000A065B4F85E00401EA4F85E00B4F85E005C
:1043F00098B92068006820F48070216808602068FF
:10440000806817490840216888602020C4F884002B
:104410000020E0662046FEF707FF681E85B2002DEB
:10442000D4D1B4F85E60C6B1B4F86800B04214DD0F
:104430002068806820F08050216888600948E06624
:104440002068006840F020002168086005E02068CE
:10445000806940F0080021688861BDE8F0810000B3
:10446000FEFFFFEF494300082DE9F04F89B00446F5
:104470004FF00009002007908346F94920688842E0
:1044800000D100E000BF2169A068084361690843CA
:10449000E16940EA010A606E40EA0A0A20680068A1
:1044A000F049084040EA0A00216808602068406836
:1044B00020F44050E168084321684860D4F818A00F
:1044C000E7492068884202D0206A40EA0A0A206848
:1044D0008068E549084040EA0A0021688860206851
:1044E000C06A20F00F00616A08432168C86200BFFB
:1044F000DE492068884220D1DD48006800F038009D
:10450000182811D005DC48B1082809D0102811D18D
:1045100008E020280AD028280CD109E001250BE06A
:10452000042509E0082507E0102505E0202503E023
:10453000402501E0802500BFF8E0CE492068884290
:1045400019D1CB48006800F00700062810D2DFE838
:1045500000F0030507090B0D00250BE0042509E019
:10456000082507E0102505E0202503E0402501E0AF
:10457000802500BFDAE0C0492068884219D1BC48D4
:10458000006800F00700062810D2DFE800F00305FD
:1045900007090B0D00250BE0042509E0082507E0BD
:1045A000102505E0202503E0402501E0802500BF1F
:1045B000BCE0B2492068884219D1AD48006800F0DB
:1045C0000700062810D2DFE800F0030507090B0DED
:1045D00000250BE0042509E0082507E0102505E08B
:1045E000202503E0402501E0802500BF9EE0A4498E
:1045F0002068884219D19E48006800F0070006280C
:1046000010D2DFE800F0030507090B0D00250BE0D1
:10461000042509E0082507E0102505E0202503E032
:10462000402501E0802500BF80E09649206888424F
:1046300020D18F48006800F03800182811D005DC20
:1046400048B1082809D0102811D108E020280AD044
:1046500028280CD109E001250BE0042509E00825F4
:1046600007E0102505E0202503E0402501E0802536
:1046700000BF5BE084492068884219D17C4800680B
:1046800000F00700062810D2DFE800F00305070954
:104690000B0D00250BE0042509E0082507E0102597
:1046A00005E0202503E0402501E0802500BF3DE036
:1046B00076492068884219D16D48006800F00700EB
:1046C000062810D2DFE800F0030507090B0D0025CE
:1046D0000BE0042509E0082507E0102505E020256A
:1046E00003E0402501E0802500BF1FE05C49206811
:1046F00088421AD15E48001D006800F007000628B5
:1047000010D2DFE800F0030507090B0D02250BE0CE
:10471000042509E0082507E0102505E0202503E031
:10472000402501E0802500BF00E0802500BF4C4906
:104730002068884271D1102D70D006DC022D09D07E
:10474000042D49D0082D6AD1A6E0202D68D0402D37
:10475000F9D1B3E1FCF7BCF9616A09B9012138E08C
:10476000616A012901D1022133E0616A022901D184
:1047700004212EE0616A032901D1062129E0616A42
:10478000042901D1082124E0616A052901D10A2107
:104790001FE0616A062901D10C211AE0616A07292C
:1047A00001D1102115E0616A082901D1202110E012
:1047B000616A092901D140210BE0616A0A2901D10E
:1047C000802106E0616A0B2902D14FF4807100E07C
:1047D0000121B0FBF1FBB6E104A8FCF78BF90598C9
:1047E000616A09B9012154E0616A012901D10221FC
:1047F0004FE0616A022901D104214AE0616A03297C
:1048000001D1062145E0616A042901D1082140E077
:10481000616A052905D10A213BE0FDE380E08FE1D3
:104820000BE1616A062901D10C2132E0616A072996
:1048300001D110212DE0616A082901D1202128E051
:10484000616A092901D1402123E0616A0A2901D165
:1048500080211EE0616A0B291AD14FF4807118E0A3
:10486000000C0058F369FFCFFFF4FF110010014066
:10487000544402580044004000480040004C0040AE
:10488000005000400014014000780040007C0040CF
:104890000121B0FBF1FB56E101A8FCF743FA0298B5
:1048A000616A09B9012138E0616A012901D1022157
:1048B00033E0616A022901D104212EE0616A0329F3
:1048C00001D1062129E0616A042901D1082124E0EF
:1048D000616A052901D10A211FE0616A062901D117
:1048E0000C211AE0616A072901D1102115E0616AE3
:1048F000082901D1202110E0616A092901D1402154
:104900000BE0616A0A2901D1802106E0616A0B2966
:1049100002D14FF4807100E00121B0FBF1FB12E104
:10492000FA480068C0F3401088B3F8480068C0F344
:10493000C101F748C840616A09B9012139E0616ADB
:10494000012901D1022134E0616A022901D1042147
:104950002FE0616A032901D106212AE0616A042956
:1049600001D1082125E0616A052901D10A2120E051
:10497000616A062901D10C211BE0616A072901D176
:10498000102116E0616A082902D1202111E013E00C
:10499000616A092901D140210BE0616A0A2901D12C
:1049A000802106E0616A0B2902D14FF4807100E09A
:1049B0000121B0FBF1FB3FE0606A08B9012038E05B
:1049C000606A012801D1022033E0606A022801D127
:1049D00004202EE0606A032801D1062029E0606AE5
:1049E000042801D1082024E0606A052801D10A20AA
:1049F0001FE0606A062801D10C201AE0606A0728CF
:104A000001D1102015E0606A082801D1202010E0B3
:104A1000606A092801D140200BE0606A0A2801D1B0
:104A2000802006E0606A0B2802D14FF4807000E01D
:104A30000120B749B1FBF0FB85E0606A08B90120AD
:104A400038E0606A012801D1022033E0606A022860
:104A500001D104202EE0606A032801D1062029E05C
:104A6000606A042801D1082024E0606A052801D189
:104A70000A201FE0606A062801D10C201AE0606A53
:104A8000072801D1102015E0606A082801D12020F4
:104A900010E0606A092801D140200BE0606A0A2812
:104AA00001D1802006E0606A0B2802D14FF48070AB
:104AB00000E001209749B1FBF0FB44E0606A08B9CF
:104AC000012038E0606A012801D1022033E0606AE9
:104AD000022801D104202EE0606A032801D10620BB
:104AE00029E0606A042801D1082024E0606A0528D2
:104AF00001D10A201FE0606A062801D10C201AE0CB
:104B0000606A072801D1102015E0606A082801D1E9
:104B1000202010E0606A092801D140200BE0606A83
:104B20000A2801D1802006E0606A0B2802D14FF4E8
:104B3000807000E001204FF40041B1FBF0FB02E087
:104B40000120079000BF00BFBBF1000F00F0F2870B
:104B5000606800EB4000584503D860680003584582
:104B600003D20120079000F0E5BF102D75D006DCC0
:104B7000022D09D0042D67D0082D6FD1CCE0202D57
:104B80006DD0402DF9D14DE2FBF7A2FF8046606A5F
:104B900008B9012238E0606A012801D1022233E01D
:104BA000606A022801D104222EE0606A032801D144
:104BB000062229E0606A042801D1082224E0606A04
:104BC000052801D10A221FE0606A062801D10C22C3
:104BD0001AE0606A072801D1102215E0606A0828EF
:104BE00001D1202210E0606A092801D140220BE0A7
:104BF000606A0A2801D1802206E0606A0B2802D18F
:104C00004FF4807200E0012294460023404619468A
:104C1000FBF75EFB4FF4807300228C46A0FB031E63
:104C20000CFB03E300FB0233606840088C461CEB7E
:104C3000000643EB0201D4F804C06246002330466C
:104C4000FBF746FB81464EE204A8FBF753FFDDF875
:104C500014E0606A20B901223BE0BFE040E282E15B
:104C6000606A012801D1022233E0606A022801D182
:104C700004222EE0606A032801D1062229E0606A3E
:104C8000042801D1082224E0606A052801D10A2203
:104C90001FE0606A062801D10C221AE0606A07282A
:104CA00001D1102215E0606A082801D1202210E00D
:104CB000606A092801D140220BE0606A0A2801D10C
:104CC000802206E0606A0B2802D14FF4807200E077
:104CD00001229446002370461946FBF7F9FA4FF477
:104CE000807C0022A0FB0C3E01FB0CE100FB0211CA
:104CF000606840081E185141D4F804C06246002381
:104D00003046FBF7E5FA8146EDE100000044025829
:104D10000090D00300093D0001A8FCF703F8DDF87E
:104D200008C0606A08B9012238E0606A012801D130
:104D3000022233E0606A022801D104222EE0606A78
:104D4000032801D1062229E0606A042801D1082243
:104D500024E0606A052801D10A221FE0606A062863
:104D600001D10C221AE0606A072801D1102215E057
:104D7000606A082801D1202210E0606A092801D168
:104D800040220BE0606A0A2801D1802206E0606AB6
:104D90000B2802D14FF4807200E0012296460023D6
:104DA00060461946FBF794FA4FF4807300228C4654
:104DB000A0FB031E0CFB03E300FB0233606840080A
:104DC0008C461CEB000643EB0201D4F804C062469B
:104DD00000233046FBF77CFA814684E1F8480068FE
:104DE000C0F3401090B3F6480068C0F3C101F54825
:104DF00020FA01FE606A08B9012239E0606A0128E0
:104E000001D1022234E0606A022801D104222FE09D
:104E1000606A032801D106222AE0606A042801D1D1
:104E2000082225E0606A052801D10A2220E0606A94
:104E3000062801D10C221BE0606A072801D110224C
:104E400016E0606A082802D1202211E030E0606A92
:104E5000092801D140220BE0606A0A2801D1802292
:104E600006E0606A0B2802D14FF4807200E0012254
:104E70009446002370461946FBF72AFA4FF48073D4
:104E800000228C46A0FB031E0CFB03E300FB023355
:104E9000606840088C461CEB000643EB0201D4F826
:104EA00004C0624600233046FBF712FA814659E0FF
:104EB000606A08B9012238E0606A012801D1022243
:104EC00033E0606A022801D104222EE0606A0328E0
:104ED00001D1062229E0606A042801D1082224E0D9
:104EE000606A052801D10A221FE0606A062801D104
:104EF0000C221AE0606A072801D1102215E0606ACE
:104F0000082801D1202210E0606A092801D140223E
:104F10000BE0606A0A2801D1802206E0606A0B2853
:104F200002D14FF4807200E0012294460023A5488C
:104F30001946FBF7CDF94FF4807300228C46A0FB95
:104F4000031E0CFB03E300FB0233606840080E18ED
:104F500043EB0201D4F804C0624600233046FBF75D
:104F6000B7F98146BFE0606A08B9012238E0606A9B
:104F7000012801D1022233E0606A022801D1042213
:104F80002EE0606A032801D1062229E0606A042825
:104F900001D1082224E0606A052801D10A221FE01D
:104FA000606A062801D10C221AE0606A072801D144
:104FB000102215E0606A082801D1202210E0606A02
:104FC000092801D140220BE0606A0A2801D1802221
:104FD00006E0606A0B2802D14FF4807200E00122E3
:104FE0009446002378481946FBF772F94FF4807312
:104FF00000228C46A0FB031E0CFB03E300FB0233E4
:10500000606840088C461CEB000643EB0201D4F8B4
:1050100004C06246002300E073E03046FBF758F915
:10502000814660E0606A08B9012238E0606A0128C0
:1050300001D1022233E0606A022801D104222EE06D
:10504000606A032801D1062229E0606A042801D1A0
:10505000082224E0606A052801D10A221FE0606A64
:10506000062801D10C221AE0606A072801D110221B
:1050700015E0606A082801D1202210E0606A092842
:1050800001D140220BE0606A0A2801D1802206E0AB
:10509000606A0B2802D14FF4807200E0012294462E
:1050A00000234FF400401946FBF712F94FF48073C8
:1050B00000228C46A0FB031E0CFB03E300FB023323
:1050C000606840088C461CEB000643EB0201D4F8F4
:1050D00004C0624600233046FBF7FAF8814602E03E
:1050E0000120079000BF00BFB9F5407F06D3B9F596
:1050F000801F03D22068C0F80C9034E5012007908F
:1051000031E5E069B0F5004F71D1082D70D005DCB4
:105110005DB1012D5AD0042D6BD1A7E0102D69D0BF
:10512000202D68D0402DF7D11EE2FCF74DFE8046C1
:10513000606A08B9012038E0606A012801D10220C4
:1051400033E0606A022801D104202EE0606A03285F
:1051500001D1062029E0606A042801D1082024E05A
:10516000606A052801D10A201FE0606A062801D183
:105170000C201AE0606A072801D1102015E0606A4F
:10518000082801D1202010E0606A092801D14020C0
:105190000BE0606A0A2801D1802006E0606A0B28D3
:1051A00002D14FF4807000E00120B8FBF0F0400025
:1051B000616800EB5100B0FBF1F01FFA80F920E2CA
:1051C000004402580090D00300093D00FCF70EFE99
:1051D0008046606A08B901203DE0606A012801D17B
:1051E000022038E0606A022806D1042033E020E281
:1051F00088E003E2D2E06EE1606A032801D1062074
:1052000029E0606A042801D1082024E0606A0528AA
:1052100001D10A201FE0606A062801D10C201AE0A3
:10522000606A072801D1102015E0606A082801D1C2
:10523000202010E0606A092801D140200BE0606A5C
:105240000A2801D1802006E0606A0B2802D14FF4C1
:10525000807000E00120B8FBF0F04000616800EBD6
:105260005100B0FBF1F01FFA80F9CAE104A8FBF786
:1052700041FC0598616A09B9012138E0616A012998
:1052800001D1022133E0616A022901D104212EE01B
:10529000616A032901D1062129E0616A042901D14B
:1052A000082124E0616A052901D10A211FE0616A11
:1052B000062901D10C211AE0616A072901D11021C8
:1052C00015E0616A082901D1202110E0616A0929ED
:1052D00001D140210BE0616A0A2901D1802106E059
:1052E000616A0B2902D14FF4807100E00121B0FB0B
:1052F000F1F04000616800EB5100B0FBF1F01FFAE3
:1053000080F97EE101A8FBF70DFD0298616A09B9F9
:10531000012138E0616A012901D1022133E0616A8B
:10532000022901D104212EE0616A032901D106215D
:1053300029E0616A042901D1082124E0616A052974
:1053400001D10A211FE0616A062901D10C211AE06E
:10535000616A072901D1102115E0616A082901D18C
:10536000202110E0616A092901D140210BE0616A26
:105370000A2901D1802106E0616A0B2902D14FF48C
:10538000807100E00121B0FBF1F04000616800EBAA
:105390005100B0FBF1F01FFA80F932E1F9480068E2
:1053A000C0F3401088B3F7480068C0F3C101F64865
:1053B000C840616A09B9012139E0616A012901D156
:1053C000022134E0616A022901D104212FE0616ADF
:1053D000032901D106212AE0616A042901D10821AB
:1053E00025E0616A052901D10A2120E0616A0629C8
:1053F00001D10C211BE0616A072901D1102116E0BF
:10540000616A082902D1202111E01BE0616A0929A3
:1054100001D140210BE0616A0A2901D1802106E017
:10542000616A0B2902D14FF4807100E00121B0FBC9
:10543000F1F04000616800EB5100B0FBF1F01FFAA1
:1054400080F947E0606A08B9012038E0606A012805
:1054500001D1022033E0606A022801D104202EE04D
:10546000606A032801D1062029E0606A042801D17E
:10547000082024E0606A052801D10A201FE0606A44
:10548000062801D10C201AE0606A072801D11020FB
:1054900015E0606A082801D1202010E0606A092820
:1054A00001D140200BE0606A0A2801D1802006E08B
:1054B000606A0B2802D14FF4807000E00120B249ED
:1054C000B1FBF0F04000616800EB5100B0FBF1F07F
:1054D0001FFA80F995E0606A08B9012038E0606A37
:1054E000012801D1022033E0606A022801D10420A2
:1054F0002EE0606A032801D1062029E0606A0428B2
:1055000001D1082024E0606A052801D10A201FE0AB
:10551000606A062801D10C201AE0606A072801D1D0
:10552000102015E0606A082801D1202010E0606A90
:10553000092801D140200BE0606A0A2801D18020AF
:1055400006E0606A0B2802D14FF4807000E0012071
:105550008E49B1FBF0F04000616800EB5100B0FBF8
:10556000F1F01FFA80F94CE0606A08B9012038E0D8
:10557000606A012801D1022033E0606A022801D16B
:1055800004202EE0606A032801D1062029E0606A29
:10559000042801D1082024E0606A052801D10A20EE
:1055A0001FE0606A062801D10C201AE0606A072813
:1055B00001D1102015E0606A082801D1202010E0F8
:1055C000606A092801D140200BE0606A0A2801D1F5
:1055D000802006E0606A0B2802D14FF4807000E062
:1055E00001204FF40041B1FBF0F04000616800EB96
:1055F0005100B0FBF1F01FFA80F902E001200790A2
:1056000000BF00BFB9F1100F10D3B9F5803F0DD224
:105610004FF6F07009EA00000890C9F342010898BB
:105620000843089008982168C86083E20120079029
:1056300080E2082D72D005DC5DB1012D53D0042D20
:105640006DD1A5E0102D6BD0202D6AD0402D66D1F4
:1056500017E2FCF7B9FB8046606A08B9012038E020
:10566000606A012801D1022033E0606A022801D17A
:1056700004202EE0606A032801D1062029E0606A38
:10568000042801D1082024E0606A052801D10A20FD
:105690001FE0606A062801D10C201AE0606A072822
:1056A00001D1102015E0606A082801D1202010E007
:1056B000606A092801D140200BE0606A0A2801D104
:1056C000802006E0606A0B2802D14FF4807000E071
:1056D0000120B8FBF0F0616800EB5100B0FBF1F085
:1056E0001FFA80F919E2FCF781FB8046606A08B96D
:1056F00001203CE0606A012801D1022037E0606AA5
:10570000022801D1042032E0606A032801D106207A
:105710002DE0606A042805D1082028E083E0F9E143
:10572000CCE066E1606A052801D10A201FE0606ACA
:10573000062801D10C201AE0606A072801D1102048
:1057400015E0606A082801D1202010E0606A09286D
:1057500001D140200BE0606A0A2801D1802006E0D8
:10576000606A0B2802D14FF4807000E00120B8FB82
:10577000F0F0616800EB5100B0FBF1F01FFA80F926
:10578000CBE10000004402580090D00300093D0026
:1057900004A8FBF7AFF90598616A09B9012138E05F
:1057A000616A012901D1022133E0616A022901D134
:1057B00004212EE0616A032901D1062129E0616AF2
:1057C000042901D1082124E0616A052901D10A21B7
:1057D0001FE0616A062901D10C211AE0616A0729DC
:1057E00001D1102115E0616A082901D1202110E0C2
:1057F000616A092901D140210BE0616A0A2901D1BE
:10580000802106E0616A0B2902D14FF4807100E02B
:105810000121B0FBF1F0616800EB5100B0FBF1F049
:105820001FFA80F979E101A8FBF77CFA0298616A16
:1058300009B9012138E0616A012901D1022133E06F
:10584000616A022901D104212EE0616A032901D194
:10585000062129E0616A042901D1082124E0616A56
:10586000052901D10A211FE0616A062901D10C2115
:105870001AE0616A072901D1102115E0616A08293F
:1058800001D1202110E0616A092901D140210BE0FA
:10589000616A0A2901D1802106E0616A0B2902D1DF
:1058A0004FF4807100E00121B0FBF1F0616800EB82
:1058B0005100B0FBF1F01FFA80F92EE1A348006817
:1058C000C0F3401088B3A1480068C0F3C101A048EC
:1058D000C840616A09B9012139E0616A012901D131
:1058E000022134E0616A022901D104212FE0616ABA
:1058F000032901D106212AE0616A042901D1082186
:1059000025E0616A052901D10A2120E0616A0629A2
:1059100001D10C211BE0616A072901D1102116E099
:10592000616A082902D1202111E01AE0616A09297F
:1059300001D140210BE0616A0A2901D1802106E0F2
:10594000616A0B2902D14FF4807100E00121B0FBA4
:10595000F1F0616800EB5100B0FBF1F01FFA80F943
:1059600046E0606A08B9012038E0606A012801D188
:10597000022033E0606A022801D104202EE0606A30
:10598000032801D1062029E0606A042801D10820FB
:1059900024E0606A052801D10A201FE0606A062819
:1059A00001D10C201AE0606A072801D1102015E00F
:1059B000606A082801D1202010E0606A092801D11E
:1059C00040200BE0606A0A2801D1802006E0606A6E
:1059D0000B2802D14FF4807000E001205C49B1FB3C
:1059E000F0F0616800EB5100B0FBF1F01FFA80F9B4
:1059F00093E0606A08B9012038E0606A012801D1AB
:105A0000022033E0606A022801D104202EE0606A9F
:105A1000032801D1062029E0606A042801D108206A
:105A200024E0606A052801D10A201FE0606A062888
:105A300001D10C201AE0606A072801D1102015E07E
:105A4000606A082801D1202010E0606A092801D18D
:105A500040200BE0606A0A2801D1802006E0606ADD
:105A60000B2802D14FF4807000E001203949B1FBCE
:105A7000F0F0616800EB5100B0FBF1F01FFA80F923
:105A80004BE0606A08B9012038E0606A012801D162
:105A9000022033E0606A022801D104202EE0606A0F
:105AA000032801D1062029E0606A042801D10820DA
:105AB00024E0606A052801D10A201FE0606A0628F8
:105AC00001D10C201AE0606A072801D1102015E0EE
:105AD000606A082801D1202010E0606A092801D1FD
