:020000040800F2
:1000000088440020810200081F1A00086B180008AD
:100010001D1A000845070008CB1D0008000000005D
:10002000000000000000000000000000C101000806
:1000300047070008000000001D020008211A000800
:100040009B0200089B0200089B0200089B0200081C
:100050009B0200089B0200089B0200089B0200080C
:100060009B0200089B0200089B0200089B020008FC
:100070009B0200089B0200089B0200089B020008EC
:100080009B0200089B020008110600089B02000862
:100090009B0200089B0200089B0200089B020008CC
:1000A0009B020008ED1A00089B0200089B02000852
:1000B0009B0200089B0200089B0200089B020008AC
:1000C0009B0200089B0200089B0200089B0200089C
:1000D0009B0200089B0200089B0200089B0200088C
:1000E0009B0200089B0200089B0200089B0200087C
:1000F0009B0200089B0200089B0200089B0200086C
:100100009B0200089B0200089B0200089B0200085B
:100110009B0200089B0200089B0200089B0200084B
:100120009B0200089B0200089B0200089B0200083B
:100130009B0200089B0200089B0200089B0200082B
:100140009B0200089B0200089B0200089B0200081B
:100150009B0200089B0200089B0200089B0200080B
:100160009B0200089B0200089B0200089B020008FB
:100170009B0200089B0200089B0200080000000090
:100180009B0200089B0200089B0200089B020008DB
:100190009B0200089B0200089B0200089B020008CB
:1001A00000000000000000009B020008DFF80CD0F7
:1001B00000F01CFA004800479D1E000888440020FB
:1001C0002C4B19680868B0E8F04F80F30988BFF33A
:1001D0006F8F4FF0000080F311887047000000001F
:1001E00008480068006880F308884FF0000080F33A
:1001F000148862B661B6BFF34F8FBFF36F8F00DF15
:1002000000BF00BF08ED00E0DFF80C00016841F41A
:1002100070010160704700BF88ED00E0EFF30980D6
:10022000BFF36F8F134B1A681EF0100F08BF20ED3D
:10023000108A20E9F04F106009B44FF0500080F3AD
:100240001188BFF34F8FBFF36F8F02F019FA4FF091
:10025000000080F3118809BC19680868B0E8F04F05
:100260001EF0100F08BFB0EC108A80F30988BFF3AE
:100270006F8F70471C000020EFF30580704700006F
:100280000648804706480047FEE7FEE7FEE7FEE730
:10029000FEE7FEE7FEE7FEE7FEE7FEE7D11A00080D
:1002A000AD0100082DE9F05F0546002092469B460F
:1002B00088460646814640241BE02846414647467C
:1002C000224600F013F953465A46C01A914110D302
:1002D00011461846224600F0FAF82D1A67EB01087D
:1002E0004F4622460120002100F0F1F817EB0009EB
:1002F0004E41201EA4F10104DFDC484631462A4667
:100300004346BDE8F09F40EA01039B0703D009E0A4
:1003100008C9121F08C0042AFAD203E011F8013BF1
:1003200000F8013B521EF9D27047D2B201E000F84A
:10033000012B491EFBD270470022F6E710B5134689
:100340000A4604461946FFF7F0FF204610BD2DE986
:10035000FE4F804681EA0300C00F0C46009021F05A
:10036000004123F00045B8EB0200A94105D2404608
:10037000214690461C460B46024623F0004010439F
:1003800047D0270DC7F30A00C3F30A510290401A61
:10039000019040286BDAC3F3130040F4801B0098EF
:1003A000924620B10023D2EB030A63EB0B0B0198BA
:1003B0005946C0F14002504600F089F806460D4605
:1003C00050465946019A00F0A1F810EB080061412F
:1003D000002487EA115284EAE7731A4340D0009A56
:1003E00062B3019A012A4FEA075215DC001B61EB48
:1003F00002014FF0004202EA0752CDE90042001C20
:1004000041F5801132462B4600F0A1F803B0BDE85B
:10041000F08F40462146F9E7001B61EB0201001C0A
:1004200041F5801300185B412018A2F5001747EB37
:10043000030140EAD570B6196D4111E06D084FEA2D
:10044000360645EAC0754FEA0752001B61EB020110
:10045000001C41F5801149084FEA30000019514154
:1004600032462B4603B0BDE8F04F00F061B800986B
:10047000012240000023D0EB020263EBE0730098FE
:1004800021464FEAE074B8EB000061EB0401E9E7B4
:1004900083F000435BE781F0004158E7C1F30A5263
:1004A00010B5C1F3130140F2FF3341F480119A42B9
:1004B00001DA002010BD40F233439A42A2F23342E7
:1004C00003DC524200F012F810BD904010BD202A0B
:1004D00004DB203A00FA02F1002070479140C2F19B
:1004E000200320FA03F3194390407047202A04DBCD
:1004F000203A21FA02F00021704721FA02F3D0409D
:10050000C2F120029140084319467047202A06DBB9
:10051000CB17203A41FA02F043EAE07306E041FAD1
:1005200002F3D040C2F120029140084319467047BF
:1005300010B5141E73F1000408DA401C41F10001EB
:1005400092185B411A4301D120F0010010BD2DE942
:10055000F04D92469B4611B1B1FA81F202E0B0FA39
:1005600080F220329046FFF7B2FF04460F4640EA81
:100570000A0041EA0B0153465A46084313D011467C
:1005800053EA010019D0C8F140025046FFF7AEFF10
:1005900005460E46504659464246FFF798FF084327
:1005A00005D0012004E020463946BDE8F08D00204A
:1005B000054346EAE0762C4337430A986305E40A8C
:1005C000A0EB08000022FD0A44EA47540A3002D595
:1005D00000200146E9E7010510196941DDE90845F8
:1005E00000196941BDE8F04DA2E70000064C074D37
:1005F00006E0E06840F0010394E8070098471034F3
:10060000AC42F6D3FFF7D6FD7C2A00089C2A0008EE
:10061000014800F04FB900007C000020464910B5A9
:100620004A6822F440324A604A6843681A434A6082
:1006300001684A6822F480724A6001684A68036966
:1006400042EA03224A6001684A6822F040724A6026
:1006500001684A6883681A434A6001688A6822F41C
:1006600000628A6001688A68C3681A438A60816A86
:100670006FF07062D14201688A6822F070628A600D
:1006800001688A680CD0836A1A438A6001688A68A4
:1006900022F040528A6001688A68C36A1A4301E006
:1006A00022F040528A6001688A6822F002028A6061
:1006B00001688A68037E42EA43028A6090F820104B
:1006C000002901684A680FD042F400624A6001685C
:1006D0004A6822F460424A6001684A68174C436ADB
:1006E00004EB43331A4301E022F400624A600168DC
:1006F000CA6A22F47002CA620168CA6A838B104C0B
:1007000004EB03531A43CA6201688A6822F4007238
:100710008A6001688A6890F8303042EA43228A6031
:1007200001688A6822F480628A6001688A68406988
:1007300042EA8020886010BD0023014000E0FFFFF6
:100740000000F0FFFEE770477047704778B500245F
:10075000009490F83C20012A19D0012280F83C2016
:100760000A6807230568092A13D9EE680A3A02EBDA
:10077000420293409E43EE600B788A680A3B03EB8B
:1007800043039A400368DD682A43DA6010E00220E0
:1007900078BD2E6902EB420293409E432E610B7896
:1007A0008A6803EB43039A4003681D692A431A6170
:1007B0004A681F23072A13D205686E6B521E02EB8C
:1007C000820293409E436E630A8893B20A79521E56
:1007D00002EB820293400268556B2B43536327E080
:1007E00005680D2A12D22E6BD21F02EB82029340B3
:1007F0009E432E630B790A88DB1F92B203EB8303BF
:100800009A4003681D6B2A431A6311E0EE6A0D3AA1
:1008100002EB820293409E43EE620B790A880D3B05
:1008200092B203EB83039A400368DD6A2A43DA62DB
:100830001B4B0568194A9D420AD10D68122D07D13C
:10084000556825F400055560556845F480055560E8
:1008500005689D421DD1134D0B68AB4201D0112B91
:1008600017D1536823F480035360536843F40003A3
:1008700053600968A9420CD10B490C4A0968B1FBC5
:10088000F2F101EB8101490000E0491E00910029CD
:10089000FBD180F83C40002078BD000000230140DF
:1008A00000200140120000101800002040420F00FC
:1008B0007047704770B50446006801684268C1F32C
:1008C0004001C2F3401251B34AB3216CC90603D4AC
:1008D000216C41F400712164816811F0405F17D1EF
:1008E000217EA9B9C16A11F4700F02D0816849054F
:1008F0000ED4416821F020014160206C20F480700A
:100900002064206CC00403D4206C40F001002064FB
:100910002046FFF7CDFF21686FF0120008602068C5
:1009200001684268C1F38001C2F3C01289B382B387
:10093000216CC90603D4216C41F400512164816803
:1009400011F4401F1ED1816B11F4401F02D0816849
:10095000490517D44168490514D4816811F0405FF6
:1009600010D1217E71B9416821F080014160206C75
:1009700020F480502064206CC00503D4206C40F02B
:10098000010020642046FFF7E0FE21686FF00C00B4
:10099000086020680168426811F0010FC2F38012FC
:1009A0000ED06AB10068C0070AD0206C40F48030D5
:1009B0002064204600F046F821686FF001000860CE
:1009C000206801684268C1F34011C2F380620029C7
:1009D0000DD0002A0BD0616C41F0020161646FF010
:1009E000200505602046FFF764FF2068056070BDA4
:1009F00070B504004FF0000503D0206C002610B144
:100A000007E0012070BD204600F01EF8666484F8FF
:100A10003C60206CC00610D4206C20F4885040F05C
:100A2000020020642046FFF7F9FD6664206C20F088
:100A3000020040F00100206400E0012584F83C60E1
:100A4000284670BD7047000010B586B004461421DA
:100A50006846FFF771FC15492068884224D1144884
:100A60000021026842F480720260006800F4807025
:100A700005900F481438026842F0020202600068D4
:100A800000F002000590012000900320CDE9010153
:100A90006946084800F010F800220521122000F0F5
:100AA00087F9122000F076F906B010BD0020014051
:100AB00044380240000402402DE9F84F00224FF074
:100AC000010803254FF00F0E0B6808FA02F42340CB
:100AD000A3426ED14E68012E05D0022E03D0112EF6
:100AE00001D0122E12D186684FEA420C05FA0CF79B
:100AF000BE43CF6807FA0CF7374387604668A643C2
:100B00000C79C4F30014944034434460C668570021
:100B100005FA07FC8C6826EA0C06BC403443C46026
:100B20004C68022C01D0122C13D1D40800EB8404A1
:100B3000A346D4F8209054074FEAD46A0EFA0AF676
:100B400029EA06090E6906FA0AF646EA0906CBF80A
:100B5000206004680E7924EA0C0406F00306BE4007
:100B6000264306604C68E4006FD53B4C266846F48B
:100B700080462660246822F0030604F48044009432
:100B8000364C3444A446D4F808489607360F0EFA7B
:100B900006F7BC43324FB84201D100272EE0314F57
:100BA000B84201D1012729E02F4FB84202D10227D4
:100BB00024E04AE02D4FB84201D103271EE02C4F1C
:100BC000B84201D1042719E02A4FB84201D10527C4
:100BD00014E0294FB84201D106270FE0274FB84251
:100BE00001D107270AE0264FB84201D1082705E0C6
:100BF000244FB84201D1092700E00A27B740274314
:100C0000CCF80878204E34684F689C43FF0300D529
:100C10001C4334601C4E361D34684F689C43BF0330
:100C200000D51C433460184E083634684F689C4326
:100C3000FF0200D51C433460134E0C3634684F68F5
:100C40009C43BF0200D51C433460521C102AFFF4A1
:100C50003BAFBDE8F88F000044380240003001404F
:100C6000000002400004024000080240000C024064
:100C7000001002400014024000180240001C024014
:100C80000020024000240240003C01400AB1816182
:100C900070470904FBE700000148806870470000C6
:100CA0000C0000200248816802781144816070477E
:100CB0000C0000200B4810B5016841F40071016080
:100CC000016841F480610160016841F48071016054
:100CD000032000F08DF8002000F006F800F03EF848
:100CE000002010BD003C024010B5014688B0002233
:100CF000192000F05DF8192000F04CF8134800248A
:100D0000016841F001010160006805A900F00100DF
:100D10000690684600F018F900F036F90C490D4AC3
:100D2000B0FBF1F10C48491E026040F2E732C0E925
:100D30000324C0E9011400F061FB10B1012008B0E8
:100D400010BD054800F088FBF9E700004438024078
:100D500040420F0000000140580300200C4882B0C0
:100D6000016841F480410160006800F48040009017
:100D70000748001F016841F08051016000680022AF
:100D800000F0805000900F21901E02B000F010B8CB
:100D900044380240002809DB00F01F020121914085
:100DA0004009800000F1E020C0F800117047000009
:100DB000F0B40E4B1B680C46C3F30223C3F10705C6
:100DC000042D00D90425191D072901D2002300E0B4
:100DD000DB1E012606FA05F1491E214099409E407E
:100DE000761E16403143F0BC00F0F0BF0CED00E081
:100DF000064900F0070208684FF6FF03184040EA72
:100E00000220034A10430860704700000CED00E028
:100E10000000FA052DE9F0470E46050065D0DFF821
:100E20001481D8F80000F7B200F00F00B04207D2EA
:100E300088F80070D8F8000000F00F00B04254D1DC
:100E400028683D4C810712D5400703D5206840F43F
:100E5000E05020602878000703D5206840F4604007
:100E600020602068A96820F0F000084320602878FE
:100E7000C0072DD0304968680839012812D00228EF
:100E800013D0032811D00968890700292DDA2168B9
:100E900021F0030101432160FFF7FEFE814641F28C
:100EA000883A0EE009688903EFE709688901ECE7F1
:100EB000FFF7F2FEA0EB0901514502D90320BDE87E
:100EC000F0872068696800F00C00B0EB810FEFD16B
:100ED000D8F80010404601F00F01B14207D9077061
:100EE000006800F00F00B04201D00120E7E7287849
:100EF000400705D52068E96820F4E05008432060E9
:100F00002878000706D52068296920F4604040EA67
:100F1000C100206000F048F82168084AC1F30311BD
:100F2000515CC8400649086006480068FFF7DCFECF
:100F30000020C4E7003C024008380240502A000864
:100F400018000020100000200F2202600C4A1368D5
:100F500003F003034360136803F0F0038360136836
:100F600003F4E053C36012684FF4E05303EAD20283
:100F700002610448006800F00F000860704700003C
:100F800008380240003C02400448054900680968EE
:100F9000044AC1F34231515CC84070471800002038
:100FA00008380240602A0008154810B5006810F0A3
:100FB0000C02144813D01449042A0FD0082A0ED169
:100FC0000F4C241F2268236802F03F025B0207D502
:100FD0002068C0F38810A0FB010106E0084610BDA0
:100FE0002168C1F38811A1FB00010023FFF75AF922
:100FF0002168C1F30141491C4900B0FBF1F010BD6B
:10100000083802400024F40040787D012DE9F84FB3
:10101000040076D02078DFF838A3CE4DC00749D041
:10102000DAF800105046C1F38101012908D00068A8
:10103000C0F3810002280AD1281D0068400206D5AD
:101040002868800336D560680028E2D032E0606806
:10105000B0F5803F10D0B0F5A02F286810D020F454
:1010600080302860286820F4802028606068A0B163
:10107000FFF712FE06460CE0286840F48030F4E7E3
:1010800040F480202860F7E7FFF706FE801B642805
:1010900073D828688003F7D50CE0FFF7FDFD0646FE
:1010A00005E000BFFFF7F8FD801B6428F0D8286832
:1010B0008003F7D42078DFF8A08280074FF0000982
:1010C0003ED5DAF80010504611F00C0F09D0006838
:1010D000C0F3810002280BD19D48001F0068400228
:1010E00006D42868800715D5E068012809D111E0E9
:1010F000E068B8B10120C8F80000FFF7CDFD064652
:1011000005E020E1FFF7C8FD801B0228C0D8286851
:101110008007F7D52868216920F0F80040EAC1006F
:1011200028600DE0C8F80090FFF7B6FD064604E021
:10113000FFF7B2FD801B02281FD828688007F7D46C
:101140002078000722D5824E844861696C3671B1DF
:1011500001210160FFF7A0FD074604E0FFF79CFDB9
:10116000C01B022809D830688007F7D50EE0C0F808
:101170000090FFF791FD074605E082E0FFF78CFD48
:10118000C01B02287DD830688007F7D4207840073C
:1011900068D5DFF8BCB100270BF1380BDBF8000095
:1011A000C0000BD4DBF8001041F08051CBF80010E8
:1011B000DBF80000012700F080500090684E306896
:1011C000C00510D4306840F480703060FFF764FDD3
:1011D000009005E0FFF760FD0099401A022850D802
:1011E0003068C005F6D55A4EA068683601280FD081
:1011F0000528306810D020F001003060306820F001
:1012000004003060A068B8B1FFF746FD00900FE021
:10121000306840F00100F4E740F004003060F7E788
:10122000FFF73AFD0099411A41F28830814266D8B1
:1012300030688007F4D50EE0FFF72EFD009007E040
:10124000FFF72AFD0099411A41F28830814256D8B1
:1012500030688007F4D42FB1DBF8001021F0805102
:10126000CBF80010A069D0B3DAF800205146C2F3E1
:101270008102022A4AD00228484607D0C8F86000F6
:1012800000E03CE0FFF708FD04463BE04746C8F8B5
:101290006000FFF701FD064605E000BFFFF7FCFC1C
:1012A000801B02282BD828688001F7D4D4E90701D5
:1012B0000843A16A2B4A490802EB0141626A41EAEC
:1012C0008211084394F82C1040EA01612048001F65
:1012D000016001203866FFF7DFFC044605E034E0DA
:1012E000FFF7DAFC001B022809D828688001F7D52F
:1012F0002BE000BFFFF7D0FC001B022802D903201F
:10130000BDE8F88F28688001F4D41EE00128F7D0EA
:101310000868E26900F48001914214D1226A00F069
:101320003F0191420FD147F6C071626A014091427C
:1013300009D1A26A00F44031914204D1E16A00F07F
:101340007060884201D00120DAE70020D8E7000071
:10135000083802400038024000004742800E4742F1
:10136000007000400000FFFF7047704770B590F8B4
:101370003C20012A32D0012480F83C40022280F82F
:101380003D2003685A689D6822F070060A6832435F
:101390005A60134B02689A4214D0B2F1804F11D0B8
:1013A000104B9A420ED0104B9A420BD00F4B9A42E0
:1013B00008D00F4B9A4205D00E4B9A4202D00E4BEA
:1013C0009A4204D1496825F080031943916080F85E
:1013D0003D40002180F83C10084670BD022070BDE1
:1013E000000001400004004000080040000C0040E4
:1013F00000040140004001400018004010B5040006
:1014000003D094F83D0010B107E0012010BD00208A
:1014100084F83C00204600F00DF8022084F83D00DE
:10142000211D206800F068FB012084F83D000020A9
:1014300010BD000008B50068B0F1804F08D1054824
:10144000016841F001010160006800F001000090B6
:1014500008BD0000403802400168CA6842F001023D
:10146000CA600068816801F00701062903D001689D
:1014700041F0010101600020704770B5044690F80A
:101480003C00012817D0012584F83C50022084F844
:101490003D002068826822F0770222F47F42826059
:1014A0000868502830D00DDC20284DD005DC98B3DA
:1014B00010283BD148E0022070BD302844D040289D
:1014C00034D139E0602828D0702806D0B0F5805F8C
:1014D0002CD0B0F5005F29D10AE0CB68D1E9012119
:1014E000206800F07AFB2068816841F0770109E00C
:1014F000CB68D1E90121206800F06FFB206881688A
:1015000041F48041816011E0CA684968206800F0B8
:1015100039FC5021206807E016E0CA684968206855
:1015200000F041FC6021206800F061FB84F83D5030
:10153000002084F83C0070BDCA684968206800F04B
:1015400021FC40212068EFE7226801461046EBE7C6
:10155000704770B50446006801694FF00005C94343
:10156000890715D4C168C943890711D4E91E0161EF
:1015700001202077206880698007204602D0FFF78D
:10158000E7FF04E000F0BEF8204600F040F92577C0
:1015900020680169C943490717D4C168C94349078D
:1015A00013D46FF004010161022020772068806964
:1015B00010F4407F204602D0FFF7CAFF04E000F09D
:1015C000A1F8204600F023F9257720680169C94376
:1015D000090716D4C168C943090712D46FF008017E
:1015E0000161042020772068C0698007204602D06E
:1015F000FFF7AEFF04E000F085F8204600F007F9A1
:10160000257720680169C943C90617D4C168C94351
:10161000C90613D46FF010010161082020772068FB
:10162000C06910F4407F204602D0FFF791FF04E02C
:1016300000F068F8204600F0EAF825772068016994
:10164000C943C90708D1C168C943C90704D1891E64
:101650000161204600F0FEF820680169C9430906CF
:1016600009D4C168C943090605D46FF0800101613E
:101670002046FFF779FE20680169C943490609D46D
:10168000C168C943490605D46FF040010161204695
:1016900000F0EAF820680169C94389060BD4C168E3
:1016A000C943890607D46FF0200101612046BDE8D7
:1016B0007040FFF75ABE70BD10B586B004461421C5
:1016C0006846FEF739FE2068B0F1804F14D10B4810
:1016D0000021026842F0010202600068022200F06C
:1016E0000100059001200090CDE90121CDE9031012
:1016F00069460348FFF7E0F906B010BD30380240F4
:1017000000000240704770B5044690F83C000D465A
:1017100001280DD0012684F83C60022084F83D00A9
:1017200042B1042A18D0082A2AD00C2A4DD139E017
:10173000022070BD206800F063FA2068816941F0E2
:10174000080181612068816921F0040181612068BC
:1017500081692A69114311E0206800F081FA20684C
:10176000816941F4006181612068816921F48061AF
:101770008161206881692A6941EA0221816124E04E
:10178000206800F0A3FA2068C16941F00801C16136
:101790002068C16921F00401C1612068C1692A691A
:1017A000114311E0206800F0C5FA2068C16941F4D6
:1017B0000061C1612068C16921F48061C161206854
:1017C000C1692A6941EA0221C16184F83D600020B3
:1017D00084F83C0070BD10B5040003D094F83D00BF
:1017E00010B107E0012010BD002084F83C00204625
:1017F00000F00CF8022084F83D00211D206800F064
:101800007BF9012084F83D00002010BD704770472F
:1018100010B504460068012200F0D2F90B49206897
:10182000884202D00A49884203D1416C41F4004108
:1018300041642068816801F00701062903D001682E
:1018400041F001010160002010BD000000000140D6
:101850000004014000680349884201D1FFF722BA21
:1018600070470000000001407047FEE77FB500248C
:10187000144800940194029411490394C0E900149F
:10188000846001250461057680F820400E49C0E996
:101890000A14C561C46080F830404561FFF7A8F8BC
:1018A00008B1FEF751FF0820CDE900056946029412
:1018B0000448FEF74BFF002801D0FEF745FF7FBD2F
:1018C000002001407C0000200100000F10B58EB008
:1018D0001C220B496846FEF716FD0021684600F001
:1018E000FEFA084C06491C2260601C3107A8FEF76E
:1018F0000AFD002107A800F0F2FAA0600EB010BDAA
:10190000182A00080000002030B587B0142168466E
:10191000FEF712FD19480024016841F00101016041
:10192000016801F001010591016841F08001016049
:10193000016801F080010591016841F040010160FA
:10194000016801F040010591016841F00201016068
:1019500000680B4D00F0020005900022022128468D
:10196000FFF794F9022000900120CDE901046946B7
:1019700028460394FFF7A0F807B030BD3038024086
:101980000018024010B58EB0002407940894099402
:101990000A940B941C2168460C94FEF7CDFC1E485B
:1019A0004FF080410160C721C0E9011440F60F618A
:1019B000C0E9031480218161FFF720FD08B1FEF723
:1019C000C3FE4FF48050079007A91348FFF755FD59
:1019D00008B1FEF7B9FE1048FFF7FDFE08B1FEF7AB
:1019E000B3FE0B940BA90C480C94FFF7BFFC08B195
:1019F000FEF7AAFE6020CDE90004029400226946A9
:101A000005480494FFF77FFE08B1FEF79DFE0248EB
:101A1000FFF752FE0EB010BD18030020FEE770471E
:101A200010B5502080F31188BFF34F8FBFF36F8F35
:101A300000F02CFF18B104494FF0805008600020DE
:101A400080F3118810BD000004ED00E030B593B0C4
:101A500030216846FEF770FC14210CA8FEF76CFCE0
:101A600019480025016841F080510160006800F0CC
:101A7000805011901548016821F4404141F48041A3
:101A800001600068022400F44040119001200090A1
:101A9000000401908001CDE90640192008909020B3
:101AA000CDE9090404200B906846FFF7AFFA0CA9B2
:101AB0000F2081E83100E002CDE90F0502210CA8DA
:101AC000FFF7A8F913B030BD403802400070004065
:101AD0000548016841F47001016003494FF000605E
:101AE000803908607047000088ED00E00148FFF78A
:101AF00030BD000058030020F0B50268254C264D8B
:101B0000264E274F274B4FF0804CA04209D060450E
:101B100007D0A84205D0B04203D0B84201D09842C5
:101B200004D122F0700E4A6842EA0E02A0421BD095
:101B3000604519D0A84217D0B04215D0B84213D092
:101B4000984211D0184DA8420ED0184DA8420BD083
:101B5000174DA84208D0174DA84205D0164DA842EF
:101B600002D0164DA84203D122F44075CA682A4318
:101B70004D6922F080022A4302608A68C2620A68C4
:101B80008262A04201D0984201D10969016301211A
:101B90004161F0BD00000140000400400008004029
:101BA000000C00400004014000400140004401409E
:101BB0000048014000180040001C00400020004088
:101BC00010B501F01F030121046A99408C4304629F
:101BD000016A9A401143016210BD10B5846842EA5F
:101BE000032224F47F440A432243826010BD8268AA
:101BF00022F070020A4342F0070181607047000042
:101C0000F0B5026A22F001020262036A4268846946
:101C1000124E24F073050C682C4323F002058B68E8
:101C20002B430D4DA84201D0B04205D123F0080747
:101C3000CB683B4323F00403A84201D0B04205D156
:101C40004D6922F4407215438A692A4342608461D7
:101C5000496841630362F0BD000001400004014097
:101C6000F0B5026A22F010020262026A43688469D7
:101C70000D6824F4E64444EA05248D6822F020022D
:101C800042EA05120F4D104EA84201D0B04206D1D3
:101C9000CF6822F0800242EA071222F04002A842F6
:101CA00001D0B04207D14D6923F4406343EA850374
:101CB0008D6943EA850343608461496881630262F8
:101CC000F0BD00000000014000040140F0B5026AD0
:101CD00022F480720262026A4368C46922F40072CC
:101CE00024F073050C68124E2C438D6842EA0522DD
:101CF0000E4DA84201D0B04206D1CF6822F4006256
:101D000042EA072222F48062A84201D0B04207D101
:101D10004D6923F4405343EA05138D6943EA0513E3
:101D20004360C4614968C1630262F0BD00000140C4
:101D30000004014030B5026A22F480520262046A53
:101D40004268C3690D6823F4E64343EA05238D68BE
:101D500024F4005444EA0534084DA84202D0084D4A
:101D6000A84204D14D6922F4804242EA85124260C1
:101D7000C36149680164046230BD00000000014095
:101D80000004014010B5036A046A24F001040462EF
:101D9000846924F0F00444EA021423F00A020A439E
:101DA0008461026210BD10B5036A23F01003036260
:101DB0008369046A23F4704343EA023224F0A003E7
:101DC00043EA01118261016210BDFEE70907090EB5
:101DD000002804DB00F1E02080F80014704700F0D8
:101DE0000F0000F1E02080F8141D704702E008C8E1
:101DF000121F08C1002AFAD170477047002001E085
:101E000001C1121F002AFBD1704700002DED048B89
:101E100000210F48FFF7FCFC9FED0E8B9FED0F9B01
:101E20004FF47A74B0EE480AF0EE680A00F0A6FAB1
:101E3000204600F048F8B0EE490AF0EE690A00F0DA
:101E40009DFA204600F03FF8012000F03CF8E9E759
:101E50001803002000000000000000000000000047
:101E60000000594008B500F00BFD0B4D4FF47A749B
:101E70000090012202212846FEF708FF214668460D
:101E800000F07AFB002202212846FEF7FFFE2146E1
:101E9000684600F071FBECE700180240FEF70AFF0D
:101EA000FFF7D4FDFFF730FDFFF7E0FCFFF76AFD19
:101EB000FFF70CFD00F00EF8FEE701460020842934
:101EC00000D0C81C704710B500B9012000F02EFBEF
:101ED000002010BD10B500F095FB002010BD7FB5AF
:101EE0000D4604464169B0F9080081B1A16971B19C
:101EF000FFF7E3FFD4E905128DE80700D4E90010ED
:101F00002B46226900F091FC039004B070BDFFF7EE
:101F1000D4FF03A9CDE90001208A2B4682B2D4E97F
:101F2000001000F055FC012801D00020EDE70398D7
:101F3000EBE700002DE9F041184C0F4605466669B5
:101F40002068001D00F02EFA38B9206890F82C1097
:101F500001208840A1698143A161681C07D137B184
:101F60002168BDE8F0410E48091D00F05FBA206805
:101F70003544B5424560216805D2A068BDE8F0410E
:101F8000091D00F03BBA6068091D00F037FA206BAC
:101F9000854200D22563BDE8F08100001C000020CE
:101FA000740400202DE9F041054600F04BFA2E4C58
:101FB0002069401C206120682C4F10B1E06940B3BB
:101FC0002DE025602069012829D1002606EB860036
:101FD00007EB800000F004FA761C072EF6D32348A6
:101FE0008C3000F0FDF92148A03000F0F9F91F48CD
:101FF000B43000F0F5F91D48C83000F0F1F91B4885
:10200000DC3000F0EDF919488C3060601430A060CD
:1020100005E02068E96AC06A884200D82560E06A65
:10202000401CE062E96A0120A26988401043A06177
:1020300001EB810007EB8000291D00F0F7F900F0AB
:1020400021FAE06900280CD02068E96AC06A884259
:1020500007D207494FF080500860BFF34F8FBFF39E
:102060006F8FBDE8F08100001C0000209803002065
:1020700004ED00E010B5044690F8510058B1012875
:102080000CD002280FD0502080F31188BFF34F8F5F
:10209000BFF36F8FFEE7206B00F008FA2046BDE823
:1020A000104000F003BA10BD10484FF470514207C1
:1020B00006D0C01D0D4920F00700411AC1F570512E
:1020C0000B4A00230144C2E900030839103A21F009
:1020D000070111604B600B600B1AC0E9001393609D
:1020E0004FF000405360D06070470000880400202B
:1020F00068000020144E154CA6F1C8074FF0805818
:10210000DFF84C9012E000BF00F09CF9F068C56861
:10211000281D00F047F92069401E2061E068401E3C
:10212000E06000F0AFF92846FFF7A4FFE068002860
:10213000EAD138680128F9D9C9F80080BFF34F8F78
:10214000BFF36F8FF2E70000600400201C00002046
:1021500004ED00E02DE9F0479A46DDE90984814667
:102160006FF00303206B03EB82021044089D20F004
:102170000706700707D0502080F31188BFF34F8FF8
:10218000BFF36F8FFEE723180A5C83F834200A5CE4
:1021900012B1401C1028F6D3002784F84370072D95
:1021A00000D30625E562C4E91157201D00F023F98C
:1021B00004F1180000F01FF92461C5F10700646202
:1021C000A061E76484F8507052464946304600F0FA
:1021D000BFF82060B8F1000F01D0C8F80040BDE89A
:1021E000F087000030B5114900E011460A688242CC
:1021F000FBD34B685C18844203D1406818444860A4
:10220000084643681C18944209D1084C103C2468C5
:10221000A24209D052681A4442600A6812680260F9
:10222000814200D0086030BD0460F9E768000020FA
:1022300006484168096829B14168C968C9684968A0
:10224000016370474FF0FF31FAE700001C000020E7
:1022500008484068401C4FF0500080F3118804D0BB
:10226000BFF34F8FBFF36F8FFEE7BFF34F8FBFF307
:102270006F8FFEE7700000202DE9F0410546002732
:1022800000F0F6F9314E306808B9FFF70DFFF0683D
:1022900005424BD1C5B3083568070ED005F00700DD
:1022A000C0F108000544680707D0502080F311886A
:1022B000BFF34F8FBFF36F8FFEE72DB3706885427A
:1022C00034D82248103001460C6801E020460C4604
:1022D0006168A94202D221680029F7D131688C4295
:1022E00024D007682168016060680837411B102905
:1022F0000FD96019420708D0502080F31188BFF32E
:102300004F8FBFF36F8FFEE710E041606560FFF70E
:1023100069FF61687068401A7060B268904200D2CC
:10232000B060F06801430020C4E9000100F012FB36
:10233000780707D0502080F31188BFF34F8FBFF389
:102340006F8FFEE73846BDE8F0810000580000209E
:1023500010B5031F4FF080741C601B1F21F001019A
:102360001960191F044B0B6014390A60091F6FF0C4
:10237000020244380A6010BD512200089FED071B7D
:1023800010B553EC112B51EC100BFDF7E0FFFEF7ED
:1023900085F84FF08041486310BD00000000000048
:1023A00000805640D0E9013201699A60D0E90123EA
:1023B0005A604A68824201D182684A600022026102
:1023C0000868401E0860086870470000034B0360FF
:1023D00003F154000860802010607047C4000020A2
:1023E00000F108014FF0FF32C0E90112C160016144
:1023F00000210160704700210161704730B50B6812
:102400005A1C02D000F1080202E0026904E02246F0
:10241000546825689D42FAD953684B6099608A6078
:10242000516008610168491C016030BD42684A6022
:1024300093688B6093685960916008610168491CDA
:1024400001607047502080F31188BFF34F8FBFF3B6
:102450006F8F0A494868401C486001280CD1084821
:10246000006810F0FF0F07D0502080F31188BFF3F1
:102470004F8FBFF36F8FFEE77047000070000020A2
:1024800004ED00E00849486828B1401E486001D1C9
:1024900080F311887047502080F31188BFF34F8F6D
:1024A000BFF36F8FFEE700007000002070B50028BA
:1024B00027D0144DA0F108046168E868014207D1F3
:1024C000502080F31188BFF34F8FBFF36F8FFEE76B
:1024D00022683AB1502080F31188BFF34F8FBFF3C9
:1024E0006F8FFEE78143616000F0C2F86068696841
:1024F000084468602046FFF775FEBDE8704000F0B4
:1025000029BA70BD580000204FF0E0200021016181
:10251000816105494FF47A720968B1FBF2F1491EF5
:1025200041610721016170471800002010B50200C9
:1025300014D00F48806B38B1502080F31188BFF35E
:102540004F8FBFF36F8FFEE700F092F80021104627
:10255000FFF7F0FC00F0FEF9002807D105494FF025
:1025600080500860BFF34F8FBFF36F8F10BD000026
:102570001C00002004ED00E070B50D4604000BD0F7
:1025800095B11E4A906BB8B1502080F31188BFF30B
:102590004F8FBFF36F8FFEE7502080F31188BFF39A
:1025A0004F8FBFF36F8FFEE7502080F31188BFF38A
:1025B0004F8FBFF36F8FFEE700F05AF85269236820
:1025C0005919934204D98B420AD9914202D807E0A3
:1025D0008B42FAD9881A21600021FFF7ABFC00E09A
:1025E000216000F0B7F9002807D105494FF080506D
:1025F0000860BFF34F8FBFF36F8F70BD1C000020CA
:1026000004ED00E010B586B00024039405AA04A9E7
:1026100003A80494FFF7DAFEDDE903010094CDE995
:10262000011000230EA11048059A00F0FEF80F4992
:102630000028486311D0502080F31188BFF34F8FDA
:10264000BFF36F8F4FF0FF3008630120C8614C610A
:1026500006B0BDE8104000F041B806B010BD000063
:1026600049444C4500000000F52000081C000020F3
:102670000248816B491C8163704700001C000020E8
:102680001448816B11B10121416270470021416200
:102690008169B1FA81F1C1F11F0101EB81020E499B
:1026A00051F822306BB101EB820101F108034A6855
:1026B00052684A609A4201D152684A60D16801600A
:1026C0007047502080F31188BFF34F8FBFF36F8F97
:1026D000FEE700001C000020980300201CB53748CE
:1026E0000168374A914207D1502080F31188BFF327
:1026F0004F8FBFF36F8FFEE700683149491E884254
:1027000007D1502080F31188BFF34F8FBFF36F8F35
:10271000FEE72C4908780190FF20087008788DF8B2
:1027200000009DF800009DF8002000F0F0009042AD
:1027300007D0502080F31188BFF34F8FBFF36F8F06
:10274000FEE79DF80000204B00F0500018700720B5
:10275000986005E09DF8002052008DF80020401E92
:102760009DF800201206F5D49860032807D0502069
:1027700080F31188BFF34F8FBFF36F8FFEE74FF4E5
:1027800040709860019808700C482030016841F44E
:1027900070010160016841F070410160FFF7B4FE13
:1027A00000205860FDF730FD0848016841F04041C5
:1027B0000160FDF715FD00201CBD000000ED00E0EC
:1027C00071C20F4100E400E07000002034EF00E02F
:1027D0002DE9FF5F8346DDE90E87994616468A4656
:1027E0009000FFF749FD05001CD05420FFF744FD81
:1027F000040014D00020256384F85100CDE9024084
:10280000CDE900874B46324651465846FFF7A2FCB9
:102810002046FFF7C7FB012004B0BDE8F09F284623
:10282000FFF744FE4FF0FF30F6E7F0B585B0DDE985
:102830000B640A9DA6B1DCB15427009726630226DB
:1028400084F85160002604AFCDE90246CDE9005777
:10285000FFF780FC2046FFF7A5FB049805B0F0BD0C
:10286000502080F31188BFF34F8FBFF36F8FFEE7C7
:10287000502080F31188BFF34F8FBFF36F8FFEE7B7
:1028800001484069704700001C0000202DE9F0411C
:102890002E4C0027A06B40B1206A401C2062606A69
:1028A00000B101273846BDE8F0816669761C666193
:1028B00013D16068006838B1502080F31188BFF3ED
:1028C0004F8FBFF36F8FFEE76068A1686160A06003
:1028D000A06A401CA062FFF7ABFC206BDFF87080A1
:1028E000864209D36068006880B16068C068C568C6
:1028F000686886420DD220632068C06A00EB8001C0
:1029000058F821000128CAD90127C8E74FF0FF3045
:10291000F1E7281DFFF746FDA86A18B105F1180078
:10292000FFF740FDE86A0121A26981401143A161DE
:1029300000EB800108EB8100291DFFF777FDE86AB5
:102940002168C96A8842CDD30127CBE71C0000204B
:10295000980300202DE9F0472C4D00242746A86B52
:1029600038B1FFF76FFDA86B401EA863A86B40B19C
:1029700046E0502080F31188BFF34F8FBFF36F8F75
:10298000FEE72969224E0120D1B3A6F1B4098046A1
:102990003068E8B1F068C46804F11800FFF702FD80
:1029A000201DFFF7FFFCE06AAA6908FA00F1114355
:1029B000A96100EB800109EB8100211DFFF736FDC5
:1029C000E06A2968C96A8842E2D3C5F82480DFE753
:1029D0000CB1FFF72DFC2C6A44B14646FFF756FFB9
:1029E00000B16E62641EF9D100202862686A38B1B5
:1029F0000849012738070860BFF34F8FBFF36F8F77
:102A0000FFF740FD3846BDE8F08700001C000020BD
:102A10004C04002004ED00E0682A0008651E000850
:102A20000000000000000000800000000000000026
:102A300000000000702A00080D1E000801000000C0
:102A40000000000080000000000000000000000006
:102A5000000000000000000001020304060708094E
:102A600000000000010203046C65645461736B0094
:102A70006465746563745461736B00009C2A00087C
:102A8000000000207C000000EC1D0008182B00084E
:102A90007C0000200C440000FC1D00080000000029
:102AA0000000000000000000010000001000000015
:102AB000000000000024F4000000000000000000FE
:102AC0000000000000000000000000000000000006
:102AD00000000000000000000000000000000000F6
:102AE00000000000000000000000000000000000E6
:102AF00000000000000000000000000000000000D6
:102B000000000000000000000000000000000000C5
:082B1000AAAAAAAA0000000015
:04000005080001AD41
:00000001FF
